{
  "contractName": "AOSRing",
  "abi": [
    {
      "inputs": [
        {
          "internalType": "uint256[]",
          "name": "pubkeys",
          "type": "uint256[]"
        },
        {
          "internalType": "uint256[]",
          "name": "tees",
          "type": "uint256[]"
        },
        {
          "internalType": "uint256",
          "name": "seed",
          "type": "uint256"
        },
        {
          "internalType": "uint256",
          "name": "message",
          "type": "uint256"
        }
      ],
      "name": "Verify",
      "outputs": [
        {
          "internalType": "bool",
          "name": "",
          "type": "bool"
        }
      ],
      "stateMutability": "pure",
      "type": "function"
    }
  ],
  "bytecode": "0x6104e6610053600b82828239805160001a607314610046577f4e487b7100000000000000000000000000000000000000000000000000000000600052600060045260246000fd5b30600052607381538281f3fe73000000000000000000000000000000000000000030146080604052600436106100355760003560e01c80633b40da011461003a575b600080fd5b610054600480360381019061004f9190610291565b61006a565b604051610061919061034b565b60405180910390f35b6000806002865161007b9190610395565b1461008557600080fd5b600085511161009357600080fd5b60008390506000600287516100a891906103f5565b905060005b818110156100de5760006002826100c49190610426565b9050600c93505080806100d690610468565b9150506100ad565b5084821492505050949350505050565b6000604051905090565b600080fd5b600080fd5b600080fd5b6000601f19601f8301169050919050565b7f4e487b7100000000000000000000000000000000000000000000000000000000600052604160045260246000fd5b61015082610107565b810181811067ffffffffffffffff8211171561016f5761016e610118565b5b80604052505050565b60006101826100ee565b905061018e8282610147565b919050565b600067ffffffffffffffff8211156101ae576101ad610118565b5b602082029050602081019050919050565b600080fd5b6000819050919050565b6101d7816101c4565b81146101e257600080fd5b50565b6000813590506101f4816101ce565b92915050565b600061020d61020884610193565b610178565b905080838252602082019050602084028301858111156102305761022f6101bf565b5b835b81811015610259578061024588826101e5565b845260208401935050602081019050610232565b5050509392505050565b600082601f83011261027857610277610102565b5b81356102888482602086016101fa565b91505092915050565b600080600080608085870312156102ab576102aa6100f8565b5b600085013567ffffffffffffffff8111156102c9576102c86100fd565b5b6102d587828801610263565b945050602085013567ffffffffffffffff8111156102f6576102f56100fd565b5b61030287828801610263565b9350506040610313878288016101e5565b9250506060610324878288016101e5565b91505092959194509250565b60008115159050919050565b61034581610330565b82525050565b6000602082019050610360600083018461033c565b92915050565b7f4e487b7100000000000000000000000000000000000000000000000000000000600052601260045260246000fd5b60006103a0826101c4565b91506103ab836101c4565b9250826103bb576103ba610366565b5b828206905092915050565b7f4e487b7100000000000000000000000000000000000000000000000000000000600052601160045260246000fd5b6000610400826101c4565b915061040b836101c4565b92508261041b5761041a610366565b5b828204905092915050565b6000610431826101c4565b915061043c836101c4565b925082820261044a816101c4565b91508282048414831517610461576104606103c6565b5b5092915050565b6000610473826101c4565b91507fffffffffffffffffffffffffffffffffffffffffffffffffffffffffffffffff82036104a5576104a46103c6565b5b60018201905091905056fea264697066735822122016f76da5c4b4a9254a80067ba32235eae845fbf73129ced3c246e7d3bdecd8bb64736f6c63430008110033",
  "immutableReferences": {},
  "source": "pragma solidity ^0.8.17;\r\n\r\nimport \"./Curve.sol\";\r\nimport \"./Schnorr.sol\";\r\n\r\n// https://www.iacr.org/cryptodb/archive/2002/ASIACRYPT/50/50.pdf\r\nlibrary AOSRing\r\n{\r\n\tfunction Verify( uint256[] memory pubkeys, uint256[] memory tees, uint256 seed, uint256 message ) public pure returns (bool)\r\n\t{\r\n\t\trequire( pubkeys.length % 2 == 0 );\r\n\t\trequire( pubkeys.length > 0 );\r\n\t\t// TODO: verify seed\r\n\t\t// TODO: fit message to Curve.N()\r\n\t\tuint256 c = seed;\r\n\t\tuint256 nkeys = pubkeys.length / 2;\r\n\t\tfor( uint256 i = 0; i < nkeys; i++ ) {\r\n\t\t\tuint256 j = i * 2;\r\n\t\t\tc = 12; //Schnorr.CalcProof([pubkeys[j], pubkeys[j+1]], message, tees[i], c);\r\n\t\t}\r\n\t\treturn c == seed;\r\n\t}\r\n}",
  "sourcePath": "C:\\Users\\hervi\\Documents\\Blockchain Projects\\ETHDenver2023\\Smart-contract\\truffle\\contracts\\AOS\\AOSring.sol",
  "compiler": {
    "name": "solc",
    "version": "0.8.17+commit.8df45f5f.Emscripten.clang"
  },
  "schemaVersion": "3.4.12",
  "updatedAt": "2023-02-28T16:57:32.826Z",
  "devdoc": {
    "kind": "dev",
    "methods": {},
    "version": 1
  },
  "userdoc": {
    "kind": "user",
    "methods": {},
    "version": 1
  }
}