{
  "contractName": "HackyAOSRing",
  "abi": [
    {
      "inputs": [
        {
          "internalType": "address[]",
          "name": "addresses",
          "type": "address[]"
        },
        {
          "internalType": "uint256[]",
          "name": "tees",
          "type": "uint256[]"
        },
        {
          "internalType": "uint256",
          "name": "seed",
          "type": "uint256"
        },
        {
          "internalType": "uint256",
          "name": "message",
          "type": "uint256"
        }
      ],
      "name": "Verify",
      "outputs": [
        {
          "internalType": "bool",
          "name": "",
          "type": "bool"
        }
      ],
      "stateMutability": "pure",
      "type": "function"
    }
  ],
  "bytecode": "0x6109d2610053600b82828239805160001a607314610046577f4e487b7100000000000000000000000000000000000000000000000000000000600052600060045260246000fd5b30600052607381538281f3fe73000000000000000000000000000000000000000030146080604052600436106100355760003560e01c8063b626e3251461003a575b600080fd5b610054600480360381019061004f9190610609565b61006a565b60405161006191906106c3565b60405180910390f35b600080855167ffffffffffffffff8111156100885761008761036f565b5b6040519080825280602002602001820160405280156100b65781602001602082028036833780820191505090505b50905060005b8651811015610128578681815181106100d8576100d76106de565b5b602002602001015173ffffffffffffffffffffffffffffffffffffffff16828281518110610109576101086106de565b5b60200260200101818152505080806101209061073c565b9150506100bc565b5060006002825161013991906107b3565b1461014357600080fd5b600081511161015157600080fd5b600084905060006002835161016691906107e4565b90506000805b828110156101ff576101db85838151811061018a576101896106de565b5b6020026020010151866001856101a09190610815565b815181106101b1576101b06106de565b5b6020026020010151898c85815181106101cd576101cc6106de565b5b602002602001015188610211565b93506002826101ea9190610815565b915080806101f79061073c565b91505061016c565b50868314945050505050949350505050565b60008061022084888886610264565b905060008787838860405160200161023b94939291906108a0565b6040516020818303038152906040529050808051906020012060001c9250505095945050505050565b6000807ffffffffffffffffffffffffffffffffebaaedce6af48a03bbfd25e8cd03641419050808061029957610298610784565b5b858288846102a791906108ee565b6102b191906107b3565b09955060018660001b60006002876102c991906107b3565b036102d557601b6102d8565b601c5b8760001b84806102eb576102ea610784565b5b89880960001b6040516000815260200160405260405161030e9493929190610957565b6020604051602081039080840390855afa158015610330573d6000803e3d6000fd5b50505060206040510351915050949350505050565b6000604051905090565b600080fd5b600080fd5b600080fd5b6000601f19601f8301169050919050565b7f4e487b7100000000000000000000000000000000000000000000000000000000600052604160045260246000fd5b6103a78261035e565b810181811067ffffffffffffffff821117156103c6576103c561036f565b5b80604052505050565b60006103d9610345565b90506103e5828261039e565b919050565b600067ffffffffffffffff8211156104055761040461036f565b5b602082029050602081019050919050565b600080fd5b600073ffffffffffffffffffffffffffffffffffffffff82169050919050565b60006104468261041b565b9050919050565b6104568161043b565b811461046157600080fd5b50565b6000813590506104738161044d565b92915050565b600061048c610487846103ea565b6103cf565b905080838252602082019050602084028301858111156104af576104ae610416565b5b835b818110156104d857806104c48882610464565b8452602084019350506020810190506104b1565b5050509392505050565b600082601f8301126104f7576104f6610359565b5b8135610507848260208601610479565b91505092915050565b600067ffffffffffffffff82111561052b5761052a61036f565b5b602082029050602081019050919050565b6000819050919050565b61054f8161053c565b811461055a57600080fd5b50565b60008135905061056c81610546565b92915050565b600061058561058084610510565b6103cf565b905080838252602082019050602084028301858111156105a8576105a7610416565b5b835b818110156105d157806105bd888261055d565b8452602084019350506020810190506105aa565b5050509392505050565b600082601f8301126105f0576105ef610359565b5b8135610600848260208601610572565b91505092915050565b600080600080608085870312156106235761062261034f565b5b600085013567ffffffffffffffff81111561064157610640610354565b5b61064d878288016104e2565b945050602085013567ffffffffffffffff81111561066e5761066d610354565b5b61067a878288016105db565b935050604061068b8782880161055d565b925050606061069c8782880161055d565b91505092959194509250565b60008115159050919050565b6106bd816106a8565b82525050565b60006020820190506106d860008301846106b4565b92915050565b7f4e487b7100000000000000000000000000000000000000000000000000000000600052603260045260246000fd5b7f4e487b7100000000000000000000000000000000000000000000000000000000600052601160045260246000fd5b60006107478261053c565b91507fffffffffffffffffffffffffffffffffffffffffffffffffffffffffffffffff82036107795761077861070d565b5b600182019050919050565b7f4e487b7100000000000000000000000000000000000000000000000000000000600052601260045260246000fd5b60006107be8261053c565b91506107c98361053c565b9250826107d9576107d8610784565b5b828206905092915050565b60006107ef8261053c565b91506107fa8361053c565b92508261080a57610809610784565b5b828204905092915050565b60006108208261053c565b915061082b8361053c565b92508282019050808211156108435761084261070d565b5b92915050565b6000819050919050565b61086461085f8261053c565b610849565b82525050565b60008160601b9050919050565b60006108828261086a565b9050919050565b61089a6108958261041b565b610877565b82525050565b60006108ac8287610853565b6020820191506108bc8286610853565b6020820191506108cc8285610889565b6014820191506108dc8284610853565b60208201915081905095945050505050565b60006108f98261053c565b91506109048361053c565b925082820390508181111561091c5761091b61070d565b5b92915050565b6000819050919050565b61093581610922565b82525050565b600060ff82169050919050565b6109518161093b565b82525050565b600060808201905061096c600083018761092c565b6109796020830186610948565b610986604083018561092c565b610993606083018461092c565b9594505050505056fea2646970667358221220a100ab1162cfff3d6629e0ad0927c6fc63f663ef5f7cf1439670f973e29eb3b164736f6c63430008110033",
  "immutableReferences": {},
  "source": "pragma solidity ^0.8.17;\r\n\r\n\r\nlibrary HackyAOSRing\r\n{  \r\n    function sbmul_add_smul(uint256 a, uint256 x, uint256 y, uint256 c)\r\n        internal pure returns(address)\r\n    {\r\n        uint256 Q = 0xFFFFFFFFFFFFFFFFFFFFFFFFFFFFFFFEBAAEDCE6AF48A03BBFD25E8CD0364141;\r\n\r\n        a = mulmod((Q - a) % Q, x, Q);\r\n\r\n        return ecrecover(\r\n        \tbytes32(a),\t\t\t\t\t\t// 'msghash'\r\n        \ty % 2 != 0 ? 28 : 27,\t\t// v\r\n        \tbytes32(x),\t\t\t\t\t// r\r\n        \tbytes32(mulmod(c, x, Q)));\t// s\r\n    }\r\n\r\n\r\n\tfunction HackySchnorrCalc( uint256 x, uint256 y, uint256 message, uint256 t, uint256 s )\r\n\t\tinternal pure returns(uint256)\r\n\t{\r\n\t\taddress hashed_point = sbmul_add_smul(t, x, y, s);\r\n\r\n\t\tbytes memory ring_link = abi.encodePacked(x, y, uint160(hashed_point), message);\r\n\r\n\t\treturn uint256(keccak256(ring_link));\r\n\t}\r\n\r\n\r\n\tfunction Verify( address[] memory addresses, uint256[] memory tees, uint256 seed, uint256 message )\r\n\t\tpublic pure returns (bool)\r\n\t{\r\n\t\tuint256[] memory pubkeys = new uint256[](addresses.length);\r\n\t\tfor( uint256 i = 0; i < addresses.length; i++ )\r\n\t\t{\r\n\t\t\tpubkeys[i] = uint256(uint160(addresses[i]));\r\n\t\t}\r\n\t\trequire( pubkeys.length % 2 == 0 );\r\n\t\trequire( pubkeys.length > 0 );\r\n\r\n\t\tuint256 c = seed;\r\n\t\tuint256 nkeys = pubkeys.length / 2;\r\n\t\tuint256 j = 0;\r\n\r\n\t\tfor( uint256 i = 0; i < nkeys; i++ )\r\n\t\t{\r\n\t\t\t// TODO: verify (pubkeys[j], pubkeys[j+1]) is on curve\r\n\t\t\t// TODO: verify 0 < tees[i] < P\r\n\t\t\t// TODO: c = c % N ?\t\r\n\r\n\t\t\tc = HackySchnorrCalc(pubkeys[j], pubkeys[j+1], message, tees[i], c);\r\n\t\t\tj += 2;\r\n\t\t}\r\n\r\n\t\treturn c == seed;\r\n\t}\r\n}",
  "sourcePath": "C:\\Users\\hervi\\Documents\\Blockchain Projects\\ETHDenver2023\\Smart-contract\\truffle\\contracts\\hackyAOS\\hackyAOS.sol",
  "compiler": {
    "name": "solc",
    "version": "0.8.17+commit.8df45f5f.Emscripten.clang"
  },
  "schemaVersion": "3.4.12",
  "updatedAt": "2023-02-28T16:57:32.848Z",
  "devdoc": {
    "kind": "dev",
    "methods": {},
    "version": 1
  },
  "userdoc": {
    "kind": "user",
    "methods": {},
    "version": 1
  }
}