{
  "contractName": "merkle",
  "abi": [
    {
      "inputs": [
        {
          "internalType": "bytes32[]",
          "name": "addresses",
          "type": "bytes32[]"
        }
      ],
      "name": "buildRoot",
      "outputs": [
        {
          "internalType": "bytes32",
          "name": "",
          "type": "bytes32"
        }
      ],
      "stateMutability": "pure",
      "type": "function"
    },
    {
      "inputs": [
        {
          "internalType": "bytes32",
          "name": "root",
          "type": "bytes32"
        },
        {
          "internalType": "bytes32[]",
          "name": "addresses",
          "type": "bytes32[]"
        }
      ],
      "name": "verifyRoot",
      "outputs": [
        {
          "internalType": "bool",
          "name": "",
          "type": "bool"
        }
      ],
      "stateMutability": "pure",
      "type": "function"
    }
  ],
  "bytecode": "0x608060405234801561001057600080fd5b506108f7806100206000396000f3fe608060405234801561001057600080fd5b50600436106100365760003560e01c806316db33f61461003b5780631d1ae0fc1461006b575b600080fd5b610055600480360381019061005091906105ab565b61009b565b6040516100629190610622565b60405180910390f35b6100856004803603810190610080919061063d565b6100b0565b6040516100929190610695565b60405180910390f35b6000826100a7836100b0565b14905092915050565b600080825167ffffffffffffffff8111156100ce576100cd610468565b5b6040519080825280602002602001820160405280156100fc5781602001602082028036833780820191505090505b50905060005b835181101561017e5783818151811061011e5761011d6106b0565b5b60200260200101516040516020016101369190610700565b6040516020818303038152906040528051906020012082828151811061015f5761015e6106b0565b5b602002602001018181525050808061017690610754565b915050610102565b5061018881610190565b915050919050565b6000808251036101a5576000801b9050610403565b60018251036101d157816000815181106101c2576101c16106b0565b5b60200260200101519050610403565b6001600283516101e191906107cb565b036102e7576000600183516101f691906107fc565b67ffffffffffffffff81111561020f5761020e610468565b5b60405190808252806020026020018201604052801561023d5781602001602082028036833780820191505090505b50905060005b83518110156102995783818151811061025f5761025e6106b0565b5b602002602001015182828151811061027a576102796106b0565b5b602002602001018181525050808061029190610754565b915050610243565b5082600184516102a99190610830565b815181106102ba576102b96106b0565b5b6020026020010151818451815181106102d6576102d56106b0565b5b602002602001018181525050809250505b6000600283516102f79190610864565b67ffffffffffffffff8111156103105761030f610468565b5b60405190808252806020026020018201604052801561033e5781602001602082028036833780820191505090505b50905060005b83518110156103f5578381815181106103605761035f6106b0565b5b60200260200101518460018361037691906107fc565b81518110610387576103866106b0565b5b60200260200101516040516020016103a0929190610895565b60405160208183030381529060405280519060200120826002836103c49190610864565b815181106103d5576103d46106b0565b5b6020026020010181815250506002816103ee91906107fc565b9050610344565b506103ff81610190565b9150505b919050565b6000604051905090565b600080fd5b600080fd5b6000819050919050565b61042f8161041c565b811461043a57600080fd5b50565b60008135905061044c81610426565b92915050565b600080fd5b6000601f19601f8301169050919050565b7f4e487b7100000000000000000000000000000000000000000000000000000000600052604160045260246000fd5b6104a082610457565b810181811067ffffffffffffffff821117156104bf576104be610468565b5b80604052505050565b60006104d2610408565b90506104de8282610497565b919050565b600067ffffffffffffffff8211156104fe576104fd610468565b5b602082029050602081019050919050565b600080fd5b6000610527610522846104e3565b6104c8565b9050808382526020820190506020840283018581111561054a5761054961050f565b5b835b81811015610573578061055f888261043d565b84526020840193505060208101905061054c565b5050509392505050565b600082601f83011261059257610591610452565b5b81356105a2848260208601610514565b91505092915050565b600080604083850312156105c2576105c1610412565b5b60006105d08582860161043d565b925050602083013567ffffffffffffffff8111156105f1576105f0610417565b5b6105fd8582860161057d565b9150509250929050565b60008115159050919050565b61061c81610607565b82525050565b60006020820190506106376000830184610613565b92915050565b60006020828403121561065357610652610412565b5b600082013567ffffffffffffffff81111561067157610670610417565b5b61067d8482850161057d565b91505092915050565b61068f8161041c565b82525050565b60006020820190506106aa6000830184610686565b92915050565b7f4e487b7100000000000000000000000000000000000000000000000000000000600052603260045260246000fd5b6000819050919050565b6106fa6106f58261041c565b6106df565b82525050565b600061070c82846106e9565b60208201915081905092915050565b7f4e487b7100000000000000000000000000000000000000000000000000000000600052601160045260246000fd5b6000819050919050565b600061075f8261074a565b91507fffffffffffffffffffffffffffffffffffffffffffffffffffffffffffffffff82036107915761079061071b565b5b600182019050919050565b7f4e487b7100000000000000000000000000000000000000000000000000000000600052601260045260246000fd5b60006107d68261074a565b91506107e18361074a565b9250826107f1576107f061079c565b5b828206905092915050565b60006108078261074a565b91506108128361074a565b925082820190508082111561082a5761082961071b565b5b92915050565b600061083b8261074a565b91506108468361074a565b925082820390508181111561085e5761085d61071b565b5b92915050565b600061086f8261074a565b915061087a8361074a565b92508261088a5761088961079c565b5b828204905092915050565b60006108a182856106e9565b6020820191506108b182846106e9565b602082019150819050939250505056fea2646970667358221220f4624b4ef5545300ad3626c90054b444ac844a47540be17fe741a8e5a74d470464736f6c63430008110033",
  "immutableReferences": {},
  "source": "// license: MIT\r\n\r\npragma solidity ^0.8.17;\r\n\r\n\r\ncontract merkle  {\r\n    \r\n    // build root from a list of addresses\r\n    function buildRoot(bytes32[] memory addresses) public pure returns (bytes32) {\r\n        bytes32[] memory leaves = new bytes32[](addresses.length);\r\n        for (uint i = 0; i < addresses.length; i++) {\r\n            leaves[i] = keccak256(abi.encodePacked(addresses[i]));\r\n        }\r\n        return buildRootFromLeaves(leaves);\r\n    }\r\n\r\n    // build root from a list of leaves\r\n    function buildRootFromLeaves(bytes32[] memory leaves) private pure returns (bytes32) {\r\n        if (leaves.length == 0) {\r\n            return 0x0;\r\n        }\r\n        if (leaves.length == 1) {\r\n            return leaves[0];\r\n        }\r\n        if (leaves.length % 2 == 1) {\r\n            bytes32[] memory tmp = new bytes32[](leaves.length + 1);\r\n            for (uint i = 0; i < leaves.length; i++) {\r\n                tmp[i] = leaves[i];\r\n            }\r\n            tmp[leaves.length] = leaves[leaves.length - 1];\r\n            leaves = tmp;\r\n        }\r\n        bytes32[] memory parents = new bytes32[](leaves.length / 2);\r\n        for (uint i = 0; i < leaves.length; i += 2) {\r\n            parents[i / 2] = keccak256(abi.encodePacked(leaves[i], leaves[i + 1]));\r\n        }\r\n        return buildRootFromLeaves(parents);\r\n    }\r\n\r\n    // check if a merkle root is valid\r\n    function verifyRoot(bytes32 root, bytes32[] memory addresses) public pure returns (bool) {\r\n        return buildRoot(addresses) == root;\r\n    }\r\n    \r\n}",
  "sourcePath": "C:\\Users\\hervi\\Documents\\Blockchain Projects\\ETHDenver2023\\Smart-contract\\truffle\\contracts\\testMerkleTree.sol",
  "compiler": {
    "name": "solc",
    "version": "0.8.17+commit.8df45f5f.Emscripten.clang"
  },
  "schemaVersion": "3.4.12",
  "updatedAt": "2023-02-25T22:35:32.787Z",
  "devdoc": {
    "kind": "dev",
    "methods": {},
    "version": 1
  },
  "userdoc": {
    "kind": "user",
    "methods": {},
    "version": 1
  }
}