{
  "contractName": "MerkleProof",
  "abi": [
    {
      "inputs": [
        {
          "internalType": "bytes",
          "name": "data",
          "type": "bytes"
        }
      ],
      "name": "Hash",
      "outputs": [
        {
          "internalType": "uint256",
          "name": "",
          "type": "uint256"
        }
      ],
      "stateMutability": "pure",
      "type": "function"
    },
    {
      "inputs": [
        {
          "internalType": "uint256",
          "name": "a",
          "type": "uint256"
        },
        {
          "internalType": "uint256",
          "name": "b",
          "type": "uint256"
        }
      ],
      "name": "Hash2",
      "outputs": [
        {
          "internalType": "uint256",
          "name": "",
          "type": "uint256"
        }
      ],
      "stateMutability": "pure",
      "type": "function"
    },
    {
      "inputs": [
        {
          "internalType": "uint256",
          "name": "root",
          "type": "uint256"
        },
        {
          "internalType": "uint256",
          "name": "leaf_hash",
          "type": "uint256"
        },
        {
          "internalType": "uint256[]",
          "name": "path",
          "type": "uint256[]"
        }
      ],
      "name": "Verify",
      "outputs": [
        {
          "internalType": "bool",
          "name": "",
          "type": "bool"
        }
      ],
      "stateMutability": "pure",
      "type": "function"
    }
  ],
  "bytecode": "0x610790610053600b82828239805160001a607314610046577f4e487b7100000000000000000000000000000000000000000000000000000000600052600060045260246000fd5b30600052607381538281f3fe730000000000000000000000000000000000000000301460806040526004361061004b5760003560e01c8063065d1b4614610050578063a53a23b814610080578063bd1bd35a146100b0575b600080fd5b61006a60048036038101906100659190610301565b6100e0565b6040516100779190610350565b60405180910390f35b61009a600480360381019061009591906104c4565b610172565b6040516100a7919061054e565b60405180910390f35b6100ca60048036038101906100c5919061061e565b610247565b6040516100d79190610350565b60405180910390f35b60008083836040516020016100f6929190610688565b6040516020818303038152906040528051906020012060001c905060007f800000000000000000000000000000000000000000000000000000000000000082161115610167577f8000000000000000000000000000000000000000000000000000000000000000811891505061016c565b809150505b92915050565b600080825103610186578383149050610240565b6000839050600080600090505b8451811015610237578481815181106101af576101ae6106b4565b5b6020026020010151915060007f80000000000000000000000000000000000000000000000000000000000000008316111561021757610210837f800000000000000000000000000000000000000000000000000000000000000084186100e0565b9250610224565b61022182846100e0565b92505b808061022f90610712565b915050610193565b50858214925050505b9392505050565b600080828051906020012060001c905060007f8000000000000000000000000000000000000000000000000000000000000000821611156102ad577f800000000000000000000000000000000000000000000000000000000000000081189150506102b2565b809150505b919050565b6000604051905090565b600080fd5b600080fd5b6000819050919050565b6102de816102cb565b81146102e957600080fd5b50565b6000813590506102fb816102d5565b92915050565b60008060408385031215610318576103176102c1565b5b6000610326858286016102ec565b9250506020610337858286016102ec565b9150509250929050565b61034a816102cb565b82525050565b60006020820190506103656000830184610341565b92915050565b600080fd5b6000601f19601f8301169050919050565b7f4e487b7100000000000000000000000000000000000000000000000000000000600052604160045260246000fd5b6103b982610370565b810181811067ffffffffffffffff821117156103d8576103d7610381565b5b80604052505050565b60006103eb6102b7565b90506103f782826103b0565b919050565b600067ffffffffffffffff82111561041757610416610381565b5b602082029050602081019050919050565b600080fd5b600061044061043b846103fc565b6103e1565b9050808382526020820190506020840283018581111561046357610462610428565b5b835b8181101561048c578061047888826102ec565b845260208401935050602081019050610465565b5050509392505050565b600082601f8301126104ab576104aa61036b565b5b81356104bb84826020860161042d565b91505092915050565b6000806000606084860312156104dd576104dc6102c1565b5b60006104eb868287016102ec565b93505060206104fc868287016102ec565b925050604084013567ffffffffffffffff81111561051d5761051c6102c6565b5b61052986828701610496565b9150509250925092565b60008115159050919050565b61054881610533565b82525050565b6000602082019050610563600083018461053f565b92915050565b600080fd5b600067ffffffffffffffff82111561058957610588610381565b5b61059282610370565b9050602081019050919050565b82818337600083830152505050565b60006105c16105bc8461056e565b6103e1565b9050828152602081018484840111156105dd576105dc610569565b5b6105e884828561059f565b509392505050565b600082601f8301126106055761060461036b565b5b81356106158482602086016105ae565b91505092915050565b600060208284031215610634576106336102c1565b5b600082013567ffffffffffffffff811115610652576106516102c6565b5b61065e848285016105f0565b91505092915050565b6000819050919050565b61068261067d826102cb565b610667565b82525050565b60006106948285610671565b6020820191506106a48284610671565b6020820191508190509392505050565b7f4e487b7100000000000000000000000000000000000000000000000000000000600052603260045260246000fd5b7f4e487b7100000000000000000000000000000000000000000000000000000000600052601160045260246000fd5b600061071d826102cb565b91507fffffffffffffffffffffffffffffffffffffffffffffffffffffffffffffffff820361074f5761074e6106e3565b5b60018201905091905056fea2646970667358221220c0b82e8912a3953d3dab95ebd253f7d16d2d48023bdf47f0ed63ea954dc6d59664736f6c63430008110033",
  "immutableReferences": {},
  "source": "pragma solidity ^0.8.17;\r\n\r\nlibrary MerkleProof\r\n{\r\n    uint256 constant ONE_SHL_255 = 57896044618658097711785492504343953926634992332820282019728792003956564819968;\r\n    \r\n    function Hash( bytes memory data )\r\n        public pure\r\n        returns (uint256)\r\n    {\r\n        uint256 x = uint256(keccak256(data));\r\n        // Clears highest bit from result\r\n        if( x & ONE_SHL_255 > 0 )\r\n            return x ^ ONE_SHL_255;\r\n        return x;\r\n    }\r\n    \r\n    \r\n    function Hash2( uint256 a, uint256 b )\r\n        public pure\r\n        returns (uint256)\r\n    {\r\n        uint256 x = uint256(keccak256(abi.encodePacked(a, b)));\r\n        // Clears highest bit from result\r\n        if( x & ONE_SHL_255 > 0 )\r\n            return x ^ ONE_SHL_255;\r\n        return x;\r\n    }\r\n\r\n    /*\r\n    * Test case:\r\n    * \"0x1a792cf089bfa56eae57ffe87e9b22f9c9bfe52c1ac300ea1f43f4ab53b4b794\",\"0x2584db4a68aa8b172f70bc04e2e74541617c003374de6eb4b295e823e5beab01\",[\"0x1ab0c6948a275349ae45a06aad66a8bd65ac18074615d53676c09b67809099e0\",\"0x093fd25755220b8f497d65d2538c01ed279c131f63e42b2942867f2bd6622486\",\"0xb1d101d9a9d27c3a8ed9d1b6548626eacf3d19546306117eb8af547d1e97189e\",\"0xcb431dd627bc8dcfd858eae9304dc71a8d3f34a8de783c093188bb598eeafd04\"]\r\n    */\r\n    function Verify( uint256 root, uint256 leaf_hash, uint256[] memory path )\r\n        public pure returns (bool)\r\n    {\r\n        if( path.length == 0 )\r\n            return leaf_hash == root;\r\n\r\n        uint256 node = leaf_hash;\r\n        uint256 item;\r\n        for( uint256 i = 0; i < path.length; i++ )\r\n        {\r\n            item = path[i];\r\n            if( (item & ONE_SHL_255) > 0 ) {\r\n                node = Hash2(node, item ^ ONE_SHL_255);\r\n            }\r\n            else {\r\n                node = Hash2(item, node);\r\n            }\r\n        }\r\n        \r\n        return node == root;\r\n    }\r\n}",
  "sourcePath": "C:\\Users\\hervi\\Documents\\Blockchain Projects\\ETHDenver2023\\Smart-contract\\truffle\\contracts\\merklesolcrypto.sol",
  "compiler": {
    "name": "solc",
    "version": "0.8.17+commit.8df45f5f.Emscripten.clang"
  },
  "schemaVersion": "3.4.12",
  "updatedAt": "2023-02-28T16:57:32.858Z",
  "devdoc": {
    "kind": "dev",
    "methods": {},
    "version": 1
  },
  "userdoc": {
    "kind": "user",
    "methods": {},
    "version": 1
  }
}