{
  "contractName": "PoS_token",
  "abi": [
    {
      "inputs": [
        {
          "internalType": "string",
          "name": "name_",
          "type": "string"
        },
        {
          "internalType": "string",
          "name": "symbol_",
          "type": "string"
        }
      ],
      "stateMutability": "nonpayable",
      "type": "constructor"
    },
    {
      "anonymous": false,
      "inputs": [
        {
          "indexed": true,
          "internalType": "address",
          "name": "owner",
          "type": "address"
        },
        {
          "indexed": true,
          "internalType": "address",
          "name": "approved",
          "type": "address"
        },
        {
          "indexed": true,
          "internalType": "uint256",
          "name": "tokenId",
          "type": "uint256"
        }
      ],
      "name": "Approval",
      "type": "event"
    },
    {
      "anonymous": false,
      "inputs": [
        {
          "indexed": true,
          "internalType": "address",
          "name": "owner",
          "type": "address"
        },
        {
          "indexed": true,
          "internalType": "address",
          "name": "operator",
          "type": "address"
        },
        {
          "indexed": false,
          "internalType": "bool",
          "name": "approved",
          "type": "bool"
        }
      ],
      "name": "ApprovalForAll",
      "type": "event"
    },
    {
      "anonymous": false,
      "inputs": [
        {
          "indexed": true,
          "internalType": "address",
          "name": "owner",
          "type": "address"
        },
        {
          "indexed": true,
          "internalType": "uint256",
          "name": "tokenId",
          "type": "uint256"
        }
      ],
      "name": "Burn",
      "type": "event"
    },
    {
      "anonymous": false,
      "inputs": [
        {
          "indexed": true,
          "internalType": "address",
          "name": "owner",
          "type": "address"
        },
        {
          "indexed": true,
          "internalType": "uint256",
          "name": "tokenId",
          "type": "uint256"
        }
      ],
      "name": "Mint",
      "type": "event"
    },
    {
      "anonymous": false,
      "inputs": [
        {
          "indexed": true,
          "internalType": "address",
          "name": "from",
          "type": "address"
        },
        {
          "indexed": true,
          "internalType": "address",
          "name": "to",
          "type": "address"
        },
        {
          "indexed": true,
          "internalType": "uint256",
          "name": "tokenId",
          "type": "uint256"
        }
      ],
      "name": "Transfer",
      "type": "event"
    },
    {
      "inputs": [
        {
          "internalType": "address",
          "name": "",
          "type": "address"
        }
      ],
      "name": "_isAdmin",
      "outputs": [
        {
          "internalType": "bool",
          "name": "",
          "type": "bool"
        }
      ],
      "stateMutability": "view",
      "type": "function",
      "constant": true
    },
    {
      "inputs": [
        {
          "internalType": "address",
          "name": "",
          "type": "address"
        }
      ],
      "name": "_isBurner",
      "outputs": [
        {
          "internalType": "bool",
          "name": "",
          "type": "bool"
        }
      ],
      "stateMutability": "view",
      "type": "function",
      "constant": true
    },
    {
      "inputs": [
        {
          "internalType": "address",
          "name": "",
          "type": "address"
        }
      ],
      "name": "_isMinter",
      "outputs": [
        {
          "internalType": "bool",
          "name": "",
          "type": "bool"
        }
      ],
      "stateMutability": "view",
      "type": "function",
      "constant": true
    },
    {
      "inputs": [
        {
          "internalType": "uint256",
          "name": "",
          "type": "uint256"
        }
      ],
      "name": "_merkleRoot",
      "outputs": [
        {
          "internalType": "bytes32",
          "name": "",
          "type": "bytes32"
        }
      ],
      "stateMutability": "view",
      "type": "function",
      "constant": true
    },
    {
      "inputs": [],
      "name": "_name",
      "outputs": [
        {
          "internalType": "string",
          "name": "",
          "type": "string"
        }
      ],
      "stateMutability": "view",
      "type": "function",
      "constant": true
    },
    {
      "inputs": [
        {
          "internalType": "uint256",
          "name": "",
          "type": "uint256"
        }
      ],
      "name": "_owner",
      "outputs": [
        {
          "internalType": "address",
          "name": "",
          "type": "address"
        }
      ],
      "stateMutability": "view",
      "type": "function",
      "constant": true
    },
    {
      "inputs": [
        {
          "internalType": "uint256",
          "name": "",
          "type": "uint256"
        }
      ],
      "name": "_signature",
      "outputs": [
        {
          "internalType": "uint256",
          "name": "",
          "type": "uint256"
        }
      ],
      "stateMutability": "view",
      "type": "function",
      "constant": true
    },
    {
      "inputs": [],
      "name": "_symbol",
      "outputs": [
        {
          "internalType": "string",
          "name": "",
          "type": "string"
        }
      ],
      "stateMutability": "view",
      "type": "function",
      "constant": true
    },
    {
      "inputs": [
        {
          "internalType": "uint256",
          "name": "",
          "type": "uint256"
        }
      ],
      "name": "_timestamp",
      "outputs": [
        {
          "internalType": "uint256",
          "name": "",
          "type": "uint256"
        }
      ],
      "stateMutability": "view",
      "type": "function",
      "constant": true
    },
    {
      "inputs": [
        {
          "internalType": "uint256",
          "name": "",
          "type": "uint256"
        }
      ],
      "name": "_token",
      "outputs": [
        {
          "internalType": "address",
          "name": "",
          "type": "address"
        }
      ],
      "stateMutability": "view",
      "type": "function",
      "constant": true
    },
    {
      "inputs": [
        {
          "internalType": "uint256",
          "name": "",
          "type": "uint256"
        }
      ],
      "name": "_tokenURI",
      "outputs": [
        {
          "internalType": "string",
          "name": "",
          "type": "string"
        }
      ],
      "stateMutability": "view",
      "type": "function",
      "constant": true
    },
    {
      "inputs": [
        {
          "internalType": "uint256",
          "name": "",
          "type": "uint256"
        }
      ],
      "name": "_value",
      "outputs": [
        {
          "internalType": "uint256",
          "name": "",
          "type": "uint256"
        }
      ],
      "stateMutability": "view",
      "type": "function",
      "constant": true
    },
    {
      "inputs": [
        {
          "internalType": "uint256",
          "name": "",
          "type": "uint256"
        }
      ],
      "name": "_verifier",
      "outputs": [
        {
          "internalType": "string",
          "name": "",
          "type": "string"
        }
      ],
      "stateMutability": "view",
      "type": "function",
      "constant": true
    },
    {
      "inputs": [
        {
          "internalType": "address",
          "name": "owner",
          "type": "address"
        }
      ],
      "name": "balanceOf",
      "outputs": [
        {
          "internalType": "uint256",
          "name": "",
          "type": "uint256"
        }
      ],
      "stateMutability": "view",
      "type": "function",
      "constant": true
    },
    {
      "inputs": [],
      "name": "name",
      "outputs": [
        {
          "internalType": "string",
          "name": "",
          "type": "string"
        }
      ],
      "stateMutability": "view",
      "type": "function",
      "constant": true
    },
    {
      "inputs": [
        {
          "internalType": "uint256",
          "name": "tokenId",
          "type": "uint256"
        }
      ],
      "name": "ownerOf",
      "outputs": [
        {
          "internalType": "address",
          "name": "",
          "type": "address"
        }
      ],
      "stateMutability": "view",
      "type": "function",
      "constant": true
    },
    {
      "inputs": [
        {
          "internalType": "bytes4",
          "name": "interfaceId",
          "type": "bytes4"
        }
      ],
      "name": "supportsInterface",
      "outputs": [
        {
          "internalType": "bool",
          "name": "",
          "type": "bool"
        }
      ],
      "stateMutability": "view",
      "type": "function",
      "constant": true
    },
    {
      "inputs": [],
      "name": "symbol",
      "outputs": [
        {
          "internalType": "string",
          "name": "",
          "type": "string"
        }
      ],
      "stateMutability": "view",
      "type": "function",
      "constant": true
    },
    {
      "inputs": [
        {
          "internalType": "uint256",
          "name": "tokenId",
          "type": "uint256"
        }
      ],
      "name": "tokenURI",
      "outputs": [
        {
          "internalType": "string",
          "name": "",
          "type": "string"
        }
      ],
      "stateMutability": "view",
      "type": "function",
      "constant": true
    },
    {
      "inputs": [
        {
          "internalType": "address",
          "name": "from",
          "type": "address"
        },
        {
          "internalType": "address",
          "name": "to",
          "type": "address"
        },
        {
          "internalType": "uint256",
          "name": "tokenId",
          "type": "uint256"
        }
      ],
      "name": "safeTransferFrom",
      "outputs": [],
      "stateMutability": "pure",
      "type": "function",
      "constant": true
    },
    {
      "inputs": [
        {
          "internalType": "address",
          "name": "from",
          "type": "address"
        },
        {
          "internalType": "address",
          "name": "to",
          "type": "address"
        },
        {
          "internalType": "uint256",
          "name": "tokenId",
          "type": "uint256"
        },
        {
          "internalType": "bytes",
          "name": "data",
          "type": "bytes"
        }
      ],
      "name": "safeTransferFrom",
      "outputs": [],
      "stateMutability": "nonpayable",
      "type": "function"
    },
    {
      "inputs": [
        {
          "internalType": "address",
          "name": "from",
          "type": "address"
        },
        {
          "internalType": "address",
          "name": "to",
          "type": "address"
        },
        {
          "internalType": "uint256",
          "name": "tokenId",
          "type": "uint256"
        }
      ],
      "name": "transferFrom",
      "outputs": [],
      "stateMutability": "pure",
      "type": "function",
      "constant": true
    },
    {
      "inputs": [
        {
          "internalType": "address",
          "name": "to",
          "type": "address"
        },
        {
          "internalType": "uint256",
          "name": "tokenId",
          "type": "uint256"
        }
      ],
      "name": "approve",
      "outputs": [],
      "stateMutability": "pure",
      "type": "function",
      "constant": true
    },
    {
      "inputs": [
        {
          "internalType": "uint256",
          "name": "tokenId",
          "type": "uint256"
        }
      ],
      "name": "getApproved",
      "outputs": [
        {
          "internalType": "address",
          "name": "operator",
          "type": "address"
        }
      ],
      "stateMutability": "pure",
      "type": "function",
      "constant": true
    },
    {
      "inputs": [
        {
          "internalType": "address",
          "name": "operator",
          "type": "address"
        },
        {
          "internalType": "bool",
          "name": "_approved",
          "type": "bool"
        }
      ],
      "name": "setApprovalForAll",
      "outputs": [],
      "stateMutability": "pure",
      "type": "function",
      "constant": true
    },
    {
      "inputs": [
        {
          "internalType": "address",
          "name": "owner",
          "type": "address"
        },
        {
          "internalType": "address",
          "name": "operator",
          "type": "address"
        }
      ],
      "name": "isApprovedForAll",
      "outputs": [
        {
          "internalType": "bool",
          "name": "",
          "type": "bool"
        }
      ],
      "stateMutability": "pure",
      "type": "function",
      "constant": true
    },
    {
      "inputs": [
        {
          "internalType": "address",
          "name": "receiver",
          "type": "address"
        },
        {
          "internalType": "address",
          "name": "token",
          "type": "address"
        },
        {
          "internalType": "uint256",
          "name": "value",
          "type": "uint256"
        },
        {
          "internalType": "string",
          "name": "tokenURI",
          "type": "string"
        },
        {
          "internalType": "bytes32",
          "name": "merkleRoot",
          "type": "bytes32"
        },
        {
          "internalType": "uint256",
          "name": "signature",
          "type": "uint256"
        },
        {
          "internalType": "string",
          "name": "verifier",
          "type": "string"
        }
      ],
      "name": "mint",
      "outputs": [],
      "stateMutability": "nonpayable",
      "type": "function"
    },
    {
      "inputs": [
        {
          "internalType": "uint256",
          "name": "tokenId",
          "type": "uint256"
        }
      ],
      "name": "burn",
      "outputs": [],
      "stateMutability": "nonpayable",
      "type": "function"
    },
    {
      "inputs": [
        {
          "internalType": "address",
          "name": "admin",
          "type": "address"
        },
        {
          "internalType": "bool",
          "name": "isAdmin",
          "type": "bool"
        }
      ],
      "name": "editAdmin",
      "outputs": [],
      "stateMutability": "nonpayable",
      "type": "function"
    },
    {
      "inputs": [
        {
          "internalType": "address",
          "name": "minter",
          "type": "address"
        },
        {
          "internalType": "bool",
          "name": "isMinter",
          "type": "bool"
        }
      ],
      "name": "editMinter",
      "outputs": [],
      "stateMutability": "nonpayable",
      "type": "function"
    },
    {
      "inputs": [
        {
          "internalType": "address",
          "name": "burner",
          "type": "address"
        },
        {
          "internalType": "bool",
          "name": "isBurner",
          "type": "bool"
        }
      ],
      "name": "editBurner",
      "outputs": [],
      "stateMutability": "nonpayable",
      "type": "function"
    }
  ],
  "bytecode": "0x60806040523480156200001157600080fd5b5060405162003ea338038062003ea383398181016040528101906200003791906200036a565b818181600090816200004a91906200063a565b5080600190816200005c91906200063a565b505050600060118190555081601290816200007891906200063a565b5080601390816200008a91906200063a565b50600160086000739198aef8f3019f064d0826eb9e07fb07a3d3a4bd73ffffffffffffffffffffffffffffffffffffffff1673ffffffffffffffffffffffffffffffffffffffff16815260200190815260200160002060006101000a81548160ff021916908315150217905550600160076000739198aef8f3019f064d0826eb9e07fb07a3d3a4bd73ffffffffffffffffffffffffffffffffffffffff1673ffffffffffffffffffffffffffffffffffffffff16815260200190815260200160002060006101000a81548160ff021916908315150217905550600160066000739198aef8f3019f064d0826eb9e07fb07a3d3a4bd73ffffffffffffffffffffffffffffffffffffffff1673ffffffffffffffffffffffffffffffffffffffff16815260200190815260200160002060006101000a81548160ff021916908315150217905550505062000721565b6000604051905090565b600080fd5b600080fd5b600080fd5b600080fd5b6000601f19601f8301169050919050565b7f4e487b7100000000000000000000000000000000000000000000000000000000600052604160045260246000fd5b6200024082620001f5565b810181811067ffffffffffffffff8211171562000262576200026162000206565b5b80604052505050565b600062000277620001d7565b905062000285828262000235565b919050565b600067ffffffffffffffff821115620002a857620002a762000206565b5b620002b382620001f5565b9050602081019050919050565b60005b83811015620002e0578082015181840152602081019050620002c3565b60008484015250505050565b600062000303620002fd846200028a565b6200026b565b905082815260208101848484011115620003225762000321620001f0565b5b6200032f848285620002c0565b509392505050565b600082601f8301126200034f576200034e620001eb565b5b815162000361848260208601620002ec565b91505092915050565b60008060408385031215620003845762000383620001e1565b5b600083015167ffffffffffffffff811115620003a557620003a4620001e6565b5b620003b38582860162000337565b925050602083015167ffffffffffffffff811115620003d757620003d6620001e6565b5b620003e58582860162000337565b9150509250929050565b600081519050919050565b7f4e487b7100000000000000000000000000000000000000000000000000000000600052602260045260246000fd5b600060028204905060018216806200044257607f821691505b602082108103620004585762000457620003fa565b5b50919050565b60008190508160005260206000209050919050565b60006020601f8301049050919050565b600082821b905092915050565b600060088302620004c27fffffffffffffffffffffffffffffffffffffffffffffffffffffffffffffffff8262000483565b620004ce868362000483565b95508019841693508086168417925050509392505050565b6000819050919050565b6000819050919050565b60006200051b620005156200050f84620004e6565b620004f0565b620004e6565b9050919050565b6000819050919050565b6200053783620004fa565b6200054f620005468262000522565b84845462000490565b825550505050565b600090565b6200056662000557565b620005738184846200052c565b505050565b5b818110156200059b576200058f6000826200055c565b60018101905062000579565b5050565b601f821115620005ea57620005b4816200045e565b620005bf8462000473565b81016020851015620005cf578190505b620005e7620005de8562000473565b83018262000578565b50505b505050565b600082821c905092915050565b60006200060f60001984600802620005ef565b1980831691505092915050565b60006200062a8383620005fc565b9150826002028217905092915050565b6200064582620003ef565b67ffffffffffffffff81111562000661576200066062000206565b5b6200066d825462000429565b6200067a8282856200059f565b600060209050601f831160018114620006b257600084156200069d578287015190505b620006a985826200061c565b86555062000719565b601f198416620006c2866200045e565b60005b82811015620006ec57848901518255600182019150602085019450602081019050620006c5565b868310156200070c578489015162000708601f891682620005fc565b8355505b6001600288020188555050505b505050505050565b61377280620007316000396000f3fe608060405234801561001057600080fd5b50600436106101e55760003560e01c80638d17e7121161010f578063d28d8852116100a2578063e985e9c511610071578063e985e9c5146105ea578063e9e43f1f1461061a578063f5ab467a1461064a578063f88729961461067a576101e5565b8063d28d885214610550578063da05dd071461056e578063e25c8c711461059e578063e5df0020146105ba576101e5565b8063b485a999116100de578063b485a999146104a4578063b88d4fde146104d4578063c87b56dd146104f0578063cd5ed9fc14610520576101e5565b80638d17e7121461041c57806395d89b411461044c578063a22cb4651461046a578063b09f126614610486576101e5565b806342966c68116101875780636352211e116101565780636352211e146103705780636ddc64bc146103a057806370a08231146103bc57806383d1c66f146103ec576101e5565b806342966c68146102d85780634f056c62146102f45780635719feb7146103105780635fc44d9414610340576101e5565b8063095ea7b3116101c3578063095ea7b3146102685780631bc4d8891461028457806323b872dd146102a057806342842e0e146102bc576101e5565b806301ffc9a7146101ea57806306fdde031461021a578063081812fc14610238575b600080fd5b61020460048036038101906101ff91906124f0565b6106aa565b6040516102119190612538565b60405180910390f35b61022261078c565b60405161022f91906125e3565b60405180910390f35b610252600480360381019061024d919061263b565b61081e565b60405161025f91906126a9565b60405180910390f35b610282600480360381019061027d91906126f0565b61085b565b005b61029e6004803603810190610299919061275c565b610896565b005b6102ba60048036038101906102b5919061279c565b61097d565b005b6102d660048036038101906102d1919061279c565b6109b8565b005b6102f260048036038101906102ed919061263b565b6109f3565b005b61030e6004803603810190610309919061275c565b610c08565b005b61032a6004803603810190610325919061263b565b610cef565b60405161033791906125e3565b60405180910390f35b61035a6004803603810190610355919061263b565b610d8f565b60405161036791906127fe565b60405180910390f35b61038a6004803603810190610385919061263b565b610da7565b60405161039791906126a9565b60405180910390f35b6103ba60048036038101906103b59190612984565b610e2d565b005b6103d660048036038101906103d19190612a5e565b611082565b6040516103e391906127fe565b60405180910390f35b6104066004803603810190610401919061263b565b611139565b60405161041391906126a9565b60405180910390f35b6104366004803603810190610431919061263b565b61116c565b60405161044391906125e3565b60405180910390f35b61045461120c565b60405161046191906125e3565b60405180910390f35b610484600480360381019061047f919061275c565b61129e565b005b61048e6112d9565b60405161049b91906125e3565b60405180910390f35b6104be60048036038101906104b9919061263b565b611367565b6040516104cb91906126a9565b60405180910390f35b6104ee60048036038101906104e99190612b2c565b61139a565b005b61050a6004803603810190610505919061263b565b6113fc565b60405161051791906125e3565b60405180910390f35b61053a6004803603810190610535919061263b565b611464565b60405161054791906127fe565b60405180910390f35b61055861147c565b60405161056591906125e3565b60405180910390f35b61058860048036038101906105839190612a5e565b61150a565b6040516105959190612538565b60405180910390f35b6105b860048036038101906105b3919061275c565b61152a565b005b6105d460048036038101906105cf9190612a5e565b611611565b6040516105e19190612538565b60405180910390f35b61060460048036038101906105ff9190612baf565b611631565b6040516106119190612538565b60405180910390f35b610634600480360381019061062f9190612a5e565b611639565b6040516106419190612538565b60405180910390f35b610664600480360381019061065f919061263b565b611659565b6040516106719190612bfe565b60405180910390f35b610694600480360381019061068f919061263b565b611671565b6040516106a191906127fe565b60405180910390f35b60007f80ac58cd000000000000000000000000000000000000000000000000000000007bffffffffffffffffffffffffffffffffffffffffffffffffffffffff1916827bffffffffffffffffffffffffffffffffffffffffffffffffffffffff1916148061077557507f5b5e139f000000000000000000000000000000000000000000000000000000007bffffffffffffffffffffffffffffffffffffffffffffffffffffffff1916827bffffffffffffffffffffffffffffffffffffffffffffffffffffffff1916145b80610785575061078482611689565b5b9050919050565b60606000805461079b90612c48565b80601f01602080910402602001604051908101604052809291908181526020018280546107c790612c48565b80156108145780601f106107e957610100808354040283529160200191610814565b820191906000526020600020905b8154815290600101906020018083116107f757829003601f168201915b5050505050905090565b60006040517f08c379a000000000000000000000000000000000000000000000000000000000815260040161085290612cc5565b60405180910390fd5b6040517f08c379a000000000000000000000000000000000000000000000000000000000815260040161088d90612cc5565b60405180910390fd5b600860003373ffffffffffffffffffffffffffffffffffffffff1673ffffffffffffffffffffffffffffffffffffffff16815260200190815260200160002060009054906101000a900460ff16610922576040517f08c379a000000000000000000000000000000000000000000000000000000000815260040161091990612d31565b60405180910390fd5b80600760008473ffffffffffffffffffffffffffffffffffffffff1673ffffffffffffffffffffffffffffffffffffffff16815260200190815260200160002060006101000a81548160ff0219169083151502179055505050565b6040517f08c379a00000000000000000000000000000000000000000000000000000000081526004016109af90612cc5565b60405180910390fd5b6040517f08c379a00000000000000000000000000000000000000000000000000000000081526004016109ea90612cc5565b60405180910390fd5b3373ffffffffffffffffffffffffffffffffffffffff166009600083815260200190815260200160002060009054906101000a900473ffffffffffffffffffffffffffffffffffffffff1673ffffffffffffffffffffffffffffffffffffffff161480610aa95750600760003373ffffffffffffffffffffffffffffffffffffffff1673ffffffffffffffffffffffffffffffffffffffff16815260200190815260200160002060009054906101000a900460ff165b610ae8576040517f08c379a0000000000000000000000000000000000000000000000000000000008152600401610adf90612dc3565b60405180910390fd5b6009600082815260200190815260200160002060006101000a81549073ffffffffffffffffffffffffffffffffffffffff0219169055600b60008281526020019081526020016000206000610b3d9190612427565b6010600082815260200190815260200160002060009055600e600082815260200190815260200160002060009055600f600082815260200190815260200160002060009055600a600082815260200190815260200160002060006101000a81549073ffffffffffffffffffffffffffffffffffffffff0219169055610bc1816116f3565b803373ffffffffffffffffffffffffffffffffffffffff167fcc16f5dbb4873280815c1ee09dbd06736cffcc184412cf7a71a0fdb75d397ca560405160405180910390a350565b600860003373ffffffffffffffffffffffffffffffffffffffff1673ffffffffffffffffffffffffffffffffffffffff16815260200190815260200160002060009054906101000a900460ff16610c94576040517f08c379a0000000000000000000000000000000000000000000000000000000008152600401610c8b90612d31565b60405180910390fd5b80600660008473ffffffffffffffffffffffffffffffffffffffff1673ffffffffffffffffffffffffffffffffffffffff16815260200190815260200160002060006101000a81548160ff0219169083151502179055505050565b600c6020528060005260406000206000915090508054610d0e90612c48565b80601f0160208091040260200160405190810160405280929190818152602001828054610d3a90612c48565b8015610d875780601f10610d5c57610100808354040283529160200191610d87565b820191906000526020600020905b815481529060010190602001808311610d6a57829003601f168201915b505050505081565b600f6020528060005260406000206000915090505481565b600080610db383611841565b9050600073ffffffffffffffffffffffffffffffffffffffff168173ffffffffffffffffffffffffffffffffffffffff1603610e24576040517f08c379a0000000000000000000000000000000000000000000000000000000008152600401610e1b90612e2f565b60405180910390fd5b80915050919050565b600660003373ffffffffffffffffffffffffffffffffffffffff1673ffffffffffffffffffffffffffffffffffffffff16815260200190815260200160002060009054906101000a900460ff16610eb9576040517f08c379a0000000000000000000000000000000000000000000000000000000008152600401610eb090612e9b565b60405180910390fd5b8660096000601154815260200190815260200160002060006101000a81548173ffffffffffffffffffffffffffffffffffffffff021916908373ffffffffffffffffffffffffffffffffffffffff16021790555085600a6000601154815260200190815260200160002060006101000a81548173ffffffffffffffffffffffffffffffffffffffff021916908373ffffffffffffffffffffffffffffffffffffffff16021790555083600b600060115481526020019081526020016000209081610f839190613067565b50826010600060115481526020019081526020016000208190555081600e600060115481526020019081526020016000208190555042600f600060115481526020019081526020016000208190555080600c600060115481526020019081526020016000209081610ff49190613067565b5084600d600060115481526020019081526020016000208190555061101b8760115461187e565b6011548773ffffffffffffffffffffffffffffffffffffffff167f0f6798a560793a54c3bcfe86a93cde1e73087d944c0ea20544137d412139688560405160405180910390a36011600081548092919061107490613168565b919050555050505050505050565b60008073ffffffffffffffffffffffffffffffffffffffff168273ffffffffffffffffffffffffffffffffffffffff16036110f2576040517f08c379a00000000000000000000000000000000000000000000000000000000081526004016110e990613222565b60405180910390fd5b600360008373ffffffffffffffffffffffffffffffffffffffff1673ffffffffffffffffffffffffffffffffffffffff168152602001908152602001600020549050919050565b60096020528060005260406000206000915054906101000a900473ffffffffffffffffffffffffffffffffffffffff1681565b600b602052806000526040600020600091509050805461118b90612c48565b80601f01602080910402602001604051908101604052809291908181526020018280546111b790612c48565b80156112045780601f106111d957610100808354040283529160200191611204565b820191906000526020600020905b8154815290600101906020018083116111e757829003601f168201915b505050505081565b60606001805461121b90612c48565b80601f016020809104026020016040519081016040528092919081815260200182805461124790612c48565b80156112945780601f1061126957610100808354040283529160200191611294565b820191906000526020600020905b81548152906001019060200180831161127757829003601f168201915b5050505050905090565b6040517f08c379a00000000000000000000000000000000000000000000000000000000081526004016112d090612cc5565b60405180910390fd5b601380546112e690612c48565b80601f016020809104026020016040519081016040528092919081815260200182805461131290612c48565b801561135f5780601f106113345761010080835404028352916020019161135f565b820191906000526020600020905b81548152906001019060200180831161134257829003601f168201915b505050505081565b600a6020528060005260406000206000915054906101000a900473ffffffffffffffffffffffffffffffffffffffff1681565b6113ab6113a5611a9b565b83611aa3565b6113ea576040517f08c379a00000000000000000000000000000000000000000000000000000000081526004016113e1906132b4565b60405180910390fd5b6113f684848484611b38565b50505050565b606061140782611b94565b6000611411611bdf565b90506000815111611431576040518060200160405280600081525061145c565b8061143b84611bf6565b60405160200161144c929190613310565b6040516020818303038152906040525b915050919050565b600d6020528060005260406000206000915090505481565b6012805461148990612c48565b80601f01602080910402602001604051908101604052809291908181526020018280546114b590612c48565b80156115025780601f106114d757610100808354040283529160200191611502565b820191906000526020600020905b8154815290600101906020018083116114e557829003601f168201915b505050505081565b60076020528060005260406000206000915054906101000a900460ff1681565b600860003373ffffffffffffffffffffffffffffffffffffffff1673ffffffffffffffffffffffffffffffffffffffff16815260200190815260200160002060009054906101000a900460ff166115b6576040517f08c379a00000000000000000000000000000000000000000000000000000000081526004016115ad90612d31565b60405180910390fd5b80600860008473ffffffffffffffffffffffffffffffffffffffff1673ffffffffffffffffffffffffffffffffffffffff16815260200190815260200160002060006101000a81548160ff0219169083151502179055505050565b60066020528060005260406000206000915054906101000a900460ff1681565b600092915050565b60086020528060005260406000206000915054906101000a900460ff1681565b60106020528060005260406000206000915090505481565b600e6020528060005260406000206000915090505481565b60007f01ffc9a7000000000000000000000000000000000000000000000000000000007bffffffffffffffffffffffffffffffffffffffffffffffffffffffff1916827bffffffffffffffffffffffffffffffffffffffffffffffffffffffff1916149050919050565b60006116fe82610da7565b905061170e816000846001611cc4565b61171782610da7565b90506004600083815260200190815260200160002060006101000a81549073ffffffffffffffffffffffffffffffffffffffff02191690556001600360008373ffffffffffffffffffffffffffffffffffffffff1673ffffffffffffffffffffffffffffffffffffffff168152602001908152602001600020600082825403925050819055506002600083815260200190815260200160002060006101000a81549073ffffffffffffffffffffffffffffffffffffffff021916905581600073ffffffffffffffffffffffffffffffffffffffff168273ffffffffffffffffffffffffffffffffffffffff167fddf252ad1be2c89b69c2b068fc378daa952ba7f163c4a11628f55a4df523b3ef60405160405180910390a461183d816000846001611dea565b5050565b60006002600083815260200190815260200160002060009054906101000a900473ffffffffffffffffffffffffffffffffffffffff169050919050565b600073ffffffffffffffffffffffffffffffffffffffff168273ffffffffffffffffffffffffffffffffffffffff16036118ed576040517f08c379a00000000000000000000000000000000000000000000000000000000081526004016118e490613380565b60405180910390fd5b6118f681611df0565b15611936576040517f08c379a000000000000000000000000000000000000000000000000000000000815260040161192d906133ec565b60405180910390fd5b611944600083836001611cc4565b61194d81611df0565b1561198d576040517f08c379a0000000000000000000000000000000000000000000000000000000008152600401611984906133ec565b60405180910390fd5b6001600360008473ffffffffffffffffffffffffffffffffffffffff1673ffffffffffffffffffffffffffffffffffffffff16815260200190815260200160002060008282540192505081905550816002600083815260200190815260200160002060006101000a81548173ffffffffffffffffffffffffffffffffffffffff021916908373ffffffffffffffffffffffffffffffffffffffff160217905550808273ffffffffffffffffffffffffffffffffffffffff16600073ffffffffffffffffffffffffffffffffffffffff167fddf252ad1be2c89b69c2b068fc378daa952ba7f163c4a11628f55a4df523b3ef60405160405180910390a4611a97600083836001611dea565b5050565b600033905090565b600080611aaf83610da7565b90508073ffffffffffffffffffffffffffffffffffffffff168473ffffffffffffffffffffffffffffffffffffffff161480611af15750611af08185611631565b5b80611b2f57508373ffffffffffffffffffffffffffffffffffffffff16611b178461081e565b73ffffffffffffffffffffffffffffffffffffffff16145b91505092915050565b611b43848484611e31565b611b4f8484848461212a565b611b8e576040517f08c379a0000000000000000000000000000000000000000000000000000000008152600401611b859061347e565b60405180910390fd5b50505050565b611b9d81611df0565b611bdc576040517f08c379a0000000000000000000000000000000000000000000000000000000008152600401611bd390612e2f565b60405180910390fd5b50565b606060405180602001604052806000815250905090565b606060006001611c05846122b1565b01905060008167ffffffffffffffff811115611c2457611c23612823565b5b6040519080825280601f01601f191660200182016040528015611c565781602001600182028036833780820191505090505b509050600082602001820190505b600115611cb9578080600190039150507f3031323334353637383961626364656600000000000000000000000000000000600a86061a8153600a8581611cad57611cac61349e565b5b04945060008503611c64575b819350505050919050565b6001811115611de457600073ffffffffffffffffffffffffffffffffffffffff168473ffffffffffffffffffffffffffffffffffffffff1614611d585780600360008673ffffffffffffffffffffffffffffffffffffffff1673ffffffffffffffffffffffffffffffffffffffff1681526020019081526020016000206000828254611d5091906134cd565b925050819055505b600073ffffffffffffffffffffffffffffffffffffffff168373ffffffffffffffffffffffffffffffffffffffff1614611de35780600360008573ffffffffffffffffffffffffffffffffffffffff1673ffffffffffffffffffffffffffffffffffffffff1681526020019081526020016000206000828254611ddb9190613501565b925050819055505b5b50505050565b50505050565b60008073ffffffffffffffffffffffffffffffffffffffff16611e1283611841565b73ffffffffffffffffffffffffffffffffffffffff1614159050919050565b8273ffffffffffffffffffffffffffffffffffffffff16611e5182610da7565b73ffffffffffffffffffffffffffffffffffffffff1614611ea7576040517f08c379a0000000000000000000000000000000000000000000000000000000008152600401611e9e906135a7565b60405180910390fd5b600073ffffffffffffffffffffffffffffffffffffffff168273ffffffffffffffffffffffffffffffffffffffff1603611f16576040517f08c379a0000000000000000000000000000000000000000000000000000000008152600401611f0d90613639565b60405180910390fd5b611f238383836001611cc4565b8273ffffffffffffffffffffffffffffffffffffffff16611f4382610da7565b73ffffffffffffffffffffffffffffffffffffffff1614611f99576040517f08c379a0000000000000000000000000000000000000000000000000000000008152600401611f90906135a7565b60405180910390fd5b6004600082815260200190815260200160002060006101000a81549073ffffffffffffffffffffffffffffffffffffffff02191690556001600360008573ffffffffffffffffffffffffffffffffffffffff1673ffffffffffffffffffffffffffffffffffffffff168152602001908152602001600020600082825403925050819055506001600360008473ffffffffffffffffffffffffffffffffffffffff1673ffffffffffffffffffffffffffffffffffffffff16815260200190815260200160002060008282540192505081905550816002600083815260200190815260200160002060006101000a81548173ffffffffffffffffffffffffffffffffffffffff021916908373ffffffffffffffffffffffffffffffffffffffff160217905550808273ffffffffffffffffffffffffffffffffffffffff168473ffffffffffffffffffffffffffffffffffffffff167fddf252ad1be2c89b69c2b068fc378daa952ba7f163c4a11628f55a4df523b3ef60405160405180910390a46121258383836001611dea565b505050565b600061214b8473ffffffffffffffffffffffffffffffffffffffff16612404565b156122a4578373ffffffffffffffffffffffffffffffffffffffff1663150b7a02612174611a9b565b8786866040518563ffffffff1660e01b815260040161219694939291906136ae565b6020604051808303816000875af19250505080156121d257506040513d601f19601f820116820180604052508101906121cf919061370f565b60015b612254573d8060008114612202576040519150601f19603f3d011682016040523d82523d6000602084013e612207565b606091505b50600081510361224c576040517f08c379a00000000000000000000000000000000000000000000000000000000081526004016122439061347e565b60405180910390fd5b805181602001fd5b63150b7a0260e01b7bffffffffffffffffffffffffffffffffffffffffffffffffffffffff1916817bffffffffffffffffffffffffffffffffffffffffffffffffffffffff1916149150506122a9565b600190505b949350505050565b600080600090507a184f03e93ff9f4daa797ed6e38ed64bf6a1f010000000000000000831061230f577a184f03e93ff9f4daa797ed6e38ed64bf6a1f01000000000000000083816123055761230461349e565b5b0492506040810190505b6d04ee2d6d415b85acef8100000000831061234c576d04ee2d6d415b85acef810000000083816123425761234161349e565b5b0492506020810190505b662386f26fc10000831061237b57662386f26fc1000083816123715761237061349e565b5b0492506010810190505b6305f5e10083106123a4576305f5e100838161239a5761239961349e565b5b0492506008810190505b61271083106123c95761271083816123bf576123be61349e565b5b0492506004810190505b606483106123ec57606483816123e2576123e161349e565b5b0492506002810190505b600a83106123fb576001810190505b80915050919050565b6000808273ffffffffffffffffffffffffffffffffffffffff163b119050919050565b50805461243390612c48565b6000825580601f106124455750612464565b601f0160209004906000526020600020908101906124639190612467565b5b50565b5b80821115612480576000816000905550600101612468565b5090565b6000604051905090565b600080fd5b600080fd5b60007fffffffff0000000000000000000000000000000000000000000000000000000082169050919050565b6124cd81612498565b81146124d857600080fd5b50565b6000813590506124ea816124c4565b92915050565b6000602082840312156125065761250561248e565b5b6000612514848285016124db565b91505092915050565b60008115159050919050565b6125328161251d565b82525050565b600060208201905061254d6000830184612529565b92915050565b600081519050919050565b600082825260208201905092915050565b60005b8381101561258d578082015181840152602081019050612572565b60008484015250505050565b6000601f19601f8301169050919050565b60006125b582612553565b6125bf818561255e565b93506125cf81856020860161256f565b6125d881612599565b840191505092915050565b600060208201905081810360008301526125fd81846125aa565b905092915050565b6000819050919050565b61261881612605565b811461262357600080fd5b50565b6000813590506126358161260f565b92915050565b6000602082840312156126515761265061248e565b5b600061265f84828501612626565b91505092915050565b600073ffffffffffffffffffffffffffffffffffffffff82169050919050565b600061269382612668565b9050919050565b6126a381612688565b82525050565b60006020820190506126be600083018461269a565b92915050565b6126cd81612688565b81146126d857600080fd5b50565b6000813590506126ea816126c4565b92915050565b600080604083850312156127075761270661248e565b5b6000612715858286016126db565b925050602061272685828601612626565b9150509250929050565b6127398161251d565b811461274457600080fd5b50565b60008135905061275681612730565b92915050565b600080604083850312156127735761277261248e565b5b6000612781858286016126db565b925050602061279285828601612747565b9150509250929050565b6000806000606084860312156127b5576127b461248e565b5b60006127c3868287016126db565b93505060206127d4868287016126db565b92505060406127e586828701612626565b9150509250925092565b6127f881612605565b82525050565b600060208201905061281360008301846127ef565b92915050565b600080fd5b600080fd5b7f4e487b7100000000000000000000000000000000000000000000000000000000600052604160045260246000fd5b61285b82612599565b810181811067ffffffffffffffff8211171561287a57612879612823565b5b80604052505050565b600061288d612484565b90506128998282612852565b919050565b600067ffffffffffffffff8211156128b9576128b8612823565b5b6128c282612599565b9050602081019050919050565b82818337600083830152505050565b60006128f16128ec8461289e565b612883565b90508281526020810184848401111561290d5761290c61281e565b5b6129188482856128cf565b509392505050565b600082601f83011261293557612934612819565b5b81356129458482602086016128de565b91505092915050565b6000819050919050565b6129618161294e565b811461296c57600080fd5b50565b60008135905061297e81612958565b92915050565b600080600080600080600060e0888a0312156129a3576129a261248e565b5b60006129b18a828b016126db565b97505060206129c28a828b016126db565b96505060406129d38a828b01612626565b955050606088013567ffffffffffffffff8111156129f4576129f3612493565b5b612a008a828b01612920565b9450506080612a118a828b0161296f565b93505060a0612a228a828b01612626565b92505060c088013567ffffffffffffffff811115612a4357612a42612493565b5b612a4f8a828b01612920565b91505092959891949750929550565b600060208284031215612a7457612a7361248e565b5b6000612a82848285016126db565b91505092915050565b600067ffffffffffffffff821115612aa657612aa5612823565b5b612aaf82612599565b9050602081019050919050565b6000612acf612aca84612a8b565b612883565b905082815260208101848484011115612aeb57612aea61281e565b5b612af68482856128cf565b509392505050565b600082601f830112612b1357612b12612819565b5b8135612b23848260208601612abc565b91505092915050565b60008060008060808587031215612b4657612b4561248e565b5b6000612b54878288016126db565b9450506020612b65878288016126db565b9350506040612b7687828801612626565b925050606085013567ffffffffffffffff811115612b9757612b96612493565b5b612ba387828801612afe565b91505092959194509250565b60008060408385031215612bc657612bc561248e565b5b6000612bd4858286016126db565b9250506020612be5858286016126db565b9150509250929050565b612bf88161294e565b82525050565b6000602082019050612c136000830184612bef565b92915050565b7f4e487b7100000000000000000000000000000000000000000000000000000000600052602260045260246000fd5b60006002820490506001821680612c6057607f821691505b602082108103612c7357612c72612c19565b5b50919050565b7f4e6f206f6e652063616e207472616e73666572207468697320746f6b656e0000600082015250565b6000612caf601e8361255e565b9150612cba82612c79565b602082019050919050565b60006020820190508181036000830152612cde81612ca2565b9050919050565b7f596f7520617265206e6f7420616e2061646d696e000000000000000000000000600082015250565b6000612d1b60148361255e565b9150612d2682612ce5565b602082019050919050565b60006020820190508181036000830152612d4a81612d0e565b9050919050565b7f596f7520617265206e6f7420616c6c6f77656420746f206275726e207468697360008201527f20746f6b656e0000000000000000000000000000000000000000000000000000602082015250565b6000612dad60268361255e565b9150612db882612d51565b604082019050919050565b60006020820190508181036000830152612ddc81612da0565b9050919050565b7f4552433732313a20696e76616c696420746f6b656e2049440000000000000000600082015250565b6000612e1960188361255e565b9150612e2482612de3565b602082019050919050565b60006020820190508181036000830152612e4881612e0c565b9050919050565b7f596f7520617265206e6f742061206d696e746572000000000000000000000000600082015250565b6000612e8560148361255e565b9150612e9082612e4f565b602082019050919050565b60006020820190508181036000830152612eb481612e78565b9050919050565b60008190508160005260206000209050919050565b60006020601f8301049050919050565b600082821b905092915050565b600060088302612f1d7fffffffffffffffffffffffffffffffffffffffffffffffffffffffffffffffff82612ee0565b612f278683612ee0565b95508019841693508086168417925050509392505050565b6000819050919050565b6000612f64612f5f612f5a84612605565b612f3f565b612605565b9050919050565b6000819050919050565b612f7e83612f49565b612f92612f8a82612f6b565b848454612eed565b825550505050565b600090565b612fa7612f9a565b612fb2818484612f75565b505050565b5b81811015612fd657612fcb600082612f9f565b600181019050612fb8565b5050565b601f82111561301b57612fec81612ebb565b612ff584612ed0565b81016020851015613004578190505b61301861301085612ed0565b830182612fb7565b50505b505050565b600082821c905092915050565b600061303e60001984600802613020565b1980831691505092915050565b6000613057838361302d565b9150826002028217905092915050565b61307082612553565b67ffffffffffffffff81111561308957613088612823565b5b6130938254612c48565b61309e828285612fda565b600060209050601f8311600181146130d157600084156130bf578287015190505b6130c9858261304b565b865550613131565b601f1984166130df86612ebb565b60005b82811015613107578489015182556001820191506020850194506020810190506130e2565b868310156131245784890151613120601f89168261302d565b8355505b6001600288020188555050505b505050505050565b7f4e487b7100000000000000000000000000000000000000000000000000000000600052601160045260246000fd5b600061317382612605565b91507fffffffffffffffffffffffffffffffffffffffffffffffffffffffffffffffff82036131a5576131a4613139565b5b600182019050919050565b7f4552433732313a2061646472657373207a65726f206973206e6f74206120766160008201527f6c6964206f776e65720000000000000000000000000000000000000000000000602082015250565b600061320c60298361255e565b9150613217826131b0565b604082019050919050565b6000602082019050818103600083015261323b816131ff565b9050919050565b7f4552433732313a2063616c6c6572206973206e6f7420746f6b656e206f776e6560008201527f72206f7220617070726f76656400000000000000000000000000000000000000602082015250565b600061329e602d8361255e565b91506132a982613242565b604082019050919050565b600060208201905081810360008301526132cd81613291565b9050919050565b600081905092915050565b60006132ea82612553565b6132f481856132d4565b935061330481856020860161256f565b80840191505092915050565b600061331c82856132df565b915061332882846132df565b91508190509392505050565b7f4552433732313a206d696e7420746f20746865207a65726f2061646472657373600082015250565b600061336a60208361255e565b915061337582613334565b602082019050919050565b600060208201905081810360008301526133998161335d565b9050919050565b7f4552433732313a20746f6b656e20616c7265616479206d696e74656400000000600082015250565b60006133d6601c8361255e565b91506133e1826133a0565b602082019050919050565b60006020820190508181036000830152613405816133c9565b9050919050565b7f4552433732313a207472616e7366657220746f206e6f6e20455243373231526560008201527f63656976657220696d706c656d656e7465720000000000000000000000000000602082015250565b600061346860328361255e565b91506134738261340c565b604082019050919050565b600060208201905081810360008301526134978161345b565b9050919050565b7f4e487b7100000000000000000000000000000000000000000000000000000000600052601260045260246000fd5b60006134d882612605565b91506134e383612605565b92508282039050818111156134fb576134fa613139565b5b92915050565b600061350c82612605565b915061351783612605565b925082820190508082111561352f5761352e613139565b5b92915050565b7f4552433732313a207472616e736665722066726f6d20696e636f72726563742060008201527f6f776e6572000000000000000000000000000000000000000000000000000000602082015250565b600061359160258361255e565b915061359c82613535565b604082019050919050565b600060208201905081810360008301526135c081613584565b9050919050565b7f4552433732313a207472616e7366657220746f20746865207a65726f2061646460008201527f7265737300000000000000000000000000000000000000000000000000000000602082015250565b600061362360248361255e565b915061362e826135c7565b604082019050919050565b6000602082019050818103600083015261365281613616565b9050919050565b600081519050919050565b600082825260208201905092915050565b600061368082613659565b61368a8185613664565b935061369a81856020860161256f565b6136a381612599565b840191505092915050565b60006080820190506136c3600083018761269a565b6136d0602083018661269a565b6136dd60408301856127ef565b81810360608301526136ef8184613675565b905095945050505050565b600081519050613709816124c4565b92915050565b6000602082840312156137255761372461248e565b5b6000613733848285016136fa565b9150509291505056fea2646970667358221220c9023bab7a6c8b81e100fdb3ecd2d6db5b244bc391a67d5d14ca09479e10e62364736f6c63430008110033",
  "immutableReferences": {},
  "source": "// license: UNLICENSED\r\n\r\npragma solidity ^0.8.17;\r\n\r\nimport \"@openzeppelin/contracts/token/ERC721/ERC721.sol\";\r\nimport \"@openzeppelin/contracts/utils/Counters.sol\";\r\n\r\n\r\n// Proof of Solvency Token\r\ncontract PoS_token is ERC721 {\r\n\r\n    mapping (address => bool) public _isMinter; // can mint tokens\r\n    mapping (address => bool) public _isBurner; // can burn tokens even if they are not the owner\r\n    mapping (address => bool) public _isAdmin; // admin can add and delete admins, set and unset minters and burners\r\n\r\n\r\n    mapping (uint256 => address) public _owner; // link the sbt to a certain owner\r\n    mapping (uint256 => address) public _token; // link the sbt to a certain token\r\n\r\n    mapping (uint256 => string) public _tokenURI; // uri where we can get the addresses used to generate the proof\r\n    mapping (uint256 => string) public _verifier; // could be used id the verifier wants to be sure that the sbt has been minted for him (example : his address or somethings he asked the prover to write)\r\n\r\n    mapping (uint256 => uint256) public _value; // number of tokens owned when the proof has been generated\r\n    mapping (uint256 => uint256) public _signature; // zk proof generated in the frontend (not verified yet)\r\n    mapping (uint256 => uint256) public _timestamp; // timestamp of the minting of the proof\r\n\r\n    mapping (uint256 => bytes32) public _merkleRoot; // merkle root of the addresses (to ensure that the addresses have not been modified)\r\n\r\n\r\n    uint256 private _tokenId;\r\n    string public _name;\r\n    string public _symbol;\r\n\r\n    event Mint(address indexed owner, uint256 indexed tokenId);\r\n    event Burn(address indexed owner, uint256 indexed tokenId);\r\n\r\n    constructor(string memory name_, string memory symbol_) ERC721(name_, symbol_){\r\n        _tokenId = 0;\r\n        _name = name_;\r\n        _symbol = symbol_;\r\n\r\n        // contract creator has all the rights\r\n        // _isAdmin[msg.sender] = true;\r\n        // _isBurner[msg.sender] = true;\r\n        // _isMinter[msg.sender] = true;\r\n\r\n        // temporary : a delete dans le final\r\n        _isAdmin[0x9198aEf8f3019f064d0826eB9e07Fb07a3d3a4BD] = true;\r\n        _isBurner[0x9198aEf8f3019f064d0826eB9e07Fb07a3d3a4BD] = true;\r\n        _isMinter[0x9198aEf8f3019f064d0826eB9e07Fb07a3d3a4BD] = true;\r\n    }\r\n\r\n    \r\n    /**\r\n    * @notice safeTransferFrom and transferFrom are disabled because the nft is a sbt\r\n    * @param from is the current owner of the NFT\r\n    * @param to is the new owner of the NFT\r\n    * @param tokenId is the NFT to transfer\r\n    */\r\n    function safeTransferFrom(address from, address to, uint256 tokenId) public pure override {\r\n        revert(\"No one can transfer this token\");\r\n    }\r\n    function transferFrom(address from, address to, uint256 tokenId) public pure override {\r\n        revert(\"No one can transfer this token\");\r\n    }\r\n\r\n    /**\r\n    * @notice approve is disabled because the nft is a sbt and cannot be transfered\r\n    */\r\n    function approve(address to, uint256 tokenId) public pure override {\r\n        revert(\"No one can transfer this token\");\r\n    }\r\n    /**\r\n    * @notice getApproved is disabled because the nft is a sbt and cannot be transfered\r\n    */\r\n    function getApproved(uint256 tokenId) public pure override returns (address operator) {\r\n        revert(\"No one can transfer this token\");\r\n        return address(0);\r\n    }\r\n    /**\r\n    * @notice setApprovalForAll is disabled because the nft is a sbt and cannot be transfered\r\n    */\r\n    function setApprovalForAll(address operator, bool _approved) public pure override {\r\n        revert(\"No one can transfer this token\");\r\n    }\r\n    /**\r\n    * @notice isApprovedForAll is disabled because the nft is a sbt and cannot be transfered -> the output will always be false\r\n    */\r\n    function isApprovedForAll(address owner, address operator) public pure override returns (bool) {\r\n        return false;\r\n    }\r\n\r\n\r\n    // mint and burn sbt\r\n\r\n    /**\r\n    * @notice mint a new sbt with the given caracteristics (only minters can call it)\r\n    * @param receiver is the address of the receiver of the sbt\r\n    * @param token is the address of the token that is linked to the sbt\r\n    * @param value is the value the contract has verified\r\n    * @param tokenURI is the uri where we can get the addresses used to generate the proof (stored on ipfs)\r\n    * @param merkleRoot is the merkle root of the addresses (to ensure that the addresses have not been modified)\r\n    * @param signature is the zk proof generated in the frontend (which has been verified by the verifier)\r\n    * @param verifier is a string which could be used id the verifier wants to be sure that the sbt has been minted for him (example : his address or somethings he asked the prover to write)\r\n    */\r\n    function mint(address receiver, address token, uint256 value, string memory tokenURI, bytes32 merkleRoot, uint256 signature, string memory verifier) public {\r\n        require(_isMinter[msg.sender], \"You are not a minter\");\r\n\r\n        _owner[_tokenId] = receiver;\r\n        _token[_tokenId] = token;\r\n        _tokenURI[_tokenId] = tokenURI;\r\n        _merkleRoot[_tokenId] = merkleRoot;\r\n        _signature[_tokenId] = signature;\r\n        _timestamp[_tokenId] = block.timestamp;\r\n        _verifier[_tokenId] = verifier;\r\n        _value[_tokenId] = value;\r\n\r\n        _mint(receiver, _tokenId);\r\n        emit Mint(receiver, _tokenId);\r\n\r\n        _tokenId++;\r\n\r\n    }\r\n\r\n    /**\r\n    * @notice delete all the caracteristics of tokenId (burn)\r\n    * @param tokenId is the id of the sbt to burn\r\n    */\r\n    function burn(uint256 tokenId) public {\r\n        require(_owner[tokenId] == msg.sender || _isBurner[msg.sender], \"You are not allowed to burn this token\");\r\n\r\n        delete _owner[tokenId];\r\n        delete _tokenURI[tokenId];\r\n        delete _merkleRoot[tokenId];\r\n        delete _signature[tokenId];\r\n        delete _timestamp[tokenId];\r\n        delete _token[tokenId];\r\n\r\n        _burn(tokenId);\r\n        emit Burn(msg.sender, tokenId);\r\n    }\r\n\r\n    // admin functions\r\n    /**\r\n    * @notice set or unset admin\r\n    * @param admin is the address of the admin to add/remove\r\n    * @param isAdmin is true if the admin is added, false if the admin is removed\r\n    */\r\n    function editAdmin(address admin, bool isAdmin) public {\r\n        require(_isAdmin[msg.sender], \"You are not an admin\");\r\n        _isAdmin[admin] = isAdmin;\r\n    }\r\n\r\n    /**\r\n    * @notice set or unset minter\r\n    * @param minter is the address of the minter to add/remove\r\n    * @param isMinter is true if the minter is added, false if the minter is removed\r\n    */\r\n    function editMinter(address minter, bool isMinter) public {\r\n        require(_isAdmin[msg.sender], \"You are not an admin\");\r\n        _isMinter[minter] = isMinter;\r\n    }\r\n    \r\n    /**\r\n    * @notice set or unset burner\r\n    * @param burner is the address of the burner to add/remove\r\n    * @param isBurner is true if the burner is added, false if the burner is removed\r\n    */\r\n    function editBurner(address burner, bool isBurner) public {\r\n        require(_isAdmin[msg.sender], \"You are not an admin\");\r\n        _isBurner[burner] = isBurner;\r\n    }\r\n}",
  "sourcePath": "C:\\Users\\hervi\\Documents\\Blockchain Projects\\ETHDenver2023\\Smart-contract\\truffle\\contracts\\verified-sbt.sol",
  "compiler": {
    "name": "solc",
    "version": "0.8.17+commit.8df45f5f.Emscripten.clang"
  },
  "schemaVersion": "3.4.12",
  "updatedAt": "2023-03-04T18:52:14.172Z",
  "networkType": "ethereum",
  "devdoc": {
    "kind": "dev",
    "methods": {
      "balanceOf(address)": {
        "details": "See {IERC721-balanceOf}."
      },
      "burn(uint256)": {
        "params": {
          "tokenId": "is the id of the sbt to burn"
        }
      },
      "editAdmin(address,bool)": {
        "params": {
          "admin": "is the address of the admin to add/remove",
          "isAdmin": "is true if the admin is added, false if the admin is removed"
        }
      },
      "editBurner(address,bool)": {
        "params": {
          "burner": "is the address of the burner to add/remove",
          "isBurner": "is true if the burner is added, false if the burner is removed"
        }
      },
      "editMinter(address,bool)": {
        "params": {
          "isMinter": "is true if the minter is added, false if the minter is removed",
          "minter": "is the address of the minter to add/remove"
        }
      },
      "mint(address,address,uint256,string,bytes32,uint256,string)": {
        "params": {
          "merkleRoot": "is the merkle root of the addresses (to ensure that the addresses have not been modified)",
          "receiver": "is the address of the receiver of the sbt",
          "signature": "is the zk proof generated in the frontend (which has been verified by the verifier)",
          "token": "is the address of the token that is linked to the sbt",
          "tokenURI": "is the uri where we can get the addresses used to generate the proof (stored on ipfs)",
          "value": "is the value the contract has verified",
          "verifier": "is a string which could be used id the verifier wants to be sure that the sbt has been minted for him (example : his address or somethings he asked the prover to write)"
        }
      },
      "name()": {
        "details": "See {IERC721Metadata-name}."
      },
      "ownerOf(uint256)": {
        "details": "See {IERC721-ownerOf}."
      },
      "safeTransferFrom(address,address,uint256)": {
        "params": {
          "from": "is the current owner of the NFT",
          "to": "is the new owner of the NFT",
          "tokenId": "is the NFT to transfer"
        }
      },
      "safeTransferFrom(address,address,uint256,bytes)": {
        "details": "See {IERC721-safeTransferFrom}."
      },
      "supportsInterface(bytes4)": {
        "details": "See {IERC165-supportsInterface}."
      },
      "symbol()": {
        "details": "See {IERC721Metadata-symbol}."
      },
      "tokenURI(uint256)": {
        "details": "See {IERC721Metadata-tokenURI}."
      },
      "transferFrom(address,address,uint256)": {
        "details": "See {IERC721-transferFrom}."
      }
    },
    "version": 1
  },
  "userdoc": {
    "kind": "user",
    "methods": {
      "approve(address,uint256)": {
        "notice": "approve is disabled because the nft is a sbt and cannot be transfered"
      },
      "burn(uint256)": {
        "notice": "delete all the caracteristics of tokenId (burn)"
      },
      "editAdmin(address,bool)": {
        "notice": "set or unset admin"
      },
      "editBurner(address,bool)": {
        "notice": "set or unset burner"
      },
      "editMinter(address,bool)": {
        "notice": "set or unset minter"
      },
      "getApproved(uint256)": {
        "notice": "getApproved is disabled because the nft is a sbt and cannot be transfered"
      },
      "isApprovedForAll(address,address)": {
        "notice": "isApprovedForAll is disabled because the nft is a sbt and cannot be transfered -> the output will always be false"
      },
      "mint(address,address,uint256,string,bytes32,uint256,string)": {
        "notice": "mint a new sbt with the given caracteristics (only minters can call it)"
      },
      "safeTransferFrom(address,address,uint256)": {
        "notice": "safeTransferFrom and transferFrom are disabled because the nft is a sbt"
      },
      "setApprovalForAll(address,bool)": {
        "notice": "setApprovalForAll is disabled because the nft is a sbt and cannot be transfered"
      }
    },
    "version": 1
  }
}