{
  "contractName": "PoS_token",
  "abi": [
    {
      "inputs": [
        {
          "internalType": "string",
          "name": "name_",
          "type": "string"
        },
        {
          "internalType": "string",
          "name": "symbol_",
          "type": "string"
        }
      ],
      "stateMutability": "nonpayable",
      "type": "constructor"
    },
    {
      "anonymous": false,
      "inputs": [
        {
          "indexed": true,
          "internalType": "address",
          "name": "owner",
          "type": "address"
        },
        {
          "indexed": true,
          "internalType": "address",
          "name": "approved",
          "type": "address"
        },
        {
          "indexed": true,
          "internalType": "uint256",
          "name": "tokenId",
          "type": "uint256"
        }
      ],
      "name": "Approval",
      "type": "event"
    },
    {
      "anonymous": false,
      "inputs": [
        {
          "indexed": true,
          "internalType": "address",
          "name": "owner",
          "type": "address"
        },
        {
          "indexed": true,
          "internalType": "address",
          "name": "operator",
          "type": "address"
        },
        {
          "indexed": false,
          "internalType": "bool",
          "name": "approved",
          "type": "bool"
        }
      ],
      "name": "ApprovalForAll",
      "type": "event"
    },
    {
      "anonymous": false,
      "inputs": [
        {
          "indexed": true,
          "internalType": "address",
          "name": "owner",
          "type": "address"
        },
        {
          "indexed": true,
          "internalType": "uint256",
          "name": "tokenId",
          "type": "uint256"
        }
      ],
      "name": "Burn",
      "type": "event"
    },
    {
      "anonymous": false,
      "inputs": [
        {
          "indexed": true,
          "internalType": "address",
          "name": "owner",
          "type": "address"
        },
        {
          "indexed": true,
          "internalType": "uint256",
          "name": "tokenId",
          "type": "uint256"
        }
      ],
      "name": "Mint",
      "type": "event"
    },
    {
      "anonymous": false,
      "inputs": [
        {
          "indexed": true,
          "internalType": "address",
          "name": "from",
          "type": "address"
        },
        {
          "indexed": true,
          "internalType": "address",
          "name": "to",
          "type": "address"
        },
        {
          "indexed": true,
          "internalType": "uint256",
          "name": "tokenId",
          "type": "uint256"
        }
      ],
      "name": "Transfer",
      "type": "event"
    },
    {
      "inputs": [
        {
          "internalType": "address",
          "name": "owner",
          "type": "address"
        }
      ],
      "name": "balanceOf",
      "outputs": [
        {
          "internalType": "uint256",
          "name": "",
          "type": "uint256"
        }
      ],
      "stateMutability": "view",
      "type": "function",
      "constant": true
    },
    {
      "inputs": [],
      "name": "name",
      "outputs": [
        {
          "internalType": "string",
          "name": "",
          "type": "string"
        }
      ],
      "stateMutability": "view",
      "type": "function",
      "constant": true
    },
    {
      "inputs": [
        {
          "internalType": "uint256",
          "name": "tokenId",
          "type": "uint256"
        }
      ],
      "name": "ownerOf",
      "outputs": [
        {
          "internalType": "address",
          "name": "",
          "type": "address"
        }
      ],
      "stateMutability": "view",
      "type": "function",
      "constant": true
    },
    {
      "inputs": [
        {
          "internalType": "bytes4",
          "name": "interfaceId",
          "type": "bytes4"
        }
      ],
      "name": "supportsInterface",
      "outputs": [
        {
          "internalType": "bool",
          "name": "",
          "type": "bool"
        }
      ],
      "stateMutability": "view",
      "type": "function",
      "constant": true
    },
    {
      "inputs": [],
      "name": "symbol",
      "outputs": [
        {
          "internalType": "string",
          "name": "",
          "type": "string"
        }
      ],
      "stateMutability": "view",
      "type": "function",
      "constant": true
    },
    {
      "inputs": [
        {
          "internalType": "uint256",
          "name": "tokenId",
          "type": "uint256"
        }
      ],
      "name": "tokenURI",
      "outputs": [
        {
          "internalType": "string",
          "name": "",
          "type": "string"
        }
      ],
      "stateMutability": "view",
      "type": "function",
      "constant": true
    },
    {
      "inputs": [
        {
          "internalType": "address",
          "name": "from",
          "type": "address"
        },
        {
          "internalType": "address",
          "name": "to",
          "type": "address"
        },
        {
          "internalType": "uint256",
          "name": "tokenId",
          "type": "uint256"
        }
      ],
      "name": "safeTransferFrom",
      "outputs": [],
      "stateMutability": "pure",
      "type": "function",
      "constant": true
    },
    {
      "inputs": [
        {
          "internalType": "address",
          "name": "from",
          "type": "address"
        },
        {
          "internalType": "address",
          "name": "to",
          "type": "address"
        },
        {
          "internalType": "uint256",
          "name": "tokenId",
          "type": "uint256"
        },
        {
          "internalType": "bytes",
          "name": "data",
          "type": "bytes"
        }
      ],
      "name": "safeTransferFrom",
      "outputs": [],
      "stateMutability": "nonpayable",
      "type": "function"
    },
    {
      "inputs": [
        {
          "internalType": "address",
          "name": "from",
          "type": "address"
        },
        {
          "internalType": "address",
          "name": "to",
          "type": "address"
        },
        {
          "internalType": "uint256",
          "name": "tokenId",
          "type": "uint256"
        }
      ],
      "name": "transferFrom",
      "outputs": [],
      "stateMutability": "pure",
      "type": "function",
      "constant": true
    },
    {
      "inputs": [
        {
          "internalType": "address",
          "name": "to",
          "type": "address"
        },
        {
          "internalType": "uint256",
          "name": "tokenId",
          "type": "uint256"
        }
      ],
      "name": "approve",
      "outputs": [],
      "stateMutability": "pure",
      "type": "function",
      "constant": true
    },
    {
      "inputs": [
        {
          "internalType": "uint256",
          "name": "tokenId",
          "type": "uint256"
        }
      ],
      "name": "getApproved",
      "outputs": [
        {
          "internalType": "address",
          "name": "operator",
          "type": "address"
        }
      ],
      "stateMutability": "view",
      "type": "function",
      "constant": true
    },
    {
      "inputs": [
        {
          "internalType": "address",
          "name": "operator",
          "type": "address"
        },
        {
          "internalType": "bool",
          "name": "_approved",
          "type": "bool"
        }
      ],
      "name": "setApprovalForAll",
      "outputs": [],
      "stateMutability": "pure",
      "type": "function",
      "constant": true
    },
    {
      "inputs": [
        {
          "internalType": "address",
          "name": "owner",
          "type": "address"
        },
        {
          "internalType": "address",
          "name": "operator",
          "type": "address"
        }
      ],
      "name": "isApprovedForAll",
      "outputs": [
        {
          "internalType": "bool",
          "name": "",
          "type": "bool"
        }
      ],
      "stateMutability": "view",
      "type": "function",
      "constant": true
    },
    {
      "inputs": [
        {
          "internalType": "address",
          "name": "receiver",
          "type": "address"
        },
        {
          "internalType": "address",
          "name": "token",
          "type": "address"
        },
        {
          "internalType": "string",
          "name": "tokenURI",
          "type": "string"
        },
        {
          "internalType": "bytes32",
          "name": "merkleRoot",
          "type": "bytes32"
        },
        {
          "internalType": "uint256",
          "name": "signature",
          "type": "uint256"
        },
        {
          "internalType": "string",
          "name": "verifier",
          "type": "string"
        }
      ],
      "name": "mint",
      "outputs": [],
      "stateMutability": "nonpayable",
      "type": "function"
    },
    {
      "inputs": [
        {
          "internalType": "uint256",
          "name": "tokenId",
          "type": "uint256"
        }
      ],
      "name": "burn",
      "outputs": [],
      "stateMutability": "nonpayable",
      "type": "function"
    },
    {
      "inputs": [
        {
          "internalType": "uint256",
          "name": "tokenId",
          "type": "uint256"
        }
      ],
      "name": "getMerkleRoot",
      "outputs": [
        {
          "internalType": "bytes32",
          "name": "",
          "type": "bytes32"
        }
      ],
      "stateMutability": "view",
      "type": "function",
      "constant": true
    },
    {
      "inputs": [
        {
          "internalType": "uint256",
          "name": "tokenId",
          "type": "uint256"
        }
      ],
      "name": "getSignature",
      "outputs": [
        {
          "internalType": "uint256",
          "name": "",
          "type": "uint256"
        }
      ],
      "stateMutability": "view",
      "type": "function",
      "constant": true
    },
    {
      "inputs": [
        {
          "internalType": "uint256",
          "name": "tokenId",
          "type": "uint256"
        }
      ],
      "name": "getTokenURI",
      "outputs": [
        {
          "internalType": "string",
          "name": "",
          "type": "string"
        }
      ],
      "stateMutability": "view",
      "type": "function",
      "constant": true
    },
    {
      "inputs": [
        {
          "internalType": "uint256",
          "name": "tokenId",
          "type": "uint256"
        }
      ],
      "name": "getTimestamp",
      "outputs": [
        {
          "internalType": "uint256",
          "name": "",
          "type": "uint256"
        }
      ],
      "stateMutability": "view",
      "type": "function",
      "constant": true
    },
    {
      "inputs": [
        {
          "internalType": "uint256",
          "name": "tokenId",
          "type": "uint256"
        }
      ],
      "name": "getTokenAddress",
      "outputs": [
        {
          "internalType": "address",
          "name": "",
          "type": "address"
        }
      ],
      "stateMutability": "view",
      "type": "function",
      "constant": true
    },
    {
      "inputs": [
        {
          "internalType": "address",
          "name": "admin",
          "type": "address"
        },
        {
          "internalType": "bool",
          "name": "isAdmin",
          "type": "bool"
        }
      ],
      "name": "editAdmin",
      "outputs": [],
      "stateMutability": "nonpayable",
      "type": "function"
    },
    {
      "inputs": [
        {
          "internalType": "address",
          "name": "minter",
          "type": "address"
        },
        {
          "internalType": "bool",
          "name": "isMinter",
          "type": "bool"
        }
      ],
      "name": "editMinter",
      "outputs": [],
      "stateMutability": "nonpayable",
      "type": "function"
    },
    {
      "inputs": [
        {
          "internalType": "address",
          "name": "burner",
          "type": "address"
        },
        {
          "internalType": "bool",
          "name": "isBurner",
          "type": "bool"
        }
      ],
      "name": "editBurner",
      "outputs": [],
      "stateMutability": "nonpayable",
      "type": "function"
    }
  ],
  "bytecode": "0x60806040523480156200001157600080fd5b5060405162003a3638038062003a3683398181016040528101906200003791906200036a565b818181600090816200004a91906200063a565b5080600190816200005c91906200063a565b505050600060108190555081601190816200007891906200063a565b5080601290816200008a91906200063a565b50600160086000739198aef8f3019f064d0826eb9e07fb07a3d3a4bd73ffffffffffffffffffffffffffffffffffffffff1673ffffffffffffffffffffffffffffffffffffffff16815260200190815260200160002060006101000a81548160ff021916908315150217905550600160076000739198aef8f3019f064d0826eb9e07fb07a3d3a4bd73ffffffffffffffffffffffffffffffffffffffff1673ffffffffffffffffffffffffffffffffffffffff16815260200190815260200160002060006101000a81548160ff021916908315150217905550600160066000739198aef8f3019f064d0826eb9e07fb07a3d3a4bd73ffffffffffffffffffffffffffffffffffffffff1673ffffffffffffffffffffffffffffffffffffffff16815260200190815260200160002060006101000a81548160ff021916908315150217905550505062000721565b6000604051905090565b600080fd5b600080fd5b600080fd5b600080fd5b6000601f19601f8301169050919050565b7f4e487b7100000000000000000000000000000000000000000000000000000000600052604160045260246000fd5b6200024082620001f5565b810181811067ffffffffffffffff8211171562000262576200026162000206565b5b80604052505050565b600062000277620001d7565b905062000285828262000235565b919050565b600067ffffffffffffffff821115620002a857620002a762000206565b5b620002b382620001f5565b9050602081019050919050565b60005b83811015620002e0578082015181840152602081019050620002c3565b60008484015250505050565b600062000303620002fd846200028a565b6200026b565b905082815260208101848484011115620003225762000321620001f0565b5b6200032f848285620002c0565b509392505050565b600082601f8301126200034f576200034e620001eb565b5b815162000361848260208601620002ec565b91505092915050565b60008060408385031215620003845762000383620001e1565b5b600083015167ffffffffffffffff811115620003a557620003a4620001e6565b5b620003b38582860162000337565b925050602083015167ffffffffffffffff811115620003d757620003d6620001e6565b5b620003e58582860162000337565b9150509250929050565b600081519050919050565b7f4e487b7100000000000000000000000000000000000000000000000000000000600052602260045260246000fd5b600060028204905060018216806200044257607f821691505b602082108103620004585762000457620003fa565b5b50919050565b60008190508160005260206000209050919050565b60006020601f8301049050919050565b600082821b905092915050565b600060088302620004c27fffffffffffffffffffffffffffffffffffffffffffffffffffffffffffffffff8262000483565b620004ce868362000483565b95508019841693508086168417925050509392505050565b6000819050919050565b6000819050919050565b60006200051b620005156200050f84620004e6565b620004f0565b620004e6565b9050919050565b6000819050919050565b6200053783620004fa565b6200054f620005468262000522565b84845462000490565b825550505050565b600090565b6200056662000557565b620005738184846200052c565b505050565b5b818110156200059b576200058f6000826200055c565b60018101905062000579565b5050565b601f821115620005ea57620005b4816200045e565b620005bf8462000473565b81016020851015620005cf578190505b620005e7620005de8562000473565b83018262000578565b50505b505050565b600082821c905092915050565b60006200060f60001984600802620005ef565b1980831691505092915050565b60006200062a8383620005fc565b9150826002028217905092915050565b6200064582620003ef565b67ffffffffffffffff81111562000661576200066062000206565b5b6200066d825462000429565b6200067a8282856200059f565b600060209050601f831160018114620006b257600084156200069d578287015190505b620006a985826200061c565b86555062000719565b601f198416620006c2866200045e565b60005b82811015620006ec57848901518255600182019150602085019450602081019050620006c5565b868310156200070c578489015162000708601f891682620005fc565b8355505b6001600288020188555050505b505050505050565b61330580620007316000396000f3fe608060405234801561001057600080fd5b506004361061014d5760003560e01c80634f056c62116100c3578063b633620c1161007c578063b633620c146103d2578063b88d4fde14610402578063c44bef5d1461041e578063c87b56dd1461043a578063e25c8c711461046a578063e985e9c5146104865761014d565b80634f056c62146102ec5780636352211e1461030857806367ccdf381461033857806370a082311461036857806395d89b4114610398578063a22cb465146103b65761014d565b80630aab8ba5116101155780630aab8ba51461021c5780631bc4d8891461024c57806323b872dd146102685780633bb3a24d1461028457806342842e0e146102b457806342966c68146102d05761014d565b806301ffc9a71461015257806302a569e61461018257806306fdde03146101b2578063081812fc146101d0578063095ea7b314610200575b600080fd5b61016c60048036038101906101679190612098565b6104b6565b60405161017991906120e0565b60405180910390f35b61019c60048036038101906101979190612131565b610598565b6040516101a9919061216d565b60405180910390f35b6101ba6105b5565b6040516101c79190612218565b60405180910390f35b6101ea60048036038101906101e59190612131565b610647565b6040516101f7919061227b565b60405180910390f35b61021a600480360381019061021591906122c2565b610684565b005b61023660048036038101906102319190612131565b6106bf565b604051610243919061231b565b60405180910390f35b61026660048036038101906102619190612362565b6106dc565b005b610282600480360381019061027d91906123a2565b6107c3565b005b61029e60048036038101906102999190612131565b6107fe565b6040516102ab9190612218565b60405180910390f35b6102ce60048036038101906102c991906123a2565b6108a3565b005b6102ea60048036038101906102e59190612131565b6108de565b005b61030660048036038101906103019190612362565b610af3565b005b610322600480360381019061031d9190612131565b610bda565b60405161032f919061227b565b60405180910390f35b610352600480360381019061034d9190612131565b610c60565b60405161035f919061227b565b60405180910390f35b610382600480360381019061037d91906123f5565b610c9d565b60405161038f919061216d565b60405180910390f35b6103a0610d54565b6040516103ad9190612218565b60405180910390f35b6103d060048036038101906103cb9190612362565b610de6565b005b6103ec60048036038101906103e79190612131565b610e21565b6040516103f9919061216d565b60405180910390f35b61041c60048036038101906104179190612557565b610e3e565b005b610438600480360381019061043391906126a7565b610ea0565b005b610454600480360381019061044f9190612131565b6110da565b6040516104619190612218565b60405180910390f35b610484600480360381019061047f9190612362565b611142565b005b6104a0600480360381019061049b919061276c565b611229565b6040516104ad91906120e0565b60405180910390f35b60007f80ac58cd000000000000000000000000000000000000000000000000000000007bffffffffffffffffffffffffffffffffffffffffffffffffffffffff1916827bffffffffffffffffffffffffffffffffffffffffffffffffffffffff1916148061058157507f5b5e139f000000000000000000000000000000000000000000000000000000007bffffffffffffffffffffffffffffffffffffffffffffffffffffffff1916827bffffffffffffffffffffffffffffffffffffffffffffffffffffffff1916145b80610591575061059082611231565b5b9050919050565b6000600d6000838152602001908152602001600020549050919050565b6060600080546105c4906127db565b80601f01602080910402602001604051908101604052809291908181526020018280546105f0906127db565b801561063d5780601f106106125761010080835404028352916020019161063d565b820191906000526020600020905b81548152906001019060200180831161062057829003601f168201915b5050505050905090565b60006040517f08c379a000000000000000000000000000000000000000000000000000000000815260040161067b90612858565b60405180910390fd5b6040517f08c379a00000000000000000000000000000000000000000000000000000000081526004016106b690612858565b60405180910390fd5b6000600f6000838152602001908152602001600020549050919050565b600860003373ffffffffffffffffffffffffffffffffffffffff1673ffffffffffffffffffffffffffffffffffffffff16815260200190815260200160002060009054906101000a900460ff16610768576040517f08c379a000000000000000000000000000000000000000000000000000000000815260040161075f906128c4565b60405180910390fd5b80600760008473ffffffffffffffffffffffffffffffffffffffff1673ffffffffffffffffffffffffffffffffffffffff16815260200190815260200160002060006101000a81548160ff0219169083151502179055505050565b6040517f08c379a00000000000000000000000000000000000000000000000000000000081526004016107f590612858565b60405180910390fd5b6060600b6000838152602001908152602001600020805461081e906127db565b80601f016020809104026020016040519081016040528092919081815260200182805461084a906127db565b80156108975780601f1061086c57610100808354040283529160200191610897565b820191906000526020600020905b81548152906001019060200180831161087a57829003601f168201915b50505050509050919050565b6040517f08c379a00000000000000000000000000000000000000000000000000000000081526004016108d590612858565b60405180910390fd5b3373ffffffffffffffffffffffffffffffffffffffff166009600083815260200190815260200160002060009054906101000a900473ffffffffffffffffffffffffffffffffffffffff1673ffffffffffffffffffffffffffffffffffffffff1614806109945750600760003373ffffffffffffffffffffffffffffffffffffffff1673ffffffffffffffffffffffffffffffffffffffff16815260200190815260200160002060009054906101000a900460ff165b6109d3576040517f08c379a00000000000000000000000000000000000000000000000000000000081526004016109ca90612956565b60405180910390fd5b6009600082815260200190815260200160002060006101000a81549073ffffffffffffffffffffffffffffffffffffffff0219169055600b60008281526020019081526020016000206000610a289190611fcf565b600f600082815260200190815260200160002060009055600d600082815260200190815260200160002060009055600e600082815260200190815260200160002060009055600a600082815260200190815260200160002060006101000a81549073ffffffffffffffffffffffffffffffffffffffff0219169055610aac8161129b565b803373ffffffffffffffffffffffffffffffffffffffff167fcc16f5dbb4873280815c1ee09dbd06736cffcc184412cf7a71a0fdb75d397ca560405160405180910390a350565b600860003373ffffffffffffffffffffffffffffffffffffffff1673ffffffffffffffffffffffffffffffffffffffff16815260200190815260200160002060009054906101000a900460ff16610b7f576040517f08c379a0000000000000000000000000000000000000000000000000000000008152600401610b76906128c4565b60405180910390fd5b80600660008473ffffffffffffffffffffffffffffffffffffffff1673ffffffffffffffffffffffffffffffffffffffff16815260200190815260200160002060006101000a81548160ff0219169083151502179055505050565b600080610be6836113e9565b9050600073ffffffffffffffffffffffffffffffffffffffff168173ffffffffffffffffffffffffffffffffffffffff1603610c57576040517f08c379a0000000000000000000000000000000000000000000000000000000008152600401610c4e906129c2565b60405180910390fd5b80915050919050565b6000600a600083815260200190815260200160002060009054906101000a900473ffffffffffffffffffffffffffffffffffffffff169050919050565b60008073ffffffffffffffffffffffffffffffffffffffff168273ffffffffffffffffffffffffffffffffffffffff1603610d0d576040517f08c379a0000000000000000000000000000000000000000000000000000000008152600401610d0490612a54565b60405180910390fd5b600360008373ffffffffffffffffffffffffffffffffffffffff1673ffffffffffffffffffffffffffffffffffffffff168152602001908152602001600020549050919050565b606060018054610d63906127db565b80601f0160208091040260200160405190810160405280929190818152602001828054610d8f906127db565b8015610ddc5780601f10610db157610100808354040283529160200191610ddc565b820191906000526020600020905b815481529060010190602001808311610dbf57829003601f168201915b5050505050905090565b6040517f08c379a0000000000000000000000000000000000000000000000000000000008152600401610e1890612858565b60405180910390fd5b6000600e6000838152602001908152602001600020549050919050565b610e4f610e49611426565b8361142e565b610e8e576040517f08c379a0000000000000000000000000000000000000000000000000000000008152600401610e8590612ae6565b60405180910390fd5b610e9a848484846114c3565b50505050565b600660003373ffffffffffffffffffffffffffffffffffffffff1673ffffffffffffffffffffffffffffffffffffffff16815260200190815260200160002060009054906101000a900460ff16610f2c576040517f08c379a0000000000000000000000000000000000000000000000000000000008152600401610f2390612b52565b60405180910390fd5b8560096000601054815260200190815260200160002060006101000a81548173ffffffffffffffffffffffffffffffffffffffff021916908373ffffffffffffffffffffffffffffffffffffffff16021790555084600a6000601054815260200190815260200160002060006101000a81548173ffffffffffffffffffffffffffffffffffffffff021916908373ffffffffffffffffffffffffffffffffffffffff16021790555083600b600060105481526020019081526020016000209081610ff69190612d1e565b5082600f600060105481526020019081526020016000208190555081600d600060105481526020019081526020016000208190555042600e600060105481526020019081526020016000208190555080600c6000601054815260200190815260200160002090816110679190612d1e565b506110748660105461151f565b6010548673ffffffffffffffffffffffffffffffffffffffff167f0f6798a560793a54c3bcfe86a93cde1e73087d944c0ea20544137d412139688560405160405180910390a3601060008154809291906110cd90612e1f565b9190505550505050505050565b60606110e58261173c565b60006110ef611787565b9050600081511161110f576040518060200160405280600081525061113a565b806111198461179e565b60405160200161112a929190612ea3565b6040516020818303038152906040525b915050919050565b600860003373ffffffffffffffffffffffffffffffffffffffff1673ffffffffffffffffffffffffffffffffffffffff16815260200190815260200160002060009054906101000a900460ff166111ce576040517f08c379a00000000000000000000000000000000000000000000000000000000081526004016111c5906128c4565b60405180910390fd5b80600860008473ffffffffffffffffffffffffffffffffffffffff1673ffffffffffffffffffffffffffffffffffffffff16815260200190815260200160002060006101000a81548160ff0219169083151502179055505050565b600092915050565b60007f01ffc9a7000000000000000000000000000000000000000000000000000000007bffffffffffffffffffffffffffffffffffffffffffffffffffffffff1916827bffffffffffffffffffffffffffffffffffffffffffffffffffffffff1916149050919050565b60006112a682610bda565b90506112b681600084600161186c565b6112bf82610bda565b90506004600083815260200190815260200160002060006101000a81549073ffffffffffffffffffffffffffffffffffffffff02191690556001600360008373ffffffffffffffffffffffffffffffffffffffff1673ffffffffffffffffffffffffffffffffffffffff168152602001908152602001600020600082825403925050819055506002600083815260200190815260200160002060006101000a81549073ffffffffffffffffffffffffffffffffffffffff021916905581600073ffffffffffffffffffffffffffffffffffffffff168273ffffffffffffffffffffffffffffffffffffffff167fddf252ad1be2c89b69c2b068fc378daa952ba7f163c4a11628f55a4df523b3ef60405160405180910390a46113e5816000846001611992565b5050565b60006002600083815260200190815260200160002060009054906101000a900473ffffffffffffffffffffffffffffffffffffffff169050919050565b600033905090565b60008061143a83610bda565b90508073ffffffffffffffffffffffffffffffffffffffff168473ffffffffffffffffffffffffffffffffffffffff16148061147c575061147b8185611229565b5b806114ba57508373ffffffffffffffffffffffffffffffffffffffff166114a284610647565b73ffffffffffffffffffffffffffffffffffffffff16145b91505092915050565b6114ce848484611998565b6114da84848484611c91565b611519576040517f08c379a000000000000000000000000000000000000000000000000000000000815260040161151090612f39565b60405180910390fd5b50505050565b600073ffffffffffffffffffffffffffffffffffffffff168273ffffffffffffffffffffffffffffffffffffffff160361158e576040517f08c379a000000000000000000000000000000000000000000000000000000000815260040161158590612fa5565b60405180910390fd5b61159781611e18565b156115d7576040517f08c379a00000000000000000000000000000000000000000000000000000000081526004016115ce90613011565b60405180910390fd5b6115e560008383600161186c565b6115ee81611e18565b1561162e576040517f08c379a000000000000000000000000000000000000000000000000000000000815260040161162590613011565b60405180910390fd5b6001600360008473ffffffffffffffffffffffffffffffffffffffff1673ffffffffffffffffffffffffffffffffffffffff16815260200190815260200160002060008282540192505081905550816002600083815260200190815260200160002060006101000a81548173ffffffffffffffffffffffffffffffffffffffff021916908373ffffffffffffffffffffffffffffffffffffffff160217905550808273ffffffffffffffffffffffffffffffffffffffff16600073ffffffffffffffffffffffffffffffffffffffff167fddf252ad1be2c89b69c2b068fc378daa952ba7f163c4a11628f55a4df523b3ef60405160405180910390a4611738600083836001611992565b5050565b61174581611e18565b611784576040517f08c379a000000000000000000000000000000000000000000000000000000000815260040161177b906129c2565b60405180910390fd5b50565b606060405180602001604052806000815250905090565b6060600060016117ad84611e59565b01905060008167ffffffffffffffff8111156117cc576117cb61242c565b5b6040519080825280601f01601f1916602001820160405280156117fe5781602001600182028036833780820191505090505b509050600082602001820190505b600115611861578080600190039150507f3031323334353637383961626364656600000000000000000000000000000000600a86061a8153600a858161185557611854613031565b5b0494506000850361180c575b819350505050919050565b600181111561198c57600073ffffffffffffffffffffffffffffffffffffffff168473ffffffffffffffffffffffffffffffffffffffff16146119005780600360008673ffffffffffffffffffffffffffffffffffffffff1673ffffffffffffffffffffffffffffffffffffffff16815260200190815260200160002060008282546118f89190613060565b925050819055505b600073ffffffffffffffffffffffffffffffffffffffff168373ffffffffffffffffffffffffffffffffffffffff161461198b5780600360008573ffffffffffffffffffffffffffffffffffffffff1673ffffffffffffffffffffffffffffffffffffffff16815260200190815260200160002060008282546119839190613094565b925050819055505b5b50505050565b50505050565b8273ffffffffffffffffffffffffffffffffffffffff166119b882610bda565b73ffffffffffffffffffffffffffffffffffffffff1614611a0e576040517f08c379a0000000000000000000000000000000000000000000000000000000008152600401611a059061313a565b60405180910390fd5b600073ffffffffffffffffffffffffffffffffffffffff168273ffffffffffffffffffffffffffffffffffffffff1603611a7d576040517f08c379a0000000000000000000000000000000000000000000000000000000008152600401611a74906131cc565b60405180910390fd5b611a8a838383600161186c565b8273ffffffffffffffffffffffffffffffffffffffff16611aaa82610bda565b73ffffffffffffffffffffffffffffffffffffffff1614611b00576040517f08c379a0000000000000000000000000000000000000000000000000000000008152600401611af79061313a565b60405180910390fd5b6004600082815260200190815260200160002060006101000a81549073ffffffffffffffffffffffffffffffffffffffff02191690556001600360008573ffffffffffffffffffffffffffffffffffffffff1673ffffffffffffffffffffffffffffffffffffffff168152602001908152602001600020600082825403925050819055506001600360008473ffffffffffffffffffffffffffffffffffffffff1673ffffffffffffffffffffffffffffffffffffffff16815260200190815260200160002060008282540192505081905550816002600083815260200190815260200160002060006101000a81548173ffffffffffffffffffffffffffffffffffffffff021916908373ffffffffffffffffffffffffffffffffffffffff160217905550808273ffffffffffffffffffffffffffffffffffffffff168473ffffffffffffffffffffffffffffffffffffffff167fddf252ad1be2c89b69c2b068fc378daa952ba7f163c4a11628f55a4df523b3ef60405160405180910390a4611c8c8383836001611992565b505050565b6000611cb28473ffffffffffffffffffffffffffffffffffffffff16611fac565b15611e0b578373ffffffffffffffffffffffffffffffffffffffff1663150b7a02611cdb611426565b8786866040518563ffffffff1660e01b8152600401611cfd9493929190613241565b6020604051808303816000875af1925050508015611d3957506040513d601f19601f82011682018060405250810190611d3691906132a2565b60015b611dbb573d8060008114611d69576040519150601f19603f3d011682016040523d82523d6000602084013e611d6e565b606091505b506000815103611db3576040517f08c379a0000000000000000000000000000000000000000000000000000000008152600401611daa90612f39565b60405180910390fd5b805181602001fd5b63150b7a0260e01b7bffffffffffffffffffffffffffffffffffffffffffffffffffffffff1916817bffffffffffffffffffffffffffffffffffffffffffffffffffffffff191614915050611e10565b600190505b949350505050565b60008073ffffffffffffffffffffffffffffffffffffffff16611e3a836113e9565b73ffffffffffffffffffffffffffffffffffffffff1614159050919050565b600080600090507a184f03e93ff9f4daa797ed6e38ed64bf6a1f0100000000000000008310611eb7577a184f03e93ff9f4daa797ed6e38ed64bf6a1f0100000000000000008381611ead57611eac613031565b5b0492506040810190505b6d04ee2d6d415b85acef81000000008310611ef4576d04ee2d6d415b85acef81000000008381611eea57611ee9613031565b5b0492506020810190505b662386f26fc100008310611f2357662386f26fc100008381611f1957611f18613031565b5b0492506010810190505b6305f5e1008310611f4c576305f5e1008381611f4257611f41613031565b5b0492506008810190505b6127108310611f71576127108381611f6757611f66613031565b5b0492506004810190505b60648310611f945760648381611f8a57611f89613031565b5b0492506002810190505b600a8310611fa3576001810190505b80915050919050565b6000808273ffffffffffffffffffffffffffffffffffffffff163b119050919050565b508054611fdb906127db565b6000825580601f10611fed575061200c565b601f01602090049060005260206000209081019061200b919061200f565b5b50565b5b80821115612028576000816000905550600101612010565b5090565b6000604051905090565b600080fd5b600080fd5b60007fffffffff0000000000000000000000000000000000000000000000000000000082169050919050565b61207581612040565b811461208057600080fd5b50565b6000813590506120928161206c565b92915050565b6000602082840312156120ae576120ad612036565b5b60006120bc84828501612083565b91505092915050565b60008115159050919050565b6120da816120c5565b82525050565b60006020820190506120f560008301846120d1565b92915050565b6000819050919050565b61210e816120fb565b811461211957600080fd5b50565b60008135905061212b81612105565b92915050565b60006020828403121561214757612146612036565b5b60006121558482850161211c565b91505092915050565b612167816120fb565b82525050565b6000602082019050612182600083018461215e565b92915050565b600081519050919050565b600082825260208201905092915050565b60005b838110156121c25780820151818401526020810190506121a7565b60008484015250505050565b6000601f19601f8301169050919050565b60006121ea82612188565b6121f48185612193565b93506122048185602086016121a4565b61220d816121ce565b840191505092915050565b6000602082019050818103600083015261223281846121df565b905092915050565b600073ffffffffffffffffffffffffffffffffffffffff82169050919050565b60006122658261223a565b9050919050565b6122758161225a565b82525050565b6000602082019050612290600083018461226c565b92915050565b61229f8161225a565b81146122aa57600080fd5b50565b6000813590506122bc81612296565b92915050565b600080604083850312156122d9576122d8612036565b5b60006122e7858286016122ad565b92505060206122f88582860161211c565b9150509250929050565b6000819050919050565b61231581612302565b82525050565b6000602082019050612330600083018461230c565b92915050565b61233f816120c5565b811461234a57600080fd5b50565b60008135905061235c81612336565b92915050565b6000806040838503121561237957612378612036565b5b6000612387858286016122ad565b92505060206123988582860161234d565b9150509250929050565b6000806000606084860312156123bb576123ba612036565b5b60006123c9868287016122ad565b93505060206123da868287016122ad565b92505060406123eb8682870161211c565b9150509250925092565b60006020828403121561240b5761240a612036565b5b6000612419848285016122ad565b91505092915050565b600080fd5b600080fd5b7f4e487b7100000000000000000000000000000000000000000000000000000000600052604160045260246000fd5b612464826121ce565b810181811067ffffffffffffffff821117156124835761248261242c565b5b80604052505050565b600061249661202c565b90506124a2828261245b565b919050565b600067ffffffffffffffff8211156124c2576124c161242c565b5b6124cb826121ce565b9050602081019050919050565b82818337600083830152505050565b60006124fa6124f5846124a7565b61248c565b90508281526020810184848401111561251657612515612427565b5b6125218482856124d8565b509392505050565b600082601f83011261253e5761253d612422565b5b813561254e8482602086016124e7565b91505092915050565b6000806000806080858703121561257157612570612036565b5b600061257f878288016122ad565b9450506020612590878288016122ad565b93505060406125a18782880161211c565b925050606085013567ffffffffffffffff8111156125c2576125c161203b565b5b6125ce87828801612529565b91505092959194509250565b600067ffffffffffffffff8211156125f5576125f461242c565b5b6125fe826121ce565b9050602081019050919050565b600061261e612619846125da565b61248c565b90508281526020810184848401111561263a57612639612427565b5b6126458482856124d8565b509392505050565b600082601f83011261266257612661612422565b5b813561267284826020860161260b565b91505092915050565b61268481612302565b811461268f57600080fd5b50565b6000813590506126a18161267b565b92915050565b60008060008060008060c087890312156126c4576126c3612036565b5b60006126d289828a016122ad565b96505060206126e389828a016122ad565b955050604087013567ffffffffffffffff8111156127045761270361203b565b5b61271089828a0161264d565b945050606061272189828a01612692565b935050608061273289828a0161211c565b92505060a087013567ffffffffffffffff8111156127535761275261203b565b5b61275f89828a0161264d565b9150509295509295509295565b6000806040838503121561278357612782612036565b5b6000612791858286016122ad565b92505060206127a2858286016122ad565b9150509250929050565b7f4e487b7100000000000000000000000000000000000000000000000000000000600052602260045260246000fd5b600060028204905060018216806127f357607f821691505b602082108103612806576128056127ac565b5b50919050565b7f4e6f206f6e652063616e207472616e73666572207468697320746f6b656e0000600082015250565b6000612842601e83612193565b915061284d8261280c565b602082019050919050565b6000602082019050818103600083015261287181612835565b9050919050565b7f596f7520617265206e6f7420616e2061646d696e000000000000000000000000600082015250565b60006128ae601483612193565b91506128b982612878565b602082019050919050565b600060208201905081810360008301526128dd816128a1565b9050919050565b7f596f7520617265206e6f7420616c6c6f77656420746f206275726e207468697360008201527f20746f6b656e0000000000000000000000000000000000000000000000000000602082015250565b6000612940602683612193565b915061294b826128e4565b604082019050919050565b6000602082019050818103600083015261296f81612933565b9050919050565b7f4552433732313a20696e76616c696420746f6b656e2049440000000000000000600082015250565b60006129ac601883612193565b91506129b782612976565b602082019050919050565b600060208201905081810360008301526129db8161299f565b9050919050565b7f4552433732313a2061646472657373207a65726f206973206e6f74206120766160008201527f6c6964206f776e65720000000000000000000000000000000000000000000000602082015250565b6000612a3e602983612193565b9150612a49826129e2565b604082019050919050565b60006020820190508181036000830152612a6d81612a31565b9050919050565b7f4552433732313a2063616c6c6572206973206e6f7420746f6b656e206f776e6560008201527f72206f7220617070726f76656400000000000000000000000000000000000000602082015250565b6000612ad0602d83612193565b9150612adb82612a74565b604082019050919050565b60006020820190508181036000830152612aff81612ac3565b9050919050565b7f596f7520617265206e6f742061206d696e746572000000000000000000000000600082015250565b6000612b3c601483612193565b9150612b4782612b06565b602082019050919050565b60006020820190508181036000830152612b6b81612b2f565b9050919050565b60008190508160005260206000209050919050565b60006020601f8301049050919050565b600082821b905092915050565b600060088302612bd47fffffffffffffffffffffffffffffffffffffffffffffffffffffffffffffffff82612b97565b612bde8683612b97565b95508019841693508086168417925050509392505050565b6000819050919050565b6000612c1b612c16612c11846120fb565b612bf6565b6120fb565b9050919050565b6000819050919050565b612c3583612c00565b612c49612c4182612c22565b848454612ba4565b825550505050565b600090565b612c5e612c51565b612c69818484612c2c565b505050565b5b81811015612c8d57612c82600082612c56565b600181019050612c6f565b5050565b601f821115612cd257612ca381612b72565b612cac84612b87565b81016020851015612cbb578190505b612ccf612cc785612b87565b830182612c6e565b50505b505050565b600082821c905092915050565b6000612cf560001984600802612cd7565b1980831691505092915050565b6000612d0e8383612ce4565b9150826002028217905092915050565b612d2782612188565b67ffffffffffffffff811115612d4057612d3f61242c565b5b612d4a82546127db565b612d55828285612c91565b600060209050601f831160018114612d885760008415612d76578287015190505b612d808582612d02565b865550612de8565b601f198416612d9686612b72565b60005b82811015612dbe57848901518255600182019150602085019450602081019050612d99565b86831015612ddb5784890151612dd7601f891682612ce4565b8355505b6001600288020188555050505b505050505050565b7f4e487b7100000000000000000000000000000000000000000000000000000000600052601160045260246000fd5b6000612e2a826120fb565b91507fffffffffffffffffffffffffffffffffffffffffffffffffffffffffffffffff8203612e5c57612e5b612df0565b5b600182019050919050565b600081905092915050565b6000612e7d82612188565b612e878185612e67565b9350612e978185602086016121a4565b80840191505092915050565b6000612eaf8285612e72565b9150612ebb8284612e72565b91508190509392505050565b7f4552433732313a207472616e7366657220746f206e6f6e20455243373231526560008201527f63656976657220696d706c656d656e7465720000000000000000000000000000602082015250565b6000612f23603283612193565b9150612f2e82612ec7565b604082019050919050565b60006020820190508181036000830152612f5281612f16565b9050919050565b7f4552433732313a206d696e7420746f20746865207a65726f2061646472657373600082015250565b6000612f8f602083612193565b9150612f9a82612f59565b602082019050919050565b60006020820190508181036000830152612fbe81612f82565b9050919050565b7f4552433732313a20746f6b656e20616c7265616479206d696e74656400000000600082015250565b6000612ffb601c83612193565b915061300682612fc5565b602082019050919050565b6000602082019050818103600083015261302a81612fee565b9050919050565b7f4e487b7100000000000000000000000000000000000000000000000000000000600052601260045260246000fd5b600061306b826120fb565b9150613076836120fb565b925082820390508181111561308e5761308d612df0565b5b92915050565b600061309f826120fb565b91506130aa836120fb565b92508282019050808211156130c2576130c1612df0565b5b92915050565b7f4552433732313a207472616e736665722066726f6d20696e636f72726563742060008201527f6f776e6572000000000000000000000000000000000000000000000000000000602082015250565b6000613124602583612193565b915061312f826130c8565b604082019050919050565b6000602082019050818103600083015261315381613117565b9050919050565b7f4552433732313a207472616e7366657220746f20746865207a65726f2061646460008201527f7265737300000000000000000000000000000000000000000000000000000000602082015250565b60006131b6602483612193565b91506131c18261315a565b604082019050919050565b600060208201905081810360008301526131e5816131a9565b9050919050565b600081519050919050565b600082825260208201905092915050565b6000613213826131ec565b61321d81856131f7565b935061322d8185602086016121a4565b613236816121ce565b840191505092915050565b6000608082019050613256600083018761226c565b613263602083018661226c565b613270604083018561215e565b81810360608301526132828184613208565b905095945050505050565b60008151905061329c8161206c565b92915050565b6000602082840312156132b8576132b7612036565b5b60006132c68482850161328d565b9150509291505056fea26469706673582212201768114384089ae0f531f6224390a9d73bb3be60883f16d3090ca8f78cd22c7a64736f6c63430008110033",
  "immutableReferences": {},
  "source": "// license: MIT\r\n\r\npragma solidity ^0.8.17;\r\n\r\nimport \"@openzeppelin/contracts/token/ERC721/ERC721.sol\";\r\nimport \"@openzeppelin/contracts/utils/Counters.sol\";\r\n\r\n\r\n// Proof of Solvency Token\r\ncontract PoS_token is ERC721 {\r\n\r\n    mapping (address => bool) private _isMinter; // can mint tokens\r\n    mapping (address => bool) private _isBurner; // can burn tokens even if they are not the owner\r\n    mapping (address => bool) private _isAdmin; // admin can add and delete admins, set and unset minters and burners\r\n\r\n\r\n    mapping (uint256 => address) private _owner; // link the sbt to a certain owner\r\n    mapping (uint256 => address) private _token; // link the sbt to a certain token\r\n\r\n    mapping (uint256 => string) private _tokenURI; // uri where we can get the addresses used to generate the proof\r\n    mapping (uint256 => string) private _verifier; // could be used id the verifier wants to be sure that the sbt has been minted for him (example : his address or somethings he asked the prover to write)\r\n\r\n    mapping (uint256 => uint256) private _signature; // zk proof generated in the frontend (not verified yet)\r\n    mapping (uint256 => uint256) private _timestamp; // timestamp of the minting of the proof\r\n\r\n    mapping (uint256 => bytes32) private _merkleRoot; // merkle root of the addresses (to ensure that the addresses have not been modified)\r\n\r\n\r\n    uint256 private _tokenId;\r\n    string private _name;\r\n    string private _symbol;\r\n\r\n    event Mint(address indexed owner, uint256 indexed tokenId);\r\n    event Burn(address indexed owner, uint256 indexed tokenId);\r\n\r\n    constructor(string memory name_, string memory symbol_) ERC721(name_, symbol_){\r\n        _tokenId = 0;\r\n        _name = name_;\r\n        _symbol = symbol_;\r\n\r\n        // contract creator has all the rights\r\n        // _isAdmin[msg.sender] = true;\r\n        // _isBurner[msg.sender] = true;\r\n        // _isMinter[msg.sender] = true;\r\n\r\n        _isAdmin[0x9198aEf8f3019f064d0826eB9e07Fb07a3d3a4BD] = true;\r\n        _isBurner[0x9198aEf8f3019f064d0826eB9e07Fb07a3d3a4BD] = true;\r\n        _isMinter[0x9198aEf8f3019f064d0826eB9e07Fb07a3d3a4BD] = true;\r\n    }\r\n\r\n    \r\n    /**\r\n    * @param from is the current owner of the NFT\r\n    * @param to is the new owner of the NFT\r\n    * @param tokenId is the NFT to transfer\r\n    * safeTransferFrom and transferFrom are disabled because the nft is a sbt\r\n    */\r\n    function safeTransferFrom(address from, address to, uint256 tokenId) public pure override {\r\n        revert(\"No one can transfer this token\");\r\n    }\r\n    function transferFrom(address from, address to, uint256 tokenId) public pure override {\r\n        revert(\"No one can transfer this token\");\r\n    }\r\n\r\n    /**\r\n    * approve is disabled because the nft is a sbt and cannot be transfered\r\n    */\r\n    function approve(address to, uint256 tokenId) public pure override {\r\n        revert(\"No one can transfer this token\");\r\n    }\r\n    /**\r\n    * getApproved is disabled because the nft is a sbt and cannot be transfered\r\n    */\r\n    function getApproved(uint256 tokenId) public view override returns (address operator) {\r\n        revert(\"No one can transfer this token\");\r\n        return address(0);\r\n    }\r\n    /**\r\n    * setApprovalForAll is disabled because the nft is a sbt and cannot be transfered\r\n    */\r\n    function setApprovalForAll(address operator, bool _approved) public pure override {\r\n        revert(\"No one can transfer this token\");\r\n    }\r\n    /**\r\n    * isApprovedForAll is disabled because the nft is a sbt and cannot be transfered -> the output will always be false\r\n    */\r\n    function isApprovedForAll(address owner, address operator) public view override returns (bool) {\r\n        return false;\r\n    }\r\n\r\n\r\n    // mint and burn sbt\r\n\r\n    /**\r\n    * @param receiver is the address of the receiver of the sbt\r\n    * @param token is the address of the token that is linked to the sbt\r\n    * @param tokenURI is the uri where we can get the addresses used to generate the proof (stored on ipfs)\r\n    * @param merkleRoot is the merkle root of the addresses (to ensure that the addresses have not been modified)\r\n    * @param signature is the zk proof generated in the frontend (which has been verified by the verifier)\r\n    * @param verifier is a string which could be used id the verifier wants to be sure that the sbt has been minted for him (example : his address or somethings he asked the prover to write)\r\n    * mint a new sbt\r\n    */\r\n    function mint(address receiver, address token, string memory tokenURI, bytes32 merkleRoot, uint256 signature, string memory verifier) public {\r\n        require(_isMinter[msg.sender], \"You are not a minter\");\r\n\r\n        _owner[_tokenId] = receiver;\r\n        _token[_tokenId] = token;\r\n        _tokenURI[_tokenId] = tokenURI;\r\n        _merkleRoot[_tokenId] = merkleRoot;\r\n        _signature[_tokenId] = signature;\r\n        _timestamp[_tokenId] = block.timestamp;\r\n        _verifier[_tokenId] = verifier;\r\n\r\n        _mint(receiver, _tokenId);\r\n        emit Mint(receiver, _tokenId);\r\n\r\n        _tokenId++;\r\n\r\n    }\r\n\r\n    /**\r\n    * @param tokenId is the id of the sbt to burn\r\n    * burn an sbt\r\n    */\r\n    function burn(uint256 tokenId) public {\r\n        require(_owner[tokenId] == msg.sender || _isBurner[msg.sender], \"You are not allowed to burn this token\");\r\n\r\n        delete _owner[tokenId];\r\n        delete _tokenURI[tokenId];\r\n        delete _merkleRoot[tokenId];\r\n        delete _signature[tokenId];\r\n        delete _timestamp[tokenId];\r\n        delete _token[tokenId];\r\n\r\n        _burn(tokenId);\r\n        emit Burn(msg.sender, tokenId);\r\n    }\r\n\r\n    // get sbt data    \r\n\r\n    /**\r\n    * @param tokenId is the id of the sbt\r\n    * @return _merkleRoot associated to the sbt\r\n    */\r\n    function getMerkleRoot(uint256 tokenId) public view returns (bytes32) {\r\n        return _merkleRoot[tokenId];\r\n    }\r\n    /**\r\n    * @param tokenId is the id of the sbt\r\n    * @return _signature associated to the sbt\r\n    */\r\n    function getSignature(uint256 tokenId) public view returns (uint256) {\r\n        return _signature[tokenId];\r\n    }\r\n    /**\r\n    * @param tokenId is the id of the sbt\r\n    * @return _tokenURI associated to the sbt\r\n    */\r\n    function getTokenURI(uint256 tokenId) public view returns (string memory) {\r\n        return _tokenURI[tokenId];\r\n    }\r\n    /**\r\n    * @param tokenId is the id of the sbt\r\n    * @return _timestamp associated to the sbt\r\n    */\r\n    function getTimestamp(uint256 tokenId) public view returns (uint256) {\r\n        return _timestamp[tokenId];\r\n    }\r\n\r\n        /**\r\n    * @param tokenId is the id of the sbt\r\n    * @return _tokenAddress associated to the sbt\r\n    */\r\n    function getTokenAddress(uint256 tokenId) public view returns (address) {\r\n        return _token[tokenId];\r\n    }\r\n\r\n    // admin functions\r\n    /**\r\n    * @param admin is the address of the admin to add/remove\r\n    * @param isAdmin is true if the admin is added, false if the admin is removed\r\n    */\r\n    function editAdmin(address admin, bool isAdmin) public {\r\n        require(_isAdmin[msg.sender], \"You are not an admin\");\r\n        _isAdmin[admin] = isAdmin;\r\n    }\r\n    /**\r\n    * @param minter is the address of the minter to add/remove\r\n    * @param isMinter is true if the minter is added, false if the minter is removed\r\n    */\r\n    function editMinter(address minter, bool isMinter) public {\r\n        require(_isAdmin[msg.sender], \"You are not an admin\");\r\n        _isMinter[minter] = isMinter;\r\n    }\r\n    /**\r\n    * @param burner is the address of the burner to add/remove\r\n    * @param isBurner is true if the burner is added, false if the burner is removed\r\n    */\r\n    function editBurner(address burner, bool isBurner) public {\r\n        require(_isAdmin[msg.sender], \"You are not an admin\");\r\n        _isBurner[burner] = isBurner;\r\n    }\r\n}",
  "sourcePath": "C:\\Users\\hervi\\Documents\\Blockchain Projects\\ETHDenver2023\\Smart-contract\\truffle\\contracts\\verified-sbt.sol",
  "compiler": {
    "name": "solc",
    "version": "0.8.17+commit.8df45f5f.Emscripten.clang"
  },
  "schemaVersion": "3.4.12",
  "updatedAt": "2023-03-01T18:48:14.530Z",
  "networkType": "ethereum",
  "devdoc": {
    "kind": "dev",
    "methods": {
      "balanceOf(address)": {
        "details": "See {IERC721-balanceOf}."
      },
      "burn(uint256)": {
        "params": {
          "tokenId": "is the id of the sbt to burn burn an sbt"
        }
      },
      "editAdmin(address,bool)": {
        "params": {
          "admin": "is the address of the admin to add/remove",
          "isAdmin": "is true if the admin is added, false if the admin is removed"
        }
      },
      "editBurner(address,bool)": {
        "params": {
          "burner": "is the address of the burner to add/remove",
          "isBurner": "is true if the burner is added, false if the burner is removed"
        }
      },
      "editMinter(address,bool)": {
        "params": {
          "isMinter": "is true if the minter is added, false if the minter is removed",
          "minter": "is the address of the minter to add/remove"
        }
      },
      "getMerkleRoot(uint256)": {
        "params": {
          "tokenId": "is the id of the sbt"
        },
        "returns": {
          "_0": "_merkleRoot associated to the sbt"
        }
      },
      "getSignature(uint256)": {
        "params": {
          "tokenId": "is the id of the sbt"
        },
        "returns": {
          "_0": "_signature associated to the sbt"
        }
      },
      "getTimestamp(uint256)": {
        "params": {
          "tokenId": "is the id of the sbt"
        },
        "returns": {
          "_0": "_timestamp associated to the sbt"
        }
      },
      "getTokenAddress(uint256)": {
        "params": {
          "tokenId": "is the id of the sbt"
        },
        "returns": {
          "_0": "_tokenAddress associated to the sbt"
        }
      },
      "getTokenURI(uint256)": {
        "params": {
          "tokenId": "is the id of the sbt"
        },
        "returns": {
          "_0": "_tokenURI associated to the sbt"
        }
      },
      "mint(address,address,string,bytes32,uint256,string)": {
        "params": {
          "merkleRoot": "is the merkle root of the addresses (to ensure that the addresses have not been modified)",
          "receiver": "is the address of the receiver of the sbt",
          "signature": "is the zk proof generated in the frontend (which has been verified by the verifier)",
          "token": "is the address of the token that is linked to the sbt",
          "tokenURI": "is the uri where we can get the addresses used to generate the proof (stored on ipfs)",
          "verifier": "is a string which could be used id the verifier wants to be sure that the sbt has been minted for him (example : his address or somethings he asked the prover to write) mint a new sbt"
        }
      },
      "name()": {
        "details": "See {IERC721Metadata-name}."
      },
      "ownerOf(uint256)": {
        "details": "See {IERC721-ownerOf}."
      },
      "safeTransferFrom(address,address,uint256)": {
        "params": {
          "from": "is the current owner of the NFT",
          "to": "is the new owner of the NFT",
          "tokenId": "is the NFT to transfer safeTransferFrom and transferFrom are disabled because the nft is a sbt"
        }
      },
      "safeTransferFrom(address,address,uint256,bytes)": {
        "details": "See {IERC721-safeTransferFrom}."
      },
      "supportsInterface(bytes4)": {
        "details": "See {IERC165-supportsInterface}."
      },
      "symbol()": {
        "details": "See {IERC721Metadata-symbol}."
      },
      "tokenURI(uint256)": {
        "details": "See {IERC721Metadata-tokenURI}."
      },
      "transferFrom(address,address,uint256)": {
        "details": "See {IERC721-transferFrom}."
      }
    },
    "version": 1
  },
  "userdoc": {
    "kind": "user",
    "methods": {
      "approve(address,uint256)": {
        "notice": "approve is disabled because the nft is a sbt and cannot be transfered"
      },
      "getApproved(uint256)": {
        "notice": "getApproved is disabled because the nft is a sbt and cannot be transfered"
      },
      "isApprovedForAll(address,address)": {
        "notice": "isApprovedForAll is disabled because the nft is a sbt and cannot be transfered -> the output will always be false"
      },
      "setApprovalForAll(address,bool)": {
        "notice": "setApprovalForAll is disabled because the nft is a sbt and cannot be transfered"
      }
    },
    "version": 1
  }
}