{
  "contractName": "SECP2561k",
  "abi": [
    {
      "inputs": [],
      "name": "a",
      "outputs": [
        {
          "internalType": "uint256",
          "name": "",
          "type": "uint256"
        }
      ],
      "stateMutability": "view",
      "type": "function"
    },
    {
      "inputs": [],
      "name": "b",
      "outputs": [
        {
          "internalType": "uint256",
          "name": "",
          "type": "uint256"
        }
      ],
      "stateMutability": "view",
      "type": "function"
    },
    {
      "inputs": [],
      "name": "gx",
      "outputs": [
        {
          "internalType": "uint256",
          "name": "",
          "type": "uint256"
        }
      ],
      "stateMutability": "view",
      "type": "function"
    },
    {
      "inputs": [],
      "name": "gy",
      "outputs": [
        {
          "internalType": "uint256",
          "name": "",
          "type": "uint256"
        }
      ],
      "stateMutability": "view",
      "type": "function"
    },
    {
      "inputs": [],
      "name": "n",
      "outputs": [
        {
          "internalType": "uint256",
          "name": "",
          "type": "uint256"
        }
      ],
      "stateMutability": "view",
      "type": "function"
    },
    {
      "inputs": [
        {
          "internalType": "uint256",
          "name": "x1",
          "type": "uint256"
        },
        {
          "internalType": "uint256",
          "name": "z1",
          "type": "uint256"
        },
        {
          "internalType": "uint256",
          "name": "x2",
          "type": "uint256"
        },
        {
          "internalType": "uint256",
          "name": "z2",
          "type": "uint256"
        }
      ],
      "name": "_jAdd",
      "outputs": [
        {
          "internalType": "uint256",
          "name": "x3",
          "type": "uint256"
        },
        {
          "internalType": "uint256",
          "name": "z3",
          "type": "uint256"
        }
      ],
      "stateMutability": "pure",
      "type": "function"
    },
    {
      "inputs": [
        {
          "internalType": "uint256",
          "name": "x1",
          "type": "uint256"
        },
        {
          "internalType": "uint256",
          "name": "z1",
          "type": "uint256"
        },
        {
          "internalType": "uint256",
          "name": "x2",
          "type": "uint256"
        },
        {
          "internalType": "uint256",
          "name": "z2",
          "type": "uint256"
        }
      ],
      "name": "_jSub",
      "outputs": [
        {
          "internalType": "uint256",
          "name": "x3",
          "type": "uint256"
        },
        {
          "internalType": "uint256",
          "name": "z3",
          "type": "uint256"
        }
      ],
      "stateMutability": "pure",
      "type": "function"
    },
    {
      "inputs": [
        {
          "internalType": "uint256",
          "name": "x1",
          "type": "uint256"
        },
        {
          "internalType": "uint256",
          "name": "z1",
          "type": "uint256"
        },
        {
          "internalType": "uint256",
          "name": "x2",
          "type": "uint256"
        },
        {
          "internalType": "uint256",
          "name": "z2",
          "type": "uint256"
        }
      ],
      "name": "_jMul",
      "outputs": [
        {
          "internalType": "uint256",
          "name": "x3",
          "type": "uint256"
        },
        {
          "internalType": "uint256",
          "name": "z3",
          "type": "uint256"
        }
      ],
      "stateMutability": "pure",
      "type": "function"
    },
    {
      "inputs": [
        {
          "internalType": "uint256",
          "name": "x1",
          "type": "uint256"
        },
        {
          "internalType": "uint256",
          "name": "z1",
          "type": "uint256"
        },
        {
          "internalType": "uint256",
          "name": "x2",
          "type": "uint256"
        },
        {
          "internalType": "uint256",
          "name": "z2",
          "type": "uint256"
        }
      ],
      "name": "_jDiv",
      "outputs": [
        {
          "internalType": "uint256",
          "name": "x3",
          "type": "uint256"
        },
        {
          "internalType": "uint256",
          "name": "z3",
          "type": "uint256"
        }
      ],
      "stateMutability": "pure",
      "type": "function"
    },
    {
      "inputs": [
        {
          "internalType": "uint256",
          "name": "val",
          "type": "uint256"
        }
      ],
      "name": "_inverse",
      "outputs": [
        {
          "internalType": "uint256",
          "name": "invVal",
          "type": "uint256"
        }
      ],
      "stateMutability": "pure",
      "type": "function"
    },
    {
      "inputs": [
        {
          "internalType": "uint256",
          "name": "x1",
          "type": "uint256"
        },
        {
          "internalType": "uint256",
          "name": "y1",
          "type": "uint256"
        },
        {
          "internalType": "uint256",
          "name": "z1",
          "type": "uint256"
        },
        {
          "internalType": "uint256",
          "name": "x2",
          "type": "uint256"
        },
        {
          "internalType": "uint256",
          "name": "y2",
          "type": "uint256"
        },
        {
          "internalType": "uint256",
          "name": "z2",
          "type": "uint256"
        }
      ],
      "name": "_ecAdd",
      "outputs": [
        {
          "internalType": "uint256",
          "name": "x3",
          "type": "uint256"
        },
        {
          "internalType": "uint256",
          "name": "y3",
          "type": "uint256"
        },
        {
          "internalType": "uint256",
          "name": "z3",
          "type": "uint256"
        }
      ],
      "stateMutability": "pure",
      "type": "function"
    },
    {
      "inputs": [
        {
          "internalType": "uint256",
          "name": "x1",
          "type": "uint256"
        },
        {
          "internalType": "uint256",
          "name": "y1",
          "type": "uint256"
        },
        {
          "internalType": "uint256",
          "name": "z1",
          "type": "uint256"
        }
      ],
      "name": "_ecDouble",
      "outputs": [
        {
          "internalType": "uint256",
          "name": "x3",
          "type": "uint256"
        },
        {
          "internalType": "uint256",
          "name": "y3",
          "type": "uint256"
        },
        {
          "internalType": "uint256",
          "name": "z3",
          "type": "uint256"
        }
      ],
      "stateMutability": "pure",
      "type": "function"
    },
    {
      "inputs": [
        {
          "internalType": "uint256",
          "name": "d",
          "type": "uint256"
        },
        {
          "internalType": "uint256",
          "name": "x1",
          "type": "uint256"
        },
        {
          "internalType": "uint256",
          "name": "y1",
          "type": "uint256"
        },
        {
          "internalType": "uint256",
          "name": "z1",
          "type": "uint256"
        }
      ],
      "name": "_ecMul",
      "outputs": [
        {
          "internalType": "uint256",
          "name": "x3",
          "type": "uint256"
        },
        {
          "internalType": "uint256",
          "name": "y3",
          "type": "uint256"
        },
        {
          "internalType": "uint256",
          "name": "z3",
          "type": "uint256"
        }
      ],
      "stateMutability": "pure",
      "type": "function"
    },
    {
      "inputs": [
        {
          "internalType": "uint256",
          "name": "x1",
          "type": "uint256"
        },
        {
          "internalType": "uint256",
          "name": "y1",
          "type": "uint256"
        },
        {
          "internalType": "uint256",
          "name": "x2",
          "type": "uint256"
        },
        {
          "internalType": "uint256",
          "name": "y2",
          "type": "uint256"
        }
      ],
      "name": "ecadd",
      "outputs": [
        {
          "internalType": "uint256",
          "name": "x3",
          "type": "uint256"
        },
        {
          "internalType": "uint256",
          "name": "y3",
          "type": "uint256"
        }
      ],
      "stateMutability": "pure",
      "type": "function"
    },
    {
      "inputs": [
        {
          "internalType": "uint256",
          "name": "x1",
          "type": "uint256"
        },
        {
          "internalType": "uint256",
          "name": "y1",
          "type": "uint256"
        },
        {
          "internalType": "uint256",
          "name": "scalar",
          "type": "uint256"
        }
      ],
      "name": "ecmul",
      "outputs": [
        {
          "internalType": "uint256",
          "name": "x2",
          "type": "uint256"
        },
        {
          "internalType": "uint256",
          "name": "y2",
          "type": "uint256"
        }
      ],
      "stateMutability": "pure",
      "type": "function"
    },
    {
      "inputs": [
        {
          "internalType": "uint256[2]",
          "name": "point",
          "type": "uint256[2]"
        }
      ],
      "name": "point_hash",
      "outputs": [
        {
          "internalType": "address",
          "name": "",
          "type": "address"
        }
      ],
      "stateMutability": "pure",
      "type": "function"
    },
    {
      "inputs": [
        {
          "internalType": "uint256",
          "name": "s",
          "type": "uint256"
        },
        {
          "internalType": "uint256[2]",
          "name": "B",
          "type": "uint256[2]"
        },
        {
          "internalType": "uint256",
          "name": "c",
          "type": "uint256"
        }
      ],
      "name": "sbmul_add_mul",
      "outputs": [
        {
          "internalType": "address",
          "name": "",
          "type": "address"
        }
      ],
      "stateMutability": "pure",
      "type": "function"
    },
    {
      "inputs": [
        {
          "internalType": "uint256",
          "name": "x1",
          "type": "uint256"
        },
        {
          "internalType": "uint256",
          "name": "y1",
          "type": "uint256"
        },
        {
          "internalType": "uint256",
          "name": "scalar",
          "type": "uint256"
        },
        {
          "internalType": "uint256",
          "name": "qx",
          "type": "uint256"
        },
        {
          "internalType": "uint256",
          "name": "qy",
          "type": "uint256"
        }
      ],
      "name": "ecmulVerify",
      "outputs": [
        {
          "internalType": "bool",
          "name": "",
          "type": "bool"
        }
      ],
      "stateMutability": "pure",
      "type": "function"
    },
    {
      "inputs": [
        {
          "internalType": "uint256",
          "name": "privKey",
          "type": "uint256"
        }
      ],
      "name": "publicKey",
      "outputs": [
        {
          "internalType": "uint256",
          "name": "qx",
          "type": "uint256"
        },
        {
          "internalType": "uint256",
          "name": "qy",
          "type": "uint256"
        }
      ],
      "stateMutability": "pure",
      "type": "function"
    },
    {
      "inputs": [
        {
          "internalType": "uint256",
          "name": "privKey",
          "type": "uint256"
        },
        {
          "internalType": "uint256",
          "name": "x",
          "type": "uint256"
        },
        {
          "internalType": "uint256",
          "name": "y",
          "type": "uint256"
        }
      ],
      "name": "publicKeyVerify",
      "outputs": [
        {
          "internalType": "bool",
          "name": "",
          "type": "bool"
        }
      ],
      "stateMutability": "pure",
      "type": "function"
    },
    {
      "inputs": [
        {
          "internalType": "uint256",
          "name": "privKey",
          "type": "uint256"
        },
        {
          "internalType": "uint256",
          "name": "pubX",
          "type": "uint256"
        },
        {
          "internalType": "uint256",
          "name": "pubY",
          "type": "uint256"
        }
      ],
      "name": "deriveKey",
      "outputs": [
        {
          "internalType": "uint256",
          "name": "qx",
          "type": "uint256"
        },
        {
          "internalType": "uint256",
          "name": "qy",
          "type": "uint256"
        }
      ],
      "stateMutability": "pure",
      "type": "function"
    }
  ],
  "bytecode": "0x608060405234801561001057600080fd5b5061188d806100206000396000f3fe608060405234801561001057600080fd5b50600436106101375760003560e01c80635f972df8116100b8578063913f424c1161007c578063913f424c146103b8578063a01539fc146103ea578063bb8c256a1461041a578063db3188331461044b578063e241c1d91461047d578063f47289e1146104ae57610137565b80635f972df8146102c557806366ce10b7146102f65780638081a1e7146103265780638940aebe146103575780638cecf66e1461038857610137565b80632d58c9a2116100ff5780632d58c9a21461020a5780632e52d60614610228578063426817fa146102465780634df7e3d0146102765780635b7648111461029457610137565b80630138e31b1461013c578063022079d91461016d57806306c91ce31461019d5780630dbe671f146101bb5780631ecfe64d146101d9575b600080fd5b61015660048036038101906101519190611159565b6104e0565b6040516101649291906111cf565b60405180910390f35b610187600480360381019061018291906111f8565b6105ba565b604051610194919061128e565b60405180910390f35b6101a5610636565b6040516101b291906112a9565b60405180910390f35b6101c361065a565b6040516101d091906112a9565b60405180910390f35b6101f360048036038101906101ee9190611159565b61065f565b6040516102019291906111cf565b60405180910390f35b610212610764565b60405161021f91906112a9565b60405180910390f35b610230610788565b60405161023d91906112a9565b60405180910390f35b610260600480360381019061025b919061140b565b6107ac565b60405161026d9190611479565b60405180910390f35b61027e610827565b60405161028b91906112a9565b60405180910390f35b6102ae60048036038101906102a99190611159565b61082c565b6040516102bc9291906111cf565b60405180910390f35b6102df60048036038101906102da9190611159565b6108a4565b6040516102ed9291906111cf565b60405180910390f35b610310600480360381019061030b9190611494565b61091c565b60405161031d919061128e565b60405180910390f35b610340600480360381019061033b9190611494565b610974565b60405161034e9291906111cf565b60405180910390f35b610371600480360381019061036c91906114e7565b610a0e565b60405161037f9291906111cf565b60405180910390f35b6103a2600480360381019061039d91906114e7565b610a65565b6040516103af91906112a9565b60405180910390f35b6103d260048036038101906103cd9190611159565b610b7e565b6040516103e193929190611514565b60405180910390f35b61040460048036038101906103ff919061154b565b610c39565b6040516104119190611479565b60405180910390f35b610434600480360381019061042f9190611159565b610d7c565b6040516104429291906111cf565b60405180910390f35b6104656004803603810190610460919061159e565b610e1a565b60405161047493929190611514565b60405180910390f35b61049760048036038101906104929190611494565b611052565b6040516104a59291906111cf565b60405180910390f35b6104c860048036038101906104c39190611494565b6110ec565b6040516104d793929190611514565b60405180910390f35b6000807ffffffffffffffffffffffffffffffffffffffffffffffffffffffffefffffc2f806105125761051161162b565b5b7ffffffffffffffffffffffffffffffffffffffffffffffffffffffffefffffc2f806105415761054061162b565b5b8686097ffffffffffffffffffffffffffffffffffffffffffffffffffffffffefffffc2f806105735761057261162b565b5b888609087ffffffffffffffffffffffffffffffffffffffffffffffffffffffffefffffc2f806105a6576105a561162b565b5b848709809250819350505094509492505050565b6000806105dd600060405180604001604052808a81526020018981525087610c39565b90508073ffffffffffffffffffffffffffffffffffffffff166106136040518060400160405280878152602001868152506107ac565b73ffffffffffffffffffffffffffffffffffffffff161491505095945050505050565b7f79be667ef9dcbbac55a06295ce870b07029bfcdb2dce28d959f2815b16f8179881565b600081565b6000807ffffffffffffffffffffffffffffffffffffffffffffffffffffffffefffffc2f806106915761069061162b565b5b7ffffffffffffffffffffffffffffffffffffffffffffffffffffffffefffffc2f806106c0576106bf61162b565b5b86867ffffffffffffffffffffffffffffffffffffffffffffffffffffffffefffffc2f6106ed9190611689565b097ffffffffffffffffffffffffffffffffffffffffffffffffffffffffefffffc2f8061071d5761071c61162b565b5b888609087ffffffffffffffffffffffffffffffffffffffffffffffffffffffffefffffc2f806107505761074f61162b565b5b848709809250819350505094509492505050565b7f483ada7726a3c4655da4fbfc0e1108a8fd17b448a68554199c47d08ffb10d4b881565b7ffffffffffffffffffffffffffffffffffffffffffffffffffffffffefffffc2f81565b600073ffffffffffffffffffffffffffffffffffffffff826000600281106107d7576107d66116bd565b5b6020020151836001600281106107f0576107ef6116bd565b5b602002015160405160200161080692919061170d565b6040516020818303038152906040528051906020012060001c169050919050565b600781565b6000807ffffffffffffffffffffffffffffffffffffffffffffffffffffffffefffffc2f8061085e5761085d61162b565b5b8487097ffffffffffffffffffffffffffffffffffffffffffffffffffffffffefffffc2f806108905761088f61162b565b5b848709809250819350505094509492505050565b6000807ffffffffffffffffffffffffffffffffffffffffffffffffffffffffefffffc2f806108d6576108d561162b565b5b8387097ffffffffffffffffffffffffffffffffffffffffffffffffffffffffefffffc2f806109085761090761162b565b5b858709809250819350505094509492505050565b600061096b7f79be667ef9dcbbac55a06295ce870b07029bfcdb2dce28d959f2815b16f817987f483ada7726a3c4655da4fbfc0e1108a8fd17b448a68554199c47d08ffb10d4b88686866105ba565b90509392505050565b60008060006109868487876001610b7e565b80935081945082955050505061099b81610a65565b90507ffffffffffffffffffffffffffffffffffffffffffffffffffffffffefffffc2f806109cc576109cb61162b565b5b81840992507ffffffffffffffffffffffffffffffffffffffffffffffffffffffffefffffc2f80610a00576109ff61162b565b5b818309915050935093915050565b600080610a5c7f79be667ef9dcbbac55a06295ce870b07029bfcdb2dce28d959f2815b16f817987f483ada7726a3c4655da4fbfc0e1108a8fd17b448a68554199c47d08ffb10d4b885610974565b91509150915091565b6000806000905060006001905060007ffffffffffffffffffffffffffffffffffffffffffffffffffffffffefffffc2f9050600085905060005b60008214610b71578183610ab39190611739565b9050837ffffffffffffffffffffffffffffffffffffffffffffffffffffffffefffffc2f80610ae557610ae461162b565b5b7ffffffffffffffffffffffffffffffffffffffffffffffffffffffffefffffc2f80610b1457610b1361162b565b5b8684097ffffffffffffffffffffffffffffffffffffffffffffffffffffffffefffffc2f610b429190611689565b87088095508196505050818282610b59919061176a565b84610b649190611689565b8093508194505050610a9f565b8495505050505050919050565b60008060008087905060008790506000879050600087905060008060006001905060008e03610bbe57600080600199509950995050505050505050610c2f565b5b60008714610c185760006001881614610bed57610be0838383898989610e1a565b8093508194508295505050505b600287610bfa9190611739565b9650610c078686866110ec565b809650819750829850505050610bbf565b828282809a50819b50829c50505050505050505050505b9450945094915050565b6000807ffffffffffffffffffffffffffffffffebaaedce6af48a03bbfd25e8cd03641419050808582610c6c9190611689565b610c7691906117ac565b94508080610c8757610c8661162b565b5b84600060028110610c9b57610c9a6116bd565b5b60200201518609945060018560001b6000600287600160028110610cc257610cc16116bd565b5b6020020151610cd191906117ac565b03610cdd57601b610ce0565b601c5b86600060028110610cf457610cf36116bd565b5b602002015160001b8480610d0b57610d0a61162b565b5b88600060028110610d1f57610d1e6116bd565b5b6020020151880960001b60405160008152602001604052604051610d469493929190611812565b6020604051602081039080840390855afa158015610d68573d6000803e3d6000fd5b505050602060405103519150509392505050565b6000806000610d918787600188886001610e1a565b809350819450829550505050610da681610a65565b90507ffffffffffffffffffffffffffffffffffffffffffffffffffffffffefffffc2f80610dd757610dd661162b565b5b81840992507ffffffffffffffffffffffffffffffffffffffffffffffffffffffffefffffc2f80610e0b57610e0a61162b565b5b81830991505094509492505050565b6000806000806000806000808d148015610e34575060008c145b15610e4b5789898996509650965050505050611046565b60008a148015610e5b5750600089145b15610e72578c8c8c96509650965050505050611046565b898d148015610e805750888c145b15610ee057610e918d8c8f8e61082c565b8094508195505050610ea784846003600161082c565b8094508195505050610ebd8484600060016104e0565b8094508195505050610ed38c8c6002600161082c565b8092508193505050610f09565b610eec89898e8e61065f565b8094508195505050610f008a898f8e61065f565b80925081935050505b610f15848484846108a4565b8094508195505050610f298484868661082c565b8093508198505050610f3d87838f8e61065f565b8093508198505050610f5187838c8b61065f565b8093508198505050610f658d8c898561065f565b8092508197505050610f798682868661082c565b8092508197505050610f8d86828e8e61065f565b809250819750505080821461103d577ffffffffffffffffffffffffffffffffffffffffffffffffffffffffefffffc2f80610fcb57610fca61162b565b5b81880996507ffffffffffffffffffffffffffffffffffffffffffffffffffffffffefffffc2f80610fff57610ffe61162b565b5b82870995507ffffffffffffffffffffffffffffffffffffffffffffffffffffffffefffffc2f806110335761103261162b565b5b8183099450611041565b8194505b505050505b96509650969350505050565b60008060006110648686866001610b7e565b80935081945082955050505061107981610a65565b90507ffffffffffffffffffffffffffffffffffffffffffffffffffffffffefffffc2f806110aa576110a961162b565b5b81840992507ffffffffffffffffffffffffffffffffffffffffffffffffffffffffefffffc2f806110de576110dd61162b565b5b818309915050935093915050565b60008060006110ff868686898989610e1a565b80935081945082955050505093509350939050565b6000604051905090565b600080fd5b6000819050919050565b61113681611123565b811461114157600080fd5b50565b6000813590506111538161112d565b92915050565b600080600080608085870312156111735761117261111e565b5b600061118187828801611144565b945050602061119287828801611144565b93505060406111a387828801611144565b92505060606111b487828801611144565b91505092959194509250565b6111c981611123565b82525050565b60006040820190506111e460008301856111c0565b6111f160208301846111c0565b9392505050565b600080600080600060a086880312156112145761121361111e565b5b600061122288828901611144565b955050602061123388828901611144565b945050604061124488828901611144565b935050606061125588828901611144565b925050608061126688828901611144565b9150509295509295909350565b60008115159050919050565b61128881611273565b82525050565b60006020820190506112a3600083018461127f565b92915050565b60006020820190506112be60008301846111c0565b92915050565b600080fd5b6000601f19601f8301169050919050565b7f4e487b7100000000000000000000000000000000000000000000000000000000600052604160045260246000fd5b611312826112c9565b810181811067ffffffffffffffff82111715611331576113306112da565b5b80604052505050565b6000611344611114565b90506113508282611309565b919050565b600067ffffffffffffffff8211156113705761136f6112da565b5b602082029050919050565b600080fd5b600061139361138e84611355565b61133a565b905080602084028301858111156113ad576113ac61137b565b5b835b818110156113d657806113c28882611144565b8452602084019350506020810190506113af565b5050509392505050565b600082601f8301126113f5576113f46112c4565b5b6002611402848285611380565b91505092915050565b6000604082840312156114215761142061111e565b5b600061142f848285016113e0565b91505092915050565b600073ffffffffffffffffffffffffffffffffffffffff82169050919050565b600061146382611438565b9050919050565b61147381611458565b82525050565b600060208201905061148e600083018461146a565b92915050565b6000806000606084860312156114ad576114ac61111e565b5b60006114bb86828701611144565b93505060206114cc86828701611144565b92505060406114dd86828701611144565b9150509250925092565b6000602082840312156114fd576114fc61111e565b5b600061150b84828501611144565b91505092915050565b600060608201905061152960008301866111c0565b61153660208301856111c0565b61154360408301846111c0565b949350505050565b6000806000608084860312156115645761156361111e565b5b600061157286828701611144565b9350506020611583868287016113e0565b925050606061159486828701611144565b9150509250925092565b60008060008060008060c087890312156115bb576115ba61111e565b5b60006115c989828a01611144565b96505060206115da89828a01611144565b95505060406115eb89828a01611144565b94505060606115fc89828a01611144565b935050608061160d89828a01611144565b92505060a061161e89828a01611144565b9150509295509295509295565b7f4e487b7100000000000000000000000000000000000000000000000000000000600052601260045260246000fd5b7f4e487b7100000000000000000000000000000000000000000000000000000000600052601160045260246000fd5b600061169482611123565b915061169f83611123565b92508282039050818111156116b7576116b661165a565b5b92915050565b7f4e487b7100000000000000000000000000000000000000000000000000000000600052603260045260246000fd5b6000819050919050565b61170761170282611123565b6116ec565b82525050565b600061171982856116f6565b60208201915061172982846116f6565b6020820191508190509392505050565b600061174482611123565b915061174f83611123565b92508261175f5761175e61162b565b5b828204905092915050565b600061177582611123565b915061178083611123565b925082820261178e81611123565b915082820484148315176117a5576117a461165a565b5b5092915050565b60006117b782611123565b91506117c283611123565b9250826117d2576117d161162b565b5b828206905092915050565b6000819050919050565b6117f0816117dd565b82525050565b600060ff82169050919050565b61180c816117f6565b82525050565b600060808201905061182760008301876117e7565b6118346020830186611803565b61184160408301856117e7565b61184e60608301846117e7565b9594505050505056fea2646970667358221220758ae48d708697c65dc6726e15e5c0cbc16c542ac46aeafca3dd8399b44d264564736f6c63430008110033",
  "immutableReferences": {},
  "source": "pragma solidity ^0.8.17;\r\n\r\n/*\r\nTaken from https://github.com/jbaylina/ecsol and https://github.com/1Address/ecsol\r\n\r\nLicense: GPL-3.0\r\n*/\r\n\r\n\r\ncontract SECP2561k {\r\n\r\n    uint256 constant public gx = 0x79BE667EF9DCBBAC55A06295CE870B07029BFCDB2DCE28D959F2815B16F81798;\r\n    uint256 constant public gy = 0x483ADA7726A3C4655DA4FBFC0E1108A8FD17B448A68554199C47D08FFB10D4B8;\r\n    uint256 constant public n = 0xFFFFFFFFFFFFFFFFFFFFFFFFFFFFFFFFFFFFFFFFFFFFFFFFFFFFFFFEFFFFFC2F;\r\n    uint256 constant public a = 0;\r\n    uint256 constant public b = 7;\r\n\r\n    function _jAdd(\r\n        uint256 x1, uint256 z1,\r\n        uint256 x2, uint256 z2)\r\n        public \r\n        pure\r\n        returns(uint256 x3, uint256 z3)\r\n    {\r\n        (x3, z3) = (\r\n            addmod(\r\n                mulmod(z2, x1, n),\r\n                mulmod(x2, z1, n),\r\n                n\r\n            ),\r\n            mulmod(z1, z2, n)\r\n        );\r\n    }\r\n\r\n    function _jSub(\r\n        uint256 x1, uint256 z1,\r\n        uint256 x2, uint256 z2)\r\n        public \r\n        pure\r\n        returns(uint256 x3, uint256 z3)\r\n    {\r\n        (x3, z3) = (\r\n            addmod(\r\n                mulmod(z2, x1, n),\r\n                mulmod(n - x2, z1, n),\r\n                n\r\n            ),\r\n            mulmod(z1, z2, n)\r\n        );\r\n    }\r\n\r\n    function _jMul(\r\n        uint256 x1, uint256 z1,\r\n        uint256 x2, uint256 z2)\r\n        public \r\n        pure\r\n        returns(uint256 x3, uint256 z3)\r\n    {\r\n        (x3, z3) = (\r\n            mulmod(x1, x2, n),\r\n            mulmod(z1, z2, n)\r\n        );\r\n    }\r\n\r\n    function _jDiv(\r\n        uint256 x1, uint256 z1,\r\n        uint256 x2, uint256 z2) \r\n        public \r\n        pure\r\n        returns(uint256 x3, uint256 z3)\r\n    {\r\n        (x3, z3) = (\r\n            mulmod(x1, z2, n),\r\n            mulmod(z1, x2, n)\r\n        );\r\n    }\r\n\r\n    function _inverse(uint256 val) public pure\r\n        returns(uint256 invVal)\r\n    {\r\n        uint256 t = 0;\r\n        uint256 newT = 1;\r\n        uint256 r = n;\r\n        uint256 newR = val;\r\n        uint256 q;\r\n        while (newR != 0) {\r\n            q = r / newR;\r\n\r\n            (t, newT) = (newT, addmod(t, (n - mulmod(q, newT, n)), n));\r\n            (r, newR) = (newR, r - q * newR );\r\n        }\r\n\r\n        return t;\r\n    }\r\n\r\n    function _ecAdd(\r\n        uint256 x1, uint256 y1, uint256 z1,\r\n        uint256 x2, uint256 y2, uint256 z2) \r\n        public \r\n        pure\r\n        returns(uint256 x3, uint256 y3, uint256 z3)\r\n    {\r\n        uint256 lx;\r\n        uint256 lz;\r\n        uint256 da;\r\n        uint256 db;\r\n\r\n        if (x1 == 0 && y1 == 0) {\r\n            return (x2, y2, z2);\r\n        }\r\n\r\n        if (x2 == 0 && y2 == 0) {\r\n            return (x1, y1, z1);\r\n        }\r\n\r\n        if (x1 == x2 && y1 == y2) {\r\n            (lx, lz) = _jMul(x1, z1, x1, z1);\r\n            (lx, lz) = _jMul(lx, lz, 3, 1);\r\n            (lx, lz) = _jAdd(lx, lz, a, 1);\r\n\r\n            (da,db) = _jMul(y1, z1, 2, 1);\r\n        } else {\r\n            (lx, lz) = _jSub(y2, z2, y1, z1);\r\n            (da, db) = _jSub(x2, z2, x1, z1);\r\n        }\r\n\r\n        (lx, lz) = _jDiv(lx, lz, da, db);\r\n\r\n        (x3, da) = _jMul(lx, lz, lx, lz);\r\n        (x3, da) = _jSub(x3, da, x1, z1);\r\n        (x3, da) = _jSub(x3, da, x2, z2);\r\n\r\n        (y3, db) = _jSub(x1, z1, x3, da);\r\n        (y3, db) = _jMul(y3, db, lx, lz);\r\n        (y3, db) = _jSub(y3, db, y1, z1);\r\n\r\n        if (da != db) {\r\n            x3 = mulmod(x3, db, n);\r\n            y3 = mulmod(y3, da, n);\r\n            z3 = mulmod(da, db, n);\r\n        } else {\r\n            z3 = da;\r\n        }\r\n    }\r\n\r\n    function _ecDouble(uint256 x1, uint256 y1, uint256 z1) public pure\r\n        returns(uint256 x3, uint256 y3, uint256 z3)\r\n    {\r\n        (x3, y3, z3) = _ecAdd(x1, y1, z1, x1, y1, z1);\r\n    }\r\n\r\n    function _ecMul(uint256 d, uint256 x1, uint256 y1, uint256 z1) public pure\r\n        returns(uint256 x3, uint256 y3, uint256 z3)\r\n    {\r\n        uint256 remaining = d;\r\n        uint256 px = x1;\r\n        uint256 py = y1;\r\n        uint256 pz = z1;\r\n        uint256 acx = 0;\r\n        uint256 acy = 0;\r\n        uint256 acz = 1;\r\n\r\n        if (d == 0) {\r\n            return (0, 0, 1);\r\n        }\r\n\r\n        while (remaining != 0) {\r\n            if ((remaining & 1) != 0) {\r\n                (acx,acy,acz) = _ecAdd(acx, acy, acz, px, py, pz);\r\n            }\r\n            remaining = remaining / 2;\r\n            (px, py, pz) = _ecDouble(px, py, pz);\r\n        }\r\n\r\n        (x3, y3, z3) = (acx, acy, acz);\r\n    }\r\n\r\n    function ecadd(\r\n        uint256 x1, uint256 y1,\r\n        uint256 x2, uint256 y2)\r\n        public\r\n        pure\r\n        returns(uint256 x3, uint256 y3)\r\n    {\r\n        uint256 z;\r\n        (x3, y3, z) = _ecAdd(x1, y1, 1, x2, y2, 1);\r\n        z = _inverse(z);\r\n        x3 = mulmod(x3, z, n);\r\n        y3 = mulmod(y3, z, n);\r\n    }\r\n\r\n    function ecmul(uint256 x1, uint256 y1, uint256 scalar) public pure\r\n        returns(uint256 x2, uint256 y2)\r\n    {\r\n        uint256 z;\r\n        (x2, y2, z) = _ecMul(scalar, x1, y1, 1);\r\n        z = _inverse(z);\r\n        x2 = mulmod(x2, z, n);\r\n        y2 = mulmod(y2, z, n);\r\n    }\r\n\r\n\r\n    function point_hash( uint256[2] memory point )\r\n        public pure returns(address)\r\n    {\r\n        return address(uint160(uint256(keccak256(abi.encodePacked(point[0], point[1])))) & 0x00FFFFFFFFFFFFFFFFFFFFFFFFFFFFFFFFFFFFFFFF);\r\n        // return address(uint256(keccak256(abi.encodePacked(point[0], point[1]))) & 0x00FFFFFFFFFFFFFFFFFFFFFFFFFFFFFFFFFFFFFFFF);\r\n\r\n    }\r\n\r\n    /**\r\n    * hash(g^a + B^c)\r\n    */\r\n    function sbmul_add_mul(uint256 s, uint256[2] memory B, uint256 c)\r\n        public pure returns(address)\r\n    {\r\n        uint256 Q = 0xFFFFFFFFFFFFFFFFFFFFFFFFFFFFFFFEBAAEDCE6AF48A03BBFD25E8CD0364141;\r\n        s = (Q - s) % Q;\r\n        s = mulmod(s, B[0], Q);\r\n\r\n        return ecrecover(bytes32(s), B[1] % 2 != 0 ? 28 : 27, bytes32(B[0]), bytes32(mulmod(c, B[0], Q)));\r\n    }\r\n\r\n    //\r\n    // Based on the original idea of Vitalik Buterin:\r\n    // https://ethresear.ch/t/you-can-kinda-abuse-ecrecover-to-do-ecmul-in-secp256k1-today/2384/9\r\n    //\r\n    function ecmulVerify(uint256 x1, uint256 y1, uint256 scalar, uint256 qx, uint256 qy) public pure\r\n        returns(bool)\r\n    {\r\n        address signer = sbmul_add_mul(0, [x1, y1], scalar);\r\n        return point_hash([qx, qy]) == signer;\r\n    }\r\n\r\n    function publicKey(uint256 privKey) public pure\r\n        returns(uint256 qx, uint256 qy)\r\n    {\r\n        return ecmul(gx, gy, privKey);\r\n    }\r\n\r\n    function publicKeyVerify(uint256 privKey, uint256 x, uint256 y) public pure\r\n        returns(bool)\r\n    {\r\n        return ecmulVerify(gx, gy, privKey, x, y);\r\n    }\r\n\r\n    function deriveKey(uint256 privKey, uint256 pubX, uint256 pubY) public pure\r\n        returns(uint256 qx, uint256 qy)\r\n    {\r\n        uint256 z;\r\n        (qx, qy, z) = _ecMul(privKey, pubX, pubY, 1);\r\n        z = _inverse(z);\r\n        qx = mulmod(qx, z, n);\r\n        qy = mulmod(qy, z, n);\r\n    }\r\n}",
  "sourcePath": "C:\\Users\\hervi\\Documents\\Blockchain Projects\\ETHDenver2023\\Smart-contract\\truffle\\contracts\\AOS\\SECP256k1.sol",
  "compiler": {
    "name": "solc",
    "version": "0.8.17+commit.8df45f5f.Emscripten.clang"
  },
  "schemaVersion": "3.4.12",
  "updatedAt": "2023-02-28T16:57:32.830Z",
  "devdoc": {
    "kind": "dev",
    "methods": {},
    "version": 1
  },
  "userdoc": {
    "kind": "user",
    "methods": {
      "sbmul_add_mul(uint256,uint256[2],uint256)": {
        "notice": "hash(g^a + B^c)"
      }
    },
    "version": 1
  }
}