{
  "contractName": "temp_sbt",
  "abi": [
    {
      "inputs": [
        {
          "internalType": "string",
          "name": "name_",
          "type": "string"
        },
        {
          "internalType": "string",
          "name": "symbol_",
          "type": "string"
        },
        {
          "internalType": "address",
          "name": "verifier_",
          "type": "address"
        }
      ],
      "stateMutability": "nonpayable",
      "type": "constructor"
    },
    {
      "anonymous": false,
      "inputs": [
        {
          "indexed": true,
          "internalType": "address",
          "name": "owner",
          "type": "address"
        },
        {
          "indexed": true,
          "internalType": "address",
          "name": "approved",
          "type": "address"
        },
        {
          "indexed": true,
          "internalType": "uint256",
          "name": "tokenId",
          "type": "uint256"
        }
      ],
      "name": "Approval",
      "type": "event"
    },
    {
      "anonymous": false,
      "inputs": [
        {
          "indexed": true,
          "internalType": "address",
          "name": "owner",
          "type": "address"
        },
        {
          "indexed": true,
          "internalType": "address",
          "name": "operator",
          "type": "address"
        },
        {
          "indexed": false,
          "internalType": "bool",
          "name": "approved",
          "type": "bool"
        }
      ],
      "name": "ApprovalForAll",
      "type": "event"
    },
    {
      "anonymous": false,
      "inputs": [
        {
          "indexed": true,
          "internalType": "address",
          "name": "owner",
          "type": "address"
        },
        {
          "indexed": true,
          "internalType": "uint256",
          "name": "tokenId",
          "type": "uint256"
        }
      ],
      "name": "Burn",
      "type": "event"
    },
    {
      "anonymous": false,
      "inputs": [
        {
          "indexed": true,
          "internalType": "address",
          "name": "owner",
          "type": "address"
        },
        {
          "indexed": true,
          "internalType": "uint256",
          "name": "tokenId",
          "type": "uint256"
        }
      ],
      "name": "Mint",
      "type": "event"
    },
    {
      "anonymous": false,
      "inputs": [
        {
          "indexed": true,
          "internalType": "address",
          "name": "from",
          "type": "address"
        },
        {
          "indexed": true,
          "internalType": "address",
          "name": "to",
          "type": "address"
        },
        {
          "indexed": true,
          "internalType": "uint256",
          "name": "tokenId",
          "type": "uint256"
        }
      ],
      "name": "Transfer",
      "type": "event"
    },
    {
      "inputs": [
        {
          "internalType": "address",
          "name": "owner",
          "type": "address"
        }
      ],
      "name": "balanceOf",
      "outputs": [
        {
          "internalType": "uint256",
          "name": "",
          "type": "uint256"
        }
      ],
      "stateMutability": "view",
      "type": "function"
    },
    {
      "inputs": [],
      "name": "name",
      "outputs": [
        {
          "internalType": "string",
          "name": "",
          "type": "string"
        }
      ],
      "stateMutability": "view",
      "type": "function"
    },
    {
      "inputs": [
        {
          "internalType": "uint256",
          "name": "tokenId",
          "type": "uint256"
        }
      ],
      "name": "ownerOf",
      "outputs": [
        {
          "internalType": "address",
          "name": "",
          "type": "address"
        }
      ],
      "stateMutability": "view",
      "type": "function"
    },
    {
      "inputs": [
        {
          "internalType": "bytes4",
          "name": "interfaceId",
          "type": "bytes4"
        }
      ],
      "name": "supportsInterface",
      "outputs": [
        {
          "internalType": "bool",
          "name": "",
          "type": "bool"
        }
      ],
      "stateMutability": "view",
      "type": "function"
    },
    {
      "inputs": [],
      "name": "symbol",
      "outputs": [
        {
          "internalType": "string",
          "name": "",
          "type": "string"
        }
      ],
      "stateMutability": "view",
      "type": "function"
    },
    {
      "inputs": [
        {
          "internalType": "uint256",
          "name": "tokenId",
          "type": "uint256"
        }
      ],
      "name": "tokenURI",
      "outputs": [
        {
          "internalType": "string",
          "name": "",
          "type": "string"
        }
      ],
      "stateMutability": "view",
      "type": "function"
    },
    {
      "inputs": [
        {
          "internalType": "address",
          "name": "from",
          "type": "address"
        },
        {
          "internalType": "address",
          "name": "to",
          "type": "address"
        },
        {
          "internalType": "uint256",
          "name": "tokenId",
          "type": "uint256"
        }
      ],
      "name": "safeTransferFrom",
      "outputs": [],
      "stateMutability": "pure",
      "type": "function"
    },
    {
      "inputs": [
        {
          "internalType": "address",
          "name": "from",
          "type": "address"
        },
        {
          "internalType": "address",
          "name": "to",
          "type": "address"
        },
        {
          "internalType": "uint256",
          "name": "tokenId",
          "type": "uint256"
        },
        {
          "internalType": "bytes",
          "name": "data",
          "type": "bytes"
        }
      ],
      "name": "safeTransferFrom",
      "outputs": [],
      "stateMutability": "nonpayable",
      "type": "function"
    },
    {
      "inputs": [
        {
          "internalType": "address",
          "name": "from",
          "type": "address"
        },
        {
          "internalType": "address",
          "name": "to",
          "type": "address"
        },
        {
          "internalType": "uint256",
          "name": "tokenId",
          "type": "uint256"
        }
      ],
      "name": "transferFrom",
      "outputs": [],
      "stateMutability": "pure",
      "type": "function"
    },
    {
      "inputs": [
        {
          "internalType": "address",
          "name": "to",
          "type": "address"
        },
        {
          "internalType": "uint256",
          "name": "tokenId",
          "type": "uint256"
        }
      ],
      "name": "approve",
      "outputs": [],
      "stateMutability": "pure",
      "type": "function"
    },
    {
      "inputs": [
        {
          "internalType": "uint256",
          "name": "tokenId",
          "type": "uint256"
        }
      ],
      "name": "getApproved",
      "outputs": [
        {
          "internalType": "address",
          "name": "operator",
          "type": "address"
        }
      ],
      "stateMutability": "view",
      "type": "function"
    },
    {
      "inputs": [
        {
          "internalType": "address",
          "name": "operator",
          "type": "address"
        },
        {
          "internalType": "bool",
          "name": "_approved",
          "type": "bool"
        }
      ],
      "name": "setApprovalForAll",
      "outputs": [],
      "stateMutability": "pure",
      "type": "function"
    },
    {
      "inputs": [
        {
          "internalType": "address",
          "name": "owner",
          "type": "address"
        },
        {
          "internalType": "address",
          "name": "operator",
          "type": "address"
        }
      ],
      "name": "isApprovedForAll",
      "outputs": [
        {
          "internalType": "bool",
          "name": "",
          "type": "bool"
        }
      ],
      "stateMutability": "view",
      "type": "function"
    },
    {
      "inputs": [
        {
          "internalType": "address",
          "name": "token",
          "type": "address"
        },
        {
          "internalType": "string",
          "name": "tokenURI",
          "type": "string"
        },
        {
          "internalType": "string",
          "name": "merkleRoot",
          "type": "string"
        },
        {
          "internalType": "string",
          "name": "zkProof",
          "type": "string"
        }
      ],
      "name": "mint",
      "outputs": [],
      "stateMutability": "nonpayable",
      "type": "function"
    },
    {
      "inputs": [
        {
          "internalType": "uint256",
          "name": "tokenId",
          "type": "uint256"
        }
      ],
      "name": "burn",
      "outputs": [],
      "stateMutability": "nonpayable",
      "type": "function"
    },
    {
      "inputs": [
        {
          "internalType": "uint256",
          "name": "tokenId",
          "type": "uint256"
        }
      ],
      "name": "getMerkleRoot",
      "outputs": [
        {
          "internalType": "string",
          "name": "",
          "type": "string"
        }
      ],
      "stateMutability": "view",
      "type": "function"
    },
    {
      "inputs": [
        {
          "internalType": "uint256",
          "name": "tokenId",
          "type": "uint256"
        }
      ],
      "name": "getZkProof",
      "outputs": [
        {
          "internalType": "string",
          "name": "",
          "type": "string"
        }
      ],
      "stateMutability": "view",
      "type": "function"
    },
    {
      "inputs": [
        {
          "internalType": "uint256",
          "name": "tokenId",
          "type": "uint256"
        }
      ],
      "name": "getTokenURI",
      "outputs": [
        {
          "internalType": "string",
          "name": "",
          "type": "string"
        }
      ],
      "stateMutability": "view",
      "type": "function"
    },
    {
      "inputs": [
        {
          "internalType": "address",
          "name": "admin",
          "type": "address"
        },
        {
          "internalType": "bool",
          "name": "isAdmin",
          "type": "bool"
        }
      ],
      "name": "editAdmin",
      "outputs": [],
      "stateMutability": "nonpayable",
      "type": "function"
    },
    {
      "inputs": [
        {
          "internalType": "address",
          "name": "burner",
          "type": "address"
        },
        {
          "internalType": "bool",
          "name": "isBurner",
          "type": "bool"
        }
      ],
      "name": "editBurner",
      "outputs": [],
      "stateMutability": "nonpayable",
      "type": "function"
    }
  ],
  "bytecode": "0x60806040523480156200001157600080fd5b506040516200347138038062003471833981810160405281019062000037919062000394565b828281600090816200004a919062000679565b5080600190816200005c919062000679565b5050506000600d8190555082600e908162000078919062000679565b5081600f90816200008a919062000679565b506001600660008373ffffffffffffffffffffffffffffffffffffffff1673ffffffffffffffffffffffffffffffffffffffff16815260200190815260200160002060006101000a81548160ff0219169083151502179055506001600760003373ffffffffffffffffffffffffffffffffffffffff1673ffffffffffffffffffffffffffffffffffffffff16815260200190815260200160002060006101000a81548160ff0219169083151502179055506001600660003373ffffffffffffffffffffffffffffffffffffffff1673ffffffffffffffffffffffffffffffffffffffff16815260200190815260200160002060006101000a81548160ff02191690831515021790555050505062000760565b6000604051905090565b600080fd5b600080fd5b600080fd5b600080fd5b6000601f19601f8301169050919050565b7f4e487b7100000000000000000000000000000000000000000000000000000000600052604160045260246000fd5b6200020582620001ba565b810181811067ffffffffffffffff82111715620002275762000226620001cb565b5b80604052505050565b60006200023c6200019c565b90506200024a8282620001fa565b919050565b600067ffffffffffffffff8211156200026d576200026c620001cb565b5b6200027882620001ba565b9050602081019050919050565b60005b83811015620002a557808201518184015260208101905062000288565b60008484015250505050565b6000620002c8620002c2846200024f565b62000230565b905082815260208101848484011115620002e757620002e6620001b5565b5b620002f484828562000285565b509392505050565b600082601f830112620003145762000313620001b0565b5b815162000326848260208601620002b1565b91505092915050565b600073ffffffffffffffffffffffffffffffffffffffff82169050919050565b60006200035c826200032f565b9050919050565b6200036e816200034f565b81146200037a57600080fd5b50565b6000815190506200038e8162000363565b92915050565b600080600060608486031215620003b057620003af620001a6565b5b600084015167ffffffffffffffff811115620003d157620003d0620001ab565b5b620003df86828701620002fc565b935050602084015167ffffffffffffffff811115620004035762000402620001ab565b5b6200041186828701620002fc565b925050604062000424868287016200037d565b9150509250925092565b600081519050919050565b7f4e487b7100000000000000000000000000000000000000000000000000000000600052602260045260246000fd5b600060028204905060018216806200048157607f821691505b60208210810362000497576200049662000439565b5b50919050565b60008190508160005260206000209050919050565b60006020601f8301049050919050565b600082821b905092915050565b600060088302620005017fffffffffffffffffffffffffffffffffffffffffffffffffffffffffffffffff82620004c2565b6200050d8683620004c2565b95508019841693508086168417925050509392505050565b6000819050919050565b6000819050919050565b60006200055a620005546200054e8462000525565b6200052f565b62000525565b9050919050565b6000819050919050565b620005768362000539565b6200058e620005858262000561565b848454620004cf565b825550505050565b600090565b620005a562000596565b620005b28184846200056b565b505050565b5b81811015620005da57620005ce6000826200059b565b600181019050620005b8565b5050565b601f8211156200062957620005f3816200049d565b620005fe84620004b2565b810160208510156200060e578190505b620006266200061d85620004b2565b830182620005b7565b50505b505050565b600082821c905092915050565b60006200064e600019846008026200062e565b1980831691505092915050565b60006200066983836200063b565b9150826002028217905092915050565b62000684826200042e565b67ffffffffffffffff811115620006a0576200069f620001cb565b5b620006ac825462000468565b620006b9828285620005de565b600060209050601f831160018114620006f15760008415620006dc578287015190505b620006e885826200065b565b86555062000758565b601f19841662000701866200049d565b60005b828110156200072b5784890151825560018201915060208501945060208101905062000704565b868310156200074b578489015162000747601f8916826200063b565b8355505b6001600288020188555050505b505050505050565b612d0180620007706000396000f3fe608060405234801561001057600080fd5b506004361061012c5760003560e01c80634a0706be116100ad578063b88d4fde11610071578063b88d4fde14610351578063c87b56dd1461036d578063e0c6fa581461039d578063e25c8c71146103cd578063e985e9c5146103e95761012c565b80634a0706be1461029b5780636352211e146102b757806370a08231146102e757806395d89b4114610317578063a22cb465146103355761012c565b80631bc4d889116100f45780631bc4d889146101fb57806323b872dd146102175780633bb3a24d1461023357806342842e0e1461026357806342966c681461027f5761012c565b806301ffc9a71461013157806306fdde0314610161578063081812fc1461017f578063095ea7b3146101af5780630aab8ba5146101cb575b600080fd5b61014b60048036038101906101469190611b8a565b610419565b6040516101589190611bd2565b60405180910390f35b6101696104fb565b6040516101769190611c7d565b60405180910390f35b61019960048036038101906101949190611cd5565b61058d565b6040516101a69190611d43565b60405180910390f35b6101c960048036038101906101c49190611d8a565b6105ca565b005b6101e560048036038101906101e09190611cd5565b610605565b6040516101f29190611c7d565b60405180910390f35b61021560048036038101906102109190611df6565b6106aa565b005b610231600480360381019061022c9190611e36565b610791565b005b61024d60048036038101906102489190611cd5565b6107cc565b60405161025a9190611c7d565b60405180910390f35b61027d60048036038101906102789190611e36565b610871565b005b61029960048036038101906102949190611cd5565b6108ac565b005b6102b560048036038101906102b09190611fbe565b610ab1565b005b6102d160048036038101906102cc9190611cd5565b610c26565b6040516102de9190611d43565b60405180910390f35b61030160048036038101906102fc9190612079565b610cac565b60405161030e91906120b5565b60405180910390f35b61031f610d63565b60405161032c9190611c7d565b60405180910390f35b61034f600480360381019061034a9190611df6565b610df5565b005b61036b60048036038101906103669190612171565b610e30565b005b61038760048036038101906103829190611cd5565b610e92565b6040516103949190611c7d565b60405180910390f35b6103b760048036038101906103b29190611cd5565b610efa565b6040516103c49190611c7d565b60405180910390f35b6103e760048036038101906103e29190611df6565b610f9f565b005b61040360048036038101906103fe91906121f4565b611086565b6040516104109190611bd2565b60405180910390f35b60007f80ac58cd000000000000000000000000000000000000000000000000000000007bffffffffffffffffffffffffffffffffffffffffffffffffffffffff1916827bffffffffffffffffffffffffffffffffffffffffffffffffffffffff191614806104e457507f5b5e139f000000000000000000000000000000000000000000000000000000007bffffffffffffffffffffffffffffffffffffffffffffffffffffffff1916827bffffffffffffffffffffffffffffffffffffffffffffffffffffffff1916145b806104f457506104f38261108e565b5b9050919050565b60606000805461050a90612263565b80601f016020809104026020016040519081016040528092919081815260200182805461053690612263565b80156105835780601f1061055857610100808354040283529160200191610583565b820191906000526020600020905b81548152906001019060200180831161056657829003601f168201915b5050505050905090565b60006040517f08c379a00000000000000000000000000000000000000000000000000000000081526004016105c1906122e0565b60405180910390fd5b6040517f08c379a00000000000000000000000000000000000000000000000000000000081526004016105fc906122e0565b60405180910390fd5b6060600b6000838152602001908152602001600020805461062590612263565b80601f016020809104026020016040519081016040528092919081815260200182805461065190612263565b801561069e5780601f106106735761010080835404028352916020019161069e565b820191906000526020600020905b81548152906001019060200180831161068157829003601f168201915b50505050509050919050565b600760003373ffffffffffffffffffffffffffffffffffffffff1673ffffffffffffffffffffffffffffffffffffffff16815260200190815260200160002060009054906101000a900460ff16610736576040517f08c379a000000000000000000000000000000000000000000000000000000000815260040161072d90612372565b60405180910390fd5b80600660008473ffffffffffffffffffffffffffffffffffffffff1673ffffffffffffffffffffffffffffffffffffffff16815260200190815260200160002060006101000a81548160ff0219169083151502179055505050565b6040517f08c379a00000000000000000000000000000000000000000000000000000000081526004016107c3906122e0565b60405180910390fd5b6060600a600083815260200190815260200160002080546107ec90612263565b80601f016020809104026020016040519081016040528092919081815260200182805461081890612263565b80156108655780601f1061083a57610100808354040283529160200191610865565b820191906000526020600020905b81548152906001019060200180831161084857829003601f168201915b50505050509050919050565b6040517f08c379a00000000000000000000000000000000000000000000000000000000081526004016108a3906122e0565b60405180910390fd5b3373ffffffffffffffffffffffffffffffffffffffff166008600083815260200190815260200160002060009054906101000a900473ffffffffffffffffffffffffffffffffffffffff1673ffffffffffffffffffffffffffffffffffffffff1614806109625750600660003373ffffffffffffffffffffffffffffffffffffffff1673ffffffffffffffffffffffffffffffffffffffff16815260200190815260200160002060009054906101000a900460ff165b6109a1576040517f08c379a000000000000000000000000000000000000000000000000000000000815260040161099890612404565b60405180910390fd5b6008600082815260200190815260200160002060006101000a81549073ffffffffffffffffffffffffffffffffffffffff0219169055600a600082815260200190815260200160002060006109f69190611ac1565b600b60008281526020019081526020016000206000610a159190611ac1565b600c60008281526020019081526020016000206000610a349190611ac1565b6009600082815260200190815260200160002060006101000a81549073ffffffffffffffffffffffffffffffffffffffff0219169055803373ffffffffffffffffffffffffffffffffffffffff167fcc16f5dbb4873280815c1ee09dbd06736cffcc184412cf7a71a0fdb75d397ca560405160405180910390a350565b3360086000600d54815260200190815260200160002060006101000a81548173ffffffffffffffffffffffffffffffffffffffff021916908373ffffffffffffffffffffffffffffffffffffffff1602179055508360096000600d54815260200190815260200160002060006101000a81548173ffffffffffffffffffffffffffffffffffffffff021916908373ffffffffffffffffffffffffffffffffffffffff16021790555082600a6000600d5481526020019081526020016000209081610b7b91906125d0565b5081600b6000600d5481526020019081526020016000209081610b9e91906125d0565b5080600c6000600d5481526020019081526020016000209081610bc191906125d0565b50600d6000815480929190610bd5906126d1565b9190505550600d543373ffffffffffffffffffffffffffffffffffffffff167f0f6798a560793a54c3bcfe86a93cde1e73087d944c0ea20544137d412139688560405160405180910390a350505050565b600080610c32836110f8565b9050600073ffffffffffffffffffffffffffffffffffffffff168173ffffffffffffffffffffffffffffffffffffffff1603610ca3576040517f08c379a0000000000000000000000000000000000000000000000000000000008152600401610c9a90612765565b60405180910390fd5b80915050919050565b60008073ffffffffffffffffffffffffffffffffffffffff168273ffffffffffffffffffffffffffffffffffffffff1603610d1c576040517f08c379a0000000000000000000000000000000000000000000000000000000008152600401610d13906127f7565b60405180910390fd5b600360008373ffffffffffffffffffffffffffffffffffffffff1673ffffffffffffffffffffffffffffffffffffffff168152602001908152602001600020549050919050565b606060018054610d7290612263565b80601f0160208091040260200160405190810160405280929190818152602001828054610d9e90612263565b8015610deb5780601f10610dc057610100808354040283529160200191610deb565b820191906000526020600020905b815481529060010190602001808311610dce57829003601f168201915b5050505050905090565b6040517f08c379a0000000000000000000000000000000000000000000000000000000008152600401610e27906122e0565b60405180910390fd5b610e41610e3b611135565b8361113d565b610e80576040517f08c379a0000000000000000000000000000000000000000000000000000000008152600401610e7790612889565b60405180910390fd5b610e8c848484846111d2565b50505050565b6060610e9d8261122e565b6000610ea7611279565b90506000815111610ec75760405180602001604052806000815250610ef2565b80610ed184611290565b604051602001610ee29291906128e5565b6040516020818303038152906040525b915050919050565b6060600c60008381526020019081526020016000208054610f1a90612263565b80601f0160208091040260200160405190810160405280929190818152602001828054610f4690612263565b8015610f935780601f10610f6857610100808354040283529160200191610f93565b820191906000526020600020905b815481529060010190602001808311610f7657829003601f168201915b50505050509050919050565b600760003373ffffffffffffffffffffffffffffffffffffffff1673ffffffffffffffffffffffffffffffffffffffff16815260200190815260200160002060009054906101000a900460ff1661102b576040517f08c379a00000000000000000000000000000000000000000000000000000000081526004016110229061297b565b60405180910390fd5b80600760008473ffffffffffffffffffffffffffffffffffffffff1673ffffffffffffffffffffffffffffffffffffffff16815260200190815260200160002060006101000a81548160ff0219169083151502179055505050565b600092915050565b60007f01ffc9a7000000000000000000000000000000000000000000000000000000007bffffffffffffffffffffffffffffffffffffffffffffffffffffffff1916827bffffffffffffffffffffffffffffffffffffffffffffffffffffffff1916149050919050565b60006002600083815260200190815260200160002060009054906101000a900473ffffffffffffffffffffffffffffffffffffffff169050919050565b600033905090565b60008061114983610c26565b90508073ffffffffffffffffffffffffffffffffffffffff168473ffffffffffffffffffffffffffffffffffffffff16148061118b575061118a8185611086565b5b806111c957508373ffffffffffffffffffffffffffffffffffffffff166111b18461058d565b73ffffffffffffffffffffffffffffffffffffffff16145b91505092915050565b6111dd84848461135e565b6111e984848484611657565b611228576040517f08c379a000000000000000000000000000000000000000000000000000000000815260040161121f90612a0d565b60405180910390fd5b50505050565b611237816117de565b611276576040517f08c379a000000000000000000000000000000000000000000000000000000000815260040161126d90612765565b60405180910390fd5b50565b606060405180602001604052806000815250905090565b60606000600161129f8461181f565b01905060008167ffffffffffffffff8111156112be576112bd611e93565b5b6040519080825280601f01601f1916602001820160405280156112f05781602001600182028036833780820191505090505b509050600082602001820190505b600115611353578080600190039150507f3031323334353637383961626364656600000000000000000000000000000000600a86061a8153600a858161134757611346612a2d565b5b049450600085036112fe575b819350505050919050565b8273ffffffffffffffffffffffffffffffffffffffff1661137e82610c26565b73ffffffffffffffffffffffffffffffffffffffff16146113d4576040517f08c379a00000000000000000000000000000000000000000000000000000000081526004016113cb90612ace565b60405180910390fd5b600073ffffffffffffffffffffffffffffffffffffffff168273ffffffffffffffffffffffffffffffffffffffff1603611443576040517f08c379a000000000000000000000000000000000000000000000000000000000815260040161143a90612b60565b60405180910390fd5b6114508383836001611972565b8273ffffffffffffffffffffffffffffffffffffffff1661147082610c26565b73ffffffffffffffffffffffffffffffffffffffff16146114c6576040517f08c379a00000000000000000000000000000000000000000000000000000000081526004016114bd90612ace565b60405180910390fd5b6004600082815260200190815260200160002060006101000a81549073ffffffffffffffffffffffffffffffffffffffff02191690556001600360008573ffffffffffffffffffffffffffffffffffffffff1673ffffffffffffffffffffffffffffffffffffffff168152602001908152602001600020600082825403925050819055506001600360008473ffffffffffffffffffffffffffffffffffffffff1673ffffffffffffffffffffffffffffffffffffffff16815260200190815260200160002060008282540192505081905550816002600083815260200190815260200160002060006101000a81548173ffffffffffffffffffffffffffffffffffffffff021916908373ffffffffffffffffffffffffffffffffffffffff160217905550808273ffffffffffffffffffffffffffffffffffffffff168473ffffffffffffffffffffffffffffffffffffffff167fddf252ad1be2c89b69c2b068fc378daa952ba7f163c4a11628f55a4df523b3ef60405160405180910390a46116528383836001611a98565b505050565b60006116788473ffffffffffffffffffffffffffffffffffffffff16611a9e565b156117d1578373ffffffffffffffffffffffffffffffffffffffff1663150b7a026116a1611135565b8786866040518563ffffffff1660e01b81526004016116c39493929190612bd5565b6020604051808303816000875af19250505080156116ff57506040513d601f19601f820116820180604052508101906116fc9190612c36565b60015b611781573d806000811461172f576040519150601f19603f3d011682016040523d82523d6000602084013e611734565b606091505b506000815103611779576040517f08c379a000000000000000000000000000000000000000000000000000000000815260040161177090612a0d565b60405180910390fd5b805181602001fd5b63150b7a0260e01b7bffffffffffffffffffffffffffffffffffffffffffffffffffffffff1916817bffffffffffffffffffffffffffffffffffffffffffffffffffffffff1916149150506117d6565b600190505b949350505050565b60008073ffffffffffffffffffffffffffffffffffffffff16611800836110f8565b73ffffffffffffffffffffffffffffffffffffffff1614159050919050565b600080600090507a184f03e93ff9f4daa797ed6e38ed64bf6a1f010000000000000000831061187d577a184f03e93ff9f4daa797ed6e38ed64bf6a1f010000000000000000838161187357611872612a2d565b5b0492506040810190505b6d04ee2d6d415b85acef810000000083106118ba576d04ee2d6d415b85acef810000000083816118b0576118af612a2d565b5b0492506020810190505b662386f26fc1000083106118e957662386f26fc1000083816118df576118de612a2d565b5b0492506010810190505b6305f5e1008310611912576305f5e100838161190857611907612a2d565b5b0492506008810190505b612710831061193757612710838161192d5761192c612a2d565b5b0492506004810190505b6064831061195a57606483816119505761194f612a2d565b5b0492506002810190505b600a8310611969576001810190505b80915050919050565b6001811115611a9257600073ffffffffffffffffffffffffffffffffffffffff168473ffffffffffffffffffffffffffffffffffffffff1614611a065780600360008673ffffffffffffffffffffffffffffffffffffffff1673ffffffffffffffffffffffffffffffffffffffff16815260200190815260200160002060008282546119fe9190612c63565b925050819055505b600073ffffffffffffffffffffffffffffffffffffffff168373ffffffffffffffffffffffffffffffffffffffff1614611a915780600360008573ffffffffffffffffffffffffffffffffffffffff1673ffffffffffffffffffffffffffffffffffffffff1681526020019081526020016000206000828254611a899190612c97565b925050819055505b5b50505050565b50505050565b6000808273ffffffffffffffffffffffffffffffffffffffff163b119050919050565b508054611acd90612263565b6000825580601f10611adf5750611afe565b601f016020900490600052602060002090810190611afd9190611b01565b5b50565b5b80821115611b1a576000816000905550600101611b02565b5090565b6000604051905090565b600080fd5b600080fd5b60007fffffffff0000000000000000000000000000000000000000000000000000000082169050919050565b611b6781611b32565b8114611b7257600080fd5b50565b600081359050611b8481611b5e565b92915050565b600060208284031215611ba057611b9f611b28565b5b6000611bae84828501611b75565b91505092915050565b60008115159050919050565b611bcc81611bb7565b82525050565b6000602082019050611be76000830184611bc3565b92915050565b600081519050919050565b600082825260208201905092915050565b60005b83811015611c27578082015181840152602081019050611c0c565b60008484015250505050565b6000601f19601f8301169050919050565b6000611c4f82611bed565b611c598185611bf8565b9350611c69818560208601611c09565b611c7281611c33565b840191505092915050565b60006020820190508181036000830152611c978184611c44565b905092915050565b6000819050919050565b611cb281611c9f565b8114611cbd57600080fd5b50565b600081359050611ccf81611ca9565b92915050565b600060208284031215611ceb57611cea611b28565b5b6000611cf984828501611cc0565b91505092915050565b600073ffffffffffffffffffffffffffffffffffffffff82169050919050565b6000611d2d82611d02565b9050919050565b611d3d81611d22565b82525050565b6000602082019050611d586000830184611d34565b92915050565b611d6781611d22565b8114611d7257600080fd5b50565b600081359050611d8481611d5e565b92915050565b60008060408385031215611da157611da0611b28565b5b6000611daf85828601611d75565b9250506020611dc085828601611cc0565b9150509250929050565b611dd381611bb7565b8114611dde57600080fd5b50565b600081359050611df081611dca565b92915050565b60008060408385031215611e0d57611e0c611b28565b5b6000611e1b85828601611d75565b9250506020611e2c85828601611de1565b9150509250929050565b600080600060608486031215611e4f57611e4e611b28565b5b6000611e5d86828701611d75565b9350506020611e6e86828701611d75565b9250506040611e7f86828701611cc0565b9150509250925092565b600080fd5b600080fd5b7f4e487b7100000000000000000000000000000000000000000000000000000000600052604160045260246000fd5b611ecb82611c33565b810181811067ffffffffffffffff82111715611eea57611ee9611e93565b5b80604052505050565b6000611efd611b1e565b9050611f098282611ec2565b919050565b600067ffffffffffffffff821115611f2957611f28611e93565b5b611f3282611c33565b9050602081019050919050565b82818337600083830152505050565b6000611f61611f5c84611f0e565b611ef3565b905082815260208101848484011115611f7d57611f7c611e8e565b5b611f88848285611f3f565b509392505050565b600082601f830112611fa557611fa4611e89565b5b8135611fb5848260208601611f4e565b91505092915050565b60008060008060808587031215611fd857611fd7611b28565b5b6000611fe687828801611d75565b945050602085013567ffffffffffffffff81111561200757612006611b2d565b5b61201387828801611f90565b935050604085013567ffffffffffffffff81111561203457612033611b2d565b5b61204087828801611f90565b925050606085013567ffffffffffffffff81111561206157612060611b2d565b5b61206d87828801611f90565b91505092959194509250565b60006020828403121561208f5761208e611b28565b5b600061209d84828501611d75565b91505092915050565b6120af81611c9f565b82525050565b60006020820190506120ca60008301846120a6565b92915050565b600067ffffffffffffffff8211156120eb576120ea611e93565b5b6120f482611c33565b9050602081019050919050565b600061211461210f846120d0565b611ef3565b9050828152602081018484840111156121305761212f611e8e565b5b61213b848285611f3f565b509392505050565b600082601f83011261215857612157611e89565b5b8135612168848260208601612101565b91505092915050565b6000806000806080858703121561218b5761218a611b28565b5b600061219987828801611d75565b94505060206121aa87828801611d75565b93505060406121bb87828801611cc0565b925050606085013567ffffffffffffffff8111156121dc576121db611b2d565b5b6121e887828801612143565b91505092959194509250565b6000806040838503121561220b5761220a611b28565b5b600061221985828601611d75565b925050602061222a85828601611d75565b9150509250929050565b7f4e487b7100000000000000000000000000000000000000000000000000000000600052602260045260246000fd5b6000600282049050600182168061227b57607f821691505b60208210810361228e5761228d612234565b5b50919050565b7f4e6f206f6e652063616e207472616e73666572207468697320746f6b656e0000600082015250565b60006122ca601e83611bf8565b91506122d582612294565b602082019050919050565b600060208201905081810360008301526122f9816122bd565b9050919050565b7f596f7520617265206e6f7420616c6c6f77656420746f2065646974206275726e60008201527f6572730000000000000000000000000000000000000000000000000000000000602082015250565b600061235c602383611bf8565b915061236782612300565b604082019050919050565b6000602082019050818103600083015261238b8161234f565b9050919050565b7f596f7520617265206e6f7420616c6c6f77656420746f206275726e207468697360008201527f20746f6b656e0000000000000000000000000000000000000000000000000000602082015250565b60006123ee602683611bf8565b91506123f982612392565b604082019050919050565b6000602082019050818103600083015261241d816123e1565b9050919050565b60008190508160005260206000209050919050565b60006020601f8301049050919050565b600082821b905092915050565b6000600883026124867fffffffffffffffffffffffffffffffffffffffffffffffffffffffffffffffff82612449565b6124908683612449565b95508019841693508086168417925050509392505050565b6000819050919050565b60006124cd6124c86124c384611c9f565b6124a8565b611c9f565b9050919050565b6000819050919050565b6124e7836124b2565b6124fb6124f3826124d4565b848454612456565b825550505050565b600090565b612510612503565b61251b8184846124de565b505050565b5b8181101561253f57612534600082612508565b600181019050612521565b5050565b601f8211156125845761255581612424565b61255e84612439565b8101602085101561256d578190505b61258161257985612439565b830182612520565b50505b505050565b600082821c905092915050565b60006125a760001984600802612589565b1980831691505092915050565b60006125c08383612596565b9150826002028217905092915050565b6125d982611bed565b67ffffffffffffffff8111156125f2576125f1611e93565b5b6125fc8254612263565b612607828285612543565b600060209050601f83116001811461263a5760008415612628578287015190505b61263285826125b4565b86555061269a565b601f19841661264886612424565b60005b828110156126705784890151825560018201915060208501945060208101905061264b565b8683101561268d5784890151612689601f891682612596565b8355505b6001600288020188555050505b505050505050565b7f4e487b7100000000000000000000000000000000000000000000000000000000600052601160045260246000fd5b60006126dc82611c9f565b91507fffffffffffffffffffffffffffffffffffffffffffffffffffffffffffffffff820361270e5761270d6126a2565b5b600182019050919050565b7f4552433732313a20696e76616c696420746f6b656e2049440000000000000000600082015250565b600061274f601883611bf8565b915061275a82612719565b602082019050919050565b6000602082019050818103600083015261277e81612742565b9050919050565b7f4552433732313a2061646472657373207a65726f206973206e6f74206120766160008201527f6c6964206f776e65720000000000000000000000000000000000000000000000602082015250565b60006127e1602983611bf8565b91506127ec82612785565b604082019050919050565b60006020820190508181036000830152612810816127d4565b9050919050565b7f4552433732313a2063616c6c6572206973206e6f7420746f6b656e206f776e6560008201527f72206f7220617070726f76656400000000000000000000000000000000000000602082015250565b6000612873602d83611bf8565b915061287e82612817565b604082019050919050565b600060208201905081810360008301526128a281612866565b9050919050565b600081905092915050565b60006128bf82611bed565b6128c981856128a9565b93506128d9818560208601611c09565b80840191505092915050565b60006128f182856128b4565b91506128fd82846128b4565b91508190509392505050565b7f596f7520617265206e6f7420616c6c6f77656420746f20656469742061646d6960008201527f6e73000000000000000000000000000000000000000000000000000000000000602082015250565b6000612965602283611bf8565b915061297082612909565b604082019050919050565b6000602082019050818103600083015261299481612958565b9050919050565b7f4552433732313a207472616e7366657220746f206e6f6e20455243373231526560008201527f63656976657220696d706c656d656e7465720000000000000000000000000000602082015250565b60006129f7603283611bf8565b9150612a028261299b565b604082019050919050565b60006020820190508181036000830152612a26816129ea565b9050919050565b7f4e487b7100000000000000000000000000000000000000000000000000000000600052601260045260246000fd5b7f4552433732313a207472616e736665722066726f6d20696e636f72726563742060008201527f6f776e6572000000000000000000000000000000000000000000000000000000602082015250565b6000612ab8602583611bf8565b9150612ac382612a5c565b604082019050919050565b60006020820190508181036000830152612ae781612aab565b9050919050565b7f4552433732313a207472616e7366657220746f20746865207a65726f2061646460008201527f7265737300000000000000000000000000000000000000000000000000000000602082015250565b6000612b4a602483611bf8565b9150612b5582612aee565b604082019050919050565b60006020820190508181036000830152612b7981612b3d565b9050919050565b600081519050919050565b600082825260208201905092915050565b6000612ba782612b80565b612bb18185612b8b565b9350612bc1818560208601611c09565b612bca81611c33565b840191505092915050565b6000608082019050612bea6000830187611d34565b612bf76020830186611d34565b612c0460408301856120a6565b8181036060830152612c168184612b9c565b905095945050505050565b600081519050612c3081611b5e565b92915050565b600060208284031215612c4c57612c4b611b28565b5b6000612c5a84828501612c21565b91505092915050565b6000612c6e82611c9f565b9150612c7983611c9f565b9250828203905081811115612c9157612c906126a2565b5b92915050565b6000612ca282611c9f565b9150612cad83611c9f565b9250828201905080821115612cc557612cc46126a2565b5b9291505056fea26469706673582212208d022ff85c21f23da065acc79dba6ff5ee0f64c89d6a55915d9222e2c4bc781c64736f6c63430008110033",
  "immutableReferences": {},
  "source": "//license: MIT\r\n\r\npragma solidity ^0.8.17;\r\n\r\nimport \"@openzeppelin/contracts/token/ERC721/ERC721.sol\";\r\n\r\ncontract temp_sbt is ERC721 {\r\n\r\n    mapping (address => bool) private _isBurner; // list of addresses that can burn sbt even if they are not the owner\r\n    mapping (address => bool) private _isAdmin; // admin can add and delete admins, set and unset minters and burners\r\n\r\n    mapping (uint256 => address) private _owner; // link the sbt to a certain owner\r\n    mapping (uint256 => address) private _token; // link the sbt to a certain token\r\n\r\n    mapping (uint256 => string) private _tokenURI; // uri where we can get the addresses used to generate the proof\r\n    mapping (uint256 => string) private _merkleRoot; // merkle root of the addresses (to ensure that the addresses have not been modified)\r\n    mapping (uint256 => string) private _zkProof; // zk proof generated in the frontend (not verified yet)\r\n\r\n\r\n    uint256 private _tokenId;\r\n    string private _name;\r\n    string private _symbol;\r\n\r\n    event Mint(address indexed owner, uint256 indexed tokenId);\r\n    event Burn(address indexed owner, uint256 indexed tokenId);\r\n\r\n    constructor(string memory name_, string memory symbol_, address verifier_) ERC721(name_, symbol_){\r\n        _tokenId = 0;\r\n        _name = name_;\r\n        _symbol = symbol_;\r\n        _isBurner[verifier_] = true;\r\n        _isAdmin[msg.sender] = true;\r\n        _isBurner[msg.sender] = true;\r\n    }\r\n\r\n    function safeTransferFrom(address from, address to, uint256 tokenId) public pure override {\r\n        revert(\"No one can transfer this token\");\r\n    }\r\n    function transferFrom(address from, address to, uint256 tokenId) public pure override {\r\n        revert(\"No one can transfer this token\");\r\n    }\r\n    function approve(address to, uint256 tokenId) public pure override {\r\n        revert(\"No one can transfer this token\");\r\n    }\r\n    function getApproved(uint256 tokenId) public view override returns (address operator) {\r\n        revert(\"No one can transfer this token\");\r\n        return address(0);\r\n    }\r\n    function setApprovalForAll(address operator, bool _approved) public pure override {\r\n        revert(\"No one can transfer this token\");\r\n    }\r\n    function isApprovedForAll(address owner, address operator) public view override returns (bool) {\r\n        return false;\r\n    }\r\n\r\n    // mint and burn sbt\r\n    function mint(address token, string memory tokenURI, string memory merkleRoot, string memory zkProof) public {\r\n        _owner[_tokenId] = msg.sender;\r\n        _token[_tokenId] = token;\r\n        _tokenURI[_tokenId] = tokenURI;\r\n        _merkleRoot[_tokenId] = merkleRoot;\r\n        _zkProof[_tokenId] = zkProof;\r\n        _tokenId++;\r\n\r\n        emit Mint(msg.sender, _tokenId);\r\n    }\r\n\r\n    function burn(uint256 tokenId) public {\r\n        require(_owner[tokenId] == msg.sender || _isBurner[msg.sender], \"You are not allowed to burn this token\");\r\n        delete _owner[tokenId];\r\n        delete _tokenURI[tokenId];\r\n        delete _merkleRoot[tokenId];\r\n        delete _zkProof[tokenId];\r\n        delete _token[tokenId];\r\n\r\n        emit Burn(msg.sender, tokenId);\r\n    }\r\n\r\n    // get sbt data    \r\n    function getMerkleRoot(uint256 tokenId) public view returns (string memory) {\r\n        return _merkleRoot[tokenId];\r\n    }\r\n    function getZkProof(uint256 tokenId) public view returns (string memory) {\r\n        return _zkProof[tokenId];\r\n    }\r\n    function getTokenURI(uint256 tokenId) public view returns (string memory) {\r\n        return _tokenURI[tokenId];\r\n    }\r\n\r\n    // admin functions\r\n    function editAdmin(address admin, bool isAdmin) public {\r\n        require(_isAdmin[msg.sender], \"You are not allowed to edit admins\");\r\n        _isAdmin[admin] = isAdmin;\r\n    }\r\n    function editBurner(address burner, bool isBurner) public {\r\n        require(_isAdmin[msg.sender], \"You are not allowed to edit burners\");\r\n        _isBurner[burner] = isBurner;\r\n    }\r\n\r\n}",
  "sourcePath": "C:\\Users\\hervi\\Documents\\Blockchain Projects\\ETHDenver2023\\SBT\\truffle\\contracts\\solvancy-sbt.sol",
  "compiler": {
    "name": "solc",
    "version": "0.8.17+commit.8df45f5f.Emscripten.clang"
  },
  "schemaVersion": "3.4.12",
  "updatedAt": "2023-02-25T20:47:06.434Z",
  "devdoc": {
    "kind": "dev",
    "methods": {
      "approve(address,uint256)": {
        "details": "See {IERC721-approve}."
      },
      "balanceOf(address)": {
        "details": "See {IERC721-balanceOf}."
      },
      "getApproved(uint256)": {
        "details": "See {IERC721-getApproved}."
      },
      "isApprovedForAll(address,address)": {
        "details": "See {IERC721-isApprovedForAll}."
      },
      "name()": {
        "details": "See {IERC721Metadata-name}."
      },
      "ownerOf(uint256)": {
        "details": "See {IERC721-ownerOf}."
      },
      "safeTransferFrom(address,address,uint256)": {
        "details": "See {IERC721-safeTransferFrom}."
      },
      "safeTransferFrom(address,address,uint256,bytes)": {
        "details": "See {IERC721-safeTransferFrom}."
      },
      "supportsInterface(bytes4)": {
        "details": "See {IERC165-supportsInterface}."
      },
      "symbol()": {
        "details": "See {IERC721Metadata-symbol}."
      },
      "tokenURI(uint256)": {
        "details": "See {IERC721Metadata-tokenURI}."
      },
      "transferFrom(address,address,uint256)": {
        "details": "See {IERC721-transferFrom}."
      }
    },
    "version": 1
  },
  "userdoc": {
    "kind": "user",
    "methods": {},
    "version": 1
  }
}