{
  "contractName": "temp_sbt",
  "abi": [
    {
      "inputs": [
        {
          "internalType": "string",
          "name": "name_",
          "type": "string"
        },
        {
          "internalType": "string",
          "name": "symbol_",
          "type": "string"
        },
        {
          "internalType": "address",
          "name": "verifier_",
          "type": "address"
        }
      ],
      "stateMutability": "nonpayable",
      "type": "constructor"
    },
    {
      "anonymous": false,
      "inputs": [
        {
          "indexed": true,
          "internalType": "address",
          "name": "owner",
          "type": "address"
        },
        {
          "indexed": true,
          "internalType": "address",
          "name": "approved",
          "type": "address"
        },
        {
          "indexed": true,
          "internalType": "uint256",
          "name": "tokenId",
          "type": "uint256"
        }
      ],
      "name": "Approval",
      "type": "event"
    },
    {
      "anonymous": false,
      "inputs": [
        {
          "indexed": true,
          "internalType": "address",
          "name": "owner",
          "type": "address"
        },
        {
          "indexed": true,
          "internalType": "address",
          "name": "operator",
          "type": "address"
        },
        {
          "indexed": false,
          "internalType": "bool",
          "name": "approved",
          "type": "bool"
        }
      ],
      "name": "ApprovalForAll",
      "type": "event"
    },
    {
      "anonymous": false,
      "inputs": [
        {
          "indexed": true,
          "internalType": "address",
          "name": "owner",
          "type": "address"
        },
        {
          "indexed": true,
          "internalType": "uint256",
          "name": "tokenId",
          "type": "uint256"
        }
      ],
      "name": "Burn",
      "type": "event"
    },
    {
      "anonymous": false,
      "inputs": [
        {
          "indexed": true,
          "internalType": "address",
          "name": "owner",
          "type": "address"
        },
        {
          "indexed": true,
          "internalType": "uint256",
          "name": "tokenId",
          "type": "uint256"
        }
      ],
      "name": "Mint",
      "type": "event"
    },
    {
      "anonymous": false,
      "inputs": [
        {
          "indexed": true,
          "internalType": "address",
          "name": "from",
          "type": "address"
        },
        {
          "indexed": true,
          "internalType": "address",
          "name": "to",
          "type": "address"
        },
        {
          "indexed": true,
          "internalType": "uint256",
          "name": "tokenId",
          "type": "uint256"
        }
      ],
      "name": "Transfer",
      "type": "event"
    },
    {
      "inputs": [
        {
          "internalType": "address",
          "name": "owner",
          "type": "address"
        }
      ],
      "name": "balanceOf",
      "outputs": [
        {
          "internalType": "uint256",
          "name": "",
          "type": "uint256"
        }
      ],
      "stateMutability": "view",
      "type": "function"
    },
    {
      "inputs": [],
      "name": "name",
      "outputs": [
        {
          "internalType": "string",
          "name": "",
          "type": "string"
        }
      ],
      "stateMutability": "view",
      "type": "function"
    },
    {
      "inputs": [
        {
          "internalType": "uint256",
          "name": "tokenId",
          "type": "uint256"
        }
      ],
      "name": "ownerOf",
      "outputs": [
        {
          "internalType": "address",
          "name": "",
          "type": "address"
        }
      ],
      "stateMutability": "view",
      "type": "function"
    },
    {
      "inputs": [
        {
          "internalType": "bytes4",
          "name": "interfaceId",
          "type": "bytes4"
        }
      ],
      "name": "supportsInterface",
      "outputs": [
        {
          "internalType": "bool",
          "name": "",
          "type": "bool"
        }
      ],
      "stateMutability": "view",
      "type": "function"
    },
    {
      "inputs": [],
      "name": "symbol",
      "outputs": [
        {
          "internalType": "string",
          "name": "",
          "type": "string"
        }
      ],
      "stateMutability": "view",
      "type": "function"
    },
    {
      "inputs": [
        {
          "internalType": "uint256",
          "name": "tokenId",
          "type": "uint256"
        }
      ],
      "name": "tokenURI",
      "outputs": [
        {
          "internalType": "string",
          "name": "",
          "type": "string"
        }
      ],
      "stateMutability": "view",
      "type": "function"
    },
    {
      "inputs": [
        {
          "internalType": "address",
          "name": "from",
          "type": "address"
        },
        {
          "internalType": "address",
          "name": "to",
          "type": "address"
        },
        {
          "internalType": "uint256",
          "name": "tokenId",
          "type": "uint256"
        }
      ],
      "name": "safeTransferFrom",
      "outputs": [],
      "stateMutability": "pure",
      "type": "function"
    },
    {
      "inputs": [
        {
          "internalType": "address",
          "name": "from",
          "type": "address"
        },
        {
          "internalType": "address",
          "name": "to",
          "type": "address"
        },
        {
          "internalType": "uint256",
          "name": "tokenId",
          "type": "uint256"
        },
        {
          "internalType": "bytes",
          "name": "data",
          "type": "bytes"
        }
      ],
      "name": "safeTransferFrom",
      "outputs": [],
      "stateMutability": "nonpayable",
      "type": "function"
    },
    {
      "inputs": [
        {
          "internalType": "address",
          "name": "from",
          "type": "address"
        },
        {
          "internalType": "address",
          "name": "to",
          "type": "address"
        },
        {
          "internalType": "uint256",
          "name": "tokenId",
          "type": "uint256"
        }
      ],
      "name": "transferFrom",
      "outputs": [],
      "stateMutability": "pure",
      "type": "function"
    },
    {
      "inputs": [
        {
          "internalType": "address",
          "name": "to",
          "type": "address"
        },
        {
          "internalType": "uint256",
          "name": "tokenId",
          "type": "uint256"
        }
      ],
      "name": "approve",
      "outputs": [],
      "stateMutability": "pure",
      "type": "function"
    },
    {
      "inputs": [
        {
          "internalType": "uint256",
          "name": "tokenId",
          "type": "uint256"
        }
      ],
      "name": "getApproved",
      "outputs": [
        {
          "internalType": "address",
          "name": "operator",
          "type": "address"
        }
      ],
      "stateMutability": "view",
      "type": "function"
    },
    {
      "inputs": [
        {
          "internalType": "address",
          "name": "operator",
          "type": "address"
        },
        {
          "internalType": "bool",
          "name": "_approved",
          "type": "bool"
        }
      ],
      "name": "setApprovalForAll",
      "outputs": [],
      "stateMutability": "pure",
      "type": "function"
    },
    {
      "inputs": [
        {
          "internalType": "address",
          "name": "owner",
          "type": "address"
        },
        {
          "internalType": "address",
          "name": "operator",
          "type": "address"
        }
      ],
      "name": "isApprovedForAll",
      "outputs": [
        {
          "internalType": "bool",
          "name": "",
          "type": "bool"
        }
      ],
      "stateMutability": "view",
      "type": "function"
    },
    {
      "inputs": [
        {
          "internalType": "address",
          "name": "token",
          "type": "address"
        },
        {
          "internalType": "string",
          "name": "tokenURI",
          "type": "string"
        },
        {
          "internalType": "bytes32",
          "name": "merkleRoot",
          "type": "bytes32"
        },
        {
          "internalType": "string",
          "name": "zkProof",
          "type": "string"
        }
      ],
      "name": "mint",
      "outputs": [],
      "stateMutability": "nonpayable",
      "type": "function"
    },
    {
      "inputs": [
        {
          "internalType": "uint256",
          "name": "tokenId",
          "type": "uint256"
        }
      ],
      "name": "burn",
      "outputs": [],
      "stateMutability": "nonpayable",
      "type": "function"
    },
    {
      "inputs": [
        {
          "internalType": "uint256",
          "name": "tokenId",
          "type": "uint256"
        }
      ],
      "name": "getMerkleRoot",
      "outputs": [
        {
          "internalType": "bytes32",
          "name": "",
          "type": "bytes32"
        }
      ],
      "stateMutability": "view",
      "type": "function"
    },
    {
      "inputs": [
        {
          "internalType": "uint256",
          "name": "tokenId",
          "type": "uint256"
        }
      ],
      "name": "getZkProof",
      "outputs": [
        {
          "internalType": "string",
          "name": "",
          "type": "string"
        }
      ],
      "stateMutability": "view",
      "type": "function"
    },
    {
      "inputs": [
        {
          "internalType": "uint256",
          "name": "tokenId",
          "type": "uint256"
        }
      ],
      "name": "getTokenURI",
      "outputs": [
        {
          "internalType": "string",
          "name": "",
          "type": "string"
        }
      ],
      "stateMutability": "view",
      "type": "function"
    },
    {
      "inputs": [
        {
          "internalType": "uint256",
          "name": "tokenId",
          "type": "uint256"
        }
      ],
      "name": "getTokenAddress",
      "outputs": [
        {
          "internalType": "address",
          "name": "",
          "type": "address"
        }
      ],
      "stateMutability": "view",
      "type": "function"
    },
    {
      "inputs": [
        {
          "internalType": "address",
          "name": "admin",
          "type": "address"
        },
        {
          "internalType": "bool",
          "name": "isAdmin",
          "type": "bool"
        }
      ],
      "name": "editAdmin",
      "outputs": [],
      "stateMutability": "nonpayable",
      "type": "function"
    },
    {
      "inputs": [
        {
          "internalType": "address",
          "name": "burner",
          "type": "address"
        },
        {
          "internalType": "bool",
          "name": "isBurner",
          "type": "bool"
        }
      ],
      "name": "editBurner",
      "outputs": [],
      "stateMutability": "nonpayable",
      "type": "function"
    }
  ],
  "bytecode": "0x60806040523480156200001157600080fd5b506040516200349438038062003494833981810160405281019062000037919062000394565b828281600090816200004a919062000679565b5080600190816200005c919062000679565b5050506000600d8190555082600e908162000078919062000679565b5081600f90816200008a919062000679565b506001600660008373ffffffffffffffffffffffffffffffffffffffff1673ffffffffffffffffffffffffffffffffffffffff16815260200190815260200160002060006101000a81548160ff0219169083151502179055506001600760003373ffffffffffffffffffffffffffffffffffffffff1673ffffffffffffffffffffffffffffffffffffffff16815260200190815260200160002060006101000a81548160ff0219169083151502179055506001600660003373ffffffffffffffffffffffffffffffffffffffff1673ffffffffffffffffffffffffffffffffffffffff16815260200190815260200160002060006101000a81548160ff02191690831515021790555050505062000760565b6000604051905090565b600080fd5b600080fd5b600080fd5b600080fd5b6000601f19601f8301169050919050565b7f4e487b7100000000000000000000000000000000000000000000000000000000600052604160045260246000fd5b6200020582620001ba565b810181811067ffffffffffffffff82111715620002275762000226620001cb565b5b80604052505050565b60006200023c6200019c565b90506200024a8282620001fa565b919050565b600067ffffffffffffffff8211156200026d576200026c620001cb565b5b6200027882620001ba565b9050602081019050919050565b60005b83811015620002a557808201518184015260208101905062000288565b60008484015250505050565b6000620002c8620002c2846200024f565b62000230565b905082815260208101848484011115620002e757620002e6620001b5565b5b620002f484828562000285565b509392505050565b600082601f830112620003145762000313620001b0565b5b815162000326848260208601620002b1565b91505092915050565b600073ffffffffffffffffffffffffffffffffffffffff82169050919050565b60006200035c826200032f565b9050919050565b6200036e816200034f565b81146200037a57600080fd5b50565b6000815190506200038e8162000363565b92915050565b600080600060608486031215620003b057620003af620001a6565b5b600084015167ffffffffffffffff811115620003d157620003d0620001ab565b5b620003df86828701620002fc565b935050602084015167ffffffffffffffff811115620004035762000402620001ab565b5b6200041186828701620002fc565b925050604062000424868287016200037d565b9150509250925092565b600081519050919050565b7f4e487b7100000000000000000000000000000000000000000000000000000000600052602260045260246000fd5b600060028204905060018216806200048157607f821691505b60208210810362000497576200049662000439565b5b50919050565b60008190508160005260206000209050919050565b60006020601f8301049050919050565b600082821b905092915050565b600060088302620005017fffffffffffffffffffffffffffffffffffffffffffffffffffffffffffffffff82620004c2565b6200050d8683620004c2565b95508019841693508086168417925050509392505050565b6000819050919050565b6000819050919050565b60006200055a620005546200054e8462000525565b6200052f565b62000525565b9050919050565b6000819050919050565b620005768362000539565b6200058e620005858262000561565b848454620004cf565b825550505050565b600090565b620005a562000596565b620005b28184846200056b565b505050565b5b81811015620005da57620005ce6000826200059b565b600181019050620005b8565b5050565b601f8211156200062957620005f3816200049d565b620005fe84620004b2565b810160208510156200060e578190505b620006266200061d85620004b2565b830182620005b7565b50505b505050565b600082821c905092915050565b60006200064e600019846008026200062e565b1980831691505092915050565b60006200066983836200063b565b9150826002028217905092915050565b62000684826200042e565b67ffffffffffffffff811115620006a0576200069f620001cb565b5b620006ac825462000468565b620006b9828285620005de565b600060209050601f831160018114620006f15760008415620006dc578287015190505b620006e885826200065b565b86555062000758565b601f19841662000701866200049d565b60005b828110156200072b5784890151825560018201915060208501945060208101905062000704565b868310156200074b578489015162000747601f8916826200063b565b8355505b6001600288020188555050505b505050505050565b612d2480620007706000396000f3fe608060405234801561001057600080fd5b50600436106101375760003560e01c80636352211e116100b8578063a22cb4651161007c578063a22cb46514610370578063b88d4fde1461038c578063c87b56dd146103a8578063e0c6fa58146103d8578063e25c8c7114610408578063e985e9c51461042457610137565b80636352211e146102a657806367ccdf38146102d657806370a08231146103065780637283bfd21461033657806395d89b411461035257610137565b80631bc4d889116100ff5780631bc4d8891461020657806323b872dd146102225780633bb3a24d1461023e57806342842e0e1461026e57806342966c681461028a57610137565b806301ffc9a71461013c57806306fdde031461016c578063081812fc1461018a578063095ea7b3146101ba5780630aab8ba5146101d6575b600080fd5b61015660048036038101906101519190611b69565b610454565b6040516101639190611bb1565b60405180910390f35b610174610536565b6040516101819190611c5c565b60405180910390f35b6101a4600480360381019061019f9190611cb4565b6105c8565b6040516101b19190611d22565b60405180910390f35b6101d460048036038101906101cf9190611d69565b610605565b005b6101f060048036038101906101eb9190611cb4565b610640565b6040516101fd9190611dc2565b60405180910390f35b610220600480360381019061021b9190611e09565b61065d565b005b61023c60048036038101906102379190611e49565b610744565b005b61025860048036038101906102539190611cb4565b61077f565b6040516102659190611c5c565b60405180910390f35b61028860048036038101906102839190611e49565b610824565b005b6102a4600480360381019061029f9190611cb4565b61085f565b005b6102c060048036038101906102bb9190611cb4565b610a5c565b6040516102cd9190611d22565b60405180910390f35b6102f060048036038101906102eb9190611cb4565b610ae2565b6040516102fd9190611d22565b60405180910390f35b610320600480360381019061031b9190611e9c565b610b1f565b60405161032d9190611ed8565b60405180910390f35b610350600480360381019061034b9190612054565b610bd6565b005b61035a610d42565b6040516103679190611c5c565b60405180910390f35b61038a60048036038101906103859190611e09565b610dd4565b005b6103a660048036038101906103a19190612194565b610e0f565b005b6103c260048036038101906103bd9190611cb4565b610e71565b6040516103cf9190611c5c565b60405180910390f35b6103f260048036038101906103ed9190611cb4565b610ed9565b6040516103ff9190611c5c565b60405180910390f35b610422600480360381019061041d9190611e09565b610f7e565b005b61043e60048036038101906104399190612217565b611065565b60405161044b9190611bb1565b60405180910390f35b60007f80ac58cd000000000000000000000000000000000000000000000000000000007bffffffffffffffffffffffffffffffffffffffffffffffffffffffff1916827bffffffffffffffffffffffffffffffffffffffffffffffffffffffff1916148061051f57507f5b5e139f000000000000000000000000000000000000000000000000000000007bffffffffffffffffffffffffffffffffffffffffffffffffffffffff1916827bffffffffffffffffffffffffffffffffffffffffffffffffffffffff1916145b8061052f575061052e8261106d565b5b9050919050565b60606000805461054590612286565b80601f016020809104026020016040519081016040528092919081815260200182805461057190612286565b80156105be5780601f10610593576101008083540402835291602001916105be565b820191906000526020600020905b8154815290600101906020018083116105a157829003601f168201915b5050505050905090565b60006040517f08c379a00000000000000000000000000000000000000000000000000000000081526004016105fc90612303565b60405180910390fd5b6040517f08c379a000000000000000000000000000000000000000000000000000000000815260040161063790612303565b60405180910390fd5b6000600c6000838152602001908152602001600020549050919050565b600760003373ffffffffffffffffffffffffffffffffffffffff1673ffffffffffffffffffffffffffffffffffffffff16815260200190815260200160002060009054906101000a900460ff166106e9576040517f08c379a00000000000000000000000000000000000000000000000000000000081526004016106e090612395565b60405180910390fd5b80600660008473ffffffffffffffffffffffffffffffffffffffff1673ffffffffffffffffffffffffffffffffffffffff16815260200190815260200160002060006101000a81548160ff0219169083151502179055505050565b6040517f08c379a000000000000000000000000000000000000000000000000000000000815260040161077690612303565b60405180910390fd5b6060600a6000838152602001908152602001600020805461079f90612286565b80601f01602080910402602001604051908101604052809291908181526020018280546107cb90612286565b80156108185780601f106107ed57610100808354040283529160200191610818565b820191906000526020600020905b8154815290600101906020018083116107fb57829003601f168201915b50505050509050919050565b6040517f08c379a000000000000000000000000000000000000000000000000000000000815260040161085690612303565b60405180910390fd5b3373ffffffffffffffffffffffffffffffffffffffff166008600083815260200190815260200160002060009054906101000a900473ffffffffffffffffffffffffffffffffffffffff1673ffffffffffffffffffffffffffffffffffffffff1614806109155750600660003373ffffffffffffffffffffffffffffffffffffffff1673ffffffffffffffffffffffffffffffffffffffff16815260200190815260200160002060009054906101000a900460ff165b610954576040517f08c379a000000000000000000000000000000000000000000000000000000000815260040161094b90612427565b60405180910390fd5b6008600082815260200190815260200160002060006101000a81549073ffffffffffffffffffffffffffffffffffffffff0219169055600a600082815260200190815260200160002060006109a99190611aa0565b600c600082815260200190815260200160002060009055600b600082815260200190815260200160002060006109df9190611aa0565b6009600082815260200190815260200160002060006101000a81549073ffffffffffffffffffffffffffffffffffffffff0219169055803373ffffffffffffffffffffffffffffffffffffffff167fcc16f5dbb4873280815c1ee09dbd06736cffcc184412cf7a71a0fdb75d397ca560405160405180910390a350565b600080610a68836110d7565b9050600073ffffffffffffffffffffffffffffffffffffffff168173ffffffffffffffffffffffffffffffffffffffff1603610ad9576040517f08c379a0000000000000000000000000000000000000000000000000000000008152600401610ad090612493565b60405180910390fd5b80915050919050565b60006009600083815260200190815260200160002060009054906101000a900473ffffffffffffffffffffffffffffffffffffffff169050919050565b60008073ffffffffffffffffffffffffffffffffffffffff168273ffffffffffffffffffffffffffffffffffffffff1603610b8f576040517f08c379a0000000000000000000000000000000000000000000000000000000008152600401610b8690612525565b60405180910390fd5b600360008373ffffffffffffffffffffffffffffffffffffffff1673ffffffffffffffffffffffffffffffffffffffff168152602001908152602001600020549050919050565b3360086000600d54815260200190815260200160002060006101000a81548173ffffffffffffffffffffffffffffffffffffffff021916908373ffffffffffffffffffffffffffffffffffffffff1602179055508360096000600d54815260200190815260200160002060006101000a81548173ffffffffffffffffffffffffffffffffffffffff021916908373ffffffffffffffffffffffffffffffffffffffff16021790555082600a6000600d5481526020019081526020016000209081610ca091906126f1565b5081600c6000600d5481526020019081526020016000208190555080600b6000600d5481526020019081526020016000209081610cdd91906126f1565b50600d6000815480929190610cf1906127f2565b9190505550600d543373ffffffffffffffffffffffffffffffffffffffff167f0f6798a560793a54c3bcfe86a93cde1e73087d944c0ea20544137d412139688560405160405180910390a350505050565b606060018054610d5190612286565b80601f0160208091040260200160405190810160405280929190818152602001828054610d7d90612286565b8015610dca5780601f10610d9f57610100808354040283529160200191610dca565b820191906000526020600020905b815481529060010190602001808311610dad57829003601f168201915b5050505050905090565b6040517f08c379a0000000000000000000000000000000000000000000000000000000008152600401610e0690612303565b60405180910390fd5b610e20610e1a611114565b8361111c565b610e5f576040517f08c379a0000000000000000000000000000000000000000000000000000000008152600401610e56906128ac565b60405180910390fd5b610e6b848484846111b1565b50505050565b6060610e7c8261120d565b6000610e86611258565b90506000815111610ea65760405180602001604052806000815250610ed1565b80610eb08461126f565b604051602001610ec1929190612908565b6040516020818303038152906040525b915050919050565b6060600b60008381526020019081526020016000208054610ef990612286565b80601f0160208091040260200160405190810160405280929190818152602001828054610f2590612286565b8015610f725780601f10610f4757610100808354040283529160200191610f72565b820191906000526020600020905b815481529060010190602001808311610f5557829003601f168201915b50505050509050919050565b600760003373ffffffffffffffffffffffffffffffffffffffff1673ffffffffffffffffffffffffffffffffffffffff16815260200190815260200160002060009054906101000a900460ff1661100a576040517f08c379a00000000000000000000000000000000000000000000000000000000081526004016110019061299e565b60405180910390fd5b80600760008473ffffffffffffffffffffffffffffffffffffffff1673ffffffffffffffffffffffffffffffffffffffff16815260200190815260200160002060006101000a81548160ff0219169083151502179055505050565b600092915050565b60007f01ffc9a7000000000000000000000000000000000000000000000000000000007bffffffffffffffffffffffffffffffffffffffffffffffffffffffff1916827bffffffffffffffffffffffffffffffffffffffffffffffffffffffff1916149050919050565b60006002600083815260200190815260200160002060009054906101000a900473ffffffffffffffffffffffffffffffffffffffff169050919050565b600033905090565b60008061112883610a5c565b90508073ffffffffffffffffffffffffffffffffffffffff168473ffffffffffffffffffffffffffffffffffffffff16148061116a57506111698185611065565b5b806111a857508373ffffffffffffffffffffffffffffffffffffffff16611190846105c8565b73ffffffffffffffffffffffffffffffffffffffff16145b91505092915050565b6111bc84848461133d565b6111c884848484611636565b611207576040517f08c379a00000000000000000000000000000000000000000000000000000000081526004016111fe90612a30565b60405180910390fd5b50505050565b611216816117bd565b611255576040517f08c379a000000000000000000000000000000000000000000000000000000000815260040161124c90612493565b60405180910390fd5b50565b606060405180602001604052806000815250905090565b60606000600161127e846117fe565b01905060008167ffffffffffffffff81111561129d5761129c611efd565b5b6040519080825280601f01601f1916602001820160405280156112cf5781602001600182028036833780820191505090505b509050600082602001820190505b600115611332578080600190039150507f3031323334353637383961626364656600000000000000000000000000000000600a86061a8153600a858161132657611325612a50565b5b049450600085036112dd575b819350505050919050565b8273ffffffffffffffffffffffffffffffffffffffff1661135d82610a5c565b73ffffffffffffffffffffffffffffffffffffffff16146113b3576040517f08c379a00000000000000000000000000000000000000000000000000000000081526004016113aa90612af1565b60405180910390fd5b600073ffffffffffffffffffffffffffffffffffffffff168273ffffffffffffffffffffffffffffffffffffffff1603611422576040517f08c379a000000000000000000000000000000000000000000000000000000000815260040161141990612b83565b60405180910390fd5b61142f8383836001611951565b8273ffffffffffffffffffffffffffffffffffffffff1661144f82610a5c565b73ffffffffffffffffffffffffffffffffffffffff16146114a5576040517f08c379a000000000000000000000000000000000000000000000000000000000815260040161149c90612af1565b60405180910390fd5b6004600082815260200190815260200160002060006101000a81549073ffffffffffffffffffffffffffffffffffffffff02191690556001600360008573ffffffffffffffffffffffffffffffffffffffff1673ffffffffffffffffffffffffffffffffffffffff168152602001908152602001600020600082825403925050819055506001600360008473ffffffffffffffffffffffffffffffffffffffff1673ffffffffffffffffffffffffffffffffffffffff16815260200190815260200160002060008282540192505081905550816002600083815260200190815260200160002060006101000a81548173ffffffffffffffffffffffffffffffffffffffff021916908373ffffffffffffffffffffffffffffffffffffffff160217905550808273ffffffffffffffffffffffffffffffffffffffff168473ffffffffffffffffffffffffffffffffffffffff167fddf252ad1be2c89b69c2b068fc378daa952ba7f163c4a11628f55a4df523b3ef60405160405180910390a46116318383836001611a77565b505050565b60006116578473ffffffffffffffffffffffffffffffffffffffff16611a7d565b156117b0578373ffffffffffffffffffffffffffffffffffffffff1663150b7a02611680611114565b8786866040518563ffffffff1660e01b81526004016116a29493929190612bf8565b6020604051808303816000875af19250505080156116de57506040513d601f19601f820116820180604052508101906116db9190612c59565b60015b611760573d806000811461170e576040519150601f19603f3d011682016040523d82523d6000602084013e611713565b606091505b506000815103611758576040517f08c379a000000000000000000000000000000000000000000000000000000000815260040161174f90612a30565b60405180910390fd5b805181602001fd5b63150b7a0260e01b7bffffffffffffffffffffffffffffffffffffffffffffffffffffffff1916817bffffffffffffffffffffffffffffffffffffffffffffffffffffffff1916149150506117b5565b600190505b949350505050565b60008073ffffffffffffffffffffffffffffffffffffffff166117df836110d7565b73ffffffffffffffffffffffffffffffffffffffff1614159050919050565b600080600090507a184f03e93ff9f4daa797ed6e38ed64bf6a1f010000000000000000831061185c577a184f03e93ff9f4daa797ed6e38ed64bf6a1f010000000000000000838161185257611851612a50565b5b0492506040810190505b6d04ee2d6d415b85acef81000000008310611899576d04ee2d6d415b85acef8100000000838161188f5761188e612a50565b5b0492506020810190505b662386f26fc1000083106118c857662386f26fc1000083816118be576118bd612a50565b5b0492506010810190505b6305f5e10083106118f1576305f5e10083816118e7576118e6612a50565b5b0492506008810190505b612710831061191657612710838161190c5761190b612a50565b5b0492506004810190505b60648310611939576064838161192f5761192e612a50565b5b0492506002810190505b600a8310611948576001810190505b80915050919050565b6001811115611a7157600073ffffffffffffffffffffffffffffffffffffffff168473ffffffffffffffffffffffffffffffffffffffff16146119e55780600360008673ffffffffffffffffffffffffffffffffffffffff1673ffffffffffffffffffffffffffffffffffffffff16815260200190815260200160002060008282546119dd9190612c86565b925050819055505b600073ffffffffffffffffffffffffffffffffffffffff168373ffffffffffffffffffffffffffffffffffffffff1614611a705780600360008573ffffffffffffffffffffffffffffffffffffffff1673ffffffffffffffffffffffffffffffffffffffff1681526020019081526020016000206000828254611a689190612cba565b925050819055505b5b50505050565b50505050565b6000808273ffffffffffffffffffffffffffffffffffffffff163b119050919050565b508054611aac90612286565b6000825580601f10611abe5750611add565b601f016020900490600052602060002090810190611adc9190611ae0565b5b50565b5b80821115611af9576000816000905550600101611ae1565b5090565b6000604051905090565b600080fd5b600080fd5b60007fffffffff0000000000000000000000000000000000000000000000000000000082169050919050565b611b4681611b11565b8114611b5157600080fd5b50565b600081359050611b6381611b3d565b92915050565b600060208284031215611b7f57611b7e611b07565b5b6000611b8d84828501611b54565b91505092915050565b60008115159050919050565b611bab81611b96565b82525050565b6000602082019050611bc66000830184611ba2565b92915050565b600081519050919050565b600082825260208201905092915050565b60005b83811015611c06578082015181840152602081019050611beb565b60008484015250505050565b6000601f19601f8301169050919050565b6000611c2e82611bcc565b611c388185611bd7565b9350611c48818560208601611be8565b611c5181611c12565b840191505092915050565b60006020820190508181036000830152611c768184611c23565b905092915050565b6000819050919050565b611c9181611c7e565b8114611c9c57600080fd5b50565b600081359050611cae81611c88565b92915050565b600060208284031215611cca57611cc9611b07565b5b6000611cd884828501611c9f565b91505092915050565b600073ffffffffffffffffffffffffffffffffffffffff82169050919050565b6000611d0c82611ce1565b9050919050565b611d1c81611d01565b82525050565b6000602082019050611d376000830184611d13565b92915050565b611d4681611d01565b8114611d5157600080fd5b50565b600081359050611d6381611d3d565b92915050565b60008060408385031215611d8057611d7f611b07565b5b6000611d8e85828601611d54565b9250506020611d9f85828601611c9f565b9150509250929050565b6000819050919050565b611dbc81611da9565b82525050565b6000602082019050611dd76000830184611db3565b92915050565b611de681611b96565b8114611df157600080fd5b50565b600081359050611e0381611ddd565b92915050565b60008060408385031215611e2057611e1f611b07565b5b6000611e2e85828601611d54565b9250506020611e3f85828601611df4565b9150509250929050565b600080600060608486031215611e6257611e61611b07565b5b6000611e7086828701611d54565b9350506020611e8186828701611d54565b9250506040611e9286828701611c9f565b9150509250925092565b600060208284031215611eb257611eb1611b07565b5b6000611ec084828501611d54565b91505092915050565b611ed281611c7e565b82525050565b6000602082019050611eed6000830184611ec9565b92915050565b600080fd5b600080fd5b7f4e487b7100000000000000000000000000000000000000000000000000000000600052604160045260246000fd5b611f3582611c12565b810181811067ffffffffffffffff82111715611f5457611f53611efd565b5b80604052505050565b6000611f67611afd565b9050611f738282611f2c565b919050565b600067ffffffffffffffff821115611f9357611f92611efd565b5b611f9c82611c12565b9050602081019050919050565b82818337600083830152505050565b6000611fcb611fc684611f78565b611f5d565b905082815260208101848484011115611fe757611fe6611ef8565b5b611ff2848285611fa9565b509392505050565b600082601f83011261200f5761200e611ef3565b5b813561201f848260208601611fb8565b91505092915050565b61203181611da9565b811461203c57600080fd5b50565b60008135905061204e81612028565b92915050565b6000806000806080858703121561206e5761206d611b07565b5b600061207c87828801611d54565b945050602085013567ffffffffffffffff81111561209d5761209c611b0c565b5b6120a987828801611ffa565b93505060406120ba8782880161203f565b925050606085013567ffffffffffffffff8111156120db576120da611b0c565b5b6120e787828801611ffa565b91505092959194509250565b600067ffffffffffffffff82111561210e5761210d611efd565b5b61211782611c12565b9050602081019050919050565b6000612137612132846120f3565b611f5d565b90508281526020810184848401111561215357612152611ef8565b5b61215e848285611fa9565b509392505050565b600082601f83011261217b5761217a611ef3565b5b813561218b848260208601612124565b91505092915050565b600080600080608085870312156121ae576121ad611b07565b5b60006121bc87828801611d54565b94505060206121cd87828801611d54565b93505060406121de87828801611c9f565b925050606085013567ffffffffffffffff8111156121ff576121fe611b0c565b5b61220b87828801612166565b91505092959194509250565b6000806040838503121561222e5761222d611b07565b5b600061223c85828601611d54565b925050602061224d85828601611d54565b9150509250929050565b7f4e487b7100000000000000000000000000000000000000000000000000000000600052602260045260246000fd5b6000600282049050600182168061229e57607f821691505b6020821081036122b1576122b0612257565b5b50919050565b7f4e6f206f6e652063616e207472616e73666572207468697320746f6b656e0000600082015250565b60006122ed601e83611bd7565b91506122f8826122b7565b602082019050919050565b6000602082019050818103600083015261231c816122e0565b9050919050565b7f596f7520617265206e6f7420616c6c6f77656420746f2065646974206275726e60008201527f6572730000000000000000000000000000000000000000000000000000000000602082015250565b600061237f602383611bd7565b915061238a82612323565b604082019050919050565b600060208201905081810360008301526123ae81612372565b9050919050565b7f596f7520617265206e6f7420616c6c6f77656420746f206275726e207468697360008201527f20746f6b656e0000000000000000000000000000000000000000000000000000602082015250565b6000612411602683611bd7565b915061241c826123b5565b604082019050919050565b6000602082019050818103600083015261244081612404565b9050919050565b7f4552433732313a20696e76616c696420746f6b656e2049440000000000000000600082015250565b600061247d601883611bd7565b915061248882612447565b602082019050919050565b600060208201905081810360008301526124ac81612470565b9050919050565b7f4552433732313a2061646472657373207a65726f206973206e6f74206120766160008201527f6c6964206f776e65720000000000000000000000000000000000000000000000602082015250565b600061250f602983611bd7565b915061251a826124b3565b604082019050919050565b6000602082019050818103600083015261253e81612502565b9050919050565b60008190508160005260206000209050919050565b60006020601f8301049050919050565b600082821b905092915050565b6000600883026125a77fffffffffffffffffffffffffffffffffffffffffffffffffffffffffffffffff8261256a565b6125b1868361256a565b95508019841693508086168417925050509392505050565b6000819050919050565b60006125ee6125e96125e484611c7e565b6125c9565b611c7e565b9050919050565b6000819050919050565b612608836125d3565b61261c612614826125f5565b848454612577565b825550505050565b600090565b612631612624565b61263c8184846125ff565b505050565b5b8181101561266057612655600082612629565b600181019050612642565b5050565b601f8211156126a55761267681612545565b61267f8461255a565b8101602085101561268e578190505b6126a261269a8561255a565b830182612641565b50505b505050565b600082821c905092915050565b60006126c8600019846008026126aa565b1980831691505092915050565b60006126e183836126b7565b9150826002028217905092915050565b6126fa82611bcc565b67ffffffffffffffff81111561271357612712611efd565b5b61271d8254612286565b612728828285612664565b600060209050601f83116001811461275b5760008415612749578287015190505b61275385826126d5565b8655506127bb565b601f19841661276986612545565b60005b828110156127915784890151825560018201915060208501945060208101905061276c565b868310156127ae57848901516127aa601f8916826126b7565b8355505b6001600288020188555050505b505050505050565b7f4e487b7100000000000000000000000000000000000000000000000000000000600052601160045260246000fd5b60006127fd82611c7e565b91507fffffffffffffffffffffffffffffffffffffffffffffffffffffffffffffffff820361282f5761282e6127c3565b5b600182019050919050565b7f4552433732313a2063616c6c6572206973206e6f7420746f6b656e206f776e6560008201527f72206f7220617070726f76656400000000000000000000000000000000000000602082015250565b6000612896602d83611bd7565b91506128a18261283a565b604082019050919050565b600060208201905081810360008301526128c581612889565b9050919050565b600081905092915050565b60006128e282611bcc565b6128ec81856128cc565b93506128fc818560208601611be8565b80840191505092915050565b600061291482856128d7565b915061292082846128d7565b91508190509392505050565b7f596f7520617265206e6f7420616c6c6f77656420746f20656469742061646d6960008201527f6e73000000000000000000000000000000000000000000000000000000000000602082015250565b6000612988602283611bd7565b91506129938261292c565b604082019050919050565b600060208201905081810360008301526129b78161297b565b9050919050565b7f4552433732313a207472616e7366657220746f206e6f6e20455243373231526560008201527f63656976657220696d706c656d656e7465720000000000000000000000000000602082015250565b6000612a1a603283611bd7565b9150612a25826129be565b604082019050919050565b60006020820190508181036000830152612a4981612a0d565b9050919050565b7f4e487b7100000000000000000000000000000000000000000000000000000000600052601260045260246000fd5b7f4552433732313a207472616e736665722066726f6d20696e636f72726563742060008201527f6f776e6572000000000000000000000000000000000000000000000000000000602082015250565b6000612adb602583611bd7565b9150612ae682612a7f565b604082019050919050565b60006020820190508181036000830152612b0a81612ace565b9050919050565b7f4552433732313a207472616e7366657220746f20746865207a65726f2061646460008201527f7265737300000000000000000000000000000000000000000000000000000000602082015250565b6000612b6d602483611bd7565b9150612b7882612b11565b604082019050919050565b60006020820190508181036000830152612b9c81612b60565b9050919050565b600081519050919050565b600082825260208201905092915050565b6000612bca82612ba3565b612bd48185612bae565b9350612be4818560208601611be8565b612bed81611c12565b840191505092915050565b6000608082019050612c0d6000830187611d13565b612c1a6020830186611d13565b612c276040830185611ec9565b8181036060830152612c398184612bbf565b905095945050505050565b600081519050612c5381611b3d565b92915050565b600060208284031215612c6f57612c6e611b07565b5b6000612c7d84828501612c44565b91505092915050565b6000612c9182611c7e565b9150612c9c83611c7e565b9250828203905081811115612cb457612cb36127c3565b5b92915050565b6000612cc582611c7e565b9150612cd083611c7e565b9250828201905080821115612ce857612ce76127c3565b5b9291505056fea26469706673582212200a718f843a3b7ba40aeb202bb51041b8393e7f16876d68fe6a4490fd533b203664736f6c63430008110033",
  "immutableReferences": {},
  "source": "//license: MIT\r\n\r\npragma solidity ^0.8.17;\r\n\r\nimport \"@openzeppelin/contracts/token/ERC721/ERC721.sol\";\r\n\r\ncontract temp_sbt is ERC721 {\r\n\r\n    mapping (address => bool) private _isBurner; // list of addresses that can burn sbt even if they are not the owner\r\n    mapping (address => bool) private _isAdmin; // admin can add and delete admins, set and unset minters and burners\r\n\r\n    mapping (uint256 => address) private _owner; // link the sbt to a certain owner\r\n    mapping (uint256 => address) private _token; // link the sbt to a certain token\r\n\r\n    mapping (uint256 => string) private _tokenURI; // uri where we can get the addresses used to generate the proof\r\n    mapping (uint256 => string) private _zkProof; // zk proof generated in the frontend (not verified yet)\r\n\r\n    mapping (uint256 => bytes32) private _merkleRoot; // merkle root of the addresses (to ensure that the addresses have not been modified)\r\n\r\n\r\n    uint256 private _tokenId;\r\n    string private _name;\r\n    string private _symbol;\r\n\r\n    event Mint(address indexed owner, uint256 indexed tokenId);\r\n    event Burn(address indexed owner, uint256 indexed tokenId);\r\n\r\n    constructor(string memory name_, string memory symbol_, address verifier_) ERC721(name_, symbol_){\r\n        _tokenId = 0;\r\n        _name = name_;\r\n        _symbol = symbol_;\r\n        _isBurner[verifier_] = true;\r\n        _isAdmin[msg.sender] = true;\r\n        _isBurner[msg.sender] = true;\r\n    }\r\n\r\n    function safeTransferFrom(address from, address to, uint256 tokenId) public pure override {\r\n        revert(\"No one can transfer this token\");\r\n    }\r\n    function transferFrom(address from, address to, uint256 tokenId) public pure override {\r\n        revert(\"No one can transfer this token\");\r\n    }\r\n    function approve(address to, uint256 tokenId) public pure override {\r\n        revert(\"No one can transfer this token\");\r\n    }\r\n    function getApproved(uint256 tokenId) public view override returns (address operator) {\r\n        revert(\"No one can transfer this token\");\r\n        return address(0);\r\n    }\r\n    function setApprovalForAll(address operator, bool _approved) public pure override {\r\n        revert(\"No one can transfer this token\");\r\n    }\r\n    function isApprovedForAll(address owner, address operator) public view override returns (bool) {\r\n        return false;\r\n    }\r\n\r\n    // mint and burn sbt\r\n    function mint(address token, string memory tokenURI, bytes32 merkleRoot, string memory zkProof) public {\r\n        _owner[_tokenId] = msg.sender;\r\n        _token[_tokenId] = token;\r\n        _tokenURI[_tokenId] = tokenURI;\r\n        _merkleRoot[_tokenId] = merkleRoot;\r\n        _zkProof[_tokenId] = zkProof;\r\n        _tokenId++;\r\n\r\n        emit Mint(msg.sender, _tokenId);\r\n    }\r\n\r\n    function burn(uint256 tokenId) public {\r\n        require(_owner[tokenId] == msg.sender || _isBurner[msg.sender], \"You are not allowed to burn this token\");\r\n        delete _owner[tokenId];\r\n        delete _tokenURI[tokenId];\r\n        delete _merkleRoot[tokenId];\r\n        delete _zkProof[tokenId];\r\n        delete _token[tokenId];\r\n\r\n        emit Burn(msg.sender, tokenId);\r\n    }\r\n\r\n    // get sbt data    \r\n    function getMerkleRoot(uint256 tokenId) public view returns (bytes32) {\r\n        return _merkleRoot[tokenId];\r\n    }\r\n    function getZkProof(uint256 tokenId) public view returns (string memory) {\r\n        return _zkProof[tokenId];\r\n    }\r\n    function getTokenURI(uint256 tokenId) public view returns (string memory) {\r\n        return _tokenURI[tokenId];\r\n    }\r\n    function getTokenAddress(uint256 tokenId) public view returns (address) {\r\n        return _token[tokenId];\r\n    }\r\n\r\n    // admin functions\r\n    function editAdmin(address admin, bool isAdmin) public {\r\n        require(_isAdmin[msg.sender], \"You are not allowed to edit admins\");\r\n        _isAdmin[admin] = isAdmin;\r\n    }\r\n    function editBurner(address burner, bool isBurner) public {\r\n        require(_isAdmin[msg.sender], \"You are not allowed to edit burners\");\r\n        _isBurner[burner] = isBurner;\r\n    }\r\n\r\n}",
  "sourcePath": "C:\\Users\\hervi\\Documents\\Blockchain Projects\\ETHDenver2023\\Smart-contract\\truffle\\contracts\\solvancy-sbt.sol",
  "compiler": {
    "name": "solc",
    "version": "0.8.17+commit.8df45f5f.Emscripten.clang"
  },
  "schemaVersion": "3.4.12",
  "updatedAt": "2023-02-25T22:35:32.775Z",
  "devdoc": {
    "kind": "dev",
    "methods": {
      "approve(address,uint256)": {
        "details": "See {IERC721-approve}."
      },
      "balanceOf(address)": {
        "details": "See {IERC721-balanceOf}."
      },
      "getApproved(uint256)": {
        "details": "See {IERC721-getApproved}."
      },
      "isApprovedForAll(address,address)": {
        "details": "See {IERC721-isApprovedForAll}."
      },
      "name()": {
        "details": "See {IERC721Metadata-name}."
      },
      "ownerOf(uint256)": {
        "details": "See {IERC721-ownerOf}."
      },
      "safeTransferFrom(address,address,uint256)": {
        "details": "See {IERC721-safeTransferFrom}."
      },
      "safeTransferFrom(address,address,uint256,bytes)": {
        "details": "See {IERC721-safeTransferFrom}."
      },
      "supportsInterface(bytes4)": {
        "details": "See {IERC165-supportsInterface}."
      },
      "symbol()": {
        "details": "See {IERC721Metadata-symbol}."
      },
      "tokenURI(uint256)": {
        "details": "See {IERC721Metadata-tokenURI}."
      },
      "transferFrom(address,address,uint256)": {
        "details": "See {IERC721-transferFrom}."
      }
    },
    "version": 1
  },
  "userdoc": {
    "kind": "user",
    "methods": {},
    "version": 1
  }
}