{
  "contractName": "verified_sbt",
  "abi": [
    {
      "inputs": [
        {
          "internalType": "string",
          "name": "name_",
          "type": "string"
        },
        {
          "internalType": "string",
          "name": "symbol_",
          "type": "string"
        },
        {
          "internalType": "address",
          "name": "verifier_",
          "type": "address"
        }
      ],
      "stateMutability": "nonpayable",
      "type": "constructor"
    },
    {
      "anonymous": false,
      "inputs": [
        {
          "indexed": true,
          "internalType": "address",
          "name": "owner",
          "type": "address"
        },
        {
          "indexed": true,
          "internalType": "address",
          "name": "approved",
          "type": "address"
        },
        {
          "indexed": true,
          "internalType": "uint256",
          "name": "tokenId",
          "type": "uint256"
        }
      ],
      "name": "Approval",
      "type": "event"
    },
    {
      "anonymous": false,
      "inputs": [
        {
          "indexed": true,
          "internalType": "address",
          "name": "owner",
          "type": "address"
        },
        {
          "indexed": true,
          "internalType": "address",
          "name": "operator",
          "type": "address"
        },
        {
          "indexed": false,
          "internalType": "bool",
          "name": "approved",
          "type": "bool"
        }
      ],
      "name": "ApprovalForAll",
      "type": "event"
    },
    {
      "anonymous": false,
      "inputs": [
        {
          "indexed": true,
          "internalType": "address",
          "name": "owner",
          "type": "address"
        },
        {
          "indexed": true,
          "internalType": "uint256",
          "name": "tokenId",
          "type": "uint256"
        }
      ],
      "name": "Burn",
      "type": "event"
    },
    {
      "anonymous": false,
      "inputs": [
        {
          "indexed": true,
          "internalType": "address",
          "name": "owner",
          "type": "address"
        },
        {
          "indexed": true,
          "internalType": "uint256",
          "name": "tokenId",
          "type": "uint256"
        }
      ],
      "name": "Mint",
      "type": "event"
    },
    {
      "anonymous": false,
      "inputs": [
        {
          "indexed": true,
          "internalType": "address",
          "name": "from",
          "type": "address"
        },
        {
          "indexed": true,
          "internalType": "address",
          "name": "to",
          "type": "address"
        },
        {
          "indexed": true,
          "internalType": "uint256",
          "name": "tokenId",
          "type": "uint256"
        }
      ],
      "name": "Transfer",
      "type": "event"
    },
    {
      "inputs": [
        {
          "internalType": "address",
          "name": "owner",
          "type": "address"
        }
      ],
      "name": "balanceOf",
      "outputs": [
        {
          "internalType": "uint256",
          "name": "",
          "type": "uint256"
        }
      ],
      "stateMutability": "view",
      "type": "function"
    },
    {
      "inputs": [],
      "name": "name",
      "outputs": [
        {
          "internalType": "string",
          "name": "",
          "type": "string"
        }
      ],
      "stateMutability": "view",
      "type": "function"
    },
    {
      "inputs": [
        {
          "internalType": "uint256",
          "name": "tokenId",
          "type": "uint256"
        }
      ],
      "name": "ownerOf",
      "outputs": [
        {
          "internalType": "address",
          "name": "",
          "type": "address"
        }
      ],
      "stateMutability": "view",
      "type": "function"
    },
    {
      "inputs": [
        {
          "internalType": "bytes4",
          "name": "interfaceId",
          "type": "bytes4"
        }
      ],
      "name": "supportsInterface",
      "outputs": [
        {
          "internalType": "bool",
          "name": "",
          "type": "bool"
        }
      ],
      "stateMutability": "view",
      "type": "function"
    },
    {
      "inputs": [],
      "name": "symbol",
      "outputs": [
        {
          "internalType": "string",
          "name": "",
          "type": "string"
        }
      ],
      "stateMutability": "view",
      "type": "function"
    },
    {
      "inputs": [
        {
          "internalType": "uint256",
          "name": "tokenId",
          "type": "uint256"
        }
      ],
      "name": "tokenURI",
      "outputs": [
        {
          "internalType": "string",
          "name": "",
          "type": "string"
        }
      ],
      "stateMutability": "view",
      "type": "function"
    },
    {
      "inputs": [
        {
          "internalType": "address",
          "name": "from",
          "type": "address"
        },
        {
          "internalType": "address",
          "name": "to",
          "type": "address"
        },
        {
          "internalType": "uint256",
          "name": "tokenId",
          "type": "uint256"
        }
      ],
      "name": "safeTransferFrom",
      "outputs": [],
      "stateMutability": "pure",
      "type": "function"
    },
    {
      "inputs": [
        {
          "internalType": "address",
          "name": "from",
          "type": "address"
        },
        {
          "internalType": "address",
          "name": "to",
          "type": "address"
        },
        {
          "internalType": "uint256",
          "name": "tokenId",
          "type": "uint256"
        },
        {
          "internalType": "bytes",
          "name": "data",
          "type": "bytes"
        }
      ],
      "name": "safeTransferFrom",
      "outputs": [],
      "stateMutability": "nonpayable",
      "type": "function"
    },
    {
      "inputs": [
        {
          "internalType": "address",
          "name": "from",
          "type": "address"
        },
        {
          "internalType": "address",
          "name": "to",
          "type": "address"
        },
        {
          "internalType": "uint256",
          "name": "tokenId",
          "type": "uint256"
        }
      ],
      "name": "transferFrom",
      "outputs": [],
      "stateMutability": "pure",
      "type": "function"
    },
    {
      "inputs": [
        {
          "internalType": "address",
          "name": "to",
          "type": "address"
        },
        {
          "internalType": "uint256",
          "name": "tokenId",
          "type": "uint256"
        }
      ],
      "name": "approve",
      "outputs": [],
      "stateMutability": "pure",
      "type": "function"
    },
    {
      "inputs": [
        {
          "internalType": "uint256",
          "name": "tokenId",
          "type": "uint256"
        }
      ],
      "name": "getApproved",
      "outputs": [
        {
          "internalType": "address",
          "name": "operator",
          "type": "address"
        }
      ],
      "stateMutability": "view",
      "type": "function"
    },
    {
      "inputs": [
        {
          "internalType": "address",
          "name": "operator",
          "type": "address"
        },
        {
          "internalType": "bool",
          "name": "_approved",
          "type": "bool"
        }
      ],
      "name": "setApprovalForAll",
      "outputs": [],
      "stateMutability": "pure",
      "type": "function"
    },
    {
      "inputs": [
        {
          "internalType": "address",
          "name": "owner",
          "type": "address"
        },
        {
          "internalType": "address",
          "name": "operator",
          "type": "address"
        }
      ],
      "name": "isApprovedForAll",
      "outputs": [
        {
          "internalType": "bool",
          "name": "",
          "type": "bool"
        }
      ],
      "stateMutability": "view",
      "type": "function"
    },
    {
      "inputs": [
        {
          "internalType": "address",
          "name": "receiver",
          "type": "address"
        },
        {
          "internalType": "address",
          "name": "token",
          "type": "address"
        },
        {
          "internalType": "string",
          "name": "tokenURI",
          "type": "string"
        },
        {
          "internalType": "bytes32",
          "name": "merkleRoot",
          "type": "bytes32"
        },
        {
          "internalType": "uint256",
          "name": "signature",
          "type": "uint256"
        },
        {
          "internalType": "string",
          "name": "verifier",
          "type": "string"
        }
      ],
      "name": "mint",
      "outputs": [],
      "stateMutability": "nonpayable",
      "type": "function"
    },
    {
      "inputs": [
        {
          "internalType": "uint256",
          "name": "tokenId",
          "type": "uint256"
        }
      ],
      "name": "burn",
      "outputs": [],
      "stateMutability": "nonpayable",
      "type": "function"
    },
    {
      "inputs": [
        {
          "internalType": "uint256",
          "name": "tokenId",
          "type": "uint256"
        }
      ],
      "name": "getMerkleRoot",
      "outputs": [
        {
          "internalType": "bytes32",
          "name": "",
          "type": "bytes32"
        }
      ],
      "stateMutability": "view",
      "type": "function"
    },
    {
      "inputs": [
        {
          "internalType": "uint256",
          "name": "tokenId",
          "type": "uint256"
        }
      ],
      "name": "getSignature",
      "outputs": [
        {
          "internalType": "uint256",
          "name": "",
          "type": "uint256"
        }
      ],
      "stateMutability": "view",
      "type": "function"
    },
    {
      "inputs": [
        {
          "internalType": "uint256",
          "name": "tokenId",
          "type": "uint256"
        }
      ],
      "name": "getTokenURI",
      "outputs": [
        {
          "internalType": "string",
          "name": "",
          "type": "string"
        }
      ],
      "stateMutability": "view",
      "type": "function"
    },
    {
      "inputs": [
        {
          "internalType": "uint256",
          "name": "tokenId",
          "type": "uint256"
        }
      ],
      "name": "getTimestamp",
      "outputs": [
        {
          "internalType": "uint256",
          "name": "",
          "type": "uint256"
        }
      ],
      "stateMutability": "view",
      "type": "function"
    },
    {
      "inputs": [
        {
          "internalType": "uint256",
          "name": "tokenId",
          "type": "uint256"
        }
      ],
      "name": "getTokenAddress",
      "outputs": [
        {
          "internalType": "address",
          "name": "",
          "type": "address"
        }
      ],
      "stateMutability": "view",
      "type": "function"
    },
    {
      "inputs": [
        {
          "internalType": "address",
          "name": "admin",
          "type": "address"
        },
        {
          "internalType": "bool",
          "name": "isAdmin",
          "type": "bool"
        }
      ],
      "name": "editAdmin",
      "outputs": [],
      "stateMutability": "nonpayable",
      "type": "function"
    },
    {
      "inputs": [
        {
          "internalType": "address",
          "name": "minter",
          "type": "address"
        },
        {
          "internalType": "bool",
          "name": "isMinter",
          "type": "bool"
        }
      ],
      "name": "editMinter",
      "outputs": [],
      "stateMutability": "nonpayable",
      "type": "function"
    },
    {
      "inputs": [
        {
          "internalType": "address",
          "name": "burner",
          "type": "address"
        },
        {
          "internalType": "bool",
          "name": "isBurner",
          "type": "bool"
        }
      ],
      "name": "editBurner",
      "outputs": [],
      "stateMutability": "nonpayable",
      "type": "function"
    }
  ],
  "bytecode": "0x60806040523480156200001157600080fd5b50604051620036cd380380620036cd833981810160405281019062000037919062000444565b828281600090816200004a919062000729565b5080600190816200005c919062000729565b5050506000601081905550826011908162000078919062000729565b5081601290816200008a919062000729565b506001600660008373ffffffffffffffffffffffffffffffffffffffff1673ffffffffffffffffffffffffffffffffffffffff16815260200190815260200160002060006101000a81548160ff0219169083151502179055506001600760008373ffffffffffffffffffffffffffffffffffffffff1673ffffffffffffffffffffffffffffffffffffffff16815260200190815260200160002060006101000a81548160ff0219169083151502179055506001600860003373ffffffffffffffffffffffffffffffffffffffff1673ffffffffffffffffffffffffffffffffffffffff16815260200190815260200160002060006101000a81548160ff0219169083151502179055506001600760003373ffffffffffffffffffffffffffffffffffffffff1673ffffffffffffffffffffffffffffffffffffffff16815260200190815260200160002060006101000a81548160ff0219169083151502179055506001600660003373ffffffffffffffffffffffffffffffffffffffff1673ffffffffffffffffffffffffffffffffffffffff16815260200190815260200160002060006101000a81548160ff02191690831515021790555050505062000810565b6000604051905090565b600080fd5b600080fd5b600080fd5b600080fd5b6000601f19601f8301169050919050565b7f4e487b7100000000000000000000000000000000000000000000000000000000600052604160045260246000fd5b620002b5826200026a565b810181811067ffffffffffffffff82111715620002d757620002d66200027b565b5b80604052505050565b6000620002ec6200024c565b9050620002fa8282620002aa565b919050565b600067ffffffffffffffff8211156200031d576200031c6200027b565b5b62000328826200026a565b9050602081019050919050565b60005b838110156200035557808201518184015260208101905062000338565b60008484015250505050565b6000620003786200037284620002ff565b620002e0565b90508281526020810184848401111562000397576200039662000265565b5b620003a484828562000335565b509392505050565b600082601f830112620003c457620003c362000260565b5b8151620003d684826020860162000361565b91505092915050565b600073ffffffffffffffffffffffffffffffffffffffff82169050919050565b60006200040c82620003df565b9050919050565b6200041e81620003ff565b81146200042a57600080fd5b50565b6000815190506200043e8162000413565b92915050565b60008060006060848603121562000460576200045f62000256565b5b600084015167ffffffffffffffff8111156200048157620004806200025b565b5b6200048f86828701620003ac565b935050602084015167ffffffffffffffff811115620004b357620004b26200025b565b5b620004c186828701620003ac565b9250506040620004d4868287016200042d565b9150509250925092565b600081519050919050565b7f4e487b7100000000000000000000000000000000000000000000000000000000600052602260045260246000fd5b600060028204905060018216806200053157607f821691505b602082108103620005475762000546620004e9565b5b50919050565b60008190508160005260206000209050919050565b60006020601f8301049050919050565b600082821b905092915050565b600060088302620005b17fffffffffffffffffffffffffffffffffffffffffffffffffffffffffffffffff8262000572565b620005bd868362000572565b95508019841693508086168417925050509392505050565b6000819050919050565b6000819050919050565b60006200060a62000604620005fe84620005d5565b620005df565b620005d5565b9050919050565b6000819050919050565b6200062683620005e9565b6200063e620006358262000611565b8484546200057f565b825550505050565b600090565b6200065562000646565b620006628184846200061b565b505050565b5b818110156200068a576200067e6000826200064b565b60018101905062000668565b5050565b601f821115620006d957620006a3816200054d565b620006ae8462000562565b81016020851015620006be578190505b620006d6620006cd8562000562565b83018262000667565b50505b505050565b600082821c905092915050565b6000620006fe60001984600802620006de565b1980831691505092915050565b6000620007198383620006eb565b9150826002028217905092915050565b6200073482620004de565b67ffffffffffffffff81111562000750576200074f6200027b565b5b6200075c825462000518565b620007698282856200068e565b600060209050601f831160018114620007a157600084156200078c578287015190505b6200079885826200070b565b86555062000808565b601f198416620007b1866200054d565b60005b82811015620007db57848901518255600182019150602085019450602081019050620007b4565b86831015620007fb5784890151620007f7601f891682620006eb565b8355505b6001600288020188555050505b505050505050565b612ead80620008206000396000f3fe608060405234801561001057600080fd5b506004361061014d5760003560e01c80634f056c62116100c3578063b633620c1161007c578063b633620c146103d2578063b88d4fde14610402578063c44bef5d1461041e578063c87b56dd1461043a578063e25c8c711461046a578063e985e9c5146104865761014d565b80634f056c62146102ec5780636352211e1461030857806367ccdf381461033857806370a082311461036857806395d89b4114610398578063a22cb465146103b65761014d565b80630aab8ba5116101155780630aab8ba51461021c5780631bc4d8891461024c57806323b872dd146102685780633bb3a24d1461028457806342842e0e146102b457806342966c68146102d05761014d565b806301ffc9a71461015257806302a569e61461018257806306fdde03146101b2578063081812fc146101d0578063095ea7b314610200575b600080fd5b61016c60048036038101906101679190611d18565b6104b6565b6040516101799190611d60565b60405180910390f35b61019c60048036038101906101979190611db1565b610598565b6040516101a99190611ded565b60405180910390f35b6101ba6105b5565b6040516101c79190611e98565b60405180910390f35b6101ea60048036038101906101e59190611db1565b610647565b6040516101f79190611efb565b60405180910390f35b61021a60048036038101906102159190611f42565b610684565b005b61023660048036038101906102319190611db1565b6106bf565b6040516102439190611f9b565b60405180910390f35b61026660048036038101906102619190611fe2565b6106dc565b005b610282600480360381019061027d9190612022565b6107c3565b005b61029e60048036038101906102999190611db1565b6107fe565b6040516102ab9190611e98565b60405180910390f35b6102ce60048036038101906102c99190612022565b6108a3565b005b6102ea60048036038101906102e59190611db1565b6108de565b005b61030660048036038101906103019190611fe2565b610aea565b005b610322600480360381019061031d9190611db1565b610bd1565b60405161032f9190611efb565b60405180910390f35b610352600480360381019061034d9190611db1565b610c57565b60405161035f9190611efb565b60405180910390f35b610382600480360381019061037d9190612075565b610c94565b60405161038f9190611ded565b60405180910390f35b6103a0610d4b565b6040516103ad9190611e98565b60405180910390f35b6103d060048036038101906103cb9190611fe2565b610ddd565b005b6103ec60048036038101906103e79190611db1565b610e18565b6040516103f99190611ded565b60405180910390f35b61041c600480360381019061041791906121d7565b610e35565b005b61043860048036038101906104339190612327565b610e97565b005b610454600480360381019061044f9190611db1565b6110c5565b6040516104619190611e98565b60405180910390f35b610484600480360381019061047f9190611fe2565b61112d565b005b6104a0600480360381019061049b91906123ec565b611214565b6040516104ad9190611d60565b60405180910390f35b60007f80ac58cd000000000000000000000000000000000000000000000000000000007bffffffffffffffffffffffffffffffffffffffffffffffffffffffff1916827bffffffffffffffffffffffffffffffffffffffffffffffffffffffff1916148061058157507f5b5e139f000000000000000000000000000000000000000000000000000000007bffffffffffffffffffffffffffffffffffffffffffffffffffffffff1916827bffffffffffffffffffffffffffffffffffffffffffffffffffffffff1916145b8061059157506105908261121c565b5b9050919050565b6000600d6000838152602001908152602001600020549050919050565b6060600080546105c49061245b565b80601f01602080910402602001604051908101604052809291908181526020018280546105f09061245b565b801561063d5780601f106106125761010080835404028352916020019161063d565b820191906000526020600020905b81548152906001019060200180831161062057829003601f168201915b5050505050905090565b60006040517f08c379a000000000000000000000000000000000000000000000000000000000815260040161067b906124d8565b60405180910390fd5b6040517f08c379a00000000000000000000000000000000000000000000000000000000081526004016106b6906124d8565b60405180910390fd5b6000600f6000838152602001908152602001600020549050919050565b600860003373ffffffffffffffffffffffffffffffffffffffff1673ffffffffffffffffffffffffffffffffffffffff16815260200190815260200160002060009054906101000a900460ff16610768576040517f08c379a000000000000000000000000000000000000000000000000000000000815260040161075f90612544565b60405180910390fd5b80600760008473ffffffffffffffffffffffffffffffffffffffff1673ffffffffffffffffffffffffffffffffffffffff16815260200190815260200160002060006101000a81548160ff0219169083151502179055505050565b6040517f08c379a00000000000000000000000000000000000000000000000000000000081526004016107f5906124d8565b60405180910390fd5b6060600b6000838152602001908152602001600020805461081e9061245b565b80601f016020809104026020016040519081016040528092919081815260200182805461084a9061245b565b80156108975780601f1061086c57610100808354040283529160200191610897565b820191906000526020600020905b81548152906001019060200180831161087a57829003601f168201915b50505050509050919050565b6040517f08c379a00000000000000000000000000000000000000000000000000000000081526004016108d5906124d8565b60405180910390fd5b3373ffffffffffffffffffffffffffffffffffffffff166009600083815260200190815260200160002060009054906101000a900473ffffffffffffffffffffffffffffffffffffffff1673ffffffffffffffffffffffffffffffffffffffff1614806109945750600760003373ffffffffffffffffffffffffffffffffffffffff1673ffffffffffffffffffffffffffffffffffffffff16815260200190815260200160002060009054906101000a900460ff165b6109d3576040517f08c379a00000000000000000000000000000000000000000000000000000000081526004016109ca906125d6565b60405180910390fd5b6009600082815260200190815260200160002060006101000a81549073ffffffffffffffffffffffffffffffffffffffff0219169055600b60008281526020019081526020016000206000610a289190611c4f565b600f600082815260200190815260200160002060009055600d600082815260200190815260200160002060009055600e600082815260200190815260200160002060009055600a600082815260200190815260200160002060006101000a81549073ffffffffffffffffffffffffffffffffffffffff0219169055803373ffffffffffffffffffffffffffffffffffffffff167fcc16f5dbb4873280815c1ee09dbd06736cffcc184412cf7a71a0fdb75d397ca560405160405180910390a350565b600860003373ffffffffffffffffffffffffffffffffffffffff1673ffffffffffffffffffffffffffffffffffffffff16815260200190815260200160002060009054906101000a900460ff16610b76576040517f08c379a0000000000000000000000000000000000000000000000000000000008152600401610b6d90612544565b60405180910390fd5b80600660008473ffffffffffffffffffffffffffffffffffffffff1673ffffffffffffffffffffffffffffffffffffffff16815260200190815260200160002060006101000a81548160ff0219169083151502179055505050565b600080610bdd83611286565b9050600073ffffffffffffffffffffffffffffffffffffffff168173ffffffffffffffffffffffffffffffffffffffff1603610c4e576040517f08c379a0000000000000000000000000000000000000000000000000000000008152600401610c4590612642565b60405180910390fd5b80915050919050565b6000600a600083815260200190815260200160002060009054906101000a900473ffffffffffffffffffffffffffffffffffffffff169050919050565b60008073ffffffffffffffffffffffffffffffffffffffff168273ffffffffffffffffffffffffffffffffffffffff1603610d04576040517f08c379a0000000000000000000000000000000000000000000000000000000008152600401610cfb906126d4565b60405180910390fd5b600360008373ffffffffffffffffffffffffffffffffffffffff1673ffffffffffffffffffffffffffffffffffffffff168152602001908152602001600020549050919050565b606060018054610d5a9061245b565b80601f0160208091040260200160405190810160405280929190818152602001828054610d869061245b565b8015610dd35780601f10610da857610100808354040283529160200191610dd3565b820191906000526020600020905b815481529060010190602001808311610db657829003601f168201915b5050505050905090565b6040517f08c379a0000000000000000000000000000000000000000000000000000000008152600401610e0f906124d8565b60405180910390fd5b6000600e6000838152602001908152602001600020549050919050565b610e46610e406112c3565b836112cb565b610e85576040517f08c379a0000000000000000000000000000000000000000000000000000000008152600401610e7c90612766565b60405180910390fd5b610e9184848484611360565b50505050565b600660003373ffffffffffffffffffffffffffffffffffffffff1673ffffffffffffffffffffffffffffffffffffffff16815260200190815260200160002060009054906101000a900460ff16610f23576040517f08c379a0000000000000000000000000000000000000000000000000000000008152600401610f1a906127d2565b60405180910390fd5b8560096000601054815260200190815260200160002060006101000a81548173ffffffffffffffffffffffffffffffffffffffff021916908373ffffffffffffffffffffffffffffffffffffffff16021790555084600a6000601054815260200190815260200160002060006101000a81548173ffffffffffffffffffffffffffffffffffffffff021916908373ffffffffffffffffffffffffffffffffffffffff16021790555083600b600060105481526020019081526020016000209081610fed919061299e565b5082600f600060105481526020019081526020016000208190555081600d600060105481526020019081526020016000208190555042600e600060105481526020019081526020016000208190555080600c60006010548152602001908152602001600020908161105e919061299e565b506010600081548092919061107290612a9f565b91905055506010548673ffffffffffffffffffffffffffffffffffffffff167f0f6798a560793a54c3bcfe86a93cde1e73087d944c0ea20544137d412139688560405160405180910390a3505050505050565b60606110d0826113bc565b60006110da611407565b905060008151116110fa5760405180602001604052806000815250611125565b806111048461141e565b604051602001611115929190612b23565b6040516020818303038152906040525b915050919050565b600860003373ffffffffffffffffffffffffffffffffffffffff1673ffffffffffffffffffffffffffffffffffffffff16815260200190815260200160002060009054906101000a900460ff166111b9576040517f08c379a00000000000000000000000000000000000000000000000000000000081526004016111b090612544565b60405180910390fd5b80600860008473ffffffffffffffffffffffffffffffffffffffff1673ffffffffffffffffffffffffffffffffffffffff16815260200190815260200160002060006101000a81548160ff0219169083151502179055505050565b600092915050565b60007f01ffc9a7000000000000000000000000000000000000000000000000000000007bffffffffffffffffffffffffffffffffffffffffffffffffffffffff1916827bffffffffffffffffffffffffffffffffffffffffffffffffffffffff1916149050919050565b60006002600083815260200190815260200160002060009054906101000a900473ffffffffffffffffffffffffffffffffffffffff169050919050565b600033905090565b6000806112d783610bd1565b90508073ffffffffffffffffffffffffffffffffffffffff168473ffffffffffffffffffffffffffffffffffffffff16148061131957506113188185611214565b5b8061135757508373ffffffffffffffffffffffffffffffffffffffff1661133f84610647565b73ffffffffffffffffffffffffffffffffffffffff16145b91505092915050565b61136b8484846114ec565b611377848484846117e5565b6113b6576040517f08c379a00000000000000000000000000000000000000000000000000000000081526004016113ad90612bb9565b60405180910390fd5b50505050565b6113c58161196c565b611404576040517f08c379a00000000000000000000000000000000000000000000000000000000081526004016113fb90612642565b60405180910390fd5b50565b606060405180602001604052806000815250905090565b60606000600161142d846119ad565b01905060008167ffffffffffffffff81111561144c5761144b6120ac565b5b6040519080825280601f01601f19166020018201604052801561147e5781602001600182028036833780820191505090505b509050600082602001820190505b6001156114e1578080600190039150507f3031323334353637383961626364656600000000000000000000000000000000600a86061a8153600a85816114d5576114d4612bd9565b5b0494506000850361148c575b819350505050919050565b8273ffffffffffffffffffffffffffffffffffffffff1661150c82610bd1565b73ffffffffffffffffffffffffffffffffffffffff1614611562576040517f08c379a000000000000000000000000000000000000000000000000000000000815260040161155990612c7a565b60405180910390fd5b600073ffffffffffffffffffffffffffffffffffffffff168273ffffffffffffffffffffffffffffffffffffffff16036115d1576040517f08c379a00000000000000000000000000000000000000000000000000000000081526004016115c890612d0c565b60405180910390fd5b6115de8383836001611b00565b8273ffffffffffffffffffffffffffffffffffffffff166115fe82610bd1565b73ffffffffffffffffffffffffffffffffffffffff1614611654576040517f08c379a000000000000000000000000000000000000000000000000000000000815260040161164b90612c7a565b60405180910390fd5b6004600082815260200190815260200160002060006101000a81549073ffffffffffffffffffffffffffffffffffffffff02191690556001600360008573ffffffffffffffffffffffffffffffffffffffff1673ffffffffffffffffffffffffffffffffffffffff168152602001908152602001600020600082825403925050819055506001600360008473ffffffffffffffffffffffffffffffffffffffff1673ffffffffffffffffffffffffffffffffffffffff16815260200190815260200160002060008282540192505081905550816002600083815260200190815260200160002060006101000a81548173ffffffffffffffffffffffffffffffffffffffff021916908373ffffffffffffffffffffffffffffffffffffffff160217905550808273ffffffffffffffffffffffffffffffffffffffff168473ffffffffffffffffffffffffffffffffffffffff167fddf252ad1be2c89b69c2b068fc378daa952ba7f163c4a11628f55a4df523b3ef60405160405180910390a46117e08383836001611c26565b505050565b60006118068473ffffffffffffffffffffffffffffffffffffffff16611c2c565b1561195f578373ffffffffffffffffffffffffffffffffffffffff1663150b7a0261182f6112c3565b8786866040518563ffffffff1660e01b81526004016118519493929190612d81565b6020604051808303816000875af192505050801561188d57506040513d601f19601f8201168201806040525081019061188a9190612de2565b60015b61190f573d80600081146118bd576040519150601f19603f3d011682016040523d82523d6000602084013e6118c2565b606091505b506000815103611907576040517f08c379a00000000000000000000000000000000000000000000000000000000081526004016118fe90612bb9565b60405180910390fd5b805181602001fd5b63150b7a0260e01b7bffffffffffffffffffffffffffffffffffffffffffffffffffffffff1916817bffffffffffffffffffffffffffffffffffffffffffffffffffffffff191614915050611964565b600190505b949350505050565b60008073ffffffffffffffffffffffffffffffffffffffff1661198e83611286565b73ffffffffffffffffffffffffffffffffffffffff1614159050919050565b600080600090507a184f03e93ff9f4daa797ed6e38ed64bf6a1f0100000000000000008310611a0b577a184f03e93ff9f4daa797ed6e38ed64bf6a1f0100000000000000008381611a0157611a00612bd9565b5b0492506040810190505b6d04ee2d6d415b85acef81000000008310611a48576d04ee2d6d415b85acef81000000008381611a3e57611a3d612bd9565b5b0492506020810190505b662386f26fc100008310611a7757662386f26fc100008381611a6d57611a6c612bd9565b5b0492506010810190505b6305f5e1008310611aa0576305f5e1008381611a9657611a95612bd9565b5b0492506008810190505b6127108310611ac5576127108381611abb57611aba612bd9565b5b0492506004810190505b60648310611ae85760648381611ade57611add612bd9565b5b0492506002810190505b600a8310611af7576001810190505b80915050919050565b6001811115611c2057600073ffffffffffffffffffffffffffffffffffffffff168473ffffffffffffffffffffffffffffffffffffffff1614611b945780600360008673ffffffffffffffffffffffffffffffffffffffff1673ffffffffffffffffffffffffffffffffffffffff1681526020019081526020016000206000828254611b8c9190612e0f565b925050819055505b600073ffffffffffffffffffffffffffffffffffffffff168373ffffffffffffffffffffffffffffffffffffffff1614611c1f5780600360008573ffffffffffffffffffffffffffffffffffffffff1673ffffffffffffffffffffffffffffffffffffffff1681526020019081526020016000206000828254611c179190612e43565b925050819055505b5b50505050565b50505050565b6000808273ffffffffffffffffffffffffffffffffffffffff163b119050919050565b508054611c5b9061245b565b6000825580601f10611c6d5750611c8c565b601f016020900490600052602060002090810190611c8b9190611c8f565b5b50565b5b80821115611ca8576000816000905550600101611c90565b5090565b6000604051905090565b600080fd5b600080fd5b60007fffffffff0000000000000000000000000000000000000000000000000000000082169050919050565b611cf581611cc0565b8114611d0057600080fd5b50565b600081359050611d1281611cec565b92915050565b600060208284031215611d2e57611d2d611cb6565b5b6000611d3c84828501611d03565b91505092915050565b60008115159050919050565b611d5a81611d45565b82525050565b6000602082019050611d756000830184611d51565b92915050565b6000819050919050565b611d8e81611d7b565b8114611d9957600080fd5b50565b600081359050611dab81611d85565b92915050565b600060208284031215611dc757611dc6611cb6565b5b6000611dd584828501611d9c565b91505092915050565b611de781611d7b565b82525050565b6000602082019050611e026000830184611dde565b92915050565b600081519050919050565b600082825260208201905092915050565b60005b83811015611e42578082015181840152602081019050611e27565b60008484015250505050565b6000601f19601f8301169050919050565b6000611e6a82611e08565b611e748185611e13565b9350611e84818560208601611e24565b611e8d81611e4e565b840191505092915050565b60006020820190508181036000830152611eb28184611e5f565b905092915050565b600073ffffffffffffffffffffffffffffffffffffffff82169050919050565b6000611ee582611eba565b9050919050565b611ef581611eda565b82525050565b6000602082019050611f106000830184611eec565b92915050565b611f1f81611eda565b8114611f2a57600080fd5b50565b600081359050611f3c81611f16565b92915050565b60008060408385031215611f5957611f58611cb6565b5b6000611f6785828601611f2d565b9250506020611f7885828601611d9c565b9150509250929050565b6000819050919050565b611f9581611f82565b82525050565b6000602082019050611fb06000830184611f8c565b92915050565b611fbf81611d45565b8114611fca57600080fd5b50565b600081359050611fdc81611fb6565b92915050565b60008060408385031215611ff957611ff8611cb6565b5b600061200785828601611f2d565b925050602061201885828601611fcd565b9150509250929050565b60008060006060848603121561203b5761203a611cb6565b5b600061204986828701611f2d565b935050602061205a86828701611f2d565b925050604061206b86828701611d9c565b9150509250925092565b60006020828403121561208b5761208a611cb6565b5b600061209984828501611f2d565b91505092915050565b600080fd5b600080fd5b7f4e487b7100000000000000000000000000000000000000000000000000000000600052604160045260246000fd5b6120e482611e4e565b810181811067ffffffffffffffff82111715612103576121026120ac565b5b80604052505050565b6000612116611cac565b905061212282826120db565b919050565b600067ffffffffffffffff821115612142576121416120ac565b5b61214b82611e4e565b9050602081019050919050565b82818337600083830152505050565b600061217a61217584612127565b61210c565b905082815260208101848484011115612196576121956120a7565b5b6121a1848285612158565b509392505050565b600082601f8301126121be576121bd6120a2565b5b81356121ce848260208601612167565b91505092915050565b600080600080608085870312156121f1576121f0611cb6565b5b60006121ff87828801611f2d565b945050602061221087828801611f2d565b935050604061222187828801611d9c565b925050606085013567ffffffffffffffff81111561224257612241611cbb565b5b61224e878288016121a9565b91505092959194509250565b600067ffffffffffffffff821115612275576122746120ac565b5b61227e82611e4e565b9050602081019050919050565b600061229e6122998461225a565b61210c565b9050828152602081018484840111156122ba576122b96120a7565b5b6122c5848285612158565b509392505050565b600082601f8301126122e2576122e16120a2565b5b81356122f284826020860161228b565b91505092915050565b61230481611f82565b811461230f57600080fd5b50565b600081359050612321816122fb565b92915050565b60008060008060008060c0878903121561234457612343611cb6565b5b600061235289828a01611f2d565b965050602061236389828a01611f2d565b955050604087013567ffffffffffffffff81111561238457612383611cbb565b5b61239089828a016122cd565b94505060606123a189828a01612312565b93505060806123b289828a01611d9c565b92505060a087013567ffffffffffffffff8111156123d3576123d2611cbb565b5b6123df89828a016122cd565b9150509295509295509295565b6000806040838503121561240357612402611cb6565b5b600061241185828601611f2d565b925050602061242285828601611f2d565b9150509250929050565b7f4e487b7100000000000000000000000000000000000000000000000000000000600052602260045260246000fd5b6000600282049050600182168061247357607f821691505b6020821081036124865761248561242c565b5b50919050565b7f4e6f206f6e652063616e207472616e73666572207468697320746f6b656e0000600082015250565b60006124c2601e83611e13565b91506124cd8261248c565b602082019050919050565b600060208201905081810360008301526124f1816124b5565b9050919050565b7f596f7520617265206e6f7420616e2061646d696e000000000000000000000000600082015250565b600061252e601483611e13565b9150612539826124f8565b602082019050919050565b6000602082019050818103600083015261255d81612521565b9050919050565b7f596f7520617265206e6f7420616c6c6f77656420746f206275726e207468697360008201527f20746f6b656e0000000000000000000000000000000000000000000000000000602082015250565b60006125c0602683611e13565b91506125cb82612564565b604082019050919050565b600060208201905081810360008301526125ef816125b3565b9050919050565b7f4552433732313a20696e76616c696420746f6b656e2049440000000000000000600082015250565b600061262c601883611e13565b9150612637826125f6565b602082019050919050565b6000602082019050818103600083015261265b8161261f565b9050919050565b7f4552433732313a2061646472657373207a65726f206973206e6f74206120766160008201527f6c6964206f776e65720000000000000000000000000000000000000000000000602082015250565b60006126be602983611e13565b91506126c982612662565b604082019050919050565b600060208201905081810360008301526126ed816126b1565b9050919050565b7f4552433732313a2063616c6c6572206973206e6f7420746f6b656e206f776e6560008201527f72206f7220617070726f76656400000000000000000000000000000000000000602082015250565b6000612750602d83611e13565b915061275b826126f4565b604082019050919050565b6000602082019050818103600083015261277f81612743565b9050919050565b7f596f7520617265206e6f742061206d696e746572000000000000000000000000600082015250565b60006127bc601483611e13565b91506127c782612786565b602082019050919050565b600060208201905081810360008301526127eb816127af565b9050919050565b60008190508160005260206000209050919050565b60006020601f8301049050919050565b600082821b905092915050565b6000600883026128547fffffffffffffffffffffffffffffffffffffffffffffffffffffffffffffffff82612817565b61285e8683612817565b95508019841693508086168417925050509392505050565b6000819050919050565b600061289b61289661289184611d7b565b612876565b611d7b565b9050919050565b6000819050919050565b6128b583612880565b6128c96128c1826128a2565b848454612824565b825550505050565b600090565b6128de6128d1565b6128e98184846128ac565b505050565b5b8181101561290d576129026000826128d6565b6001810190506128ef565b5050565b601f82111561295257612923816127f2565b61292c84612807565b8101602085101561293b578190505b61294f61294785612807565b8301826128ee565b50505b505050565b600082821c905092915050565b600061297560001984600802612957565b1980831691505092915050565b600061298e8383612964565b9150826002028217905092915050565b6129a782611e08565b67ffffffffffffffff8111156129c0576129bf6120ac565b5b6129ca825461245b565b6129d5828285612911565b600060209050601f831160018114612a0857600084156129f6578287015190505b612a008582612982565b865550612a68565b601f198416612a16866127f2565b60005b82811015612a3e57848901518255600182019150602085019450602081019050612a19565b86831015612a5b5784890151612a57601f891682612964565b8355505b6001600288020188555050505b505050505050565b7f4e487b7100000000000000000000000000000000000000000000000000000000600052601160045260246000fd5b6000612aaa82611d7b565b91507fffffffffffffffffffffffffffffffffffffffffffffffffffffffffffffffff8203612adc57612adb612a70565b5b600182019050919050565b600081905092915050565b6000612afd82611e08565b612b078185612ae7565b9350612b17818560208601611e24565b80840191505092915050565b6000612b2f8285612af2565b9150612b3b8284612af2565b91508190509392505050565b7f4552433732313a207472616e7366657220746f206e6f6e20455243373231526560008201527f63656976657220696d706c656d656e7465720000000000000000000000000000602082015250565b6000612ba3603283611e13565b9150612bae82612b47565b604082019050919050565b60006020820190508181036000830152612bd281612b96565b9050919050565b7f4e487b7100000000000000000000000000000000000000000000000000000000600052601260045260246000fd5b7f4552433732313a207472616e736665722066726f6d20696e636f72726563742060008201527f6f776e6572000000000000000000000000000000000000000000000000000000602082015250565b6000612c64602583611e13565b9150612c6f82612c08565b604082019050919050565b60006020820190508181036000830152612c9381612c57565b9050919050565b7f4552433732313a207472616e7366657220746f20746865207a65726f2061646460008201527f7265737300000000000000000000000000000000000000000000000000000000602082015250565b6000612cf6602483611e13565b9150612d0182612c9a565b604082019050919050565b60006020820190508181036000830152612d2581612ce9565b9050919050565b600081519050919050565b600082825260208201905092915050565b6000612d5382612d2c565b612d5d8185612d37565b9350612d6d818560208601611e24565b612d7681611e4e565b840191505092915050565b6000608082019050612d966000830187611eec565b612da36020830186611eec565b612db06040830185611dde565b8181036060830152612dc28184612d48565b905095945050505050565b600081519050612ddc81611cec565b92915050565b600060208284031215612df857612df7611cb6565b5b6000612e0684828501612dcd565b91505092915050565b6000612e1a82611d7b565b9150612e2583611d7b565b9250828203905081811115612e3d57612e3c612a70565b5b92915050565b6000612e4e82611d7b565b9150612e5983611d7b565b9250828201905080821115612e7157612e70612a70565b5b9291505056fea2646970667358221220181a4f793fd7ea86d8251118ecd66cdadb4fa364c334a4df17e142b10e3cbced64736f6c63430008110033",
  "immutableReferences": {},
  "source": "// license: MIT\r\n\r\npragma solidity ^0.8.17;\r\n\r\nimport \"@openzeppelin/contracts/token/ERC721/ERC721.sol\";\r\n\r\ncontract verified_sbt is ERC721 {\r\n\r\n    mapping (address => bool) private _isMinter; // can mint tokens\r\n    mapping (address => bool) private _isBurner; // can burn tokens even if they are not the owner\r\n    mapping (address => bool) private _isAdmin; // admin can add and delete admins, set and unset minters and burners\r\n\r\n\r\n    mapping (uint256 => address) private _owner; // link the sbt to a certain owner\r\n    mapping (uint256 => address) private _token; // link the sbt to a certain token\r\n\r\n    mapping (uint256 => string) private _tokenURI; // uri where we can get the addresses used to generate the proof\r\n    mapping (uint256 => string) private _verifier; // could be used id the verifier wants to be sure that the sbt has been minted for him (example : his address or somethings he asked the prover to write)\r\n\r\n    mapping (uint256 => uint256) private _signature; // zk proof generated in the frontend (not verified yet)\r\n    mapping (uint256 => uint256) private _timestamp; // timestamp of the minting of the proof\r\n\r\n    mapping (uint256 => bytes32) private _merkleRoot; // merkle root of the addresses (to ensure that the addresses have not been modified)\r\n\r\n\r\n    uint256 private _tokenId;\r\n    string private _name;\r\n    string private _symbol;\r\n\r\n    event Mint(address indexed owner, uint256 indexed tokenId);\r\n    event Burn(address indexed owner, uint256 indexed tokenId);\r\n\r\n    constructor(string memory name_, string memory symbol_, address verifier_) ERC721(name_, symbol_){\r\n        _tokenId = 0;\r\n        _name = name_;\r\n        _symbol = symbol_;\r\n\r\n        // verifier can mint and burn\r\n        _isMinter[verifier_] = true;\r\n        _isBurner[verifier_] = true;\r\n\r\n        // contract creator has all the rights\r\n        _isAdmin[msg.sender] = true;\r\n        _isBurner[msg.sender] = true;\r\n        _isMinter[msg.sender] = true;\r\n    }\r\n\r\n    /**\r\n    * @param from is the current owner of the NFT\r\n    * @param to is the new owner of the NFT\r\n    * @param tokenId is the NFT to transfer\r\n    * safeTransferFrom and transferFrom are disabled because the nft is a sbt\r\n    */\r\n    function safeTransferFrom(address from, address to, uint256 tokenId) public pure override {\r\n        revert(\"No one can transfer this token\");\r\n    }\r\n    function transferFrom(address from, address to, uint256 tokenId) public pure override {\r\n        revert(\"No one can transfer this token\");\r\n    }\r\n\r\n    /**\r\n    * approve is disabled because the nft is a sbt and cannot be transfered\r\n    */\r\n    function approve(address to, uint256 tokenId) public pure override {\r\n        revert(\"No one can transfer this token\");\r\n    }\r\n    /**\r\n    * getApproved is disabled because the nft is a sbt and cannot be transfered\r\n    */\r\n    function getApproved(uint256 tokenId) public view override returns (address operator) {\r\n        revert(\"No one can transfer this token\");\r\n        return address(0);\r\n    }\r\n    /**\r\n    * setApprovalForAll is disabled because the nft is a sbt and cannot be transfered\r\n    */\r\n    function setApprovalForAll(address operator, bool _approved) public pure override {\r\n        revert(\"No one can transfer this token\");\r\n    }\r\n    /**\r\n    * isApprovedForAll is disabled because the nft is a sbt and cannot be transfered -> the output will always be false\r\n    */\r\n    function isApprovedForAll(address owner, address operator) public view override returns (bool) {\r\n        return false;\r\n    }\r\n\r\n\r\n    // mint and burn sbt\r\n\r\n    /**\r\n    * @param receiver is the address of the receiver of the sbt\r\n    * @param token is the address of the token that is linked to the sbt\r\n    * @param tokenURI is the uri where we can get the addresses used to generate the proof (stored on ipfs)\r\n    * @param merkleRoot is the merkle root of the addresses (to ensure that the addresses have not been modified)\r\n    * @param signature is the zk proof generated in the frontend (which has been verified by the verifier)\r\n    * @param verifier is a string which could be used id the verifier wants to be sure that the sbt has been minted for him (example : his address or somethings he asked the prover to write)\r\n    * mint a new sbt\r\n    */\r\n    function mint(address receiver, address token, string memory tokenURI, bytes32 merkleRoot, uint256 signature, string memory verifier) public {\r\n        require(_isMinter[msg.sender], \"You are not a minter\");\r\n\r\n        _owner[_tokenId] = receiver;\r\n        _token[_tokenId] = token;\r\n        _tokenURI[_tokenId] = tokenURI;\r\n        _merkleRoot[_tokenId] = merkleRoot;\r\n        _signature[_tokenId] = signature;\r\n        _timestamp[_tokenId] = block.timestamp;\r\n        _verifier[_tokenId] = verifier;\r\n        _tokenId++;\r\n\r\n        emit Mint(receiver, _tokenId);\r\n    }\r\n\r\n    /**\r\n    * @param tokenId is the id of the sbt to burn\r\n    * burn an sbt\r\n    */\r\n    function burn(uint256 tokenId) public {\r\n        require(_owner[tokenId] == msg.sender || _isBurner[msg.sender], \"You are not allowed to burn this token\");\r\n\r\n        delete _owner[tokenId];\r\n        delete _tokenURI[tokenId];\r\n        delete _merkleRoot[tokenId];\r\n        delete _signature[tokenId];\r\n        delete _timestamp[tokenId];\r\n        delete _token[tokenId];\r\n\r\n        emit Burn(msg.sender, tokenId);\r\n    }\r\n\r\n    // get sbt data    \r\n\r\n    /**\r\n    * @param tokenId is the id of the sbt\r\n    * @return _merkleRoot associated to the sbt\r\n    */\r\n    function getMerkleRoot(uint256 tokenId) public view returns (bytes32) {\r\n        return _merkleRoot[tokenId];\r\n    }\r\n    /**\r\n    * @param tokenId is the id of the sbt\r\n    * @return _signature associated to the sbt\r\n    */\r\n    function getSignature(uint256 tokenId) public view returns (uint256) {\r\n        return _signature[tokenId];\r\n    }\r\n    /**\r\n    * @param tokenId is the id of the sbt\r\n    * @return _tokenURI associated to the sbt\r\n    */\r\n    function getTokenURI(uint256 tokenId) public view returns (string memory) {\r\n        return _tokenURI[tokenId];\r\n    }\r\n    /**\r\n    * @param tokenId is the id of the sbt\r\n    * @return _timestamp associated to the sbt\r\n    */\r\n    function getTimestamp(uint256 tokenId) public view returns (uint256) {\r\n        return _timestamp[tokenId];\r\n    }\r\n\r\n        /**\r\n    * @param tokenId is the id of the sbt\r\n    * @return _tokenAddress associated to the sbt\r\n    */\r\n    function getTokenAddress(uint256 tokenId) public view returns (address) {\r\n        return _token[tokenId];\r\n    }\r\n\r\n    // admin functions\r\n    /**\r\n    * @param admin is the address of the admin to add/remove\r\n    * @param isAdmin is true if the admin is added, false if the admin is removed\r\n    */\r\n    function editAdmin(address admin, bool isAdmin) public {\r\n        require(_isAdmin[msg.sender], \"You are not an admin\");\r\n        _isAdmin[admin] = isAdmin;\r\n    }\r\n    /**\r\n    * @param minter is the address of the minter to add/remove\r\n    * @param isMinter is true if the minter is added, false if the minter is removed\r\n    */\r\n    function editMinter(address minter, bool isMinter) public {\r\n        require(_isAdmin[msg.sender], \"You are not an admin\");\r\n        _isMinter[minter] = isMinter;\r\n    }\r\n    /**\r\n    * @param burner is the address of the burner to add/remove\r\n    * @param isBurner is true if the burner is added, false if the burner is removed\r\n    */\r\n    function editBurner(address burner, bool isBurner) public {\r\n        require(_isAdmin[msg.sender], \"You are not an admin\");\r\n        _isBurner[burner] = isBurner;\r\n    }\r\n}",
  "sourcePath": "C:\\Users\\hervi\\Documents\\Blockchain Projects\\ETHDenver2023\\Smart-contract\\truffle\\contracts\\verified-sbt.sol",
  "compiler": {
    "name": "solc",
    "version": "0.8.17+commit.8df45f5f.Emscripten.clang"
  },
  "schemaVersion": "3.4.12",
  "updatedAt": "2023-02-28T16:57:32.874Z",
  "devdoc": {
    "kind": "dev",
    "methods": {
      "balanceOf(address)": {
        "details": "See {IERC721-balanceOf}."
      },
      "burn(uint256)": {
        "params": {
          "tokenId": "is the id of the sbt to burn burn an sbt"
        }
      },
      "editAdmin(address,bool)": {
        "params": {
          "admin": "is the address of the admin to add/remove",
          "isAdmin": "is true if the admin is added, false if the admin is removed"
        }
      },
      "editBurner(address,bool)": {
        "params": {
          "burner": "is the address of the burner to add/remove",
          "isBurner": "is true if the burner is added, false if the burner is removed"
        }
      },
      "editMinter(address,bool)": {
        "params": {
          "isMinter": "is true if the minter is added, false if the minter is removed",
          "minter": "is the address of the minter to add/remove"
        }
      },
      "getMerkleRoot(uint256)": {
        "params": {
          "tokenId": "is the id of the sbt"
        },
        "returns": {
          "_0": "_merkleRoot associated to the sbt"
        }
      },
      "getSignature(uint256)": {
        "params": {
          "tokenId": "is the id of the sbt"
        },
        "returns": {
          "_0": "_signature associated to the sbt"
        }
      },
      "getTimestamp(uint256)": {
        "params": {
          "tokenId": "is the id of the sbt"
        },
        "returns": {
          "_0": "_timestamp associated to the sbt"
        }
      },
      "getTokenAddress(uint256)": {
        "params": {
          "tokenId": "is the id of the sbt"
        },
        "returns": {
          "_0": "_tokenAddress associated to the sbt"
        }
      },
      "getTokenURI(uint256)": {
        "params": {
          "tokenId": "is the id of the sbt"
        },
        "returns": {
          "_0": "_tokenURI associated to the sbt"
        }
      },
      "mint(address,address,string,bytes32,uint256,string)": {
        "params": {
          "merkleRoot": "is the merkle root of the addresses (to ensure that the addresses have not been modified)",
          "receiver": "is the address of the receiver of the sbt",
          "signature": "is the zk proof generated in the frontend (which has been verified by the verifier)",
          "token": "is the address of the token that is linked to the sbt",
          "tokenURI": "is the uri where we can get the addresses used to generate the proof (stored on ipfs)",
          "verifier": "is a string which could be used id the verifier wants to be sure that the sbt has been minted for him (example : his address or somethings he asked the prover to write) mint a new sbt"
        }
      },
      "name()": {
        "details": "See {IERC721Metadata-name}."
      },
      "ownerOf(uint256)": {
        "details": "See {IERC721-ownerOf}."
      },
      "safeTransferFrom(address,address,uint256)": {
        "params": {
          "from": "is the current owner of the NFT",
          "to": "is the new owner of the NFT",
          "tokenId": "is the NFT to transfer safeTransferFrom and transferFrom are disabled because the nft is a sbt"
        }
      },
      "safeTransferFrom(address,address,uint256,bytes)": {
        "details": "See {IERC721-safeTransferFrom}."
      },
      "supportsInterface(bytes4)": {
        "details": "See {IERC165-supportsInterface}."
      },
      "symbol()": {
        "details": "See {IERC721Metadata-symbol}."
      },
      "tokenURI(uint256)": {
        "details": "See {IERC721Metadata-tokenURI}."
      },
      "transferFrom(address,address,uint256)": {
        "details": "See {IERC721-transferFrom}."
      }
    },
    "version": 1
  },
  "userdoc": {
    "kind": "user",
    "methods": {
      "approve(address,uint256)": {
        "notice": "approve is disabled because the nft is a sbt and cannot be transfered"
      },
      "getApproved(uint256)": {
        "notice": "getApproved is disabled because the nft is a sbt and cannot be transfered"
      },
      "isApprovedForAll(address,address)": {
        "notice": "isApprovedForAll is disabled because the nft is a sbt and cannot be transfered -> the output will always be false"
      },
      "setApprovalForAll(address,bool)": {
        "notice": "setApprovalForAll is disabled because the nft is a sbt and cannot be transfered"
      }
    },
    "version": 1
  }
}