{
  "contractName": "verified_sbt",
  "abi": [
    {
      "inputs": [
        {
          "internalType": "string",
          "name": "name_",
          "type": "string"
        },
        {
          "internalType": "string",
          "name": "symbol_",
          "type": "string"
        },
        {
          "internalType": "address",
          "name": "verifier_",
          "type": "address"
        }
      ],
      "stateMutability": "nonpayable",
      "type": "constructor"
    },
    {
      "anonymous": false,
      "inputs": [
        {
          "indexed": true,
          "internalType": "address",
          "name": "owner",
          "type": "address"
        },
        {
          "indexed": true,
          "internalType": "address",
          "name": "approved",
          "type": "address"
        },
        {
          "indexed": true,
          "internalType": "uint256",
          "name": "tokenId",
          "type": "uint256"
        }
      ],
      "name": "Approval",
      "type": "event"
    },
    {
      "anonymous": false,
      "inputs": [
        {
          "indexed": true,
          "internalType": "address",
          "name": "owner",
          "type": "address"
        },
        {
          "indexed": true,
          "internalType": "address",
          "name": "operator",
          "type": "address"
        },
        {
          "indexed": false,
          "internalType": "bool",
          "name": "approved",
          "type": "bool"
        }
      ],
      "name": "ApprovalForAll",
      "type": "event"
    },
    {
      "anonymous": false,
      "inputs": [
        {
          "indexed": true,
          "internalType": "address",
          "name": "owner",
          "type": "address"
        },
        {
          "indexed": true,
          "internalType": "uint256",
          "name": "tokenId",
          "type": "uint256"
        }
      ],
      "name": "Burn",
      "type": "event"
    },
    {
      "anonymous": false,
      "inputs": [
        {
          "indexed": true,
          "internalType": "address",
          "name": "owner",
          "type": "address"
        },
        {
          "indexed": true,
          "internalType": "uint256",
          "name": "tokenId",
          "type": "uint256"
        }
      ],
      "name": "Mint",
      "type": "event"
    },
    {
      "anonymous": false,
      "inputs": [
        {
          "indexed": true,
          "internalType": "address",
          "name": "from",
          "type": "address"
        },
        {
          "indexed": true,
          "internalType": "address",
          "name": "to",
          "type": "address"
        },
        {
          "indexed": true,
          "internalType": "uint256",
          "name": "tokenId",
          "type": "uint256"
        }
      ],
      "name": "Transfer",
      "type": "event"
    },
    {
      "inputs": [
        {
          "internalType": "address",
          "name": "owner",
          "type": "address"
        }
      ],
      "name": "balanceOf",
      "outputs": [
        {
          "internalType": "uint256",
          "name": "",
          "type": "uint256"
        }
      ],
      "stateMutability": "view",
      "type": "function"
    },
    {
      "inputs": [],
      "name": "name",
      "outputs": [
        {
          "internalType": "string",
          "name": "",
          "type": "string"
        }
      ],
      "stateMutability": "view",
      "type": "function"
    },
    {
      "inputs": [
        {
          "internalType": "uint256",
          "name": "tokenId",
          "type": "uint256"
        }
      ],
      "name": "ownerOf",
      "outputs": [
        {
          "internalType": "address",
          "name": "",
          "type": "address"
        }
      ],
      "stateMutability": "view",
      "type": "function"
    },
    {
      "inputs": [
        {
          "internalType": "bytes4",
          "name": "interfaceId",
          "type": "bytes4"
        }
      ],
      "name": "supportsInterface",
      "outputs": [
        {
          "internalType": "bool",
          "name": "",
          "type": "bool"
        }
      ],
      "stateMutability": "view",
      "type": "function"
    },
    {
      "inputs": [],
      "name": "symbol",
      "outputs": [
        {
          "internalType": "string",
          "name": "",
          "type": "string"
        }
      ],
      "stateMutability": "view",
      "type": "function"
    },
    {
      "inputs": [
        {
          "internalType": "uint256",
          "name": "tokenId",
          "type": "uint256"
        }
      ],
      "name": "tokenURI",
      "outputs": [
        {
          "internalType": "string",
          "name": "",
          "type": "string"
        }
      ],
      "stateMutability": "view",
      "type": "function"
    },
    {
      "inputs": [
        {
          "internalType": "address",
          "name": "from",
          "type": "address"
        },
        {
          "internalType": "address",
          "name": "to",
          "type": "address"
        },
        {
          "internalType": "uint256",
          "name": "tokenId",
          "type": "uint256"
        }
      ],
      "name": "safeTransferFrom",
      "outputs": [],
      "stateMutability": "pure",
      "type": "function"
    },
    {
      "inputs": [
        {
          "internalType": "address",
          "name": "from",
          "type": "address"
        },
        {
          "internalType": "address",
          "name": "to",
          "type": "address"
        },
        {
          "internalType": "uint256",
          "name": "tokenId",
          "type": "uint256"
        },
        {
          "internalType": "bytes",
          "name": "data",
          "type": "bytes"
        }
      ],
      "name": "safeTransferFrom",
      "outputs": [],
      "stateMutability": "nonpayable",
      "type": "function"
    },
    {
      "inputs": [
        {
          "internalType": "address",
          "name": "from",
          "type": "address"
        },
        {
          "internalType": "address",
          "name": "to",
          "type": "address"
        },
        {
          "internalType": "uint256",
          "name": "tokenId",
          "type": "uint256"
        }
      ],
      "name": "transferFrom",
      "outputs": [],
      "stateMutability": "pure",
      "type": "function"
    },
    {
      "inputs": [
        {
          "internalType": "address",
          "name": "to",
          "type": "address"
        },
        {
          "internalType": "uint256",
          "name": "tokenId",
          "type": "uint256"
        }
      ],
      "name": "approve",
      "outputs": [],
      "stateMutability": "pure",
      "type": "function"
    },
    {
      "inputs": [
        {
          "internalType": "uint256",
          "name": "tokenId",
          "type": "uint256"
        }
      ],
      "name": "getApproved",
      "outputs": [
        {
          "internalType": "address",
          "name": "operator",
          "type": "address"
        }
      ],
      "stateMutability": "view",
      "type": "function"
    },
    {
      "inputs": [
        {
          "internalType": "address",
          "name": "operator",
          "type": "address"
        },
        {
          "internalType": "bool",
          "name": "_approved",
          "type": "bool"
        }
      ],
      "name": "setApprovalForAll",
      "outputs": [],
      "stateMutability": "pure",
      "type": "function"
    },
    {
      "inputs": [
        {
          "internalType": "address",
          "name": "owner",
          "type": "address"
        },
        {
          "internalType": "address",
          "name": "operator",
          "type": "address"
        }
      ],
      "name": "isApprovedForAll",
      "outputs": [
        {
          "internalType": "bool",
          "name": "",
          "type": "bool"
        }
      ],
      "stateMutability": "view",
      "type": "function"
    },
    {
      "inputs": [
        {
          "internalType": "address",
          "name": "receiver",
          "type": "address"
        },
        {
          "internalType": "address",
          "name": "token",
          "type": "address"
        },
        {
          "internalType": "string",
          "name": "tokenURI",
          "type": "string"
        },
        {
          "internalType": "string",
          "name": "merkleRoot",
          "type": "string"
        },
        {
          "internalType": "string",
          "name": "zkProof",
          "type": "string"
        }
      ],
      "name": "mint",
      "outputs": [],
      "stateMutability": "nonpayable",
      "type": "function"
    },
    {
      "inputs": [
        {
          "internalType": "uint256",
          "name": "tokenId",
          "type": "uint256"
        }
      ],
      "name": "burn",
      "outputs": [],
      "stateMutability": "nonpayable",
      "type": "function"
    },
    {
      "inputs": [
        {
          "internalType": "uint256",
          "name": "tokenId",
          "type": "uint256"
        }
      ],
      "name": "getMerkleRoot",
      "outputs": [
        {
          "internalType": "string",
          "name": "",
          "type": "string"
        }
      ],
      "stateMutability": "view",
      "type": "function"
    },
    {
      "inputs": [
        {
          "internalType": "uint256",
          "name": "tokenId",
          "type": "uint256"
        }
      ],
      "name": "getZkProof",
      "outputs": [
        {
          "internalType": "string",
          "name": "",
          "type": "string"
        }
      ],
      "stateMutability": "view",
      "type": "function"
    },
    {
      "inputs": [
        {
          "internalType": "uint256",
          "name": "tokenId",
          "type": "uint256"
        }
      ],
      "name": "getTokenURI",
      "outputs": [
        {
          "internalType": "string",
          "name": "",
          "type": "string"
        }
      ],
      "stateMutability": "view",
      "type": "function"
    },
    {
      "inputs": [
        {
          "internalType": "uint256",
          "name": "tokenId",
          "type": "uint256"
        }
      ],
      "name": "getTimestamp",
      "outputs": [
        {
          "internalType": "uint256",
          "name": "",
          "type": "uint256"
        }
      ],
      "stateMutability": "view",
      "type": "function"
    },
    {
      "inputs": [
        {
          "internalType": "address",
          "name": "admin",
          "type": "address"
        },
        {
          "internalType": "bool",
          "name": "isAdmin",
          "type": "bool"
        }
      ],
      "name": "editAdmin",
      "outputs": [],
      "stateMutability": "nonpayable",
      "type": "function"
    },
    {
      "inputs": [
        {
          "internalType": "address",
          "name": "minter",
          "type": "address"
        },
        {
          "internalType": "bool",
          "name": "isMinter",
          "type": "bool"
        }
      ],
      "name": "editMinter",
      "outputs": [],
      "stateMutability": "nonpayable",
      "type": "function"
    },
    {
      "inputs": [
        {
          "internalType": "address",
          "name": "burner",
          "type": "address"
        },
        {
          "internalType": "bool",
          "name": "isBurner",
          "type": "bool"
        }
      ],
      "name": "editBurner",
      "outputs": [],
      "stateMutability": "nonpayable",
      "type": "function"
    }
  ],
  "bytecode": "0x60806040523480156200001157600080fd5b506040516200370d3803806200370d833981810160405281019062000037919062000444565b828281600090816200004a919062000729565b5080600190816200005c919062000729565b5050506000600f81905550826010908162000078919062000729565b5081601190816200008a919062000729565b506001600660008373ffffffffffffffffffffffffffffffffffffffff1673ffffffffffffffffffffffffffffffffffffffff16815260200190815260200160002060006101000a81548160ff0219169083151502179055506001600760008373ffffffffffffffffffffffffffffffffffffffff1673ffffffffffffffffffffffffffffffffffffffff16815260200190815260200160002060006101000a81548160ff0219169083151502179055506001600860003373ffffffffffffffffffffffffffffffffffffffff1673ffffffffffffffffffffffffffffffffffffffff16815260200190815260200160002060006101000a81548160ff0219169083151502179055506001600760003373ffffffffffffffffffffffffffffffffffffffff1673ffffffffffffffffffffffffffffffffffffffff16815260200190815260200160002060006101000a81548160ff0219169083151502179055506001600660003373ffffffffffffffffffffffffffffffffffffffff1673ffffffffffffffffffffffffffffffffffffffff16815260200190815260200160002060006101000a81548160ff02191690831515021790555050505062000810565b6000604051905090565b600080fd5b600080fd5b600080fd5b600080fd5b6000601f19601f8301169050919050565b7f4e487b7100000000000000000000000000000000000000000000000000000000600052604160045260246000fd5b620002b5826200026a565b810181811067ffffffffffffffff82111715620002d757620002d66200027b565b5b80604052505050565b6000620002ec6200024c565b9050620002fa8282620002aa565b919050565b600067ffffffffffffffff8211156200031d576200031c6200027b565b5b62000328826200026a565b9050602081019050919050565b60005b838110156200035557808201518184015260208101905062000338565b60008484015250505050565b6000620003786200037284620002ff565b620002e0565b90508281526020810184848401111562000397576200039662000265565b5b620003a484828562000335565b509392505050565b600082601f830112620003c457620003c362000260565b5b8151620003d684826020860162000361565b91505092915050565b600073ffffffffffffffffffffffffffffffffffffffff82169050919050565b60006200040c82620003df565b9050919050565b6200041e81620003ff565b81146200042a57600080fd5b50565b6000815190506200043e8162000413565b92915050565b60008060006060848603121562000460576200045f62000256565b5b600084015167ffffffffffffffff8111156200048157620004806200025b565b5b6200048f86828701620003ac565b935050602084015167ffffffffffffffff811115620004b357620004b26200025b565b5b620004c186828701620003ac565b9250506040620004d4868287016200042d565b9150509250925092565b600081519050919050565b7f4e487b7100000000000000000000000000000000000000000000000000000000600052602260045260246000fd5b600060028204905060018216806200053157607f821691505b602082108103620005475762000546620004e9565b5b50919050565b60008190508160005260206000209050919050565b60006020601f8301049050919050565b600082821b905092915050565b600060088302620005b17fffffffffffffffffffffffffffffffffffffffffffffffffffffffffffffffff8262000572565b620005bd868362000572565b95508019841693508086168417925050509392505050565b6000819050919050565b6000819050919050565b60006200060a62000604620005fe84620005d5565b620005df565b620005d5565b9050919050565b6000819050919050565b6200062683620005e9565b6200063e620006358262000611565b8484546200057f565b825550505050565b600090565b6200065562000646565b620006628184846200061b565b505050565b5b818110156200068a576200067e6000826200064b565b60018101905062000668565b5050565b601f821115620006d957620006a3816200054d565b620006ae8462000562565b81016020851015620006be578190505b620006d6620006cd8562000562565b83018262000667565b50505b505050565b600082821c905092915050565b6000620006fe60001984600802620006de565b1980831691505092915050565b6000620007198383620006eb565b9150826002028217905092915050565b6200073482620004de565b67ffffffffffffffff81111562000750576200074f6200027b565b5b6200075c825462000518565b620007698282856200068e565b600060209050601f831160018114620007a157600084156200078c578287015190505b6200079885826200070b565b86555062000808565b601f198416620007b1866200054d565b60005b82811015620007db57848901518255600182019150602085019450602081019050620007b4565b86831015620007fb5784890151620007f7601f891682620006eb565b8355505b6001600288020188555050505b505050505050565b612eed80620008206000396000f3fe608060405234801561001057600080fd5b50600436106101425760003560e01c80634f056c62116100b8578063b633620c1161007c578063b633620c14610383578063b88d4fde146103b3578063c87b56dd146103cf578063e0c6fa58146103ff578063e25c8c711461042f578063e985e9c51461044b57610142565b80634f056c62146102cd5780636352211e146102e957806370a082311461031957806395d89b4114610349578063a22cb4651461036757610142565b80631bc4d8891161010a5780631bc4d8891461021157806323b872dd1461022d5780632870277d146102495780633bb3a24d1461026557806342842e0e1461029557806342966c68146102b157610142565b806301ffc9a71461014757806306fdde0314610177578063081812fc14610195578063095ea7b3146101c55780630aab8ba5146101e1575b600080fd5b610161600480360381019061015c9190611dae565b61047b565b60405161016e9190611df6565b60405180910390f35b61017f61055d565b60405161018c9190611ea1565b60405180910390f35b6101af60048036038101906101aa9190611ef9565b6105ef565b6040516101bc9190611f67565b60405180910390f35b6101df60048036038101906101da9190611fae565b61062c565b005b6101fb60048036038101906101f69190611ef9565b610667565b6040516102089190611ea1565b60405180910390f35b61022b6004803603810190610226919061201a565b61070c565b005b6102476004803603810190610242919061205a565b6107f3565b005b610263600480360381019061025e91906121e2565b61082e565b005b61027f600480360381019061027a9190611ef9565b610a4a565b60405161028c9190611ea1565b60405180910390f35b6102af60048036038101906102aa919061205a565b610aef565b005b6102cb60048036038101906102c69190611ef9565b610b2a565b005b6102e760048036038101906102e2919061201a565b610d46565b005b61030360048036038101906102fe9190611ef9565b610e2d565b6040516103109190611f67565b60405180910390f35b610333600480360381019061032e91906122b1565b610eb3565b60405161034091906122ed565b60405180910390f35b610351610f6a565b60405161035e9190611ea1565b60405180910390f35b610381600480360381019061037c919061201a565b610ffc565b005b61039d60048036038101906103989190611ef9565b611037565b6040516103aa91906122ed565b60405180910390f35b6103cd60048036038101906103c891906123a9565b611054565b005b6103e960048036038101906103e49190611ef9565b6110b6565b6040516103f69190611ea1565b60405180910390f35b61041960048036038101906104149190611ef9565b61111e565b6040516104269190611ea1565b60405180910390f35b6104496004803603810190610444919061201a565b6111c3565b005b6104656004803603810190610460919061242c565b6112aa565b6040516104729190611df6565b60405180910390f35b60007f80ac58cd000000000000000000000000000000000000000000000000000000007bffffffffffffffffffffffffffffffffffffffffffffffffffffffff1916827bffffffffffffffffffffffffffffffffffffffffffffffffffffffff1916148061054657507f5b5e139f000000000000000000000000000000000000000000000000000000007bffffffffffffffffffffffffffffffffffffffffffffffffffffffff1916827bffffffffffffffffffffffffffffffffffffffffffffffffffffffff1916145b806105565750610555826112b2565b5b9050919050565b60606000805461056c9061249b565b80601f01602080910402602001604051908101604052809291908181526020018280546105989061249b565b80156105e55780601f106105ba576101008083540402835291602001916105e5565b820191906000526020600020905b8154815290600101906020018083116105c857829003601f168201915b5050505050905090565b60006040517f08c379a000000000000000000000000000000000000000000000000000000000815260040161062390612518565b60405180910390fd5b6040517f08c379a000000000000000000000000000000000000000000000000000000000815260040161065e90612518565b60405180910390fd5b6060600c600083815260200190815260200160002080546106879061249b565b80601f01602080910402602001604051908101604052809291908181526020018280546106b39061249b565b80156107005780601f106106d557610100808354040283529160200191610700565b820191906000526020600020905b8154815290600101906020018083116106e357829003601f168201915b50505050509050919050565b600860003373ffffffffffffffffffffffffffffffffffffffff1673ffffffffffffffffffffffffffffffffffffffff16815260200190815260200160002060009054906101000a900460ff16610798576040517f08c379a000000000000000000000000000000000000000000000000000000000815260040161078f90612584565b60405180910390fd5b80600760008473ffffffffffffffffffffffffffffffffffffffff1673ffffffffffffffffffffffffffffffffffffffff16815260200190815260200160002060006101000a81548160ff0219169083151502179055505050565b6040517f08c379a000000000000000000000000000000000000000000000000000000000815260040161082590612518565b60405180910390fd5b600660003373ffffffffffffffffffffffffffffffffffffffff1673ffffffffffffffffffffffffffffffffffffffff16815260200190815260200160002060009054906101000a900460ff166108ba576040517f08c379a00000000000000000000000000000000000000000000000000000000081526004016108b1906125f0565b60405180910390fd5b8460096000600f54815260200190815260200160002060006101000a81548173ffffffffffffffffffffffffffffffffffffffff021916908373ffffffffffffffffffffffffffffffffffffffff16021790555083600a6000600f54815260200190815260200160002060006101000a81548173ffffffffffffffffffffffffffffffffffffffff021916908373ffffffffffffffffffffffffffffffffffffffff16021790555082600b6000600f548152602001908152602001600020908161098491906127bc565b5081600c6000600f54815260200190815260200160002090816109a791906127bc565b5080600d6000600f54815260200190815260200160002090816109ca91906127bc565b5042600e6000600f54815260200190815260200160002081905550600f60008154809291906109f8906128bd565b9190505550600f548573ffffffffffffffffffffffffffffffffffffffff167f0f6798a560793a54c3bcfe86a93cde1e73087d944c0ea20544137d412139688560405160405180910390a35050505050565b6060600b60008381526020019081526020016000208054610a6a9061249b565b80601f0160208091040260200160405190810160405280929190818152602001828054610a969061249b565b8015610ae35780601f10610ab857610100808354040283529160200191610ae3565b820191906000526020600020905b815481529060010190602001808311610ac657829003601f168201915b50505050509050919050565b6040517f08c379a0000000000000000000000000000000000000000000000000000000008152600401610b2190612518565b60405180910390fd5b3373ffffffffffffffffffffffffffffffffffffffff166009600083815260200190815260200160002060009054906101000a900473ffffffffffffffffffffffffffffffffffffffff1673ffffffffffffffffffffffffffffffffffffffff161480610be05750600760003373ffffffffffffffffffffffffffffffffffffffff1673ffffffffffffffffffffffffffffffffffffffff16815260200190815260200160002060009054906101000a900460ff165b610c1f576040517f08c379a0000000000000000000000000000000000000000000000000000000008152600401610c1690612977565b60405180910390fd5b6009600082815260200190815260200160002060006101000a81549073ffffffffffffffffffffffffffffffffffffffff0219169055600b60008281526020019081526020016000206000610c749190611ce5565b600c60008281526020019081526020016000206000610c939190611ce5565b600d60008281526020019081526020016000206000610cb29190611ce5565b600e600082815260200190815260200160002060009055600a600082815260200190815260200160002060006101000a81549073ffffffffffffffffffffffffffffffffffffffff0219169055803373ffffffffffffffffffffffffffffffffffffffff167fcc16f5dbb4873280815c1ee09dbd06736cffcc184412cf7a71a0fdb75d397ca560405160405180910390a350565b600860003373ffffffffffffffffffffffffffffffffffffffff1673ffffffffffffffffffffffffffffffffffffffff16815260200190815260200160002060009054906101000a900460ff16610dd2576040517f08c379a0000000000000000000000000000000000000000000000000000000008152600401610dc990612584565b60405180910390fd5b80600660008473ffffffffffffffffffffffffffffffffffffffff1673ffffffffffffffffffffffffffffffffffffffff16815260200190815260200160002060006101000a81548160ff0219169083151502179055505050565b600080610e398361131c565b9050600073ffffffffffffffffffffffffffffffffffffffff168173ffffffffffffffffffffffffffffffffffffffff1603610eaa576040517f08c379a0000000000000000000000000000000000000000000000000000000008152600401610ea1906129e3565b60405180910390fd5b80915050919050565b60008073ffffffffffffffffffffffffffffffffffffffff168273ffffffffffffffffffffffffffffffffffffffff1603610f23576040517f08c379a0000000000000000000000000000000000000000000000000000000008152600401610f1a90612a75565b60405180910390fd5b600360008373ffffffffffffffffffffffffffffffffffffffff1673ffffffffffffffffffffffffffffffffffffffff168152602001908152602001600020549050919050565b606060018054610f799061249b565b80601f0160208091040260200160405190810160405280929190818152602001828054610fa59061249b565b8015610ff25780601f10610fc757610100808354040283529160200191610ff2565b820191906000526020600020905b815481529060010190602001808311610fd557829003601f168201915b5050505050905090565b6040517f08c379a000000000000000000000000000000000000000000000000000000000815260040161102e90612518565b60405180910390fd5b6000600e6000838152602001908152602001600020549050919050565b61106561105f611359565b83611361565b6110a4576040517f08c379a000000000000000000000000000000000000000000000000000000000815260040161109b90612b07565b60405180910390fd5b6110b0848484846113f6565b50505050565b60606110c182611452565b60006110cb61149d565b905060008151116110eb5760405180602001604052806000815250611116565b806110f5846114b4565b604051602001611106929190612b63565b6040516020818303038152906040525b915050919050565b6060600d6000838152602001908152602001600020805461113e9061249b565b80601f016020809104026020016040519081016040528092919081815260200182805461116a9061249b565b80156111b75780601f1061118c576101008083540402835291602001916111b7565b820191906000526020600020905b81548152906001019060200180831161119a57829003601f168201915b50505050509050919050565b600860003373ffffffffffffffffffffffffffffffffffffffff1673ffffffffffffffffffffffffffffffffffffffff16815260200190815260200160002060009054906101000a900460ff1661124f576040517f08c379a000000000000000000000000000000000000000000000000000000000815260040161124690612584565b60405180910390fd5b80600860008473ffffffffffffffffffffffffffffffffffffffff1673ffffffffffffffffffffffffffffffffffffffff16815260200190815260200160002060006101000a81548160ff0219169083151502179055505050565b600092915050565b60007f01ffc9a7000000000000000000000000000000000000000000000000000000007bffffffffffffffffffffffffffffffffffffffffffffffffffffffff1916827bffffffffffffffffffffffffffffffffffffffffffffffffffffffff1916149050919050565b60006002600083815260200190815260200160002060009054906101000a900473ffffffffffffffffffffffffffffffffffffffff169050919050565b600033905090565b60008061136d83610e2d565b90508073ffffffffffffffffffffffffffffffffffffffff168473ffffffffffffffffffffffffffffffffffffffff1614806113af57506113ae81856112aa565b5b806113ed57508373ffffffffffffffffffffffffffffffffffffffff166113d5846105ef565b73ffffffffffffffffffffffffffffffffffffffff16145b91505092915050565b611401848484611582565b61140d8484848461187b565b61144c576040517f08c379a000000000000000000000000000000000000000000000000000000000815260040161144390612bf9565b60405180910390fd5b50505050565b61145b81611a02565b61149a576040517f08c379a0000000000000000000000000000000000000000000000000000000008152600401611491906129e3565b60405180910390fd5b50565b606060405180602001604052806000815250905090565b6060600060016114c384611a43565b01905060008167ffffffffffffffff8111156114e2576114e16120b7565b5b6040519080825280601f01601f1916602001820160405280156115145781602001600182028036833780820191505090505b509050600082602001820190505b600115611577578080600190039150507f3031323334353637383961626364656600000000000000000000000000000000600a86061a8153600a858161156b5761156a612c19565b5b04945060008503611522575b819350505050919050565b8273ffffffffffffffffffffffffffffffffffffffff166115a282610e2d565b73ffffffffffffffffffffffffffffffffffffffff16146115f8576040517f08c379a00000000000000000000000000000000000000000000000000000000081526004016115ef90612cba565b60405180910390fd5b600073ffffffffffffffffffffffffffffffffffffffff168273ffffffffffffffffffffffffffffffffffffffff1603611667576040517f08c379a000000000000000000000000000000000000000000000000000000000815260040161165e90612d4c565b60405180910390fd5b6116748383836001611b96565b8273ffffffffffffffffffffffffffffffffffffffff1661169482610e2d565b73ffffffffffffffffffffffffffffffffffffffff16146116ea576040517f08c379a00000000000000000000000000000000000000000000000000000000081526004016116e190612cba565b60405180910390fd5b6004600082815260200190815260200160002060006101000a81549073ffffffffffffffffffffffffffffffffffffffff02191690556001600360008573ffffffffffffffffffffffffffffffffffffffff1673ffffffffffffffffffffffffffffffffffffffff168152602001908152602001600020600082825403925050819055506001600360008473ffffffffffffffffffffffffffffffffffffffff1673ffffffffffffffffffffffffffffffffffffffff16815260200190815260200160002060008282540192505081905550816002600083815260200190815260200160002060006101000a81548173ffffffffffffffffffffffffffffffffffffffff021916908373ffffffffffffffffffffffffffffffffffffffff160217905550808273ffffffffffffffffffffffffffffffffffffffff168473ffffffffffffffffffffffffffffffffffffffff167fddf252ad1be2c89b69c2b068fc378daa952ba7f163c4a11628f55a4df523b3ef60405160405180910390a46118768383836001611cbc565b505050565b600061189c8473ffffffffffffffffffffffffffffffffffffffff16611cc2565b156119f5578373ffffffffffffffffffffffffffffffffffffffff1663150b7a026118c5611359565b8786866040518563ffffffff1660e01b81526004016118e79493929190612dc1565b6020604051808303816000875af192505050801561192357506040513d601f19601f820116820180604052508101906119209190612e22565b60015b6119a5573d8060008114611953576040519150601f19603f3d011682016040523d82523d6000602084013e611958565b606091505b50600081510361199d576040517f08c379a000000000000000000000000000000000000000000000000000000000815260040161199490612bf9565b60405180910390fd5b805181602001fd5b63150b7a0260e01b7bffffffffffffffffffffffffffffffffffffffffffffffffffffffff1916817bffffffffffffffffffffffffffffffffffffffffffffffffffffffff1916149150506119fa565b600190505b949350505050565b60008073ffffffffffffffffffffffffffffffffffffffff16611a248361131c565b73ffffffffffffffffffffffffffffffffffffffff1614159050919050565b600080600090507a184f03e93ff9f4daa797ed6e38ed64bf6a1f0100000000000000008310611aa1577a184f03e93ff9f4daa797ed6e38ed64bf6a1f0100000000000000008381611a9757611a96612c19565b5b0492506040810190505b6d04ee2d6d415b85acef81000000008310611ade576d04ee2d6d415b85acef81000000008381611ad457611ad3612c19565b5b0492506020810190505b662386f26fc100008310611b0d57662386f26fc100008381611b0357611b02612c19565b5b0492506010810190505b6305f5e1008310611b36576305f5e1008381611b2c57611b2b612c19565b5b0492506008810190505b6127108310611b5b576127108381611b5157611b50612c19565b5b0492506004810190505b60648310611b7e5760648381611b7457611b73612c19565b5b0492506002810190505b600a8310611b8d576001810190505b80915050919050565b6001811115611cb657600073ffffffffffffffffffffffffffffffffffffffff168473ffffffffffffffffffffffffffffffffffffffff1614611c2a5780600360008673ffffffffffffffffffffffffffffffffffffffff1673ffffffffffffffffffffffffffffffffffffffff1681526020019081526020016000206000828254611c229190612e4f565b925050819055505b600073ffffffffffffffffffffffffffffffffffffffff168373ffffffffffffffffffffffffffffffffffffffff1614611cb55780600360008573ffffffffffffffffffffffffffffffffffffffff1673ffffffffffffffffffffffffffffffffffffffff1681526020019081526020016000206000828254611cad9190612e83565b925050819055505b5b50505050565b50505050565b6000808273ffffffffffffffffffffffffffffffffffffffff163b119050919050565b508054611cf19061249b565b6000825580601f10611d035750611d22565b601f016020900490600052602060002090810190611d219190611d25565b5b50565b5b80821115611d3e576000816000905550600101611d26565b5090565b6000604051905090565b600080fd5b600080fd5b60007fffffffff0000000000000000000000000000000000000000000000000000000082169050919050565b611d8b81611d56565b8114611d9657600080fd5b50565b600081359050611da881611d82565b92915050565b600060208284031215611dc457611dc3611d4c565b5b6000611dd284828501611d99565b91505092915050565b60008115159050919050565b611df081611ddb565b82525050565b6000602082019050611e0b6000830184611de7565b92915050565b600081519050919050565b600082825260208201905092915050565b60005b83811015611e4b578082015181840152602081019050611e30565b60008484015250505050565b6000601f19601f8301169050919050565b6000611e7382611e11565b611e7d8185611e1c565b9350611e8d818560208601611e2d565b611e9681611e57565b840191505092915050565b60006020820190508181036000830152611ebb8184611e68565b905092915050565b6000819050919050565b611ed681611ec3565b8114611ee157600080fd5b50565b600081359050611ef381611ecd565b92915050565b600060208284031215611f0f57611f0e611d4c565b5b6000611f1d84828501611ee4565b91505092915050565b600073ffffffffffffffffffffffffffffffffffffffff82169050919050565b6000611f5182611f26565b9050919050565b611f6181611f46565b82525050565b6000602082019050611f7c6000830184611f58565b92915050565b611f8b81611f46565b8114611f9657600080fd5b50565b600081359050611fa881611f82565b92915050565b60008060408385031215611fc557611fc4611d4c565b5b6000611fd385828601611f99565b9250506020611fe485828601611ee4565b9150509250929050565b611ff781611ddb565b811461200257600080fd5b50565b60008135905061201481611fee565b92915050565b6000806040838503121561203157612030611d4c565b5b600061203f85828601611f99565b925050602061205085828601612005565b9150509250929050565b60008060006060848603121561207357612072611d4c565b5b600061208186828701611f99565b935050602061209286828701611f99565b92505060406120a386828701611ee4565b9150509250925092565b600080fd5b600080fd5b7f4e487b7100000000000000000000000000000000000000000000000000000000600052604160045260246000fd5b6120ef82611e57565b810181811067ffffffffffffffff8211171561210e5761210d6120b7565b5b80604052505050565b6000612121611d42565b905061212d82826120e6565b919050565b600067ffffffffffffffff82111561214d5761214c6120b7565b5b61215682611e57565b9050602081019050919050565b82818337600083830152505050565b600061218561218084612132565b612117565b9050828152602081018484840111156121a1576121a06120b2565b5b6121ac848285612163565b509392505050565b600082601f8301126121c9576121c86120ad565b5b81356121d9848260208601612172565b91505092915050565b600080600080600060a086880312156121fe576121fd611d4c565b5b600061220c88828901611f99565b955050602061221d88828901611f99565b945050604086013567ffffffffffffffff81111561223e5761223d611d51565b5b61224a888289016121b4565b935050606086013567ffffffffffffffff81111561226b5761226a611d51565b5b612277888289016121b4565b925050608086013567ffffffffffffffff81111561229857612297611d51565b5b6122a4888289016121b4565b9150509295509295909350565b6000602082840312156122c7576122c6611d4c565b5b60006122d584828501611f99565b91505092915050565b6122e781611ec3565b82525050565b600060208201905061230260008301846122de565b92915050565b600067ffffffffffffffff821115612323576123226120b7565b5b61232c82611e57565b9050602081019050919050565b600061234c61234784612308565b612117565b905082815260208101848484011115612368576123676120b2565b5b612373848285612163565b509392505050565b600082601f8301126123905761238f6120ad565b5b81356123a0848260208601612339565b91505092915050565b600080600080608085870312156123c3576123c2611d4c565b5b60006123d187828801611f99565b94505060206123e287828801611f99565b93505060406123f387828801611ee4565b925050606085013567ffffffffffffffff81111561241457612413611d51565b5b6124208782880161237b565b91505092959194509250565b6000806040838503121561244357612442611d4c565b5b600061245185828601611f99565b925050602061246285828601611f99565b9150509250929050565b7f4e487b7100000000000000000000000000000000000000000000000000000000600052602260045260246000fd5b600060028204905060018216806124b357607f821691505b6020821081036124c6576124c561246c565b5b50919050565b7f4e6f206f6e652063616e207472616e73666572207468697320746f6b656e0000600082015250565b6000612502601e83611e1c565b915061250d826124cc565b602082019050919050565b60006020820190508181036000830152612531816124f5565b9050919050565b7f596f7520617265206e6f7420616e2061646d696e000000000000000000000000600082015250565b600061256e601483611e1c565b915061257982612538565b602082019050919050565b6000602082019050818103600083015261259d81612561565b9050919050565b7f596f7520617265206e6f742061206d696e746572000000000000000000000000600082015250565b60006125da601483611e1c565b91506125e5826125a4565b602082019050919050565b60006020820190508181036000830152612609816125cd565b9050919050565b60008190508160005260206000209050919050565b60006020601f8301049050919050565b600082821b905092915050565b6000600883026126727fffffffffffffffffffffffffffffffffffffffffffffffffffffffffffffffff82612635565b61267c8683612635565b95508019841693508086168417925050509392505050565b6000819050919050565b60006126b96126b46126af84611ec3565b612694565b611ec3565b9050919050565b6000819050919050565b6126d38361269e565b6126e76126df826126c0565b848454612642565b825550505050565b600090565b6126fc6126ef565b6127078184846126ca565b505050565b5b8181101561272b576127206000826126f4565b60018101905061270d565b5050565b601f8211156127705761274181612610565b61274a84612625565b81016020851015612759578190505b61276d61276585612625565b83018261270c565b50505b505050565b600082821c905092915050565b600061279360001984600802612775565b1980831691505092915050565b60006127ac8383612782565b9150826002028217905092915050565b6127c582611e11565b67ffffffffffffffff8111156127de576127dd6120b7565b5b6127e8825461249b565b6127f382828561272f565b600060209050601f8311600181146128265760008415612814578287015190505b61281e85826127a0565b865550612886565b601f19841661283486612610565b60005b8281101561285c57848901518255600182019150602085019450602081019050612837565b868310156128795784890151612875601f891682612782565b8355505b6001600288020188555050505b505050505050565b7f4e487b7100000000000000000000000000000000000000000000000000000000600052601160045260246000fd5b60006128c882611ec3565b91507fffffffffffffffffffffffffffffffffffffffffffffffffffffffffffffffff82036128fa576128f961288e565b5b600182019050919050565b7f596f7520617265206e6f7420616c6c6f77656420746f206275726e207468697360008201527f20746f6b656e0000000000000000000000000000000000000000000000000000602082015250565b6000612961602683611e1c565b915061296c82612905565b604082019050919050565b6000602082019050818103600083015261299081612954565b9050919050565b7f4552433732313a20696e76616c696420746f6b656e2049440000000000000000600082015250565b60006129cd601883611e1c565b91506129d882612997565b602082019050919050565b600060208201905081810360008301526129fc816129c0565b9050919050565b7f4552433732313a2061646472657373207a65726f206973206e6f74206120766160008201527f6c6964206f776e65720000000000000000000000000000000000000000000000602082015250565b6000612a5f602983611e1c565b9150612a6a82612a03565b604082019050919050565b60006020820190508181036000830152612a8e81612a52565b9050919050565b7f4552433732313a2063616c6c6572206973206e6f7420746f6b656e206f776e6560008201527f72206f7220617070726f76656400000000000000000000000000000000000000602082015250565b6000612af1602d83611e1c565b9150612afc82612a95565b604082019050919050565b60006020820190508181036000830152612b2081612ae4565b9050919050565b600081905092915050565b6000612b3d82611e11565b612b478185612b27565b9350612b57818560208601611e2d565b80840191505092915050565b6000612b6f8285612b32565b9150612b7b8284612b32565b91508190509392505050565b7f4552433732313a207472616e7366657220746f206e6f6e20455243373231526560008201527f63656976657220696d706c656d656e7465720000000000000000000000000000602082015250565b6000612be3603283611e1c565b9150612bee82612b87565b604082019050919050565b60006020820190508181036000830152612c1281612bd6565b9050919050565b7f4e487b7100000000000000000000000000000000000000000000000000000000600052601260045260246000fd5b7f4552433732313a207472616e736665722066726f6d20696e636f72726563742060008201527f6f776e6572000000000000000000000000000000000000000000000000000000602082015250565b6000612ca4602583611e1c565b9150612caf82612c48565b604082019050919050565b60006020820190508181036000830152612cd381612c97565b9050919050565b7f4552433732313a207472616e7366657220746f20746865207a65726f2061646460008201527f7265737300000000000000000000000000000000000000000000000000000000602082015250565b6000612d36602483611e1c565b9150612d4182612cda565b604082019050919050565b60006020820190508181036000830152612d6581612d29565b9050919050565b600081519050919050565b600082825260208201905092915050565b6000612d9382612d6c565b612d9d8185612d77565b9350612dad818560208601611e2d565b612db681611e57565b840191505092915050565b6000608082019050612dd66000830187611f58565b612de36020830186611f58565b612df060408301856122de565b8181036060830152612e028184612d88565b905095945050505050565b600081519050612e1c81611d82565b92915050565b600060208284031215612e3857612e37611d4c565b5b6000612e4684828501612e0d565b91505092915050565b6000612e5a82611ec3565b9150612e6583611ec3565b9250828203905081811115612e7d57612e7c61288e565b5b92915050565b6000612e8e82611ec3565b9150612e9983611ec3565b9250828201905080821115612eb157612eb061288e565b5b9291505056fea26469706673582212209dcb40e749e9231814c75d6362c41ea6417c5401ce09896497287b6c8400e37164736f6c63430008110033",
  "immutableReferences": {},
  "source": "// license: MIT\r\n\r\npragma solidity ^0.8.17;\r\n\r\nimport \"@openzeppelin/contracts/token/ERC721/ERC721.sol\";\r\n\r\ncontract verified_sbt is ERC721 {\r\n\r\n    mapping (address => bool) private _isMinter; // can mint tokens\r\n    mapping (address => bool) private _isBurner; // can burn tokens even if they are not the owner\r\n    mapping (address => bool) private _isAdmin; // admin can add and delete admins, set and unset minters and burners\r\n\r\n\r\n    mapping (uint256 => address) private _owner; // link the sbt to a certain owner\r\n    mapping (uint256 => address) private _token; // link the sbt to a certain token\r\n\r\n    mapping (uint256 => string) private _tokenURI; // uri where we can get the addresses used to generate the proof\r\n    mapping (uint256 => string) private _merkleRoot; // merkle root of the addresses (to ensure that the addresses have not been modified)\r\n    mapping (uint256 => string) private _zkProof; // zk proof generated in the frontend (not verified yet)\r\n\r\n    mapping (uint256 => uint256) private _timestamp; // timestamp of the minting of the proof\r\n\r\n\r\n    uint256 private _tokenId;\r\n    string private _name;\r\n    string private _symbol;\r\n\r\n    event Mint(address indexed owner, uint256 indexed tokenId);\r\n    event Burn(address indexed owner, uint256 indexed tokenId);\r\n\r\n    constructor(string memory name_, string memory symbol_, address verifier_) ERC721(name_, symbol_){\r\n        _tokenId = 0;\r\n        _name = name_;\r\n        _symbol = symbol_;\r\n\r\n        // verifier can mint and burn\r\n        _isMinter[verifier_] = true;\r\n        _isBurner[verifier_] = true;\r\n\r\n        // contract creator has all the rights\r\n        _isAdmin[msg.sender] = true;\r\n        _isBurner[msg.sender] = true;\r\n        _isMinter[msg.sender] = true;\r\n    }\r\n\r\n    /**\r\n    * @param from is the current owner of the NFT\r\n    * @param to is the new owner of the NFT\r\n    * @param tokenId is the NFT to transfer\r\n    * safeTransferFrom and transferFrom are disabled because the nft is a sbt\r\n    */\r\n    function safeTransferFrom(address from, address to, uint256 tokenId) public pure override {\r\n        revert(\"No one can transfer this token\");\r\n    }\r\n    function transferFrom(address from, address to, uint256 tokenId) public pure override {\r\n        revert(\"No one can transfer this token\");\r\n    }\r\n\r\n    /**\r\n    * approve is disabled because the nft is a sbt and cannot be transfered\r\n    */\r\n    function approve(address to, uint256 tokenId) public pure override {\r\n        revert(\"No one can transfer this token\");\r\n    }\r\n    /**\r\n    * getApproved is disabled because the nft is a sbt and cannot be transfered\r\n    */\r\n    function getApproved(uint256 tokenId) public view override returns (address operator) {\r\n        revert(\"No one can transfer this token\");\r\n        return address(0);\r\n    }\r\n    /**\r\n    * setApprovalForAll is disabled because the nft is a sbt and cannot be transfered\r\n    */\r\n    function setApprovalForAll(address operator, bool _approved) public pure override {\r\n        revert(\"No one can transfer this token\");\r\n    }\r\n    /**\r\n    * isApprovedForAll is disabled because the nft is a sbt and cannot be transfered -> the output will always be false\r\n    */\r\n    function isApprovedForAll(address owner, address operator) public view override returns (bool) {\r\n        return false;\r\n    }\r\n\r\n\r\n    // mint and burn sbt\r\n\r\n    /**\r\n    * @param receiver is the address of the receiver of the sbt\r\n    * @param token is the address of the token that is linked to the sbt\r\n    * @param tokenURI is the uri where we can get the addresses used to generate the proof (stored on ipfs)\r\n    * @param merkleRoot is the merkle root of the addresses (to ensure that the addresses have not been modified)\r\n    * @param zkProof is the zk proof generated in the frontend (which has been verified by the verifier)\r\n    * mint a new sbt\r\n    */\r\n    function mint(address receiver, address token, string memory tokenURI, string memory merkleRoot, string memory zkProof) public {\r\n        require(_isMinter[msg.sender], \"You are not a minter\");\r\n\r\n        _owner[_tokenId] = receiver;\r\n        _token[_tokenId] = token;\r\n        _tokenURI[_tokenId] = tokenURI;\r\n        _merkleRoot[_tokenId] = merkleRoot;\r\n        _zkProof[_tokenId] = zkProof;\r\n        _timestamp[_tokenId] = block.timestamp;\r\n        _tokenId++;\r\n\r\n        emit Mint(receiver, _tokenId);\r\n    }\r\n\r\n    /**\r\n    * @param tokenId is the id of the sbt to burn\r\n    * burn an sbt\r\n    */\r\n    function burn(uint256 tokenId) public {\r\n        require(_owner[tokenId] == msg.sender || _isBurner[msg.sender], \"You are not allowed to burn this token\");\r\n\r\n        delete _owner[tokenId];\r\n        delete _tokenURI[tokenId];\r\n        delete _merkleRoot[tokenId];\r\n        delete _zkProof[tokenId];\r\n        delete _timestamp[tokenId];\r\n        delete _token[tokenId];\r\n\r\n        emit Burn(msg.sender, tokenId);\r\n    }\r\n\r\n    // get sbt data    \r\n\r\n    /**\r\n    * @param tokenId is the id of the sbt\r\n    * @return _merkleRoot associated to the sbt\r\n    */\r\n    function getMerkleRoot(uint256 tokenId) public view returns (string memory) {\r\n        return _merkleRoot[tokenId];\r\n    }\r\n    /**\r\n    * @param tokenId is the id of the sbt\r\n    * @return _zkProof associated to the sbt\r\n    */\r\n    function getZkProof(uint256 tokenId) public view returns (string memory) {\r\n        return _zkProof[tokenId];\r\n    }\r\n    /**\r\n    * @param tokenId is the id of the sbt\r\n    * @return _tokenURI associated to the sbt\r\n    */\r\n    function getTokenURI(uint256 tokenId) public view returns (string memory) {\r\n        return _tokenURI[tokenId];\r\n    }\r\n    /**\r\n    * @param tokenId is the id of the sbt\r\n    * @return _timestamp associated to the sbt\r\n    */\r\n    function getTimestamp(uint256 tokenId) public view returns (uint256) {\r\n        return _timestamp[tokenId];\r\n    }\r\n\r\n    // admin functions\r\n    /**\r\n    * @param admin is the address of the admin to add/remove\r\n    * @param isAdmin is true if the admin is added, false if the admin is removed\r\n    */\r\n    function editAdmin(address admin, bool isAdmin) public {\r\n        require(_isAdmin[msg.sender], \"You are not an admin\");\r\n        _isAdmin[admin] = isAdmin;\r\n    }\r\n    /**\r\n    * @param minter is the address of the minter to add/remove\r\n    * @param isMinter is true if the minter is added, false if the minter is removed\r\n    */\r\n    function editMinter(address minter, bool isMinter) public {\r\n        require(_isAdmin[msg.sender], \"You are not an admin\");\r\n        _isMinter[minter] = isMinter;\r\n    }\r\n    /**\r\n    * @param burner is the address of the burner to add/remove\r\n    * @param isBurner is true if the burner is added, false if the burner is removed\r\n    */\r\n    function editBurner(address burner, bool isBurner) public {\r\n        require(_isAdmin[msg.sender], \"You are not an admin\");\r\n        _isBurner[burner] = isBurner;\r\n    }\r\n}",
  "sourcePath": "C:\\Users\\hervi\\Documents\\Blockchain Projects\\ETHDenver2023\\SBT\\truffle\\contracts\\verified-sbt.sol",
  "compiler": {
    "name": "solc",
    "version": "0.8.17+commit.8df45f5f.Emscripten.clang"
  },
  "schemaVersion": "3.4.12",
  "updatedAt": "2023-02-25T20:47:06.456Z",
  "devdoc": {
    "kind": "dev",
    "methods": {
      "balanceOf(address)": {
        "details": "See {IERC721-balanceOf}."
      },
      "burn(uint256)": {
        "params": {
          "tokenId": "is the id of the sbt to burn burn an sbt"
        }
      },
      "editAdmin(address,bool)": {
        "params": {
          "admin": "is the address of the admin to add/remove",
          "isAdmin": "is true if the admin is added, false if the admin is removed"
        }
      },
      "editBurner(address,bool)": {
        "params": {
          "burner": "is the address of the burner to add/remove",
          "isBurner": "is true if the burner is added, false if the burner is removed"
        }
      },
      "editMinter(address,bool)": {
        "params": {
          "isMinter": "is true if the minter is added, false if the minter is removed",
          "minter": "is the address of the minter to add/remove"
        }
      },
      "getMerkleRoot(uint256)": {
        "params": {
          "tokenId": "is the id of the sbt"
        },
        "returns": {
          "_0": "_merkleRoot associated to the sbt"
        }
      },
      "getTimestamp(uint256)": {
        "params": {
          "tokenId": "is the id of the sbt"
        },
        "returns": {
          "_0": "_timestamp associated to the sbt"
        }
      },
      "getTokenURI(uint256)": {
        "params": {
          "tokenId": "is the id of the sbt"
        },
        "returns": {
          "_0": "_tokenURI associated to the sbt"
        }
      },
      "getZkProof(uint256)": {
        "params": {
          "tokenId": "is the id of the sbt"
        },
        "returns": {
          "_0": "_zkProof associated to the sbt"
        }
      },
      "mint(address,address,string,string,string)": {
        "params": {
          "merkleRoot": "is the merkle root of the addresses (to ensure that the addresses have not been modified)",
          "receiver": "is the address of the receiver of the sbt",
          "token": "is the address of the token that is linked to the sbt",
          "tokenURI": "is the uri where we can get the addresses used to generate the proof (stored on ipfs)",
          "zkProof": "is the zk proof generated in the frontend (which has been verified by the verifier) mint a new sbt"
        }
      },
      "name()": {
        "details": "See {IERC721Metadata-name}."
      },
      "ownerOf(uint256)": {
        "details": "See {IERC721-ownerOf}."
      },
      "safeTransferFrom(address,address,uint256)": {
        "params": {
          "from": "is the current owner of the NFT",
          "to": "is the new owner of the NFT",
          "tokenId": "is the NFT to transfer safeTransferFrom and transferFrom are disabled because the nft is a sbt"
        }
      },
      "safeTransferFrom(address,address,uint256,bytes)": {
        "details": "See {IERC721-safeTransferFrom}."
      },
      "supportsInterface(bytes4)": {
        "details": "See {IERC165-supportsInterface}."
      },
      "symbol()": {
        "details": "See {IERC721Metadata-symbol}."
      },
      "tokenURI(uint256)": {
        "details": "See {IERC721Metadata-tokenURI}."
      },
      "transferFrom(address,address,uint256)": {
        "details": "See {IERC721-transferFrom}."
      }
    },
    "version": 1
  },
  "userdoc": {
    "kind": "user",
    "methods": {
      "approve(address,uint256)": {
        "notice": "approve is disabled because the nft is a sbt and cannot be transfered"
      },
      "getApproved(uint256)": {
        "notice": "getApproved is disabled because the nft is a sbt and cannot be transfered"
      },
      "isApprovedForAll(address,address)": {
        "notice": "isApprovedForAll is disabled because the nft is a sbt and cannot be transfered -> the output will always be false"
      },
      "setApprovalForAll(address,bool)": {
        "notice": "setApprovalForAll is disabled because the nft is a sbt and cannot be transfered"
      }
    },
    "version": 1
  }
}