{
  "contractName": "verifier",
  "abi": [
    {
      "inputs": [
        {
          "internalType": "address",
          "name": "sbt",
          "type": "address"
        }
      ],
      "stateMutability": "nonpayable",
      "type": "constructor"
    },
    {
      "inputs": [
        {
          "internalType": "address[]",
          "name": "addresses",
          "type": "address[]"
        },
        {
          "internalType": "uint256",
          "name": "value",
          "type": "uint256"
        },
        {
          "internalType": "uint256",
          "name": "message",
          "type": "uint256"
        },
        {
          "internalType": "address",
          "name": "token",
          "type": "address"
        },
        {
          "internalType": "string",
          "name": "addressesURI",
          "type": "string"
        },
        {
          "internalType": "string",
          "name": "verifierData",
          "type": "string"
        }
      ],
      "name": "verify",
      "outputs": [],
      "stateMutability": "nonpayable",
      "type": "function"
    },
    {
      "inputs": [
        {
          "internalType": "address[]",
          "name": "addresses",
          "type": "address[]"
        }
      ],
      "name": "buildRoot",
      "outputs": [
        {
          "internalType": "bytes32",
          "name": "",
          "type": "bytes32"
        }
      ],
      "stateMutability": "pure",
      "type": "function"
    },
    {
      "inputs": [
        {
          "internalType": "bytes32",
          "name": "root",
          "type": "bytes32"
        },
        {
          "internalType": "address[]",
          "name": "addresses",
          "type": "address[]"
        }
      ],
      "name": "verifyRoot",
      "outputs": [
        {
          "internalType": "bool",
          "name": "",
          "type": "bool"
        }
      ],
      "stateMutability": "pure",
      "type": "function"
    }
  ],
  "bytecode": "0x60806040523480156200001157600080fd5b50604051620013fe380380620013fe8339818101604052810190620000379190620000e8565b806000806101000a81548173ffffffffffffffffffffffffffffffffffffffff021916908373ffffffffffffffffffffffffffffffffffffffff160217905550506200011a565b600080fd5b600073ffffffffffffffffffffffffffffffffffffffff82169050919050565b6000620000b08262000083565b9050919050565b620000c281620000a3565b8114620000ce57600080fd5b50565b600081519050620000e281620000b7565b92915050565b6000602082840312156200010157620001006200007e565b5b60006200011184828501620000d1565b91505092915050565b6112d4806200012a6000396000f3fe608060405234801561001057600080fd5b50600436106100415760003560e01c806377a3aefd14610046578063c4e65e5814610076578063ec0cf19614610092575b600080fd5b610060600480360381019061005b91906108e0565b6100c2565b60405161006d9190610957565b60405180910390f35b610090600480360381019061008b9190610a5d565b6100d7565b005b6100ac60048036038101906100a79190610b3e565b610387565b6040516100b99190610b96565b60405180910390f35b6000826100ce83610387565b14905092915050565b6000865167ffffffffffffffff8111156100f4576100f361073f565b5b6040519080825280602002602001820160405280156101225781602001602082028036833780820191505090505b509050600073__HackyAOSRing__________________________63b626e3258984848a6040518563ffffffff1660e01b81526004016101649493929190610d3c565b602060405180830381865af4158015610181573d6000803e3d6000fd5b505050506040513d601f19601f820116820180604052508101906101a59190610dbb565b6101e4576040517f08c379a00000000000000000000000000000000000000000000000000000000081526004016101db90610e45565b60405180910390fd5b60005b88518110156102d957878673ffffffffffffffffffffffffffffffffffffffff166370a082318b84815181106102205761021f610e65565b5b60200260200101516040518263ffffffff1660e01b81526004016102449190610ea3565b602060405180830381865afa158015610261573d6000803e3d6000fd5b505050506040513d601f19601f820116820180604052508101906102859190610ed3565b10156102c6576040517f08c379a00000000000000000000000000000000000000000000000000000000081526004016102bd90610f72565b60405180910390fd5b80806102d190610fc1565b9150506101e7565b5060006102e589610387565b905060008054906101000a900473ffffffffffffffffffffffffffffffffffffffff1673ffffffffffffffffffffffffffffffffffffffff1663c44bef5d338888858c8a6040518763ffffffff1660e01b815260040161034a96959493929190611086565b600060405180830381600087803b15801561036457600080fd5b505af1158015610378573d6000803e3d6000fd5b50505050505050505050505050565b600080825167ffffffffffffffff8111156103a5576103a461073f565b5b6040519080825280602002602001820160405280156103d35781602001602082028036833780820191505090505b50905060005b8351811015610455578381815181106103f5576103f4610e65565b5b602002602001015160405160200161040d919061113d565b6040516020818303038152906040528051906020012082828151811061043657610435610e65565b5b602002602001018181525050808061044d90610fc1565b9150506103d9565b5061045f81610467565b915050919050565b60008082510361047c576000801b90506106da565b60018251036104a8578160008151811061049957610498610e65565b5b602002602001015190506106da565b6001600283516104b89190611187565b036105be576000600183516104cd91906111b8565b67ffffffffffffffff8111156104e6576104e561073f565b5b6040519080825280602002602001820160405280156105145781602001602082028036833780820191505090505b50905060005b83518110156105705783818151811061053657610535610e65565b5b602002602001015182828151811061055157610550610e65565b5b602002602001018181525050808061056890610fc1565b91505061051a565b50826001845161058091906111ec565b8151811061059157610590610e65565b5b6020026020010151818451815181106105ad576105ac610e65565b5b602002602001018181525050809250505b6000600283516105ce9190611220565b67ffffffffffffffff8111156105e7576105e661073f565b5b6040519080825280602002602001820160405280156106155781602001602082028036833780820191505090505b50905060005b83518110156106cc5783818151811061063757610636610e65565b5b60200260200101518460018361064d91906111b8565b8151811061065e5761065d610e65565b5b6020026020010151604051602001610677929190611272565b604051602081830303815290604052805190602001208260028361069b9190611220565b815181106106ac576106ab610e65565b5b6020026020010181815250506002816106c591906111b8565b905061061b565b506106d681610467565b9150505b919050565b6000604051905090565b600080fd5b600080fd5b6000819050919050565b610706816106f3565b811461071157600080fd5b50565b600081359050610723816106fd565b92915050565b600080fd5b6000601f19601f8301169050919050565b7f4e487b7100000000000000000000000000000000000000000000000000000000600052604160045260246000fd5b6107778261072e565b810181811067ffffffffffffffff821117156107965761079561073f565b5b80604052505050565b60006107a96106df565b90506107b5828261076e565b919050565b600067ffffffffffffffff8211156107d5576107d461073f565b5b602082029050602081019050919050565b600080fd5b600073ffffffffffffffffffffffffffffffffffffffff82169050919050565b6000610816826107eb565b9050919050565b6108268161080b565b811461083157600080fd5b50565b6000813590506108438161081d565b92915050565b600061085c610857846107ba565b61079f565b9050808382526020820190506020840283018581111561087f5761087e6107e6565b5b835b818110156108a857806108948882610834565b845260208401935050602081019050610881565b5050509392505050565b600082601f8301126108c7576108c6610729565b5b81356108d7848260208601610849565b91505092915050565b600080604083850312156108f7576108f66106e9565b5b600061090585828601610714565b925050602083013567ffffffffffffffff811115610926576109256106ee565b5b610932858286016108b2565b9150509250929050565b60008115159050919050565b6109518161093c565b82525050565b600060208201905061096c6000830184610948565b92915050565b6000819050919050565b61098581610972565b811461099057600080fd5b50565b6000813590506109a28161097c565b92915050565b600080fd5b600067ffffffffffffffff8211156109c8576109c761073f565b5b6109d18261072e565b9050602081019050919050565b82818337600083830152505050565b6000610a006109fb846109ad565b61079f565b905082815260208101848484011115610a1c57610a1b6109a8565b5b610a278482856109de565b509392505050565b600082601f830112610a4457610a43610729565b5b8135610a548482602086016109ed565b91505092915050565b60008060008060008060c08789031215610a7a57610a796106e9565b5b600087013567ffffffffffffffff811115610a9857610a976106ee565b5b610aa489828a016108b2565b9650506020610ab589828a01610993565b9550506040610ac689828a01610993565b9450506060610ad789828a01610834565b935050608087013567ffffffffffffffff811115610af857610af76106ee565b5b610b0489828a01610a2f565b92505060a087013567ffffffffffffffff811115610b2557610b246106ee565b5b610b3189828a01610a2f565b9150509295509295509295565b600060208284031215610b5457610b536106e9565b5b600082013567ffffffffffffffff811115610b7257610b716106ee565b5b610b7e848285016108b2565b91505092915050565b610b90816106f3565b82525050565b6000602082019050610bab6000830184610b87565b92915050565b600081519050919050565b600082825260208201905092915050565b6000819050602082019050919050565b610be68161080b565b82525050565b6000610bf88383610bdd565b60208301905092915050565b6000602082019050919050565b6000610c1c82610bb1565b610c268185610bbc565b9350610c3183610bcd565b8060005b83811015610c62578151610c498882610bec565b9750610c5483610c04565b925050600181019050610c35565b5085935050505092915050565b600081519050919050565b600082825260208201905092915050565b6000819050602082019050919050565b610ca481610972565b82525050565b6000610cb68383610c9b565b60208301905092915050565b6000602082019050919050565b6000610cda82610c6f565b610ce48185610c7a565b9350610cef83610c8b565b8060005b83811015610d20578151610d078882610caa565b9750610d1283610cc2565b925050600181019050610cf3565b5085935050505092915050565b610d3681610972565b82525050565b60006080820190508181036000830152610d568187610c11565b90508181036020830152610d6a8186610ccf565b9050610d796040830185610d2d565b610d866060830184610d2d565b95945050505050565b610d988161093c565b8114610da357600080fd5b50565b600081519050610db581610d8f565b92915050565b600060208284031215610dd157610dd06106e9565b5b6000610ddf84828501610da6565b91505092915050565b600082825260208201905092915050565b7f496e76616c69642072696e67207369676e617475726500000000000000000000600082015250565b6000610e2f601683610de8565b9150610e3a82610df9565b602082019050919050565b60006020820190508181036000830152610e5e81610e22565b9050919050565b7f4e487b7100000000000000000000000000000000000000000000000000000000600052603260045260246000fd5b610e9d8161080b565b82525050565b6000602082019050610eb86000830184610e94565b92915050565b600081519050610ecd8161097c565b92915050565b600060208284031215610ee957610ee86106e9565b5b6000610ef784828501610ebe565b91505092915050565b7f496e73756666696369656e742062616c616e636520696e206174206c6561737460008201527f206f6e6520616464726573730000000000000000000000000000000000000000602082015250565b6000610f5c602c83610de8565b9150610f6782610f00565b604082019050919050565b60006020820190508181036000830152610f8b81610f4f565b9050919050565b7f4e487b7100000000000000000000000000000000000000000000000000000000600052601160045260246000fd5b6000610fcc82610972565b91507fffffffffffffffffffffffffffffffffffffffffffffffffffffffffffffffff8203610ffe57610ffd610f92565b5b600182019050919050565b600081519050919050565b60005b83811015611032578082015181840152602081019050611017565b60008484015250505050565b600061104982611009565b6110538185610de8565b9350611063818560208601611014565b61106c8161072e565b840191505092915050565b61108081610972565b82525050565b600060c08201905061109b6000830189610e94565b6110a86020830188610e94565b81810360408301526110ba818761103e565b90506110c96060830186610b87565b6110d66080830185611077565b81810360a08301526110e8818461103e565b9050979650505050505050565b60008160601b9050919050565b600061110d826110f5565b9050919050565b600061111f82611102565b9050919050565b6111376111328261080b565b611114565b82525050565b60006111498284611126565b60148201915081905092915050565b7f4e487b7100000000000000000000000000000000000000000000000000000000600052601260045260246000fd5b600061119282610972565b915061119d83610972565b9250826111ad576111ac611158565b5b828206905092915050565b60006111c382610972565b91506111ce83610972565b92508282019050808211156111e6576111e5610f92565b5b92915050565b60006111f782610972565b915061120283610972565b925082820390508181111561121a57611219610f92565b5b92915050565b600061122b82610972565b915061123683610972565b92508261124657611245611158565b5b828204905092915050565b6000819050919050565b61126c611267826106f3565b611251565b82525050565b600061127e828561125b565b60208201915061128e828461125b565b602082019150819050939250505056fea2646970667358221220845240361cc9f1f2312d0dca85956d5140f2c5634c43ea50c817cc160f8cc90964736f6c63430008110033",
  "immutableReferences": {},
  "source": "// license: MIT\r\n\r\npragma solidity ^0.8.17;\r\n\r\nimport \"./IERC20.sol\";\r\nimport \"./ISBT.sol\";\r\nimport \"./hackyAOS/hackyAOS.sol\";\r\n// import \"./AOS/AOSring.sol\";\r\n// import \"./merklesolcrypto.sol\";\r\n\r\ncontract verifier {\r\n\r\n    ISBT _sbt;\r\n\r\n    constructor(address sbt) {\r\n        _sbt = ISBT(sbt);\r\n    }\r\n\r\n    function verify(address[] memory addresses,uint256 value, uint256 message, address token, string memory addressesURI, string memory verifierData) public {\r\n        uint256[] memory tees = new uint256[](addresses.length);\r\n        uint256 seed = 0;\r\n        // verify the ring signature\r\n        require(HackyAOSRing.Verify(addresses, tees, seed, message), \"Invalid ring signature\"); // c'est quoi tees et seed ?\r\n        \r\n        for (uint i = 0; i < addresses.length; i++) {\r\n            require(IERC20(token).balanceOf(addresses[i]) >= value, \"Insufficient balance in at least one address\");\r\n        }\r\n        bytes32 root = buildRoot(addresses); // build merkle root to save in sbt\r\n\r\n        // mint sbt\r\n        _sbt.mint(msg.sender, token, addressesURI, root, message, verifierData);        \r\n    }\r\n\r\n\r\n\r\n    // merkle tree functions\r\n\r\n    // build root from a list of addresses\r\n    function buildRoot(address[] memory addresses) public pure returns (bytes32) {\r\n        bytes32[] memory leaves = new bytes32[](addresses.length);\r\n        for (uint i = 0; i < addresses.length; i++) {\r\n            leaves[i] = keccak256(abi.encodePacked(addresses[i]));\r\n        }\r\n        return buildRootFromLeaves(leaves);\r\n    }\r\n\r\n    // build root from a list of leaves\r\n    function buildRootFromLeaves(bytes32[] memory leaves) private pure returns (bytes32) {\r\n        if (leaves.length == 0) {\r\n            return 0x0;\r\n        }\r\n        if (leaves.length == 1) {\r\n            return leaves[0];\r\n        }\r\n        if (leaves.length % 2 == 1) {\r\n            bytes32[] memory tmp = new bytes32[](leaves.length + 1);\r\n            for (uint i = 0; i < leaves.length; i++) {\r\n                tmp[i] = leaves[i];\r\n            }\r\n            tmp[leaves.length] = leaves[leaves.length - 1];\r\n            leaves = tmp;\r\n        }\r\n        bytes32[] memory parents = new bytes32[](leaves.length / 2);\r\n        for (uint i = 0; i < leaves.length; i += 2) {\r\n            parents[i / 2] = keccak256(abi.encodePacked(leaves[i], leaves[i + 1]));\r\n        }\r\n        return buildRootFromLeaves(parents);\r\n    }\r\n\r\n    // check if a merkle root is valid\r\n    function verifyRoot(bytes32 root, address[] memory addresses) public pure returns (bool) {\r\n        return buildRoot(addresses) == root;\r\n    }\r\n\r\n}",
  "sourcePath": "C:\\Users\\hervi\\Documents\\Blockchain Projects\\ETHDenver2023\\Smart-contract\\truffle\\contracts\\verifier.sol",
  "compiler": {
    "name": "solc",
    "version": "0.8.17+commit.8df45f5f.Emscripten.clang"
  },
  "schemaVersion": "3.4.12",
  "updatedAt": "2023-02-28T16:57:32.894Z",
  "devdoc": {
    "kind": "dev",
    "methods": {},
    "version": 1
  },
  "userdoc": {
    "kind": "user",
    "methods": {},
    "version": 1
  }
}