{
  "contractName": "verified_sbt",
  "abi": [
    {
      "inputs": [
        {
          "internalType": "string",
          "name": "name_",
          "type": "string"
        },
        {
          "internalType": "string",
          "name": "symbol_",
          "type": "string"
        },
        {
          "internalType": "address",
          "name": "verifier_",
          "type": "address"
        }
      ],
      "stateMutability": "nonpayable",
      "type": "constructor"
    },
    {
      "anonymous": false,
      "inputs": [
        {
          "indexed": true,
          "internalType": "address",
          "name": "owner",
          "type": "address"
        },
        {
          "indexed": true,
          "internalType": "address",
          "name": "approved",
          "type": "address"
        },
        {
          "indexed": true,
          "internalType": "uint256",
          "name": "tokenId",
          "type": "uint256"
        }
      ],
      "name": "Approval",
      "type": "event"
    },
    {
      "anonymous": false,
      "inputs": [
        {
          "indexed": true,
          "internalType": "address",
          "name": "owner",
          "type": "address"
        },
        {
          "indexed": true,
          "internalType": "address",
          "name": "operator",
          "type": "address"
        },
        {
          "indexed": false,
          "internalType": "bool",
          "name": "approved",
          "type": "bool"
        }
      ],
      "name": "ApprovalForAll",
      "type": "event"
    },
    {
      "anonymous": false,
      "inputs": [
        {
          "indexed": true,
          "internalType": "address",
          "name": "owner",
          "type": "address"
        },
        {
          "indexed": true,
          "internalType": "uint256",
          "name": "tokenId",
          "type": "uint256"
        }
      ],
      "name": "Burn",
      "type": "event"
    },
    {
      "anonymous": false,
      "inputs": [
        {
          "indexed": true,
          "internalType": "address",
          "name": "owner",
          "type": "address"
        },
        {
          "indexed": true,
          "internalType": "uint256",
          "name": "tokenId",
          "type": "uint256"
        }
      ],
      "name": "Mint",
      "type": "event"
    },
    {
      "anonymous": false,
      "inputs": [
        {
          "indexed": true,
          "internalType": "address",
          "name": "from",
          "type": "address"
        },
        {
          "indexed": true,
          "internalType": "address",
          "name": "to",
          "type": "address"
        },
        {
          "indexed": true,
          "internalType": "uint256",
          "name": "tokenId",
          "type": "uint256"
        }
      ],
      "name": "Transfer",
      "type": "event"
    },
    {
      "inputs": [
        {
          "internalType": "address",
          "name": "owner",
          "type": "address"
        }
      ],
      "name": "balanceOf",
      "outputs": [
        {
          "internalType": "uint256",
          "name": "",
          "type": "uint256"
        }
      ],
      "stateMutability": "view",
      "type": "function"
    },
    {
      "inputs": [],
      "name": "name",
      "outputs": [
        {
          "internalType": "string",
          "name": "",
          "type": "string"
        }
      ],
      "stateMutability": "view",
      "type": "function"
    },
    {
      "inputs": [
        {
          "internalType": "uint256",
          "name": "tokenId",
          "type": "uint256"
        }
      ],
      "name": "ownerOf",
      "outputs": [
        {
          "internalType": "address",
          "name": "",
          "type": "address"
        }
      ],
      "stateMutability": "view",
      "type": "function"
    },
    {
      "inputs": [
        {
          "internalType": "bytes4",
          "name": "interfaceId",
          "type": "bytes4"
        }
      ],
      "name": "supportsInterface",
      "outputs": [
        {
          "internalType": "bool",
          "name": "",
          "type": "bool"
        }
      ],
      "stateMutability": "view",
      "type": "function"
    },
    {
      "inputs": [],
      "name": "symbol",
      "outputs": [
        {
          "internalType": "string",
          "name": "",
          "type": "string"
        }
      ],
      "stateMutability": "view",
      "type": "function"
    },
    {
      "inputs": [
        {
          "internalType": "uint256",
          "name": "tokenId",
          "type": "uint256"
        }
      ],
      "name": "tokenURI",
      "outputs": [
        {
          "internalType": "string",
          "name": "",
          "type": "string"
        }
      ],
      "stateMutability": "view",
      "type": "function"
    },
    {
      "inputs": [
        {
          "internalType": "address",
          "name": "from",
          "type": "address"
        },
        {
          "internalType": "address",
          "name": "to",
          "type": "address"
        },
        {
          "internalType": "uint256",
          "name": "tokenId",
          "type": "uint256"
        }
      ],
      "name": "safeTransferFrom",
      "outputs": [],
      "stateMutability": "pure",
      "type": "function"
    },
    {
      "inputs": [
        {
          "internalType": "address",
          "name": "from",
          "type": "address"
        },
        {
          "internalType": "address",
          "name": "to",
          "type": "address"
        },
        {
          "internalType": "uint256",
          "name": "tokenId",
          "type": "uint256"
        },
        {
          "internalType": "bytes",
          "name": "data",
          "type": "bytes"
        }
      ],
      "name": "safeTransferFrom",
      "outputs": [],
      "stateMutability": "nonpayable",
      "type": "function"
    },
    {
      "inputs": [
        {
          "internalType": "address",
          "name": "from",
          "type": "address"
        },
        {
          "internalType": "address",
          "name": "to",
          "type": "address"
        },
        {
          "internalType": "uint256",
          "name": "tokenId",
          "type": "uint256"
        }
      ],
      "name": "transferFrom",
      "outputs": [],
      "stateMutability": "pure",
      "type": "function"
    },
    {
      "inputs": [
        {
          "internalType": "address",
          "name": "to",
          "type": "address"
        },
        {
          "internalType": "uint256",
          "name": "tokenId",
          "type": "uint256"
        }
      ],
      "name": "approve",
      "outputs": [],
      "stateMutability": "pure",
      "type": "function"
    },
    {
      "inputs": [
        {
          "internalType": "uint256",
          "name": "tokenId",
          "type": "uint256"
        }
      ],
      "name": "getApproved",
      "outputs": [
        {
          "internalType": "address",
          "name": "operator",
          "type": "address"
        }
      ],
      "stateMutability": "view",
      "type": "function"
    },
    {
      "inputs": [
        {
          "internalType": "address",
          "name": "operator",
          "type": "address"
        },
        {
          "internalType": "bool",
          "name": "_approved",
          "type": "bool"
        }
      ],
      "name": "setApprovalForAll",
      "outputs": [],
      "stateMutability": "pure",
      "type": "function"
    },
    {
      "inputs": [
        {
          "internalType": "address",
          "name": "owner",
          "type": "address"
        },
        {
          "internalType": "address",
          "name": "operator",
          "type": "address"
        }
      ],
      "name": "isApprovedForAll",
      "outputs": [
        {
          "internalType": "bool",
          "name": "",
          "type": "bool"
        }
      ],
      "stateMutability": "view",
      "type": "function"
    },
    {
      "inputs": [
        {
          "internalType": "address",
          "name": "receiver",
          "type": "address"
        },
        {
          "internalType": "address",
          "name": "token",
          "type": "address"
        },
        {
          "internalType": "string",
          "name": "tokenURI",
          "type": "string"
        },
        {
          "internalType": "bytes32",
          "name": "merkleRoot",
          "type": "bytes32"
        },
        {
          "internalType": "string",
          "name": "zkProof",
          "type": "string"
        }
      ],
      "name": "mint",
      "outputs": [],
      "stateMutability": "nonpayable",
      "type": "function"
    },
    {
      "inputs": [
        {
          "internalType": "uint256",
          "name": "tokenId",
          "type": "uint256"
        }
      ],
      "name": "burn",
      "outputs": [],
      "stateMutability": "nonpayable",
      "type": "function"
    },
    {
      "inputs": [
        {
          "internalType": "uint256",
          "name": "tokenId",
          "type": "uint256"
        }
      ],
      "name": "getMerkleRoot",
      "outputs": [
        {
          "internalType": "bytes32",
          "name": "",
          "type": "bytes32"
        }
      ],
      "stateMutability": "view",
      "type": "function"
    },
    {
      "inputs": [
        {
          "internalType": "uint256",
          "name": "tokenId",
          "type": "uint256"
        }
      ],
      "name": "getZkProof",
      "outputs": [
        {
          "internalType": "string",
          "name": "",
          "type": "string"
        }
      ],
      "stateMutability": "view",
      "type": "function"
    },
    {
      "inputs": [
        {
          "internalType": "uint256",
          "name": "tokenId",
          "type": "uint256"
        }
      ],
      "name": "getTokenURI",
      "outputs": [
        {
          "internalType": "string",
          "name": "",
          "type": "string"
        }
      ],
      "stateMutability": "view",
      "type": "function"
    },
    {
      "inputs": [
        {
          "internalType": "uint256",
          "name": "tokenId",
          "type": "uint256"
        }
      ],
      "name": "getTimestamp",
      "outputs": [
        {
          "internalType": "uint256",
          "name": "",
          "type": "uint256"
        }
      ],
      "stateMutability": "view",
      "type": "function"
    },
    {
      "inputs": [
        {
          "internalType": "uint256",
          "name": "tokenId",
          "type": "uint256"
        }
      ],
      "name": "getTokenAddress",
      "outputs": [
        {
          "internalType": "address",
          "name": "",
          "type": "address"
        }
      ],
      "stateMutability": "view",
      "type": "function"
    },
    {
      "inputs": [
        {
          "internalType": "address",
          "name": "admin",
          "type": "address"
        },
        {
          "internalType": "bool",
          "name": "isAdmin",
          "type": "bool"
        }
      ],
      "name": "editAdmin",
      "outputs": [],
      "stateMutability": "nonpayable",
      "type": "function"
    },
    {
      "inputs": [
        {
          "internalType": "address",
          "name": "minter",
          "type": "address"
        },
        {
          "internalType": "bool",
          "name": "isMinter",
          "type": "bool"
        }
      ],
      "name": "editMinter",
      "outputs": [],
      "stateMutability": "nonpayable",
      "type": "function"
    },
    {
      "inputs": [
        {
          "internalType": "address",
          "name": "burner",
          "type": "address"
        },
        {
          "internalType": "bool",
          "name": "isBurner",
          "type": "bool"
        }
      ],
      "name": "editBurner",
      "outputs": [],
      "stateMutability": "nonpayable",
      "type": "function"
    }
  ],
  "bytecode": "0x60806040523480156200001157600080fd5b506040516200373038038062003730833981810160405281019062000037919062000444565b828281600090816200004a919062000729565b5080600190816200005c919062000729565b5050506000600f81905550826010908162000078919062000729565b5081601190816200008a919062000729565b506001600660008373ffffffffffffffffffffffffffffffffffffffff1673ffffffffffffffffffffffffffffffffffffffff16815260200190815260200160002060006101000a81548160ff0219169083151502179055506001600760008373ffffffffffffffffffffffffffffffffffffffff1673ffffffffffffffffffffffffffffffffffffffff16815260200190815260200160002060006101000a81548160ff0219169083151502179055506001600860003373ffffffffffffffffffffffffffffffffffffffff1673ffffffffffffffffffffffffffffffffffffffff16815260200190815260200160002060006101000a81548160ff0219169083151502179055506001600760003373ffffffffffffffffffffffffffffffffffffffff1673ffffffffffffffffffffffffffffffffffffffff16815260200190815260200160002060006101000a81548160ff0219169083151502179055506001600660003373ffffffffffffffffffffffffffffffffffffffff1673ffffffffffffffffffffffffffffffffffffffff16815260200190815260200160002060006101000a81548160ff02191690831515021790555050505062000810565b6000604051905090565b600080fd5b600080fd5b600080fd5b600080fd5b6000601f19601f8301169050919050565b7f4e487b7100000000000000000000000000000000000000000000000000000000600052604160045260246000fd5b620002b5826200026a565b810181811067ffffffffffffffff82111715620002d757620002d66200027b565b5b80604052505050565b6000620002ec6200024c565b9050620002fa8282620002aa565b919050565b600067ffffffffffffffff8211156200031d576200031c6200027b565b5b62000328826200026a565b9050602081019050919050565b60005b838110156200035557808201518184015260208101905062000338565b60008484015250505050565b6000620003786200037284620002ff565b620002e0565b90508281526020810184848401111562000397576200039662000265565b5b620003a484828562000335565b509392505050565b600082601f830112620003c457620003c362000260565b5b8151620003d684826020860162000361565b91505092915050565b600073ffffffffffffffffffffffffffffffffffffffff82169050919050565b60006200040c82620003df565b9050919050565b6200041e81620003ff565b81146200042a57600080fd5b50565b6000815190506200043e8162000413565b92915050565b60008060006060848603121562000460576200045f62000256565b5b600084015167ffffffffffffffff8111156200048157620004806200025b565b5b6200048f86828701620003ac565b935050602084015167ffffffffffffffff811115620004b357620004b26200025b565b5b620004c186828701620003ac565b9250506040620004d4868287016200042d565b9150509250925092565b600081519050919050565b7f4e487b7100000000000000000000000000000000000000000000000000000000600052602260045260246000fd5b600060028204905060018216806200053157607f821691505b602082108103620005475762000546620004e9565b5b50919050565b60008190508160005260206000209050919050565b60006020601f8301049050919050565b600082821b905092915050565b600060088302620005b17fffffffffffffffffffffffffffffffffffffffffffffffffffffffffffffffff8262000572565b620005bd868362000572565b95508019841693508086168417925050509392505050565b6000819050919050565b6000819050919050565b60006200060a62000604620005fe84620005d5565b620005df565b620005d5565b9050919050565b6000819050919050565b6200062683620005e9565b6200063e620006358262000611565b8484546200057f565b825550505050565b600090565b6200065562000646565b620006628184846200061b565b505050565b5b818110156200068a576200067e6000826200064b565b60018101905062000668565b5050565b601f821115620006d957620006a3816200054d565b620006ae8462000562565b81016020851015620006be578190505b620006d6620006cd8562000562565b83018262000667565b50505b505050565b600082821c905092915050565b6000620006fe60001984600802620006de565b1980831691505092915050565b6000620007198383620006eb565b9150826002028217905092915050565b6200073482620004de565b67ffffffffffffffff81111562000750576200074f6200027b565b5b6200075c825462000518565b620007698282856200068e565b600060209050601f831160018114620007a157600084156200078c578287015190505b6200079885826200070b565b86555062000808565b601f198416620007b1866200054d565b60005b82811015620007db57848901518255600182019150602085019450602081019050620007b4565b86831015620007fb5784890151620007f7601f891682620006eb565b8355505b6001600288020188555050505b505050505050565b612f1080620008206000396000f3fe608060405234801561001057600080fd5b506004361061014d5760003560e01c80634f056c62116100c3578063b633620c1161007c578063b633620c146103be578063b88d4fde146103ee578063c87b56dd1461040a578063e0c6fa581461043a578063e25c8c711461046a578063e985e9c5146104865761014d565b80634f056c62146102d85780636352211e146102f457806367ccdf381461032457806370a082311461035457806395d89b4114610384578063a22cb465146103a25761014d565b80631bc4d889116101155780631bc4d8891461021c578063232b71171461023857806323b872dd146102545780633bb3a24d1461027057806342842e0e146102a057806342966c68146102bc5761014d565b806301ffc9a71461015257806306fdde0314610182578063081812fc146101a0578063095ea7b3146101d05780630aab8ba5146101ec575b600080fd5b61016c60048036038101906101679190611d8d565b6104b6565b6040516101799190611dd5565b60405180910390f35b61018a610598565b6040516101979190611e80565b60405180910390f35b6101ba60048036038101906101b59190611ed8565b61062a565b6040516101c79190611f46565b60405180910390f35b6101ea60048036038101906101e59190611f8d565b610667565b005b61020660048036038101906102019190611ed8565b6106a2565b6040516102139190611fe6565b60405180910390f35b6102366004803603810190610231919061202d565b6106bf565b005b610252600480360381019061024d91906121ce565b6107a6565b005b61026e60048036038101906102699190612281565b6109b9565b005b61028a60048036038101906102859190611ed8565b6109f4565b6040516102979190611e80565b60405180910390f35b6102ba60048036038101906102b59190612281565b610a99565b005b6102d660048036038101906102d19190611ed8565b610ad4565b005b6102f260048036038101906102ed919061202d565b610ce8565b005b61030e60048036038101906103099190611ed8565b610dcf565b60405161031b9190611f46565b60405180910390f35b61033e60048036038101906103399190611ed8565b610e55565b60405161034b9190611f46565b60405180910390f35b61036e600480360381019061036991906122d4565b610e92565b60405161037b9190612310565b60405180910390f35b61038c610f49565b6040516103999190611e80565b60405180910390f35b6103bc60048036038101906103b7919061202d565b610fdb565b005b6103d860048036038101906103d39190611ed8565b611016565b6040516103e59190612310565b60405180910390f35b610408600480360381019061040391906123cc565b611033565b005b610424600480360381019061041f9190611ed8565b611095565b6040516104319190611e80565b60405180910390f35b610454600480360381019061044f9190611ed8565b6110fd565b6040516104619190611e80565b60405180910390f35b610484600480360381019061047f919061202d565b6111a2565b005b6104a0600480360381019061049b919061244f565b611289565b6040516104ad9190611dd5565b60405180910390f35b60007f80ac58cd000000000000000000000000000000000000000000000000000000007bffffffffffffffffffffffffffffffffffffffffffffffffffffffff1916827bffffffffffffffffffffffffffffffffffffffffffffffffffffffff1916148061058157507f5b5e139f000000000000000000000000000000000000000000000000000000007bffffffffffffffffffffffffffffffffffffffffffffffffffffffff1916827bffffffffffffffffffffffffffffffffffffffffffffffffffffffff1916145b80610591575061059082611291565b5b9050919050565b6060600080546105a7906124be565b80601f01602080910402602001604051908101604052809291908181526020018280546105d3906124be565b80156106205780601f106105f557610100808354040283529160200191610620565b820191906000526020600020905b81548152906001019060200180831161060357829003601f168201915b5050505050905090565b60006040517f08c379a000000000000000000000000000000000000000000000000000000000815260040161065e9061253b565b60405180910390fd5b6040517f08c379a00000000000000000000000000000000000000000000000000000000081526004016106999061253b565b60405180910390fd5b6000600e6000838152602001908152602001600020549050919050565b600860003373ffffffffffffffffffffffffffffffffffffffff1673ffffffffffffffffffffffffffffffffffffffff16815260200190815260200160002060009054906101000a900460ff1661074b576040517f08c379a0000000000000000000000000000000000000000000000000000000008152600401610742906125a7565b60405180910390fd5b80600760008473ffffffffffffffffffffffffffffffffffffffff1673ffffffffffffffffffffffffffffffffffffffff16815260200190815260200160002060006101000a81548160ff0219169083151502179055505050565b600660003373ffffffffffffffffffffffffffffffffffffffff1673ffffffffffffffffffffffffffffffffffffffff16815260200190815260200160002060009054906101000a900460ff16610832576040517f08c379a000000000000000000000000000000000000000000000000000000000815260040161082990612613565b60405180910390fd5b8460096000600f54815260200190815260200160002060006101000a81548173ffffffffffffffffffffffffffffffffffffffff021916908373ffffffffffffffffffffffffffffffffffffffff16021790555083600a6000600f54815260200190815260200160002060006101000a81548173ffffffffffffffffffffffffffffffffffffffff021916908373ffffffffffffffffffffffffffffffffffffffff16021790555082600b6000600f54815260200190815260200160002090816108fc91906127df565b5081600e6000600f5481526020019081526020016000208190555080600c6000600f548152602001908152602001600020908161093991906127df565b5042600d6000600f54815260200190815260200160002081905550600f6000815480929190610967906128e0565b9190505550600f548573ffffffffffffffffffffffffffffffffffffffff167f0f6798a560793a54c3bcfe86a93cde1e73087d944c0ea20544137d412139688560405160405180910390a35050505050565b6040517f08c379a00000000000000000000000000000000000000000000000000000000081526004016109eb9061253b565b60405180910390fd5b6060600b60008381526020019081526020016000208054610a14906124be565b80601f0160208091040260200160405190810160405280929190818152602001828054610a40906124be565b8015610a8d5780601f10610a6257610100808354040283529160200191610a8d565b820191906000526020600020905b815481529060010190602001808311610a7057829003601f168201915b50505050509050919050565b6040517f08c379a0000000000000000000000000000000000000000000000000000000008152600401610acb9061253b565b60405180910390fd5b3373ffffffffffffffffffffffffffffffffffffffff166009600083815260200190815260200160002060009054906101000a900473ffffffffffffffffffffffffffffffffffffffff1673ffffffffffffffffffffffffffffffffffffffff161480610b8a5750600760003373ffffffffffffffffffffffffffffffffffffffff1673ffffffffffffffffffffffffffffffffffffffff16815260200190815260200160002060009054906101000a900460ff165b610bc9576040517f08c379a0000000000000000000000000000000000000000000000000000000008152600401610bc09061299a565b60405180910390fd5b6009600082815260200190815260200160002060006101000a81549073ffffffffffffffffffffffffffffffffffffffff0219169055600b60008281526020019081526020016000206000610c1e9190611cc4565b600e600082815260200190815260200160002060009055600c60008281526020019081526020016000206000610c549190611cc4565b600d600082815260200190815260200160002060009055600a600082815260200190815260200160002060006101000a81549073ffffffffffffffffffffffffffffffffffffffff0219169055803373ffffffffffffffffffffffffffffffffffffffff167fcc16f5dbb4873280815c1ee09dbd06736cffcc184412cf7a71a0fdb75d397ca560405160405180910390a350565b600860003373ffffffffffffffffffffffffffffffffffffffff1673ffffffffffffffffffffffffffffffffffffffff16815260200190815260200160002060009054906101000a900460ff16610d74576040517f08c379a0000000000000000000000000000000000000000000000000000000008152600401610d6b906125a7565b60405180910390fd5b80600660008473ffffffffffffffffffffffffffffffffffffffff1673ffffffffffffffffffffffffffffffffffffffff16815260200190815260200160002060006101000a81548160ff0219169083151502179055505050565b600080610ddb836112fb565b9050600073ffffffffffffffffffffffffffffffffffffffff168173ffffffffffffffffffffffffffffffffffffffff1603610e4c576040517f08c379a0000000000000000000000000000000000000000000000000000000008152600401610e4390612a06565b60405180910390fd5b80915050919050565b6000600a600083815260200190815260200160002060009054906101000a900473ffffffffffffffffffffffffffffffffffffffff169050919050565b60008073ffffffffffffffffffffffffffffffffffffffff168273ffffffffffffffffffffffffffffffffffffffff1603610f02576040517f08c379a0000000000000000000000000000000000000000000000000000000008152600401610ef990612a98565b60405180910390fd5b600360008373ffffffffffffffffffffffffffffffffffffffff1673ffffffffffffffffffffffffffffffffffffffff168152602001908152602001600020549050919050565b606060018054610f58906124be565b80601f0160208091040260200160405190810160405280929190818152602001828054610f84906124be565b8015610fd15780601f10610fa657610100808354040283529160200191610fd1565b820191906000526020600020905b815481529060010190602001808311610fb457829003601f168201915b5050505050905090565b6040517f08c379a000000000000000000000000000000000000000000000000000000000815260040161100d9061253b565b60405180910390fd5b6000600d6000838152602001908152602001600020549050919050565b61104461103e611338565b83611340565b611083576040517f08c379a000000000000000000000000000000000000000000000000000000000815260040161107a90612b2a565b60405180910390fd5b61108f848484846113d5565b50505050565b60606110a082611431565b60006110aa61147c565b905060008151116110ca57604051806020016040528060008152506110f5565b806110d484611493565b6040516020016110e5929190612b86565b6040516020818303038152906040525b915050919050565b6060600c6000838152602001908152602001600020805461111d906124be565b80601f0160208091040260200160405190810160405280929190818152602001828054611149906124be565b80156111965780601f1061116b57610100808354040283529160200191611196565b820191906000526020600020905b81548152906001019060200180831161117957829003601f168201915b50505050509050919050565b600860003373ffffffffffffffffffffffffffffffffffffffff1673ffffffffffffffffffffffffffffffffffffffff16815260200190815260200160002060009054906101000a900460ff1661122e576040517f08c379a0000000000000000000000000000000000000000000000000000000008152600401611225906125a7565b60405180910390fd5b80600860008473ffffffffffffffffffffffffffffffffffffffff1673ffffffffffffffffffffffffffffffffffffffff16815260200190815260200160002060006101000a81548160ff0219169083151502179055505050565b600092915050565b60007f01ffc9a7000000000000000000000000000000000000000000000000000000007bffffffffffffffffffffffffffffffffffffffffffffffffffffffff1916827bffffffffffffffffffffffffffffffffffffffffffffffffffffffff1916149050919050565b60006002600083815260200190815260200160002060009054906101000a900473ffffffffffffffffffffffffffffffffffffffff169050919050565b600033905090565b60008061134c83610dcf565b90508073ffffffffffffffffffffffffffffffffffffffff168473ffffffffffffffffffffffffffffffffffffffff16148061138e575061138d8185611289565b5b806113cc57508373ffffffffffffffffffffffffffffffffffffffff166113b48461062a565b73ffffffffffffffffffffffffffffffffffffffff16145b91505092915050565b6113e0848484611561565b6113ec8484848461185a565b61142b576040517f08c379a000000000000000000000000000000000000000000000000000000000815260040161142290612c1c565b60405180910390fd5b50505050565b61143a816119e1565b611479576040517f08c379a000000000000000000000000000000000000000000000000000000000815260040161147090612a06565b60405180910390fd5b50565b606060405180602001604052806000815250905090565b6060600060016114a284611a22565b01905060008167ffffffffffffffff8111156114c1576114c0612077565b5b6040519080825280601f01601f1916602001820160405280156114f35781602001600182028036833780820191505090505b509050600082602001820190505b600115611556578080600190039150507f3031323334353637383961626364656600000000000000000000000000000000600a86061a8153600a858161154a57611549612c3c565b5b04945060008503611501575b819350505050919050565b8273ffffffffffffffffffffffffffffffffffffffff1661158182610dcf565b73ffffffffffffffffffffffffffffffffffffffff16146115d7576040517f08c379a00000000000000000000000000000000000000000000000000000000081526004016115ce90612cdd565b60405180910390fd5b600073ffffffffffffffffffffffffffffffffffffffff168273ffffffffffffffffffffffffffffffffffffffff1603611646576040517f08c379a000000000000000000000000000000000000000000000000000000000815260040161163d90612d6f565b60405180910390fd5b6116538383836001611b75565b8273ffffffffffffffffffffffffffffffffffffffff1661167382610dcf565b73ffffffffffffffffffffffffffffffffffffffff16146116c9576040517f08c379a00000000000000000000000000000000000000000000000000000000081526004016116c090612cdd565b60405180910390fd5b6004600082815260200190815260200160002060006101000a81549073ffffffffffffffffffffffffffffffffffffffff02191690556001600360008573ffffffffffffffffffffffffffffffffffffffff1673ffffffffffffffffffffffffffffffffffffffff168152602001908152602001600020600082825403925050819055506001600360008473ffffffffffffffffffffffffffffffffffffffff1673ffffffffffffffffffffffffffffffffffffffff16815260200190815260200160002060008282540192505081905550816002600083815260200190815260200160002060006101000a81548173ffffffffffffffffffffffffffffffffffffffff021916908373ffffffffffffffffffffffffffffffffffffffff160217905550808273ffffffffffffffffffffffffffffffffffffffff168473ffffffffffffffffffffffffffffffffffffffff167fddf252ad1be2c89b69c2b068fc378daa952ba7f163c4a11628f55a4df523b3ef60405160405180910390a46118558383836001611c9b565b505050565b600061187b8473ffffffffffffffffffffffffffffffffffffffff16611ca1565b156119d4578373ffffffffffffffffffffffffffffffffffffffff1663150b7a026118a4611338565b8786866040518563ffffffff1660e01b81526004016118c69493929190612de4565b6020604051808303816000875af192505050801561190257506040513d601f19601f820116820180604052508101906118ff9190612e45565b60015b611984573d8060008114611932576040519150601f19603f3d011682016040523d82523d6000602084013e611937565b606091505b50600081510361197c576040517f08c379a000000000000000000000000000000000000000000000000000000000815260040161197390612c1c565b60405180910390fd5b805181602001fd5b63150b7a0260e01b7bffffffffffffffffffffffffffffffffffffffffffffffffffffffff1916817bffffffffffffffffffffffffffffffffffffffffffffffffffffffff1916149150506119d9565b600190505b949350505050565b60008073ffffffffffffffffffffffffffffffffffffffff16611a03836112fb565b73ffffffffffffffffffffffffffffffffffffffff1614159050919050565b600080600090507a184f03e93ff9f4daa797ed6e38ed64bf6a1f0100000000000000008310611a80577a184f03e93ff9f4daa797ed6e38ed64bf6a1f0100000000000000008381611a7657611a75612c3c565b5b0492506040810190505b6d04ee2d6d415b85acef81000000008310611abd576d04ee2d6d415b85acef81000000008381611ab357611ab2612c3c565b5b0492506020810190505b662386f26fc100008310611aec57662386f26fc100008381611ae257611ae1612c3c565b5b0492506010810190505b6305f5e1008310611b15576305f5e1008381611b0b57611b0a612c3c565b5b0492506008810190505b6127108310611b3a576127108381611b3057611b2f612c3c565b5b0492506004810190505b60648310611b5d5760648381611b5357611b52612c3c565b5b0492506002810190505b600a8310611b6c576001810190505b80915050919050565b6001811115611c9557600073ffffffffffffffffffffffffffffffffffffffff168473ffffffffffffffffffffffffffffffffffffffff1614611c095780600360008673ffffffffffffffffffffffffffffffffffffffff1673ffffffffffffffffffffffffffffffffffffffff1681526020019081526020016000206000828254611c019190612e72565b925050819055505b600073ffffffffffffffffffffffffffffffffffffffff168373ffffffffffffffffffffffffffffffffffffffff1614611c945780600360008573ffffffffffffffffffffffffffffffffffffffff1673ffffffffffffffffffffffffffffffffffffffff1681526020019081526020016000206000828254611c8c9190612ea6565b925050819055505b5b50505050565b50505050565b6000808273ffffffffffffffffffffffffffffffffffffffff163b119050919050565b508054611cd0906124be565b6000825580601f10611ce25750611d01565b601f016020900490600052602060002090810190611d009190611d04565b5b50565b5b80821115611d1d576000816000905550600101611d05565b5090565b6000604051905090565b600080fd5b600080fd5b60007fffffffff0000000000000000000000000000000000000000000000000000000082169050919050565b611d6a81611d35565b8114611d7557600080fd5b50565b600081359050611d8781611d61565b92915050565b600060208284031215611da357611da2611d2b565b5b6000611db184828501611d78565b91505092915050565b60008115159050919050565b611dcf81611dba565b82525050565b6000602082019050611dea6000830184611dc6565b92915050565b600081519050919050565b600082825260208201905092915050565b60005b83811015611e2a578082015181840152602081019050611e0f565b60008484015250505050565b6000601f19601f8301169050919050565b6000611e5282611df0565b611e5c8185611dfb565b9350611e6c818560208601611e0c565b611e7581611e36565b840191505092915050565b60006020820190508181036000830152611e9a8184611e47565b905092915050565b6000819050919050565b611eb581611ea2565b8114611ec057600080fd5b50565b600081359050611ed281611eac565b92915050565b600060208284031215611eee57611eed611d2b565b5b6000611efc84828501611ec3565b91505092915050565b600073ffffffffffffffffffffffffffffffffffffffff82169050919050565b6000611f3082611f05565b9050919050565b611f4081611f25565b82525050565b6000602082019050611f5b6000830184611f37565b92915050565b611f6a81611f25565b8114611f7557600080fd5b50565b600081359050611f8781611f61565b92915050565b60008060408385031215611fa457611fa3611d2b565b5b6000611fb285828601611f78565b9250506020611fc385828601611ec3565b9150509250929050565b6000819050919050565b611fe081611fcd565b82525050565b6000602082019050611ffb6000830184611fd7565b92915050565b61200a81611dba565b811461201557600080fd5b50565b60008135905061202781612001565b92915050565b6000806040838503121561204457612043611d2b565b5b600061205285828601611f78565b925050602061206385828601612018565b9150509250929050565b600080fd5b600080fd5b7f4e487b7100000000000000000000000000000000000000000000000000000000600052604160045260246000fd5b6120af82611e36565b810181811067ffffffffffffffff821117156120ce576120cd612077565b5b80604052505050565b60006120e1611d21565b90506120ed82826120a6565b919050565b600067ffffffffffffffff82111561210d5761210c612077565b5b61211682611e36565b9050602081019050919050565b82818337600083830152505050565b6000612145612140846120f2565b6120d7565b90508281526020810184848401111561216157612160612072565b5b61216c848285612123565b509392505050565b600082601f8301126121895761218861206d565b5b8135612199848260208601612132565b91505092915050565b6121ab81611fcd565b81146121b657600080fd5b50565b6000813590506121c8816121a2565b92915050565b600080600080600060a086880312156121ea576121e9611d2b565b5b60006121f888828901611f78565b955050602061220988828901611f78565b945050604086013567ffffffffffffffff81111561222a57612229611d30565b5b61223688828901612174565b9350506060612247888289016121b9565b925050608086013567ffffffffffffffff81111561226857612267611d30565b5b61227488828901612174565b9150509295509295909350565b60008060006060848603121561229a57612299611d2b565b5b60006122a886828701611f78565b93505060206122b986828701611f78565b92505060406122ca86828701611ec3565b9150509250925092565b6000602082840312156122ea576122e9611d2b565b5b60006122f884828501611f78565b91505092915050565b61230a81611ea2565b82525050565b60006020820190506123256000830184612301565b92915050565b600067ffffffffffffffff82111561234657612345612077565b5b61234f82611e36565b9050602081019050919050565b600061236f61236a8461232b565b6120d7565b90508281526020810184848401111561238b5761238a612072565b5b612396848285612123565b509392505050565b600082601f8301126123b3576123b261206d565b5b81356123c384826020860161235c565b91505092915050565b600080600080608085870312156123e6576123e5611d2b565b5b60006123f487828801611f78565b945050602061240587828801611f78565b935050604061241687828801611ec3565b925050606085013567ffffffffffffffff81111561243757612436611d30565b5b6124438782880161239e565b91505092959194509250565b6000806040838503121561246657612465611d2b565b5b600061247485828601611f78565b925050602061248585828601611f78565b9150509250929050565b7f4e487b7100000000000000000000000000000000000000000000000000000000600052602260045260246000fd5b600060028204905060018216806124d657607f821691505b6020821081036124e9576124e861248f565b5b50919050565b7f4e6f206f6e652063616e207472616e73666572207468697320746f6b656e0000600082015250565b6000612525601e83611dfb565b9150612530826124ef565b602082019050919050565b6000602082019050818103600083015261255481612518565b9050919050565b7f596f7520617265206e6f7420616e2061646d696e000000000000000000000000600082015250565b6000612591601483611dfb565b915061259c8261255b565b602082019050919050565b600060208201905081810360008301526125c081612584565b9050919050565b7f596f7520617265206e6f742061206d696e746572000000000000000000000000600082015250565b60006125fd601483611dfb565b9150612608826125c7565b602082019050919050565b6000602082019050818103600083015261262c816125f0565b9050919050565b60008190508160005260206000209050919050565b60006020601f8301049050919050565b600082821b905092915050565b6000600883026126957fffffffffffffffffffffffffffffffffffffffffffffffffffffffffffffffff82612658565b61269f8683612658565b95508019841693508086168417925050509392505050565b6000819050919050565b60006126dc6126d76126d284611ea2565b6126b7565b611ea2565b9050919050565b6000819050919050565b6126f6836126c1565b61270a612702826126e3565b848454612665565b825550505050565b600090565b61271f612712565b61272a8184846126ed565b505050565b5b8181101561274e57612743600082612717565b600181019050612730565b5050565b601f8211156127935761276481612633565b61276d84612648565b8101602085101561277c578190505b61279061278885612648565b83018261272f565b50505b505050565b600082821c905092915050565b60006127b660001984600802612798565b1980831691505092915050565b60006127cf83836127a5565b9150826002028217905092915050565b6127e882611df0565b67ffffffffffffffff81111561280157612800612077565b5b61280b82546124be565b612816828285612752565b600060209050601f8311600181146128495760008415612837578287015190505b61284185826127c3565b8655506128a9565b601f19841661285786612633565b60005b8281101561287f5784890151825560018201915060208501945060208101905061285a565b8683101561289c5784890151612898601f8916826127a5565b8355505b6001600288020188555050505b505050505050565b7f4e487b7100000000000000000000000000000000000000000000000000000000600052601160045260246000fd5b60006128eb82611ea2565b91507fffffffffffffffffffffffffffffffffffffffffffffffffffffffffffffffff820361291d5761291c6128b1565b5b600182019050919050565b7f596f7520617265206e6f7420616c6c6f77656420746f206275726e207468697360008201527f20746f6b656e0000000000000000000000000000000000000000000000000000602082015250565b6000612984602683611dfb565b915061298f82612928565b604082019050919050565b600060208201905081810360008301526129b381612977565b9050919050565b7f4552433732313a20696e76616c696420746f6b656e2049440000000000000000600082015250565b60006129f0601883611dfb565b91506129fb826129ba565b602082019050919050565b60006020820190508181036000830152612a1f816129e3565b9050919050565b7f4552433732313a2061646472657373207a65726f206973206e6f74206120766160008201527f6c6964206f776e65720000000000000000000000000000000000000000000000602082015250565b6000612a82602983611dfb565b9150612a8d82612a26565b604082019050919050565b60006020820190508181036000830152612ab181612a75565b9050919050565b7f4552433732313a2063616c6c6572206973206e6f7420746f6b656e206f776e6560008201527f72206f7220617070726f76656400000000000000000000000000000000000000602082015250565b6000612b14602d83611dfb565b9150612b1f82612ab8565b604082019050919050565b60006020820190508181036000830152612b4381612b07565b9050919050565b600081905092915050565b6000612b6082611df0565b612b6a8185612b4a565b9350612b7a818560208601611e0c565b80840191505092915050565b6000612b928285612b55565b9150612b9e8284612b55565b91508190509392505050565b7f4552433732313a207472616e7366657220746f206e6f6e20455243373231526560008201527f63656976657220696d706c656d656e7465720000000000000000000000000000602082015250565b6000612c06603283611dfb565b9150612c1182612baa565b604082019050919050565b60006020820190508181036000830152612c3581612bf9565b9050919050565b7f4e487b7100000000000000000000000000000000000000000000000000000000600052601260045260246000fd5b7f4552433732313a207472616e736665722066726f6d20696e636f72726563742060008201527f6f776e6572000000000000000000000000000000000000000000000000000000602082015250565b6000612cc7602583611dfb565b9150612cd282612c6b565b604082019050919050565b60006020820190508181036000830152612cf681612cba565b9050919050565b7f4552433732313a207472616e7366657220746f20746865207a65726f2061646460008201527f7265737300000000000000000000000000000000000000000000000000000000602082015250565b6000612d59602483611dfb565b9150612d6482612cfd565b604082019050919050565b60006020820190508181036000830152612d8881612d4c565b9050919050565b600081519050919050565b600082825260208201905092915050565b6000612db682612d8f565b612dc08185612d9a565b9350612dd0818560208601611e0c565b612dd981611e36565b840191505092915050565b6000608082019050612df96000830187611f37565b612e066020830186611f37565b612e136040830185612301565b8181036060830152612e258184612dab565b905095945050505050565b600081519050612e3f81611d61565b92915050565b600060208284031215612e5b57612e5a611d2b565b5b6000612e6984828501612e30565b91505092915050565b6000612e7d82611ea2565b9150612e8883611ea2565b9250828203905081811115612ea057612e9f6128b1565b5b92915050565b6000612eb182611ea2565b9150612ebc83611ea2565b9250828201905080821115612ed457612ed36128b1565b5b9291505056fea2646970667358221220e826effb2117b654070b8dcdb90185a8941e4b4b86190478fa9a3d1b731e586764736f6c63430008110033",
  "immutableReferences": {},
  "source": "// license: MIT\r\n\r\npragma solidity ^0.8.17;\r\n\r\nimport \"@openzeppelin/contracts/token/ERC721/ERC721.sol\";\r\n\r\ncontract verified_sbt is ERC721 {\r\n\r\n    mapping (address => bool) private _isMinter; // can mint tokens\r\n    mapping (address => bool) private _isBurner; // can burn tokens even if they are not the owner\r\n    mapping (address => bool) private _isAdmin; // admin can add and delete admins, set and unset minters and burners\r\n\r\n\r\n    mapping (uint256 => address) private _owner; // link the sbt to a certain owner\r\n    mapping (uint256 => address) private _token; // link the sbt to a certain token\r\n\r\n    mapping (uint256 => string) private _tokenURI; // uri where we can get the addresses used to generate the proof\r\n    mapping (uint256 => string) private _zkProof; // zk proof generated in the frontend (not verified yet)\r\n\r\n    mapping (uint256 => uint256) private _timestamp; // timestamp of the minting of the proof\r\n\r\n    mapping (uint256 => bytes32) private _merkleRoot; // merkle root of the addresses (to ensure that the addresses have not been modified)\r\n\r\n\r\n    uint256 private _tokenId;\r\n    string private _name;\r\n    string private _symbol;\r\n\r\n    event Mint(address indexed owner, uint256 indexed tokenId);\r\n    event Burn(address indexed owner, uint256 indexed tokenId);\r\n\r\n    constructor(string memory name_, string memory symbol_, address verifier_) ERC721(name_, symbol_){\r\n        _tokenId = 0;\r\n        _name = name_;\r\n        _symbol = symbol_;\r\n\r\n        // verifier can mint and burn\r\n        _isMinter[verifier_] = true;\r\n        _isBurner[verifier_] = true;\r\n\r\n        // contract creator has all the rights\r\n        _isAdmin[msg.sender] = true;\r\n        _isBurner[msg.sender] = true;\r\n        _isMinter[msg.sender] = true;\r\n    }\r\n\r\n    /**\r\n    * @param from is the current owner of the NFT\r\n    * @param to is the new owner of the NFT\r\n    * @param tokenId is the NFT to transfer\r\n    * safeTransferFrom and transferFrom are disabled because the nft is a sbt\r\n    */\r\n    function safeTransferFrom(address from, address to, uint256 tokenId) public pure override {\r\n        revert(\"No one can transfer this token\");\r\n    }\r\n    function transferFrom(address from, address to, uint256 tokenId) public pure override {\r\n        revert(\"No one can transfer this token\");\r\n    }\r\n\r\n    /**\r\n    * approve is disabled because the nft is a sbt and cannot be transfered\r\n    */\r\n    function approve(address to, uint256 tokenId) public pure override {\r\n        revert(\"No one can transfer this token\");\r\n    }\r\n    /**\r\n    * getApproved is disabled because the nft is a sbt and cannot be transfered\r\n    */\r\n    function getApproved(uint256 tokenId) public view override returns (address operator) {\r\n        revert(\"No one can transfer this token\");\r\n        return address(0);\r\n    }\r\n    /**\r\n    * setApprovalForAll is disabled because the nft is a sbt and cannot be transfered\r\n    */\r\n    function setApprovalForAll(address operator, bool _approved) public pure override {\r\n        revert(\"No one can transfer this token\");\r\n    }\r\n    /**\r\n    * isApprovedForAll is disabled because the nft is a sbt and cannot be transfered -> the output will always be false\r\n    */\r\n    function isApprovedForAll(address owner, address operator) public view override returns (bool) {\r\n        return false;\r\n    }\r\n\r\n\r\n    // mint and burn sbt\r\n\r\n    /**\r\n    * @param receiver is the address of the receiver of the sbt\r\n    * @param token is the address of the token that is linked to the sbt\r\n    * @param tokenURI is the uri where we can get the addresses used to generate the proof (stored on ipfs)\r\n    * @param merkleRoot is the merkle root of the addresses (to ensure that the addresses have not been modified)\r\n    * @param zkProof is the zk proof generated in the frontend (which has been verified by the verifier)\r\n    * mint a new sbt\r\n    */\r\n    function mint(address receiver, address token, string memory tokenURI, bytes32 merkleRoot, string memory zkProof) public {\r\n        require(_isMinter[msg.sender], \"You are not a minter\");\r\n\r\n        _owner[_tokenId] = receiver;\r\n        _token[_tokenId] = token;\r\n        _tokenURI[_tokenId] = tokenURI;\r\n        _merkleRoot[_tokenId] = merkleRoot;\r\n        _zkProof[_tokenId] = zkProof;\r\n        _timestamp[_tokenId] = block.timestamp;\r\n        _tokenId++;\r\n\r\n        emit Mint(receiver, _tokenId);\r\n    }\r\n\r\n    /**\r\n    * @param tokenId is the id of the sbt to burn\r\n    * burn an sbt\r\n    */\r\n    function burn(uint256 tokenId) public {\r\n        require(_owner[tokenId] == msg.sender || _isBurner[msg.sender], \"You are not allowed to burn this token\");\r\n\r\n        delete _owner[tokenId];\r\n        delete _tokenURI[tokenId];\r\n        delete _merkleRoot[tokenId];\r\n        delete _zkProof[tokenId];\r\n        delete _timestamp[tokenId];\r\n        delete _token[tokenId];\r\n\r\n        emit Burn(msg.sender, tokenId);\r\n    }\r\n\r\n    // get sbt data    \r\n\r\n    /**\r\n    * @param tokenId is the id of the sbt\r\n    * @return _merkleRoot associated to the sbt\r\n    */\r\n    function getMerkleRoot(uint256 tokenId) public view returns (bytes32) {\r\n        return _merkleRoot[tokenId];\r\n    }\r\n    /**\r\n    * @param tokenId is the id of the sbt\r\n    * @return _zkProof associated to the sbt\r\n    */\r\n    function getZkProof(uint256 tokenId) public view returns (string memory) {\r\n        return _zkProof[tokenId];\r\n    }\r\n    /**\r\n    * @param tokenId is the id of the sbt\r\n    * @return _tokenURI associated to the sbt\r\n    */\r\n    function getTokenURI(uint256 tokenId) public view returns (string memory) {\r\n        return _tokenURI[tokenId];\r\n    }\r\n    /**\r\n    * @param tokenId is the id of the sbt\r\n    * @return _timestamp associated to the sbt\r\n    */\r\n    function getTimestamp(uint256 tokenId) public view returns (uint256) {\r\n        return _timestamp[tokenId];\r\n    }\r\n\r\n        /**\r\n    * @param tokenId is the id of the sbt\r\n    * @return _tokenAddress associated to the sbt\r\n    */\r\n    function getTokenAddress(uint256 tokenId) public view returns (address) {\r\n        return _token[tokenId];\r\n    }\r\n\r\n    // admin functions\r\n    /**\r\n    * @param admin is the address of the admin to add/remove\r\n    * @param isAdmin is true if the admin is added, false if the admin is removed\r\n    */\r\n    function editAdmin(address admin, bool isAdmin) public {\r\n        require(_isAdmin[msg.sender], \"You are not an admin\");\r\n        _isAdmin[admin] = isAdmin;\r\n    }\r\n    /**\r\n    * @param minter is the address of the minter to add/remove\r\n    * @param isMinter is true if the minter is added, false if the minter is removed\r\n    */\r\n    function editMinter(address minter, bool isMinter) public {\r\n        require(_isAdmin[msg.sender], \"You are not an admin\");\r\n        _isMinter[minter] = isMinter;\r\n    }\r\n    /**\r\n    * @param burner is the address of the burner to add/remove\r\n    * @param isBurner is true if the burner is added, false if the burner is removed\r\n    */\r\n    function editBurner(address burner, bool isBurner) public {\r\n        require(_isAdmin[msg.sender], \"You are not an admin\");\r\n        _isBurner[burner] = isBurner;\r\n    }\r\n}",
  "sourcePath": "C:\\Users\\hervi\\Documents\\Blockchain Projects\\ETHDenver2023\\Smart-contract\\truffle\\contracts\\verified-sbt.sol",
  "compiler": {
    "name": "solc",
    "version": "0.8.17+commit.8df45f5f.Emscripten.clang"
  },
  "schemaVersion": "3.4.12",
  "updatedAt": "2023-02-25T22:35:32.798Z",
  "devdoc": {
    "kind": "dev",
    "methods": {
      "balanceOf(address)": {
        "details": "See {IERC721-balanceOf}."
      },
      "burn(uint256)": {
        "params": {
          "tokenId": "is the id of the sbt to burn burn an sbt"
        }
      },
      "editAdmin(address,bool)": {
        "params": {
          "admin": "is the address of the admin to add/remove",
          "isAdmin": "is true if the admin is added, false if the admin is removed"
        }
      },
      "editBurner(address,bool)": {
        "params": {
          "burner": "is the address of the burner to add/remove",
          "isBurner": "is true if the burner is added, false if the burner is removed"
        }
      },
      "editMinter(address,bool)": {
        "params": {
          "isMinter": "is true if the minter is added, false if the minter is removed",
          "minter": "is the address of the minter to add/remove"
        }
      },
      "getMerkleRoot(uint256)": {
        "params": {
          "tokenId": "is the id of the sbt"
        },
        "returns": {
          "_0": "_merkleRoot associated to the sbt"
        }
      },
      "getTimestamp(uint256)": {
        "params": {
          "tokenId": "is the id of the sbt"
        },
        "returns": {
          "_0": "_timestamp associated to the sbt"
        }
      },
      "getTokenAddress(uint256)": {
        "params": {
          "tokenId": "is the id of the sbt"
        },
        "returns": {
          "_0": "_tokenAddress associated to the sbt"
        }
      },
      "getTokenURI(uint256)": {
        "params": {
          "tokenId": "is the id of the sbt"
        },
        "returns": {
          "_0": "_tokenURI associated to the sbt"
        }
      },
      "getZkProof(uint256)": {
        "params": {
          "tokenId": "is the id of the sbt"
        },
        "returns": {
          "_0": "_zkProof associated to the sbt"
        }
      },
      "mint(address,address,string,bytes32,string)": {
        "params": {
          "merkleRoot": "is the merkle root of the addresses (to ensure that the addresses have not been modified)",
          "receiver": "is the address of the receiver of the sbt",
          "token": "is the address of the token that is linked to the sbt",
          "tokenURI": "is the uri where we can get the addresses used to generate the proof (stored on ipfs)",
          "zkProof": "is the zk proof generated in the frontend (which has been verified by the verifier) mint a new sbt"
        }
      },
      "name()": {
        "details": "See {IERC721Metadata-name}."
      },
      "ownerOf(uint256)": {
        "details": "See {IERC721-ownerOf}."
      },
      "safeTransferFrom(address,address,uint256)": {
        "params": {
          "from": "is the current owner of the NFT",
          "to": "is the new owner of the NFT",
          "tokenId": "is the NFT to transfer safeTransferFrom and transferFrom are disabled because the nft is a sbt"
        }
      },
      "safeTransferFrom(address,address,uint256,bytes)": {
        "details": "See {IERC721-safeTransferFrom}."
      },
      "supportsInterface(bytes4)": {
        "details": "See {IERC165-supportsInterface}."
      },
      "symbol()": {
        "details": "See {IERC721Metadata-symbol}."
      },
      "tokenURI(uint256)": {
        "details": "See {IERC721Metadata-tokenURI}."
      },
      "transferFrom(address,address,uint256)": {
        "details": "See {IERC721-transferFrom}."
      }
    },
    "version": 1
  },
  "userdoc": {
    "kind": "user",
    "methods": {
      "approve(address,uint256)": {
        "notice": "approve is disabled because the nft is a sbt and cannot be transfered"
      },
      "getApproved(uint256)": {
        "notice": "getApproved is disabled because the nft is a sbt and cannot be transfered"
      },
      "isApprovedForAll(address,address)": {
        "notice": "isApprovedForAll is disabled because the nft is a sbt and cannot be transfered -> the output will always be false"
      },
      "setApprovalForAll(address,bool)": {
        "notice": "setApprovalForAll is disabled because the nft is a sbt and cannot be transfered"
      }
    },
    "version": 1
  }
}