{
  "contractName": "verifier",
  "abi": [
    {
      "inputs": [
        {
          "internalType": "address",
          "name": "temp_sbt",
          "type": "address"
        },
        {
          "internalType": "address",
          "name": "sbt",
          "type": "address"
        }
      ],
      "stateMutability": "nonpayable",
      "type": "constructor"
    },
    {
      "inputs": [
        {
          "internalType": "uint256",
          "name": "temp_sbt_id",
          "type": "uint256"
        },
        {
          "internalType": "string",
          "name": "zkProof",
          "type": "string"
        }
      ],
      "name": "verifyProof",
      "outputs": [
        {
          "internalType": "bool",
          "name": "",
          "type": "bool"
        }
      ],
      "stateMutability": "nonpayable",
      "type": "function"
    },
    {
      "inputs": [
        {
          "internalType": "uint256",
          "name": "temp_sbt_id",
          "type": "uint256"
        },
        {
          "internalType": "address[]",
          "name": "addresses",
          "type": "address[]"
        }
      ],
      "name": "sbtVerification",
      "outputs": [],
      "stateMutability": "nonpayable",
      "type": "function"
    },
    {
      "inputs": [
        {
          "internalType": "address[]",
          "name": "addresses",
          "type": "address[]"
        }
      ],
      "name": "buildRoot",
      "outputs": [
        {
          "internalType": "bytes32",
          "name": "",
          "type": "bytes32"
        }
      ],
      "stateMutability": "pure",
      "type": "function"
    },
    {
      "inputs": [
        {
          "internalType": "bytes32",
          "name": "root",
          "type": "bytes32"
        },
        {
          "internalType": "address[]",
          "name": "addresses",
          "type": "address[]"
        }
      ],
      "name": "verifyRoot",
      "outputs": [
        {
          "internalType": "bool",
          "name": "",
          "type": "bool"
        }
      ],
      "stateMutability": "pure",
      "type": "function"
    }
  ],
  "bytecode": "0x60806040523480156200001157600080fd5b50604051620014b9380380620014b983398181016040528101906200003791906200012a565b80600160006101000a81548173ffffffffffffffffffffffffffffffffffffffff021916908373ffffffffffffffffffffffffffffffffffffffff160217905550816000806101000a81548173ffffffffffffffffffffffffffffffffffffffff021916908373ffffffffffffffffffffffffffffffffffffffff160217905550505062000171565b600080fd5b600073ffffffffffffffffffffffffffffffffffffffff82169050919050565b6000620000f282620000c5565b9050919050565b6200010481620000e5565b81146200011057600080fd5b50565b6000815190506200012481620000f9565b92915050565b60008060408385031215620001445762000143620000c0565b5b6000620001548582860162000113565b9250506020620001678582860162000113565b9150509250929050565b61133880620001816000396000f3fe608060405234801561001057600080fd5b506004361061004c5760003560e01c80631d476e2f1461005157806327165d461461008157806377a3aefd1461009d578063ec0cf196146100cd575b600080fd5b61006b60048036038101906100669190610a46565b6100fd565b6040516100789190610abd565b60405180910390f35b61009b60048036038101906100969190610bfe565b610109565b005b6100b760048036038101906100b29190610c90565b610549565b6040516100c49190610abd565b60405180910390f35b6100e760048036038101906100e29190610cec565b61055e565b6040516100f49190610d44565b60405180910390f35b60006001905092915050565b60008060009054906101000a900473ffffffffffffffffffffffffffffffffffffffff1673ffffffffffffffffffffffffffffffffffffffff16630aab8ba5846040518263ffffffff1660e01b81526004016101659190610d6e565b602060405180830381865afa158015610182573d6000803e3d6000fd5b505050506040513d601f19601f820116820180604052508101906101a69190610d9e565b905060008060009054906101000a900473ffffffffffffffffffffffffffffffffffffffff1673ffffffffffffffffffffffffffffffffffffffff1663e0c6fa58856040518263ffffffff1660e01b81526004016102049190610d6e565b600060405180830381865afa158015610221573d6000803e3d6000fd5b505050506040513d6000823e3d601f19601f8201168201806040525081019061024a9190610e65565b905060008060009054906101000a900473ffffffffffffffffffffffffffffffffffffffff1673ffffffffffffffffffffffffffffffffffffffff16633bb3a24d866040518263ffffffff1660e01b81526004016102a89190610d6e565b600060405180830381865afa1580156102c5573d6000803e3d6000fd5b505050506040513d6000823e3d601f19601f820116820180604052508101906102ee9190610e65565b905060008060009054906101000a900473ffffffffffffffffffffffffffffffffffffffff1673ffffffffffffffffffffffffffffffffffffffff166367ccdf38876040518263ffffffff1660e01b815260040161034c9190610d6e565b602060405180830381865afa158015610369573d6000803e3d6000fd5b505050506040513d601f19601f8201168201806040525081019061038d9190610ec3565b905061039986846100fd565b6103d8576040517f08c379a00000000000000000000000000000000000000000000000000000000081526004016103cf90610f4d565b60405180910390fd5b6103e28486610549565b610421576040517f08c379a000000000000000000000000000000000000000000000000000000000815260040161041890610fdf565b60405180910390fd5b60008054906101000a900473ffffffffffffffffffffffffffffffffffffffff1673ffffffffffffffffffffffffffffffffffffffff166342966c68876040518263ffffffff1660e01b815260040161047a9190610d6e565b600060405180830381600087803b15801561049457600080fd5b505af11580156104a8573d6000803e3d6000fd5b50505050600160009054906101000a900473ffffffffffffffffffffffffffffffffffffffff1673ffffffffffffffffffffffffffffffffffffffff1663232b711733838588886040518663ffffffff1660e01b815260040161050f959493929190611052565b600060405180830381600087803b15801561052957600080fd5b505af115801561053d573d6000803e3d6000fd5b50505050505050505050565b6000826105558361055e565b14905092915050565b600080825167ffffffffffffffff81111561057c5761057b61091b565b5b6040519080825280602002602001820160405280156105aa5781602001602082028036833780820191505090505b50905060005b835181101561062c578381815181106105cc576105cb6110b3565b5b60200260200101516040516020016105e4919061112a565b6040516020818303038152906040528051906020012082828151811061060d5761060c6110b3565b5b602002602001018181525050808061062490611174565b9150506105b0565b506106368161063e565b915050919050565b600080825103610653576000801b90506108b1565b600182510361067f57816000815181106106705761066f6110b3565b5b602002602001015190506108b1565b60016002835161068f91906111eb565b03610795576000600183516106a4919061121c565b67ffffffffffffffff8111156106bd576106bc61091b565b5b6040519080825280602002602001820160405280156106eb5781602001602082028036833780820191505090505b50905060005b83518110156107475783818151811061070d5761070c6110b3565b5b6020026020010151828281518110610728576107276110b3565b5b602002602001018181525050808061073f90611174565b9150506106f1565b5082600184516107579190611250565b81518110610768576107676110b3565b5b602002602001015181845181518110610784576107836110b3565b5b602002602001018181525050809250505b6000600283516107a59190611284565b67ffffffffffffffff8111156107be576107bd61091b565b5b6040519080825280602002602001820160405280156107ec5781602001602082028036833780820191505090505b50905060005b83518110156108a35783818151811061080e5761080d6110b3565b5b602002602001015184600183610824919061121c565b81518110610835576108346110b3565b5b602002602001015160405160200161084e9291906112d6565b60405160208183030381529060405280519060200120826002836108729190611284565b81518110610883576108826110b3565b5b60200260200101818152505060028161089c919061121c565b90506107f2565b506108ad8161063e565b9150505b919050565b6000604051905090565b600080fd5b600080fd5b6000819050919050565b6108dd816108ca565b81146108e857600080fd5b50565b6000813590506108fa816108d4565b92915050565b600080fd5b600080fd5b6000601f19601f8301169050919050565b7f4e487b7100000000000000000000000000000000000000000000000000000000600052604160045260246000fd5b6109538261090a565b810181811067ffffffffffffffff821117156109725761097161091b565b5b80604052505050565b60006109856108b6565b9050610991828261094a565b919050565b600067ffffffffffffffff8211156109b1576109b061091b565b5b6109ba8261090a565b9050602081019050919050565b82818337600083830152505050565b60006109e96109e484610996565b61097b565b905082815260208101848484011115610a0557610a04610905565b5b610a108482856109c7565b509392505050565b600082601f830112610a2d57610a2c610900565b5b8135610a3d8482602086016109d6565b91505092915050565b60008060408385031215610a5d57610a5c6108c0565b5b6000610a6b858286016108eb565b925050602083013567ffffffffffffffff811115610a8c57610a8b6108c5565b5b610a9885828601610a18565b9150509250929050565b60008115159050919050565b610ab781610aa2565b82525050565b6000602082019050610ad26000830184610aae565b92915050565b600067ffffffffffffffff821115610af357610af261091b565b5b602082029050602081019050919050565b600080fd5b600073ffffffffffffffffffffffffffffffffffffffff82169050919050565b6000610b3482610b09565b9050919050565b610b4481610b29565b8114610b4f57600080fd5b50565b600081359050610b6181610b3b565b92915050565b6000610b7a610b7584610ad8565b61097b565b90508083825260208201905060208402830185811115610b9d57610b9c610b04565b5b835b81811015610bc65780610bb28882610b52565b845260208401935050602081019050610b9f565b5050509392505050565b600082601f830112610be557610be4610900565b5b8135610bf5848260208601610b67565b91505092915050565b60008060408385031215610c1557610c146108c0565b5b6000610c23858286016108eb565b925050602083013567ffffffffffffffff811115610c4457610c436108c5565b5b610c5085828601610bd0565b9150509250929050565b6000819050919050565b610c6d81610c5a565b8114610c7857600080fd5b50565b600081359050610c8a81610c64565b92915050565b60008060408385031215610ca757610ca66108c0565b5b6000610cb585828601610c7b565b925050602083013567ffffffffffffffff811115610cd657610cd56108c5565b5b610ce285828601610bd0565b9150509250929050565b600060208284031215610d0257610d016108c0565b5b600082013567ffffffffffffffff811115610d2057610d1f6108c5565b5b610d2c84828501610bd0565b91505092915050565b610d3e81610c5a565b82525050565b6000602082019050610d596000830184610d35565b92915050565b610d68816108ca565b82525050565b6000602082019050610d836000830184610d5f565b92915050565b600081519050610d9881610c64565b92915050565b600060208284031215610db457610db36108c0565b5b6000610dc284828501610d89565b91505092915050565b60005b83811015610de9578082015181840152602081019050610dce565b60008484015250505050565b6000610e08610e0384610996565b61097b565b905082815260208101848484011115610e2457610e23610905565b5b610e2f848285610dcb565b509392505050565b600082601f830112610e4c57610e4b610900565b5b8151610e5c848260208601610df5565b91505092915050565b600060208284031215610e7b57610e7a6108c0565b5b600082015167ffffffffffffffff811115610e9957610e986108c5565b5b610ea584828501610e37565b91505092915050565b600081519050610ebd81610b3b565b92915050565b600060208284031215610ed957610ed86108c0565b5b6000610ee784828501610eae565b91505092915050565b600082825260208201905092915050565b7f50726f6f66206973206e6f742076616c69640000000000000000000000000000600082015250565b6000610f37601283610ef0565b9150610f4282610f01565b602082019050919050565b60006020820190508181036000830152610f6681610f2a565b9050919050565b7f4d65726b6c6520726f6f7420646f6573206e6f7420636f72726573706f6e642060008201527f746f207468652061646472657373657300000000000000000000000000000000602082015250565b6000610fc9603083610ef0565b9150610fd482610f6d565b604082019050919050565b60006020820190508181036000830152610ff881610fbc565b9050919050565b61100881610b29565b82525050565b600081519050919050565b60006110248261100e565b61102e8185610ef0565b935061103e818560208601610dcb565b6110478161090a565b840191505092915050565b600060a0820190506110676000830188610fff565b6110746020830187610fff565b81810360408301526110868186611019565b90506110956060830185610d35565b81810360808301526110a78184611019565b90509695505050505050565b7f4e487b7100000000000000000000000000000000000000000000000000000000600052603260045260246000fd5b60008160601b9050919050565b60006110fa826110e2565b9050919050565b600061110c826110ef565b9050919050565b61112461111f82610b29565b611101565b82525050565b60006111368284611113565b60148201915081905092915050565b7f4e487b7100000000000000000000000000000000000000000000000000000000600052601160045260246000fd5b600061117f826108ca565b91507fffffffffffffffffffffffffffffffffffffffffffffffffffffffffffffffff82036111b1576111b0611145565b5b600182019050919050565b7f4e487b7100000000000000000000000000000000000000000000000000000000600052601260045260246000fd5b60006111f6826108ca565b9150611201836108ca565b925082611211576112106111bc565b5b828206905092915050565b6000611227826108ca565b9150611232836108ca565b925082820190508082111561124a57611249611145565b5b92915050565b600061125b826108ca565b9150611266836108ca565b925082820390508181111561127e5761127d611145565b5b92915050565b600061128f826108ca565b915061129a836108ca565b9250826112aa576112a96111bc565b5b828204905092915050565b6000819050919050565b6112d06112cb82610c5a565b6112b5565b82525050565b60006112e282856112bf565b6020820191506112f282846112bf565b602082019150819050939250505056fea264697066735822122009d30e008004898b9e66eb1bf4d9d9914ccbe8fdfc389567810192775c1b4f8464736f6c63430008110033",
  "immutableReferences": {},
  "source": "// license: MIT\r\n\r\npragma solidity ^0.8.17;\r\n\r\nimport \"./ISBT.sol\";\r\nimport \"./ITempSBT.sol\";\r\n\r\ncontract verifier {\r\n\r\n    ITempSBT _temp_sbt;\r\n    ISBT _sbt;\r\n\r\n    constructor(address temp_sbt, address sbt) {\r\n        _sbt = ISBT(sbt);\r\n        _temp_sbt = ITempSBT(temp_sbt);\r\n\r\n    }\r\n\r\n\r\n    function verifyProof(uint256 temp_sbt_id, string memory zkProof) public returns (bool) {\r\n        // a coder avec le verifier de zokrates\r\n        return true;\r\n    }\r\n\r\n    function sbtVerification(uint256 temp_sbt_id, address[] memory addresses) public {\r\n        \r\n        // get data from temp_sbt\r\n        bytes32 merkleRoot = _temp_sbt.getMerkleRoot(temp_sbt_id);\r\n        string memory zkProof = _temp_sbt.getZkProof(temp_sbt_id);\r\n        string memory tokenURI = _temp_sbt.getTokenURI(temp_sbt_id);\r\n        address tokenAddress = _temp_sbt.getTokenAddress(temp_sbt_id);\r\n\r\n        require(verifyProof(temp_sbt_id, zkProof), \"Proof is not valid\");\r\n        require(verifyRoot(merkleRoot, addresses), \"Merkle root does not correspond to the addresses\");\r\n\r\n        // burn temp_sbt\r\n        _temp_sbt.burn(temp_sbt_id);\r\n\r\n        // mint sbt\r\n        _sbt.mint(msg.sender, tokenAddress, tokenURI, merkleRoot, zkProof);\r\n\r\n    }\r\n\r\n\r\n    // merkle tree functions\r\n\r\n    // build root from a list of addresses\r\n    function buildRoot(address[] memory addresses) public pure returns (bytes32) {\r\n        bytes32[] memory leaves = new bytes32[](addresses.length);\r\n        for (uint i = 0; i < addresses.length; i++) {\r\n            leaves[i] = keccak256(abi.encodePacked(addresses[i]));\r\n        }\r\n        return buildRootFromLeaves(leaves);\r\n    }\r\n\r\n    // build root from a list of leaves\r\n    function buildRootFromLeaves(bytes32[] memory leaves) private pure returns (bytes32) {\r\n        if (leaves.length == 0) {\r\n            return 0x0;\r\n        }\r\n        if (leaves.length == 1) {\r\n            return leaves[0];\r\n        }\r\n        if (leaves.length % 2 == 1) {\r\n            bytes32[] memory tmp = new bytes32[](leaves.length + 1);\r\n            for (uint i = 0; i < leaves.length; i++) {\r\n                tmp[i] = leaves[i];\r\n            }\r\n            tmp[leaves.length] = leaves[leaves.length - 1];\r\n            leaves = tmp;\r\n        }\r\n        bytes32[] memory parents = new bytes32[](leaves.length / 2);\r\n        for (uint i = 0; i < leaves.length; i += 2) {\r\n            parents[i / 2] = keccak256(abi.encodePacked(leaves[i], leaves[i + 1]));\r\n        }\r\n        return buildRootFromLeaves(parents);\r\n    }\r\n\r\n    // check if a merkle root is valid\r\n    function verifyRoot(bytes32 root, address[] memory addresses) public pure returns (bool) {\r\n        return buildRoot(addresses) == root;\r\n    }\r\n    \r\n\r\n    \r\n}",
  "sourcePath": "C:\\Users\\hervi\\Documents\\Blockchain Projects\\ETHDenver2023\\Smart-contract\\truffle\\contracts\\verifier.sol",
  "compiler": {
    "name": "solc",
    "version": "0.8.17+commit.8df45f5f.Emscripten.clang"
  },
  "schemaVersion": "3.4.12",
  "updatedAt": "2023-02-25T22:35:32.809Z",
  "devdoc": {
    "kind": "dev",
    "methods": {},
    "version": 1
  },
  "userdoc": {
    "kind": "user",
    "methods": {},
    "version": 1
  }
}